:020000040000FA
:080FF8000080070000E0070083
:020000040007F3
:10800000A89D0020DD830700E5830700E7830700C4
:10801000E9830700EB830700ED8307000000000001
:10802000000000000000000000000000C9830700FD
:10803000F183070000000000F3830700F5830700C9
:10804000F7830700F7830700F7830700F78307002C
:10805000F7830700F7830700F7830700F78307001C
:10806000F7830700F7830700F7830700F78307000C
:10807000F7830700F7830700F7830700F7830700FC
:1080800071970700F7830700F7830700F78307005E
:10809000F7830700F7830700B9940700F783070009
:1080A000F7830700F7830700F7830700F7830700CC
:1080B000F7830700F78307000000000000000000BE
:1080C000F7830700F7830700F7830700F7830700AC
:1080D00045940700F7830700F783070000000000BE
:1080E0000000000000000000000000000000000090
:1080F0000000000000000000000000000000000080
:10810000000000000000000000000000000000006F
:10811000000000000000000000000000000000005F
:10812000000000000000000000000000000000004F
:10813000000000000000000000000000000000003F
:10814000000000000000000000000000000000002F
:10815000000000000000000000000000000000001F
:10816000000000000000000000000000000000000F
:1081700000000000000000000000000000000000FF
:1081800000000000000000000000000000000000EF
:1081900000000000000000000000000000000000DF
:1081A00000000000000000000000000000000000CF
:1081B00000000000000000000000000000000000BF
:1081C00000000000000000000000000000000000AF
:1081D000000000000000000000000000000000009F
:1081E000000000000000000000000000000000008F
:1081F000000000000000000000000000000000007F
:10820000DFF80CD000F03CF900480047E9A6070071
:10821000A89D002080F308888E46104730B450E8AF
:10822000012F93B2C48923448489A34228BF1B1B16
:108230000489A34202BFBFF32F8F002007E0C3EAE7
:10824000020340E80134002CE9D14FF001000A603C
:1082500030BC704750E8012FC2EA024240E80121D9
:108260000029F7D1704730B450E8022F1FFAA2F36B
:10827000C488A34202BFBFF32F8F00200DE0C48942
:1082800023448489A34228BF1B1BC2EA034340E85E
:108290000234002CE8D14FF001000A6030BC704776
:1082A00050E8022FC2EA224240E802210029F7D119
:1082B0007047034653E8022FD988B2EB324F4FF094
:1082C000000017BF92B241EA014142EA014104E0D5
:1082D0005A68B2EB324F08BF012043E80212002A6D
:1082E000E8D1704730B4044654E8000F0D4644E826
:1082F0000053002BF8D1156030BC704730B40446F1
:1083000054E8000F40EA010544E80053002BF7D180
:10831000156030BC704730B4044654E8000F00EAE2
:10832000010544E80053002BF7D1156030BC7047BD
:1083300030B4044654E8000F80EA010544E80053D5
:10834000002BF7D1156030BC704730B4044654E8B8
:10835000000F00EB010544E80053002BF7D1156036
:1083600030BC704730B4044654E8000FA0EB010560
:1083700044E80053002BF7D1156030BC704770B44F
:1083800004464FF0000054E8006F0D68AE4207BF8E
:1083900044E80023012044E800630E60002B1CBF6A
:1083A0000020F0E770BC704730B4044654E8000F7A
:1083B00088422CBF451A054644E80053002BF5D1EE
:1083C000156030BC704700001EF0040F0CBFEFF3C7
:1083D0000880EFF3098003F073BC00000648804773
:1083E00006480047FEE7FEE7FEE7FEE7FEE7FEE79A
:1083F000FEE7FEE7FEE7FEE7BD9407000182070007
:10840000202A04DB203A00FA02F100207047914054
:10841000C2F1200320FA03F319439040704740EA69
:1084200001039B0703D009E008C9121F08C0042AF2
:10843000FAD203E011F8013B00F8013B521EF9D2D9
:108440007047D2B201E000F8012B491EFBD2704701
:108450000022F6E710B513460A4604461946FFF710
:10846000F0FF204610BD30B504460020034600E072
:108470005B1C934203D2E05CCD5C401BF8D030BD66
:10848000064C074D06E0E06840F0010394E8070061
:1084900098471034AC42F6D3FFF7B6FE7CDA0700FB
:1084A0009CDA07002DE9F0438BB01446129D15F9B4
:1084B000046B00961F46804689462B46024621469D
:1084C00002A800F08DFC02A9129A084600F084FC74
:1084D000129B02AA4146404600F06EFC129B02AA83
:1084E0002146204600F068FC2B464A46394638466D
:1084F000009600F075FC129A394602A800F06CFC58
:1085000002A92B4642460846009600F069FC02A9E3
:108510002B4622460846009600F062FC2B46424657
:1085200021462046009600F05BFC129B22464946FD
:10853000484600F041FC2B4602AA414620460096E0
:1085400000F04EFC129B22463946384600F034FCBF
:108550002B464A4639463846009600F041FC3246E2
:1085600002A9204600F004FE0BB0BDE8F083F0B590
:10857000154689B01C4607460E461A4629466846E7
:1085800000F02AFC23466A463946384600F014FCBF
:1085900023462A466946684600F00EFC23466A4692
:1085A0003146304600F008FC09B0F0BD8B1802449B
:1085B0008B4200D1704713F8010D02F8010DF7E767
:1085C0002DE9F0471F46B3F90230894613F11F0128
:1085D00048BF03F13E014D11D91D48BF03F10E0103
:1085E000CC1094424FFA85F828BF144641460646FF
:1085F00000F074FA22464946FFF7D8FFB7F9022087
:10860000E40094421FD9A41A06EB85010022C4F1AC
:1086100020058E420ED3243742463146384600F0BC
:1086200068FA01280FD043463A463046BDE8F04785
:1086300000F0AEBD51F8040D20FA04F313430B60B3
:1086400000FA05F2E5E7BDE8F0872DE9F04793F978
:10865000006092B004468946104631461546984659
:1086600000F05CFA002840F091804246494602A89A
:1086700000F0B2FB434602AA21460AA800F09CFB88
:1086800002A90846424600F0A7FB43462A4649464F
:10869000484600F091FB08F1040742462946284667
:1086A00000F09AFB3B462A4621462046009600F001
:1086B00044FA3B462A4629462846009600F03DFAF1
:1086C0003B462A4621462846009600F089FB434651
:1086D0002A462146204600F06FFB3B4622462146B3
:1086E0002846009600F029FA3B4600962A46214685
:1086F000204600F022FA2368DB074AD533463A4683
:108700002146204600F0BCF931468246204600F062
:1087100022FD06F18043013B54F8230040EACA7071
:1087200044F8230042462146284600F055FB3B46CC
:108730000AAA29462846009600F052FB3B460AAAA0
:1087400029462846009600F04BFB0AA908463B46FE
:108750002A46009600F044FB43460AAA21462046DA
:1087600000F02AFB02AA3B4610462146009600F084
:1087700037FB32462946204600F0FAFC4946284697
:1087800000F0F6FC02A9484600F0F2FC12B0BDE889
:10879000F0873146204600F0DEFCC3E70048704712
:1087A000CCD907002DE9F04FEDB01F46769E04901E
:1087B000B6F9023096F9004013F11F0948BF03F1E2
:1087C0003E0949F3471909F1FF3824AB002543F866
:1087D00028506CAB03EB88034CA88A469346394675
:1087E00096F9012043F8805C43F8605CFFF7DEFEF9
:1087F00096F9012054A8B918FFF7D8FE21464CA8D5
:1088000000F08CF90746002840F02D8154A800F0B4
:1088100085F90290002840F0288106F124034A4699
:108820004CA91846039300F064F9012840F01F8119
:108830004A4654A9039800F05CF90128069040F0DC
:1088400016811CAD0CAF4B46039A54A9284600F084
:108850008DF9029B47F828305A4651463846334630
:10886000FFF7AEFE39463846039BCDF800902A4606
:1088700000F0FFF90DF5B878039BCDF800902A467B
:108880004CA914A800F0F5F922464046049900F0DE
:108890006FFCA30008EB030A0793049BA10059187F
:1088A00006F1440B504600F063FC594634A800F032
:1088B0005FFCA3000BEB03013CA800F059FC331D47
:1088C000414634AA28460094059300F089FA53469D
:1088D00042463CA934A80096FFF7E4FD2346321D2A
:1088E0002946284600F042F92A465146404633467A
:1088F000FFF73DFE029BCDE9083B049B4946384605
:10890000CDE90A3800F007FC4946804614A800F07B
:1089100002FC8045B8BF80461FFA88F808F1FF3B8B
:108920000FFA8BFB5946384600F062FC5946071C8B
:1089300014A818BF012700F05BFC002814BF022315
:1089400000231F430DF1200A22465AF8277024A85D
:10895000394600F00DFC0DF1B00BA300F918584694
:1089600000F006FC2146284600F0B8F8A8F10208FD
:10897000069B2B600FFA88F80DF1900AB8F1000FF2
:1089800023DA2346059A2946284600F0EFF83346B5
:108990002A4659465046FFF7EAFD4A465146039893
:1089A00000F0A7F8012804D04B46039A504600F087
:1089B000EFFB013C64B24CAA23064AD5029BB3FAF2
:1089C00083F040096DB0BDE8F08F33462A46D6F8F3
:1089D000A47059465046B84741460CA800F008FC20
:1089E0004146071C14A818BF012700F001FC00280D
:1089F00014BF022300231F4308AB53F827701FB393
:108A00002246394634A800F0B3FB079B3CA8F9186E
:108A100000F0AEFB33462A463CA934A8FFF7A7FD79
:108A2000059B009434AA514644A800F0D9F95B464E
:108A300052463CA934A80096FFF734FD334644AAB9
:108A40002946284600F0B8F908F1FF380FFA88F8EF
:108A500094E752F824105AF824304B4002991943F5
:108A60000291013CA8E72846ACE73846AAE70298FD
:108A7000A8E7000000000000000000000000000067
:108A8000C3F10803DB0070B50133002403A500BF68
:108A90005B1920C940CAAD1920C0184720C940CA77
:108AA000754120C020C940CA754120C020C940CAB4
:108AB000754120C020C940CA754120C020C940CAA4
:108AC000754120C020C940CA754120C020C940CA94
:108AD000754120C06441204670BD00BF002310B521
:108AE0001C465AB2914200DC10BD40F823400133CD
:108AF000F7E710B5013A52B2130601D5002010BDB8
:108B000050F8224051F822309C4205D802F1FF3241
:108B1000F2D24FF0FF30F2E70120F0E710B500236A
:108B20001A465CB2A14203DCB2FA82F0400910BDE1
:108B300050F8234001332243F3E770B59DF910400C
:108B40001E4623460546FFF79BFF30B922462946BD
:108B50003046FFF7CEFF012807D02346324629468C
:108B60002846BDE8704000F013BB70BDF0B50F465D
:108B7000A1B006461946384615461C46FFF7CEFFFB
:108B800020B13046FFF7AAFF21B0F0BD224639469A
:108B9000684600F0EDFA294608A800F0E9FA10A8A6
:108BA0002146FFF79BFF012318A81093FFF796FFBC
:108BB000224608A96846FFF79CFF28B9224610A95B
:108BC000304600F0D5FADFE7009BDA0709D42146EA
:108BD000684600F0C0FA2246294610A800F0E8FBDB
:108BE000E6E7089BDB0707D4214608A800F0B3FAA4
:108BF0002246294618A8F1E7002823461CDD08AACA
:108C00006946684600F0C4FA2146684600F0A3FAB7
:108C1000224618A910A8FFF76CFF002805DA10A952
:108C200023462A460846FFF72BFF10A9234618AA19
:108C3000084600F0ADFACEE708A96A46084600F0FB
:108C4000A7FA214608A800F086FA224610A918A81B
:108C5000FFF74FFF002805DA18A923462A460846E1
:108C6000FFF70EFF18A9234610AA084600F090FA55
:108C7000BEE72DE9F04FB5B004AC9DF9F8501F46A2
:108C800081462B46204600F0BDF824AB29463846E5
:108C9000CDE9023400F03FFAC0EB851004B2002C9D
:108CA0002646B8BF04F11F06634246F3471603F099
:108CB0001F0304F01F0814A858BFC3F10008314671
:108CC000FFF70CFFB8F1000F30B22DDD14AB00221E
:108CD00003EB8000C8F1200C1346AB4219D32FB22E
:108CE0007B00019314AB03EB870705F1FF3834AB2E
:108CF000012603EB8808002C54DA34AB03EB86061C
:108D00002A4656F8C81C484600F032FA35B0BDE88D
:108D1000F08F57F8236006FA08F10A4340F8042B55
:108D2000013326FA0CF2D8E714AB2A46394603EB96
:108D3000800000F01DFAD2E70FFA82FE5AF8C83C14
:108D400053F82EB034AB03EB8202013052F8803C72
:108D50000B44BBEB030334BF012200229B4518BF29
:108D600011465CF8C82C42F82E30019B42B29A4260
:108D7000E2DB731A5E42294614A85E4100F0EBF96B
:108D800034AB03EB8503294653F8802C58F8803C1C
:108D9000384643EAC273013C48F8803C24B200F0F4
:108DA000DAF9A8E734AB0020C6F1010C014603EB69
:108DB000860A03EB8C0CD8E730B51C4691B005460B
:108DC00093F90030684600F01DF8D4F8AC306946DD
:108DD0002846984711B030BD13460A46FFF7ECBF4E
:108DE00070B59DF910401E462346054600F0D0F9A7
:108DF00038B12346324629462846BDE87040FFF781
:108E00003FBE70BD2DE9F04F08B4F8CA04B451F864
:108E1000042BA3FB028940F8048B4FF0000AE4FB0B
:108E2000629A4FF0000BE5FB62AB4FF0000CE6FBE3
:108E300062BC4FF0000EE7FB62CE51F8042B4FF0FE
:108E40000008E3FB628940F8048BE4FB629AE5FBCF
:108E500062ABE6FB62BCE7FB62CE51F8042B4FF03D
:108E60000008E3FB628940F8048BE4FB629AE5FBAF
:108E700062ABE6FB62BCE7FB62CE51F8042B4FF01D
:108E80000008E3FB628940F8048BE4FB629AE5FB8F
:108E900062ABE6FB62BCE7FB62CE51F8042B4FF0FD
:108EA0000008E3FB628940F8048BE4FB629AE5FB6F
:108EB00062ABE6FB62BCE7FB62CE40F8049B40F885
:108EC00004AB40F804BB40F804CB40F804EB0CBC06
:108ED000052B00F01E810C68A0F11400A1F1140113
:108EE000A2F1140252F804EB4FF0000550F8046BA5
:108EF000E4FB6E5652F804EB50F8047BE4FB6E671B
:108F000052F804EB50F8048BE4FB6E7852F804EB53
:108F100050F8049BE4FB6E8952F804EB50F804AB64
:108F2000E4FB6E9AA0F1140052F8044B51F804EBE4
:108F30004FF0000CE4FB6EC540F804CB51F804EB95
:108F4000E4FB6E5640F8045B51F804EBE4FB6E67FB
:108F500040F8046B51F804EBE4FB6E7840F8047BB6
:108F600051F804EBE4FB6E8940F8048B51F804EBF4
:108F7000E4FB6E9AA0E80006062B00F0CA800C689D
:108F8000A0F11800A1F11801A2F1180252F804EBA7
:108F90004FF0000550F8046BE4FB6E5652F804EBFA
:108FA00050F8047BE4FB6E6752F804EB50F8048B36
:108FB000E4FB6E7852F804EB50F8049BE4FB6E89F6
:108FC00052F804EB50F804ABE4FB6E9A52F804EB51
:108FD00050F804BBE4FB6EABA0F1180052F8044B50
:108FE00051F804EB4FF0000CE4FB6EC540F804CBE5
:108FF00051F804EBE4FB6E5640F8045B51F804EBC7
:10900000E4FB6E6740F8046B51F804EBE4FB6E7808
:1090100040F8047B51F804EBE4FB6E8940F8048BC4
:1090200051F804EBE4FB6E9A40F8049B51F804EB12
:10903000E4FB6EABA0E8000C072B6AD008B40C6808
:10904000A0F11C00A1F11C01A2F11C0252F804EBDA
:109050004FF0000550F8046BE4FB6E5652F804EB39
:1090600050F8047BE4FB6E6752F804EB50F8048B75
:10907000E4FB6E7852F804EB50F8049BE4FB6E8935
:1090800052F804EB50F804ABE4FB6E9A52F804EB90
:1090900050F804BBE4FB6EAB52F804EB50F804CB81
:1090A000E4FB6EBCA0F11C0052F8044B51F804EB39
:1090B0004FF00003E4FB6E3540F8043B51F804EB3D
:1090C000E4FB6E5640F8045B51F804EBE4FB6E677A
:1090D00040F8046B51F804EBE4FB6E7840F8047B35
:1090E00051F804EBE4FB6E8940F8048B51F804EB73
:1090F000E4FB6E9A40F8049B51F804EBE4FB6EAB82
:1091000040F804AB51F804EBE4FB6EBCA0E8001897
:1091100008BCBDE8F08F013910B549B2041D0A063C
:10912000CBB204D4013954F82120002AF7D00133FE
:109130005BB273B103F18042013A50F82220002063
:1091400022B9013B00EB431318B210BD52080130A5
:10915000F6E71846F9E700EB81010023884200D3C7
:10916000704751F8042D43EA52030B60D307F5E72B
:1091700010B500235CB2A24200DC10BD51F82340C0
:1091800040F823400133F5E7000000000000000034
:10919000C3F10803DB0070B50133002403A500BF51
:1091A0005B1920C940CAAD1B20C0184720C940CA5E
:1091B000B54120C020C940CAB54120C020C940CA1D
:1091C000B54120C020C940CAB54120C020C940CA0D
:1091D000B54120C020C940CAB54120C020C940CAFD
:1091E000B54120C06441B4FA84F0400970BD00BFAD
:1091F0004A11012350F8220001F01F0103FA01F186
:1092000008407047F0B5082289B00C460646FFF7C3
:10921000AFFFCB6A03930B6B04934B6B05938B6B84
:109220000693CB6B0793002708236A466946684676
:10923000CDE901770097FFF723FC082305466A462E
:1092400031463046FFF71CFC236B0393636B04939A
:10925000A36B0593E36B0544CDE906376A46082303
:1092600069466846FFF70CFC082305446A46314608
:109270003046FFF705FC236A0093636A0193A36AF3
:109280000293A36B0693E36B0793054408236A4696
:1092900031463046CDE904770397FFF7F1FB636A67
:1092A0000093A36AA26B0193E36A02930492636B37
:1092B000E26B0393CDE90523236A07930544082352
:1092C0006A4631463046FFF7DBFBE36A0093236BC7
:1092D0000193636B0293236A0693A36A0793054481
:1092E00008236A4631463046CDE904770397FFF7F5
:1092F0004FFF236B0093636B0193A36B0293E36BAC
:109300000393636A0693E36A07932D1A08236A4658
:1093100031463046CDE90477FFF73AFF636B00939F
:10932000A36B0193E36B0293236A0393636A049331
:10933000A36ACDE90537236B07932D1A08236A46E4
:1093400031463046FFF724FFA36B0093E36BCDE972
:109350000137636A0393A36A0493E36ACDE905378F
:10936000636B07932D1A08236A4631463046FFF790
:109370000FFF2D1A0D4C0FD435B908223146204667
:10938000FFF7B7FB01280FD00823224631463046AD
:10939000FFF7FEFE2D1AEFE708232246314630463E
:1093A000FFF76EFB2D18F7D409B0F0BDD0D9070038
:1093B00070B5036813F001050646144605D0134640
:1093C0000A460146FFF75CFB054621463046FFF79B
:1093D000C2FE45B104F18042013A56F8223043F012
:1093E000004346F8223070BD2DE9F04115468AB0A1
:1093F000044688461C22002103A8FFF72BF82E1DE7
:1094000095F9007003232A46414620460293FFF750
:10941000E3FC334602AA214620460097FFF7E0FC12
:109420002B46424621462046FFF7C6FC00973346AE
:1094300005F1840221462046FFF77FFB0AB0BDE814
:10944000F08100002DE9F041194E4FF48271D6F8F9
:10945000040130B11748C268521CC260304602F0A5
:10946000C7FA00254FF4A07707EB85018AB2304692
:10947000B258BAB189B202F0BBFA0E48103000EB14
:109480000514204603F0E8FE616819B1204603F098
:109490006BFE07E0A16811B1204603F065FE20686D
:1094A00000B180476D1C022DDED3BDE8F0810000C5
:1094B00000400240C057002002F096BBF0B59E4825
:1094C0000126021D01780024101D330706290BD147
:1094D00015782D0708D10578C5F30315032D06D09F
:1094E000042D04D0052D02D0062907D00EE0B3F8D4
:1094F0002453924FC5F304253D6002E015782D07F3
:1095000004D10578C5F30315032D02D0062904D034
:109510000FE08C4F8A4D7D670EE015782D0708D13E
:109520000578C5F30315032D06D0042D04D0052DB1
:1095300002D0062907D00EE0D3F84452824FC5F37B
:1095400042353D6002E015782D0704D10578C5F35A
:109550000315032D02D0062906D011E07B4D2F689C
:1095600027F080772F600EE015782D0708D1057859
:10957000C5F30315032D06D0042D04D0052D02D00C
:1095800006290AD011E04FF08045C5F80C41C5F816
:1095900010416D4D2D1F2C6002E015782D0704D170
:1095A0000578C5F30315032D02D0062905D00CE07C
:1095B000654F032564373D600AE015782D0704D117
:1095C0000578C5F30315032D02D006290DD014E04C
:1095D0005F4F05253D605E4D78352E605C4D08354A
:1095E0002C603F242D1F2C6002E01478240704D146
:1095F0000478C4F30314052C02D0062957D062E086
:10960000544C2468544D2C60524C241D24682D1D4C
:109610002C60504C083424682D1D2C604D4C0C34AB
:1096200024682D1D2C604B4C103424682D1D2C609B
:10963000484C143424682D1D2C60464C1834246882
:10964000454D20352C60434C1C3424682D1D2C6066
:10965000404C203424682D1D2C603E4C243424685A
:109660002D1D2C603B4C283424682D1D2C60394C5A
:109670002C3424682D1D2C60364C30342468364D33
:1096800040352C60334C343424682D1D2C60314C13
:10969000383424682D1D2C602E4C3C3424682D1D3C
:1096A0002C602C4C403424682D1D2C6002E0147872
:1096B000240708D10478C4F30314032C06D0042C27
:1096C00004D0052C02D0062907D019E0D3F858128F
:1096D000224A01F04F01116002E0117809070FD111
:1096E0000078C0F30310032803D0042801D0052814
:1096F00006D11B480168C90702D06FF00101016063
:10970000D3F83001062808D1D3F83401062804D153
:109710001448016841F4806101600C4874380168A4
:1097200041F470010160BFF34F8FBFF36F8F0F499A
:109730000D480860F0BD0000E00F00F0403501402A
:109740000DF0ADBA00C007403C050040FCED00E064
:10975000105600400404001020C50040E40E0040F4
:10976000000400403C1700400090D00358580020EF
:10977000034808B5002101600068009008BD0000A2
:109780000001014002E008C8121F08C1002AFAD1F6
:1097900070477047002001E001C1121F002AFBD171
:1097A000704700000121202803DA8140054801406C
:1097B00003E0402802DA2038814009B101207047D7
:1097C00000207047FC06FFBD800701D000207047D5
:1097D00001207047C3688B4206D811440069491EB6
:1097E000814201D8012070470020704730B585B014
:1097F0000D46164C1621ADF800101ECC0DF1040CD0
:109800008CE81E00124C0221012221706270A070AF
:109810000320E070217159206071FE20A07169461B
:1098200004F109007DDF00280ED1BDF800002A46B2
:10983000411CE17109212172BDF808100844ADF8FE
:10984000080001A9034872DF05B030BD80D60700CB
:10985000905C0020F857002010B586B0062418222E
:1098600008496846FEF7DBFD69462046FFF7BEFF64
:10987000002805D1044C207874DF0121207873DFA3
:1098800006B010BD90D60700F857002070B5104CF8
:10989000A66C656A01F0C2FA216B08446A1A314469
:1098A000814200D10022082300F058FE06000DD1AD
:1098B00001F0B4FA0022294600F0B2FBA16A81420D
:1098C00003D10121A561C4E90701304670BD000044
:1098D0002874002002F036FB02F034FB2DE9F84F2B
:1098E000254C8146924660880E46814241D8002729
:1098F0004FF6FF788DF80070684600F075F8227812
:109900006078A188884201DA401C00E00020C0B2E3
:10991000904204D19DF8000000F08AF827E06578B5
:109920006078884201DA401C00E0002060709DF8F9
:10993000000000F07DF8454519D0A068B9F1000F8E
:1099400040F835A00DD066B16188E068324605FB6D
:1099500001004946FEF763FDA06800EBC500868064
:1099600002E000EBC50087800020BDE8F88F0420EE
:10997000FBE70920F9E700003858002010B50E4C2D
:1099800003E0401C00E000202070207861788142D4
:1099900010D022786188E068A36802FB010003EB25
:1099A000C20153F83220898890472078A1888842E4
:1099B000E9DAE6E710BD00003858002030B5CB00EA
:1099C00008339DB293074FF0000401D0072030BD4B
:1099D000044B9A602A44DA605C701C70588099804D
:1099E000002030BD3858002030B5EFF3108172B63A
:1099F0000D4A9468012324B10370002900D162B696
:109A000030BD93604FF0E023D3F88051074C2540E0
:109A10001560C3F88041D3F8844154605A17C3F8E5
:109A2000842100220270E8E79C7B0020FC06FFBD39
:109A30000B498A68002A11D000280FD1EFF310805B
:109A400072B60B684FF0E022C2F800314B68C2F8E2
:109A5000043100228A60002800D162B670470000FD
:109A60009C7B002070B5164E154856F8245F846C18
:109A7000B168AC2901D024B111E0406B04442D1A27
:109A800005E001F0DFF90446B068AC2807D12A46AA
:109A9000A4F580410B48FEF7E6FC00280ED02A46CC
:109AA00021460848FEF7DFFC002807D001F02AF81D
:109AB00029462046BDE8704001F0E8BA70BD0000BC
:109AC000287400200080070030B504462C4995B06A
:109AD0004FF6FF70488001208DF812004FF6596054
:109AE000ADF81000224604A90120A8DF002844D1C7
:109AF000244B0FCB8DE80F00A11C684662DF0028C5
:109B00003BD120491C2260390BA8FEF788FC1E4D72
:109B1000142205F1C401A8681290A0788DF84A00BB
:109B20002868139006A8FEF77AFC12A8069013A8DE
:109B300007902088231D06AA0BA9AADF00281CD1A4
:109B40001C2205F1D8010BA8FEF769FCE868129009
:109B5000A0788DF84A0068681390142205F1F4018A
:109B600006A8FEF75CFC12A8069013A807902088B0
:109B700004F10C0306AA0BA9AADF15B030BD000042
:109B8000F857002058D7070050D60700F0B585B029
:109B9000044614216846FEF75BFC2078032308285E
:109BA0000BD12748C188491E89B2C1808288002A0A
:109BB0003ED000293CD1C280237021786078602299
:109BC0008DF800208DF801108DF8020060780321D7
:109BD00001280AD00B2828D100F06EFC8DF8030074
:109BE000002000F071FC04211FE0207809281CD21D
:109BF000DFE800F01B1B1B201B1B051B2000D4E90A
:109C000002706D46E91C666803F030FB04462919B2
:109C10003046C91C03F02AFB044429193846C91CE4
:109C200003F024FB2044C01CC1B2684602F07AFF56
:109C300005B0F0BDD4E90112684602F062FFF2E718
:109C4000F85700202DE9F0411349034600208A68A7
:109C5000D4071ED0114CA3421BD04888A0F57F43E7
:109C6000FF3B10D042F004028A60132176DF002807
:109C70000FD10B4EC8254FF47A47741C3846A047C5
:109C80006D1EFAD101E0087874DFBDE8F04101F003
:109C900047BFBDE8F0810000F85700209CDA0700BC
:109CA00060D6070038B5214C0021227AD20701D0B6
:109CB000084638BDE0601E4800F0C6FD0020009058
:109CC00001F0F0F988B91B4813DF70B901F052FFB9
:109CD00058B9684601F092FE38B96946012001F092
:109CE00097FE10B9684601F0E1FE0028E1D101F0CD
:109CF000C5FA30B1104801F0B5FAA06840F0020092
:109D0000A06000F0F7FB0028D3D10B481C30FFF710
:109D1000DBFE0028CDD1FFF79FFD0028C9D1A06848
:109D200040F00100A060002038BD0000F85700207E
:109D3000A4DA070000800700B05C002070B504467C
:109D4000011D008800226F4D86B021287ED025DCC1
:109D500013287CD018DC01287AD010285BD0112879
:109D60004AD14FF6FF706880287A400704D4FFF785
:109D700073FD08B1FFF7B0FDE96800293CD006B0DB
:109D80000220BDE870400847142878D01A2877D000
:109D90001F2831D16888091D75DF62E0512870D015
:109DA0002CDC222828D0232862D0242824D0502834
:109DB00022D1554D34F8060FA98888421CD153484A
:109DC00000F008FD060017D0628904F10C01FEF7CF
:109DD00026FB18224E496846FEF721FB04960195A2
:109DE0006089ADF81400684601F090F9002803D0AE
:109DF0003146464800F010FD06B070BD52287BD0B9
:109E0000552813D05628F7D1A0790028F4D1132172
:109E1000688876DF25E008886880E96809B1012054
:109E200088473B4968887A3975DFE5E7E188F72993
:109E300014D28807B0F1404F11D0C91F89B2481E13
:109E4000C21700EB927222F0030202E033E01CE042
:109E500036E0801A081A801D81B200E0F721688878
:109E6000B5DF0028C8D006B0BDE87040FFF734BDAC
:109E700000920192A0880022694690DF18E034E049
:109E80003AE021E0FFF728FDB6E721486A4690381E
:109E900042F60521806A009002A801906888ADDF33
:109EA00008B1FFF719FD00231A46852168887FDF76
:109EB0000028E7D1A0E70092088869468FDFF7E71E
:109EC0000021688866DFCCE7A079002894D021467D
:109ED0000D4802F04FF800288ED006B004F10801BA
:109EE000BDE87040084801F039BF002408882246C8
:109EF0002346214686DFB4E7002308881A46194620
:109F0000B1DFAEE7F8570020CC5C0020A4DA0700F0
:109F1000E0D60700007800F00100704713B903781D
:109F2000012B01D001F0B5BA012070470022C321F6
:109F300000F5187000F074B82DE9F043A1B00446A4
:109F4000DDE9289520200F46209098461646782176
:109F500002A8FEF77DFA41212046FEF779FAB7F80C
:109F6000940006EB061107EB8101B04201D991F88C
:109F7000965025701DB3012D04D0022D0AD0032D5B
:109F800013D116E000224946404600F049F8C4F8D3
:109F9000010014E020A9601CCDE900014B464246B7
:109FA0000A4902A800F062FE48B1002021B0BDE8D5
:109FB000F083B1F89820601C9A31FEF730FA4A46D7
:109FC0004146204601F065FAF0E7000078D407002A
:109FD00010B500284FF0000006D004490870BDE815
:109FE0001040034801F076B900F0BEF9B8570020E0
:109FF00069A3070010B543689C18446021B905E0C7
:10A0000013F8010B01F8010B521EF9D2012010BD0B
:10A010000249CA6B4260096C816070472874002055
:10A02000F0B54FF0FF3622B11268D24300230A4D3B
:10A030000DE03246FAE7C45C62400824D70700D03E
:10A0400037462F4087EA5202641EF7D15B1C8B42D1
:10A05000F1D3D043F0BD00002083B8ED10B5044625
:10A060000068401C07D0204602F032FE2168814281
:10A0700001D1012010BD002010BD000010B50B4C17
:10A0800090B0607800280ED100F054FE20220849DC
:10A09000684600F06FFE40236A460649064800F015
:10A0A0009FFD0120607010B010BD000028580020F6
:10A0B00004D40700D47A002090D40700F0B51469C6
:10A0C00006468DB020681546271DE0B1022920D034
:10A0D0000A2000906B4609AA304602F0E1FC0028F5
:10A0E0000FD009A901A8009A02F0E4FA01AE96E89F
:10A0F0000F0005AE86E80F00236869683A4605A898
:10A1000098470DB0F0BD0DB03046BDE8F04002F00C
:10A1100045BB6946304602F0D7FA0028F1D02368E3
:10A1200069683A46684698470028EAD002980028AD
:10A13000F5D1019870600120E3E753689B7813F034
:10A14000C00303D0402B03D00020704700F002B8BA
:10A15000FFF7B4BF2DE9FF410B4651680646144690
:10A160008878334D00F00F0210F0300055F822507F
:10A1700006D0102806D0202808D0302856D13EE03E
:10A1800022694DE061690120087047E0022B28D167
:10A19000042A26D84FF0010869463046676902F064
:10A1A00093FA00281AD009E00B89226903FB0022E8
:10A1B0006846A84770B13888401C3880029820B1A2
:10A1C000616838884A899042EED30198706002989D
:10A1D00060BB02E04FF00008F7E7404604B0BDE87E
:10A1E000F081D4E904300F890288498907FB0233E2
:10A1F0008A421BD2521C02801A46616810E008880D
:10A200006169072A088009D1606801892069FEF721
:10A210001FF960682169C06802F071FA22696168FB
:10A2200004B03046AC46BDE8F04160470020D5E7B9
:10A23000A8D9070070B51F4801240168C90301D5DA
:10A2400081130CE01C4801681522C9B2B2EBD10F92
:10A2500007D10168C90704D0016801F05601016007
:10A260000024164D286A01281CD14FF4405014498F
:10A270004068884208D123464FF4805105F5187094
:10A280006A6BFFF74BFE68B100F0C8FD014623463C
:10A290000C48AA69FFF742FE20B101F0A3FB10F0C1
:10A2A000B10F01D0012070BDA86D0128FBD00020A6
:10A2B00070BD00000004004020050040287400200C
:10A2C000DBE5B151C97600204169002901D0C068A1
:10A2D000084770477047000010B50446032806D0B1
:10A2E000042C04D0062C08D0072C09D105E009491C
:10A2F0004FF4701000F018FB02E00120FFF768FE39
:10A3000005484168002903D02046BDE810400847B1
:10A3100010BD0000EDA50700B857002010B5044699
:10A32000062802D1002001F07DF8044801680029C8
:10A3300003D02046BDE81040084710BDF457002068
:10A3400010B5FF224FF400710648FEF77AF8054871
:10A3500020212438FEF77CF8024900205C3908638C
:10A3600010BD000084740020BFF34F8F05480168C2
:10A37000054A01F4E06111430160BFF34F8F00BF54
:10A38000FDE700000CED00E00400FA052DE9FC41BA
:10A3900080461F4615460E4600240D4800F00CFA74
:10A3A00038B11120BDE8FC8106EB043001F0E0FA81
:10A3B000641CAC42F8D1064800F0FBF9CDE9005727
:10A3C000334600220221404600F02AF80020E9E747
:10A3D000485800202DE9F843104D0F4680461E4690
:10A3E00091466946286800F0B8F9040014D01C2191
:10A3F000FEF72EF801202071C4F81490380BC4F831
:10A400000080C4E902606946286800F0C7F902F0DC
:10A4100027FB0020BDE8F8830420FBE7D4D7070022
:10A420002DE9F04387B00446DDE90E8980681D46BA
:10A4300016460F4600280BD018216846FEF708F88C
:10A4400002A88DF8007080E86003A168684688471C
:10A4500007B0BDE8F08330B50446006887B00D460C
:10A46000806800281FD018216846FDF7F1FF01958C
:10A47000A0680590207910B1012810D107E00120D3
:10A480008DF8000020690290E068039005E002204A
:10A490008DF80000E0680003029060690490206875
:10A4A00081686846884707B030BD0B2803D30B3856
:10A4B000C0B200F009B870470249002208780A705B
:10A4C0007047000010580020014908700B207047A9
:10A4D000105800200149012008707047B85700202B
:10A4E0000149012008707047F057002001237230A5
:10A4F00000F0F8BF0EB59DF8080020F00F00401CDA
:10A5000020F0F00010308DF8080068466DDF00285C
:10A5100019D19DF80100401C8DF8010068466CDFE0
:10A52000002810D10848007A800703D50748011D8C
:10A53000806901E006A1072082B202A87CDF002822
:10A5400001D105487ADF0EBDF8570020B05C00202D
:10A55000446675546172670066D607002DE9F047BE
:10A5600081461D4616468846494502D10020BDE871
:10A57000F087A8EB0900040B06F6FF704FF0000A05
:10A58000070B00F0D3FAA5422AD22C4628E0A742B6
:10A5900002D8BA46354601E0A246250300225146BC
:10A5A000484600F039FD0028E1D1681E00F00300A4
:10A5B0002A1A002341464846D21C00F043FD0028D9
:10A5C000D5D10948A7EB0A07761B016BA94429449A
:10A5D0000163A844002000F011FF5FEA000AC6D121
:10A5E000002ED4D15046C2E7287400200120FFF786
:10A5F000EFBC00000149416000207047A8D7070068
:10A6000010B50B4941600B4800F0D6F868B901F06D
:10A61000FDFA08491C234FF4EE7208740448A1F5B2
:10A62000EE71001F006800F085F8002010BD0000EA
:10A63000D8D70700947D002002480068002800D089
:10A6400001207047485800200248007A002800D0B6
:10A6500001207047947D002010B54FF44051144BF9
:10A660004C6800F500509C4204D042689A4201D1E7
:10A67000012200E000229C4218D144689C4215D17E
:10A680000A78142A01D9496900E00021094A0378AF
:10A69000B1FBF2F1142B01D9406900E00020B0FBBE
:10A6A000F2F0814201D0012200E00022104610BDEC
:10A6B000DBE5B15140420F0070B5054608680C4615
:10A6C0004A6886682846314601F03AFF606828618A
:10A6D00004F10C006861B0780221B1EB901F01D148
:10A6E000241D2C6170BD000010B500224FF4805174
:10A6F000104600F02DF950B908480022C0F5FC21A1
:10A7000000F026F918B9064800F08EF908B101F0FA
:10A7100019FC00F0B1F8002010BD00000080070017
:10A72000D5A2070010B5FDF7C4FD08B1002010BD8B
:10A73000112010BD10B531B1B2FBF3F403FB1424AA
:10A740001CB1092010BD0E2010BD01600021416028
:10A7500081608281C381084610BD70B50C460546F4
:10A76000FDF75CFD002802D021882868084470BDF0
:10A7700010B50A8849888A4203D1FDF791FD01206E
:10A7800010BD002010BD70B50C460546FDF76BFDF1
:10A79000002802D061882868084470BD10B50A8876
:10A7A00049888A4203D1FDF755FD012010BD0020E4
:10A7B00010BD002100F003B8012100F006B808B573
:10A7C0006A46FDF7A8FD009808BD08B56A46FDF782
:10A7D00095FD08BD38B5044600258DF80050684643
:10A7E000FFF702F921686268086890420ED9401E9E
:10A7F00008600178238AE26801FB0325227A216838
:10A80000101AC0B20A79824200D208719DF8000085
:10A81000FFF70EF9284638BD38B5054600208DF8FB
:10A8200000000C466846FFF7DFF8E868298A201A1E
:10A83000B0FBF1F12A681068431C136001709DF8A9
:10A840000000FFF7F5F838BD10B530B1017A426865
:10A850000368891AC9B21A6006E00E2010BD0368A9
:10A860001A68541C1C601170491EC9B2F7D20068E6
:10A8700000210171084610BD10B54FF0E0224FF0E5
:10A88000FF314FF48054C2F88011C2F8801200F0FA
:10A8900015FC2046BDE81040AFF3008070B50546BA
:10A8A0001E4888B0C0F5FE21002200F051F800F0EB
:10A8B000B5FA1B49002289690144104600F048F8A6
:10A8C000EFF30580D5E90045C005C00D4FF0FF3618
:10A8D0004FF0000181F3148881F3108881F311880F
:10A8E00081F3138812D020220E496846FDF797FDA8
:10A8F000203C2022694620460695FDF790FDB21FB8
:10A9000031462046FDF786FC08B070BD08B02A46E7
:10A9100031462046BDE87040FDF77CBC0080070052
:10A920002874002044D4070070B5084D04460E4634
:10A93000686802F091FC002C06D032462146686817
:10A94000BDE8704002F07ABC70BD0000C057002026
:10A95000F0B50A0502D1B0F5FE2F01D90720F0BDF0
:10A96000134D000B491E124F01222E1D103700EB14
:10A97000113407F1040C17E04309C3F1000100EBA7
:10A98000411E02FA0EF106D0012B06D0022B06D092
:10A99000032B08D105E0296005E0316003E0396050
:10A9A00001E0CCF80010401CA042E5D90020F0BD29
:10A9B0000006004070B5194D0024E86A24350128CE
:10A9C00007D0A52808D0AA2809D0AC280AD0002092
:10A9D00070BDFEF75BFF0BE002F0C2F807E0FFF787
:10A9E00041F805E002F0BCF808B9FFF73BF8012494
:10A9F000284600F037FA0A4900200870094800F09C
:10AA0000FDFC08B1032070BD0120002CFBD00349E0
:10AA1000096A0129F7D1022070BD000028740020C6
:10AA2000F0570020E1A4070070B52F4E70600020A1
:10AA300000F056FC00284ED1FFF7BCFF002520B1E6
:10AA4000012829D0022846D105E04FF47014FFF701
:10AA5000F1FB10B93CE04FF4A02400F067F8234A62
:10AA600020211820FEF7AAFF08B1FEF735FF00F0FD
:10AA7000B9FF1621B1EBD00F09D100F0B3FFC00729
:10AA800005D000F0AFFF1A4920F0B1000860194866
:10AA9000816D012904D00AE00120FFF799FA1AE03C
:10AAA0008565002000F090FC08B1FEF715FF00F06E
:10AAB000EBFA80B910492046FFF736FF0F4800F047
:10AAC000CDFA40B900F01EF8FEF758FF41DFF9E774
:10AAD00000F0AEFB08B1032070BD3570084800F0EF
:10AAE000F9FBFFF7C9FEF6E7B857002070580020C1
:10AAF0001C05004028740020EDA50700D9A207001E
:10AB0000D5A4070010B501F021F9002803D0BDE855
:10AB1000104002F009BC10BD034A93680A46014682
:10AB20009860184602F08ABBC057002070B50E4DE1
:10AB30002878002817D101F009F9012690B10B48B7
:10AB40000468A4F54864962C00DA962402F0ECFB25
:10AB500007492046FFF7E0FF4FF0E0214FF4803037
:10AB6000C1F800012E7070BDF157002004050140AE
:10AB700065D3070040688068004710B54268083018
:10AB8000527900F0F7F8002010BD2DE9F04399B09C
:10AB90001C4690460D460846DDF88090FFF7EAFF18
:10ABA0006E6807467079A04200D8044622464146A6
:10ABB00011A800F01BF97279494601A800F0DAF8F3
:10ABC00001AB224611A905F108000097FDF7EAFD47
:10ABD00018B1002019B0BDE8F08348F24250F9E7FF
:10ABE00070B516460C46054600F0E8F800280ED170
:10ABF000AA791946304600F0EEF8002807D1314610
:10AC00002046FFF7BAFF002801D10149216070BD3D
:10AC10007052464D2DE9F84F6C460D46D4E90A684E
:10AC20008246994617461049284600F0BBF800288E
:10AC3000A54613D16868414640794200304600F08D
:10AC4000CAF80028A54609D157B182B04B463A460A
:10AC5000294650460096FFF798FFA546BDE8F88FB5
:10AC600048F21050A546F9E77052464D2DE9F041E3
:10AC70001D46DDE906871646044600F02DF800283B
:10AC80000DD12A463146204600F03CF8002806D176
:10AC90003A4641462046BDE8F04100F002B8BDE822
:10ACA000F08170B515460E46044602F02DFB0028D3
:10ACB00007D13EB160682968C268914205D248F266
:10ACC000145070BD48F2135070BD83682A46314657
:10ACD0002046BDE87040184710B550B161B14160E1
:10ACE000096804468847002802D1054820600020F2
:10ACF00010BD48F2015010BD48F2105010BD0000C8
:10AD00006E52464870B515460E46044602F0FCFAEF
:10AD100000280BD146B155B160682A4631464368D8
:10AD20002046BDE87040184748F2105070BD002022
:10AD300070BD00002DE9F0410B480C4D0C4F401B3D
:10AD4000C60801203870002406E000BF55F8340022
:10AD50008047002805D1641CB442F7D30220387024
:10AD60000020BDE8F08100000000000000000000AD
:10AD7000F257002070B514460D46064600F036F82E
:10AD8000291930192246BDE8704000F02FB830B5BF
:10AD90000C46054600F035F828192146BDE830403C
:10ADA00000F02FB828B10068884205D048F2405022
:10ADB000704748F2105070470020704728B139B1F1
:10ADC0000022C1E900201046704748F21050704739
:10ADD00048F21350704720B1914205D048F211500B
:10ADE000704748F210507047002070470244521ECE
:10ADF00004E000BF11F8013B02F801398242F9D2A8
:10AE000070470144491E05E002780B7800F8013BC9
:10AE100001F801298142F7D2704700004FF44050F9
:10AE2000074A4168914207D18068411EC1F30B0176
:10AE3000401A00F6FF7070474FF4805070470000D2
:10AE4000DBE5B15100B5FFF7E9FF054989690A184B
:10AE5000401E0844C0F30B00101A00F6FF7000BD3E
:10AE60002874002000210160416081600148016375
:10AE700070470000287400202DE9F0419846214FCA
:10AE800016460C460546002301215BB1012B11D06B
:10AE9000022B1ED00020381AA0F54050A8421BD229
:10AEA00001221AE0FFF7CEFF8EB11749096A012986
:10AEB000F1D00CE0FFF7B2FFB8F1000F05D14FF46D
:10AEC0004051124A4968914201D00121E3E7002133
:10AED000E1E74FF48050DEE7002242EA04008843B5
:10AEE00005D0022B03D25B1CDBB2022BCCD912B1F2
:10AEF0000420BDE8F0811BB103481830FFF7B2FF12
:10AF00000020F6E70080070028740020DBE5B1513F
:10AF100070B504460078092811D2DFE800F010056A
:10AF200010112510381013000D461D490320C96863
:10AF30008847606900F03EFBFFF7B7FA687070BDA4
:10AF4000084628E00D46A18A206900F00FFBFFF7B4
:10AF5000ACFA68702846FFF75BF8E1680029EED08C
:10AF60002069BDE8704008470C460D490831081FAC
:10AF700000F03AFBFFF799FA60700128DFD100205A
:10AF800000F03CFA0028DAD00A20607070BD084654
:10AF90004FF40071C160BDE87040FFF739B80000A0
:10AFA0001458002070B51A4A05780124936C092DB5
:10AFB0002CD2DFE805F02B052B0B0F2B252B0800DF
:10AFC00000F004FF22E000F077FF1FE08B60106DBF
:10AFD00048601BE0D2E91454566C2C1BA64203D0E7
:10AFE00008204870012411E000245565546421466E
:10AFF000D36400F025FF07490420C968884705E0AD
:10B000008B60106D48604FF48050C860204670BD62
:10B01000287400201458002013460A4601460148AF
:10B0200000F0D8BB5C58002008B1034900E0034998
:10B030000022034800F0E4BBE4D70700B4D70700C0
:10B040005C58002008B5009313460A4601460248A2
:10B0500000F06EFC08BD00005C580020084910B5E7
:10B0600008600020FFF75AF9064800F0F5F90028BB
:10B0700004D1BDE81040034800F026B810BD000020
:10B08000F45700201DA30700002070471FB5890852
:10B09000002201AB009283E80700684618DF04B085
:10B0A00010BD00001FB5044B0FCB8DE80F006846A4
:10B0B00018DF04B010BD000068D707004FF48050BF
:10B0C000410408600020704710B5040011D0012031
:10B0D000FFF7AAFF00280BD100F036FA00F0C6FAFD
:10B0E00048B10949081F00F07FFA012803D0032066
:10B0F00010BD072010BD04480838C4600020FFF7C9
:10B10000E3F9002010BD00001C580020816819B12F
:10B11000024A1821FEF7E2BB0720704721B1070061
:10B12000AFF3008030B587B0044618221F49684647
:10B13000FDF775F920788DF8000022781C4D0D2A56
:10B1400025D2DFE802F0240B270B0B240B240B2461
:10B1500024240700E968072088471BE02046694649
:10B16000062A01D0012A01D1027C2A702A78012AFC
:10B1700005D0022A06D000202870052008E0FFF73D
:10B18000C7FE07E0FFF70EFF20B907B030BD022071
:10B190008DF80100D4E90112684690479DF801003E
:10B1A0000128F2D0E96805208847EEE790D707002C
:10B1B0001458002038B1054901600549416001215A
:10B1C0000172002070470E2070470000D5B10700C3
:10B1D0000DB2070010B50C0001464FF0110007D06A
:10B1E0002278052A05D2DFE802F00F050D0F0F00C7
:10B1F0000E2010BD084600F051F80028F9D10221B8
:10B20000217010BD112010BD082010BD024608207D
:10B2100041B10B78022B04D1022A05D0032A00D1B8
:10B22000112070470E207047002003220A707047DB
:10B2300070B50B480024D0F82413491C03D1D0F872
:10B240006403401C09D04FF4FE25284600F090FB13
:10B25000C9220349284600F0A3FB204670BD000028
:10B260002874002010B528B11C220349FDF7D7F837
:10B27000002010BD0E2010BD64F3070010B5064C71
:10B2800000221821201DFEF7CBFE2168814201D14A
:10B29000012010BD002010BD64F3070070B50C4DF7
:10B2A0000400D5F8640305F5597503D0401C03D09C
:10B2B000082070BD0E2070BD00221821201DFEF751
:10B2C000AFFE206007222146284629DF70BD00001E
:10B2D00000F00700014901F0F1BC000000F0070098
:10B2E0002DE9F047FFF7A0FE002860D13148FEF7B6
:10B2F000B5FE314E074634682046FEF7AFFE4FF0EC
:10B30000010A4FF0000958B16068012806D02046B4
:10B31000FEF70CFED4F85C12884201D1012500E052
:10B320000025264C4FF460714FF002089FB10A4689
:10B3300020492046FDF773F89DB136682546542212
:10B34000311D281DFDF76BF84FF4327206F15C01D8
:10B3500005F15C0003E045B10A4618483168FDF785
:10B360005EF86068012804D01CE01448FDF770F80E
:10B3700016E01349402201F5E470FDF750F810493A
:10B380001C22403101F5E470FDF749F884F8609221
:10B3900084F8A1A20B4884F8E292E169C0F8221077
:10B3A000C4F80480002000F029F8002800D0032011
:10B3B000BDE8F08700F00700245800202874002022
:10B3C00084750020A876002070B50546094801F074
:10B3D0007FFC084C20602046FEF7A8FDC4F85C0204
:10B3E000A4F5E0632A462146BDE87040024801F01A
:10B3F00074BC00002874002000F0070070B50546FA
:10B400000020FFF7E1FF040003D10349284601F0C3
:10B4100055FC204670BD0000287400204FF4805079
:10B42000704700002DE9F04107460948094D401BCF
:10B43000C6080020044607E005EBC4004168384612
:10B440008847002802D1641CB442F5D3BDE8F081DE
:10B45000A4DA07009CDA07002DE9F0410746094805
:10B46000094D401BC6080020044606E055F834107C
:10B4700038468847002802D1641CB442F6D3BDE8A0
:10B48000F0810000A4DA07009CDA0700012201F035
:10B49000B3B938B5144602780B467AB1012A04D004
:10B4A000022A0DD0032A1BD112E0D0F8015000224D
:10B4B00021461846FEF7B4FDA84211D1012038BD3F
:10B4C00001B02246BDE830400023401C00F00AB81D
:10B4D000411C40220020009400F0F2F80128EED038
:10B4E000002038BD2DE9F041AAB00546202088464D
:10B4F00028901E4617460124782102A8FCF7A8FFD1
:10B50000FEF7BCFD2EB12022294620A8FFF76EFCD5
:10B5100020AD28A90A48CDE900013B464246094929
:10B5200002A8FFF7A3FB28B9202229460448FCF70C
:10B530009AFF00B100242AB02046BDE8F081000047
:10B540007C7B002078D4070010B50648064C806B41
:10B5500020B101F0A5FD08B1012000E0002020701D
:10B5600010BD000028740020285800202DE9F0416B
:10B570000F4C07460D46E06BA26B01264119914224
:10B5800001D9032610E00A492A465C3108443946AD
:10B59000FCF745FFE06B064A2844E0634032294649
:10B5A0003846FEF73DFD20643046BDE8F0810000DE
:10B5B0002874002070B504004FF0010504D0B4F5E4
:10B5C000007F03D9042508E0032506E00449002094
:10B5D0000870FEF7B5FE03488463284670BD00007E
:10B5E00028580020287400202DE9F04106461D4807
:10B5F0000F46C16B806B814201D008242FE01A4DA9
:10B60000287840B1FFF71EFC30603946E86801F049
:10B610004FFE044623E001F043FDF8B100F02CF8A2
:10B620000446002030603860012C0FD13946E868AC
:10B6300001F03EFE0446012808D1386801270021A8
:10B640003B460A46FFF718FC18B10424FEF778FEC3
:10B6500005E0FFF7F7FB30602F7000E0052420467F
:10B66000BDE8F081287400202858002001480078A7
:10B67000704700002858002038B50F4C251D0020C9
:10B6800094F86C31014602463BB194F8D802B4F804
:10B69000DA2204F5B87504F53771084B9C680094FC
:10B6A0005B6800F00DF8012804D1281DBDE8384082
:10B6B00000F050B838BD0000A877002028580020BE
:10B6C0002DE9F041A2B0064620200D4620901F46ED
:10B6D0001446DDF8A080782102A8FCF7B9FE00200E
:10B6E0002190FEF7CBFC25B12EB1162022B0BDE88B
:10B6F000F0811320FAE720A91448CDE90001434660
:10B700003A46134902A8FFF7B1FA08B9402C01D014
:10B710000A20EBE70D48224629464038FCF77FFE19
:10B720000A4820214038FFF732FB084840214038C2
:10B73000CDE90001A0F14801044A21A8209BFFF7B0
:10B7400069FA08B10520D1E70120CFE75C7B002032
:10B7500078D4070070B5044690F85400012570B302
:10B7600094F8550028B1012803D0022801D00328FD
:10B770002AD194F86E00032801D0142525E0207A00
:10B78000E8B1E068342801D011251EE0204601F020
:10B7900033FA68B1207898B194F855100C4849B143
:10B7A000012907D06168C06881420ED810250CE0DD
:10B7B00012250AE061688068814206D2F6E703E05C
:10B7C00094F85500012800D00F25284670BD0000D0
:10B7D000287400202DE9F0410446406815461E46B5
:10B7E00002680F466A432046FDF7F4FF206833469F
:10B7F0002A46D0F810C039462046BDE8F0416047DF
:10B8000001600B68114618472DE9F04128B1016825
:10B8100019B1C969BDE8F04108470D4D0D48002434
:10B82000461B14270DE000BF04EB840005EB8000ED
:10B83000016829B1C969884710B10120BDE8F081CC
:10B84000641CB6FBF7F0A042EED80020F6E700003B
:10B850005C58002070580020044801214174007A8F
:10B8600008B100207047012070470000947D00203F
:10B87000012801D0032808D10449002201284A7474
:10B8800000D00020087401F09DB87047947D00201E
:10B8900070B50146022801D0032943D1224C207AF9
:10B8A00000283FD0012831D002282FD11F48002383
:10B8B0000229006802D0032928D119E0E360027947
:10B8C00012B1012A22D10BE0D0E90565721B142ABE
:10B8D00000D314222A4482614569AA420ED015E0A1
:10B8E0000169491C0161426991420FD1237213E041
:10B8F000E268521CE260082A08D9E3602372022938
:10B900000AD00D21FEF7A7FD01F052F8607C28B1A6
:10B91000BDE8704000F080B90021F3E7BDE8704059
:10B9200001F050B870BD0000947D00204C580020FC
:10B930002DE9F84304461D4616460F460846DDF835
:10B940002080FDF741FF3046FDF73EFF2A4639468D
:10B950002046FDF73FFFCDF8008020682B46324699
:10B96000D0F80CC039462046E047BDE8F883000017
:10B97000094902220A60BFF36F8FBFF34F8F0A1D80
:10B98000106006480268002AFCD000200860BFF35F
:10B990006F8FBFF34F8F704704E5014000E4014013
:10B9A00070B50E4C01232360BFF36F8FBFF34F8F31
:10B9B00000230B4D08E000BF51F8236040F82360DE
:10B9C0002E68002EFCD05B1C9342F5D30020206033
:10B9D000BFF36F8FBFF34F8F70BD000004E50140D0
:10B9E00000E4014001480068C0B270471C050040F7
:10B9F00008B5002242504058009008BD20B10349CC
:10BA000009680160002070470E2070477CD907004C
:10BA1000FEB506460D460846FFF7F0FF002844D164
:10BA2000002400940194012706208DF80060ADF8F1
:10BA3000040002948DF80270694620202A6869DFAC
:10BA400000948DF801708DF80240019402948DF8F5
:10BA50000340694640202A6869DF00948DF8006041
:10BA6000F720ADF8020001940294694623202A6869
:10BA700069DF0094019402948DF8007069460120FA
:10BA80002A6869DF4FF4B06000900194029469461F
:10BA9000A1202A6869DF0094019402948DF8004087
:10BAA0006946A0202A6869DF0020FEBD60DF00280B
:10BAB00002D1024A0121117070470000575800203E
:10BAC00030B51548ADF5017D0078002821D04FF440
:10BAD000FA7500BFADF8005280A9684661DF38B141
:10BAE000052816D00DF5017DBDE83040FDF7F4BE08
:10BAF0006C460A497DA800F0BBF806E0D0E90021B9
:10BB0000204690477DA800F0CAF87F980028E1D031
:10BB1000F4E70DF5017D30BD5758002080D90700AE
:10BB2000F8B5134C2078C0B10120A07001F098F84E
:10BB3000112814D0022001F0ABF800258DF8005038
:10BB40006846FDF751FF11DF064625709DF800009D
:10BB5000FDF76EFF2EB13046F8BD0820F8BD00207D
:10BB6000F8BDA57001F054FA032001F091F8F6E752
:10BB7000545800207CB5194C207808B108207CBDB1
:10BB80000120A070002001F06BF8112819D00020CE
:10BB900001F07EF812480026006801908DF80060E0
:10BBA0006846FDF721FF0F4901A810DF05000AD004
:10BBB000002020709DF80000FDF73AFF2DB12846C7
:10BBC0007CBD00207CBD0120F3E7A670667001F00B
:10BBD0003BFA012001F05CF8F3E700005458002024
:10BBE00014D90700D59807000EB50749684600F03C
:10BBF0003FF805E0D0E900108847684600F04FF8AC
:10BC000002980028F6D10EBD30D90700014800780F
:10BC100070470000545800200548817819B1007819
:10BC200018B1FFF77DBF08207047FFF7A3BF0000E2
:10BC3000545800201FB568464BDF30B1052814D09A
:10BC400004B0BDE81040FDF747BE084901A800F068
:10BC50000FF806E0D0E900210098904701A800F015
:10BC60001EF803980028E6D0F4E71FBD9CD9070012
:10BC7000016009684160AFF3008010B5D0E9002190
:10BC80005368994201D1002104E0D1E90034A34274
:10BC900002D01946816010BD08314160F0E781682B
:10BCA00000290BD0026892680A44826041684B68A0
:10BCB0009A4203D108314160FFF7DFBF70470000AF
:10BCC0002DE9F04104461348134BC01A0C21B0FB78
:10BCD000F1F6A0694FF0FF3110F8022C02B921698A
:10BCE000002011E000EB400503EB85052F6897422B
:10BCF00009D14F1C02D06F688F4204D194E80F0025
:10BD0000AD68A84703E0401CB042EBD3012020609F
:10BD1000BDE8F081F4DA0700E8DA070010B5144650
:10BD200012680830202A02D248F2145010BD0022B6
:10BD300000F0FBFF0028F9D120202060002010BD7A
:10BD4000083001F07BB8083001F038B902480068CB
:10BD5000002800D0012070470004014030B587B0B2
:10BD60000C460546182216496846FCF758FB217B0D
:10BD700014488DF800100195012906D0022915D02C
:10BD8000062917D1607B049014E08188C180607B14
:10BD90000490617CD4F80E0061F31F600590049854
:10BDA000012807D10848FFF73DFB03E0B4F80D1068
:10BDB0008180C1806846FFF7A9F907B030BD000057
:10BDC000B8D60700F85700209CDA07002DE9F041AB
:10BDD0000C460546FFF74AFC0826B8B169690320FE
:10BDE00041B3154A154B0F0505D0576DD3F808C060
:10BDF0000F4467451ED1B1F5805F01D9042019E0D9
:10BE0000506DD3F808C04718674502D96670BDE881
:10BE1000F0815164D16C10659164106369695A684E
:10BE200001F6FF711044090B0022FFF7F5F8002816
:10BE3000EDD005206070EAE7287400201458002037
:10BE400010B5044686B00020FFF7DEFC30B1154A7D
:10BE500018212046FDF742FD06B010BD18221249F8
:10BE60006846FCF7DCFA1148026D114881688A4285
:10BE700010D14068FFF70AFB8DF80100FEF715FBB3
:10BE80008DF80100D4E90112684690470948FFF790
:10BE9000B5FAE1E701208DF80100D4E90112684606
:10BEA0009047D9E741BE070078D7070028740020E3
:10BEB0001458002039BF07002DE9F0410E46044612
:10BEC000FFF7D4FB60B11A4DD5E91401401AA18ADD
:10BED0006A6C0844904205D903207070BDE8F08177
:10BEE0000820FAE7134A286B52688718104A20691D
:10BEF0004832FEF795F8D4E903318046A28A3846E5
:10BF0000FFF7A0F820B1D4E90310BDE8F0410847DD
:10BF1000A18A286B08442863A18A286DC5F8488047
:10BF200008442865C6F80880286D7060D6E70000D0
:10BF3000287400201458002001490620C9680847C9
:10BF400014580020BFF34F8F05480168054A01F4DB
:10BF5000E06111430160BFF34F8F00BFFDE70000B8
:10BF60000CED00E00400FA0501460148FEF754BC60
:10BF7000A4DA070030B58A1D8B79083187B0022B0F
:10BF800033D153888489A3422FD1127A012A2CD12C
:10BF9000184C0DF1040C3CCC8CE83C000A89ADF83F
:10BFA0000C204A890C3104911249ADF80E208039D9
:10BFB000114C096A0591CDF818D0018A05AA60884C
:10BFC000ADDF18B96846FDF7A5FF38B10020ADF820
:10BFD000080001A96088B0DF50B106E040F2FD1012
:10BFE000ADF8080001A96088B0DF002007B030BDBF
:10BFF0000120FBE7D0D60700F8570020F8B50D4622
:10C0000014460646694600F057FA00280FD0009BF8
:10C01000B3F5803F0AD2981C834207D8A978022240
:10C02000B2EB911F02D02989814201D20020F8BDD4
:10C030002380A11C3046009A00F074FBF8BD114625
:10C0400000F0D6B8114600F0E3B8F8B50C46154636
:10C050000646694600F030FA00280CD0009A501CC1
:10C06000904207D3A1780223B3EB911F02D021891C
:10C07000814201D20020F8BD2946304600F052FB33
:10C08000009A0021A954F8BD2DE9FF410C46CE6865
:10C0900017460546694600F017FB00280ED0E068F9
:10C0A00000280BD0A0783A46C0F301100228314690
:10C0B000684606D000F0DAF80199696004B0BDE87E
:10C0C000F08100F086F8F7E77CB50D461446694626
:10C0D00000F08FF9002820D02889082806D00428ED
:10C0E00009D002280AD001280CD015E0DDE90001B2
:10C0F000C4E900010AE00098206006E0009800B260
:10C10000208002E0009840B22070C117DDE90023D2
:10C1100050405940084301D000207CBD01207CBD27
:10C120007CB50D461446694600F0A1F9002820D0E0
:10C130002889082807D00021042809D002280AD01D
:10C1400001280CD014E0DDE90001C4E9000109E098
:10C150000098206006E0009880B2208002E00098FD
:10C16000C0B22070DDE9002350405940084301D09F
:10C1700000207CBD01207CBD7CB50D46144669467F
:10C1800000F075F9002821D02989082908D00098E5
:10C19000C21704290BD002290DD001290ED014E0BA
:10C1A000DDE90002C4E900020146134609E0C317B5
:10C1B0000146206005E001B2218001E041B221701A
:10C1C000CB1741405340194301D000207CBD0120D2
:10C1D0007CBD70B50D46064614461146284600F053
:10C1E0008EFA224629463046BDE8704000F03EB83F
:10C1F00038B50C460422694600F094FA002806D0AF
:10C200009DF80310009861F31F602060012038BD85
:10C210001CB50C460822694600F084FA002824D098
:10C220009DF801109DF800209DF80230080E42EAAA
:10C23000012242EA034240EA13409DF803309DF890
:10C24000041040EA132008439DF8051042EA0362F7
:10C2500040EA01209DF8061040EA01409DF80710D1
:10C2600040EA0160C4E9002001201CBD2DE9F04F27
:10C2700004469DB000200090064601904FF0FF3A22
:10C280000AA800F05DF94FF0010BE94682E012AB1D
:10C2900005AA06A9204600F0C9F850B10AA80599D8
:10C2A00000F05FF960B10B98807810F0300F53D038
:10C2B00060E09DF84800002870D11DB0BDE8F08F07
:10C2C0000598B04242D30B9D0AAE0B98807800F0DF
:10C2D0000F00082812D0304600F05AF90B98A842F7
:10C2E000F3D156460599B14230D3D4F8088009916C
:10C2F0009DF8181008910E990D6820E00B9806889B
:10C30000F0E729680F682FB1DDE908322946204699
:10C31000B84711E011948968DDE9087209889142F3
:10C320000CD1294617A8FEF7C7F985F80CB017AA53
:10C3300039461198FDF701FF0028BED0AD6815B150
:10C34000A1684145DDD0A168414523D19DF8181071
:10C35000204600F023FA1BE00C9840280AD200F097
:10C360001F010BFA01F00C994A0959F822300343D6
:10C3700049F82230E5682DB10AAB9DF81820204617
:10C380000599A8470AAA9DF818102046FDF7D5FE82
:10C39000002892D0A06800287FF479AFDDE90B0473
:10C3A00085780AA800F0F4F80028F7D115F0300FCE
:10C3B00003D10B98008800B1641CC4B10020494629
:10C3C00005E000BF51F82020521C0ED1401CB0EBFC
:10C3D000541FF7D3600959F8201004F01F00C0F172
:10C3E00020022AFA02F0814201D0002065E70120F4
:10C3F00063E71CB50C46694600F039F8002814D0F4
:10C40000DDE90002C10709D051084FEA30006FEAA8
:10C4100000026FEA0100C4E9002004E051084FEA7D
:10C420003000C4E900014FF001001CBDF8B507461B
:10C430000020187008700E4610601C4615466946AC
:10C44000384600F039F801004FF0010009D000999A
:10C4500059B1C8082860009800F00700307001202A
:10C46000F8BDB96809B10020F8BD2070FBE72DE9DF
:10C47000F8430026884681463446354604E0402E7F
:10C4800002D30020BDE8F8836946484600F076F9FB
:10C490000028F7D09DF80070324607F07F00C10FEA
:10C4A000FBF7AEFF29430443F61D0D463806E6D4DC
:10C4B000C8E900410120E5E7F8B50E4607466946A0
:10C4C00000F05CF900280AD09DF80040200616D53F
:10C4D000072504F07F0403E0202D01D30020F8BDE0
:10C4E0006946384600F04AF90028F8D09DF8001057
:10C4F00001F07F00A8400443ED1D0806ECD40120A4
:10C500003460F8BD10B559680B4AC968914212D120
:10C510000A4AD0E90110D2E90134234301D00020B6
:10C5200008E011F8013BA0F101001B06F9D4C2E9B3
:10C5300001100120907010BD00D507002858002080
:10C54000C26000230160C0E901138B881A440261B4
:10C55000B1F906301A4442610888002800D0012051
:10C56000704770B545680E46044660680188B14260
:10C5700006D1807800F00F00082801D0012070BD9E
:10C58000204600F005F86068A842EED1002070BD9A
:10C5900030B541680A885AB101F1100343600A8A34
:10C5A00042B18C780A89C4F30115032D07D00BE042
:10C5B000002030BDC2680168FFF7C2FFF8E79D7830
:10C5C000C5F30115032D06D00225B5EB141F08D1C4
:10C5D0004C89624309E08D8804690022641B046170
:10C5E00003E0B5EB941F00D10422897811F0300FDD
:10C5F00002D18168491C81609C88016921441144F1
:10C600000161B3F9062011444161012030BD30B50C
:10C610004168002487B0897801F00F02082A11D000
:10C620008A091ED00222B2EB911F09D10269C1F31F
:10C6300001110229146001D0032901D1406904804D
:10C6400007B030BD0069056808E02C7329466846CC
:10C65000FEF732F86846FFF7DAFFAD68002DF4D137
:10C66000EEE7C1F30111012912D00229E6D0032916
:10C67000E4D04268917801F00F0107290BD0D1680E
:10C6800081B11289006907B0BDE83040FBF7C7BE31
:10C6900041690C70EDE70169D06807B0BDE8304032
:10C6A00000F02DB81189006907B0BDE83040FBF7F4
:10C6B000CFBE000010B5034B002408C080E8160070
:10C6C00010BD0000F59F070038B50D4604466946C9
:10C6D000FFF7F2FE00280BD0D4E90002D4E90213E0
:10C6E000C5E90002C5E902130098814201D2002089
:10C6F00038BDA860A168081AA060012038BD00B547
:10C700000A4687B001466846FFF71AFF002807D09F
:10C710006846FFF77CFF6846FFF73AFF0028F7D12D
:10C7200007B000BD7FB514460546A9B9124A28686E
:10C73000904208D110E0102269462846FFF7F2FF28
:10C74000002807D0103C102CF5D822466946284610
:10C75000FFF7E8FF04B070BDA868A04201D2002036
:10C76000F8E72B682246284698470028F2D0A868A8
:10C77000001BA8600120EDE7F59F070010B50446F7
:10C780008068002809D023680122204698470028A5
:10C7900003D0A068401EA060012010BD38B5002461
:10C7A00039B1012912D0022912D005291DD000204B
:10C7B00038BD0546012269462846FFF7B3FF90B110
:10C7C0009DF800000006F5D4012038BD08220DE0D8
:10C7D00005466946FFF770FE28B100212846009AF9
:10C7E000FFF7A0FF38BD204638BD0422BDE8384021
:10C7F0000021FFF797BF00002DE9F04F81462C483C
:10C8000017460E46C5680A4693B001244946284695
:10C81000FDF76CFEDFF89C80A24670B195F85500DC
:10C8200068B100F00101C0F340024B462846CDE953
:10C83000006700F043F8D8B11BE0172419E0CDE9F8
:10C84000006A4B460022294602A8FDF775FB4FF00F
:10C85000000B68B10FB3412202A91748FBF7DFFDB7
:10C86000C8F820B0C8F82CA06968C8F8081017E00C
:10C8700005246FB1012C13D00E482430FEF7F2FAD4
:10C88000FDF75EFDC8F8489013B02046BDE8F08F74
:10C89000012C02D0FDF754FDF6E7C8F814A0F3E729
:10C8A000002231464846FDF7BBFBC8E90960E7E7CF
:10C8B0002858002028740020C97600202DE9F04770
:10C8C000A4B08946DDE92C5A044698461646442110
:10C8D00002A8FBF7BDFD442113A8FBF7B9FD4746AD
:10C8E000B9F1000F24D008F500512E4B4A68A06D15
:10C8F0009A4241D18A68411EC1F30B01401A41F6A8
:10C90000FF710844824237D34046FDF7A5FE00B1CF
:10C910008EB30121A06DCDE90001434600222146DE
:10C9200002A8FDF709FB002827D0A06D07442D1AA7
:10C9300056B10020CDE9005002463B46214613A8DF
:10C94000FDF7FAFA002818D0BAF1000F28D0164DDA
:10C95000B9F1000F19D04046FDF77EFE18B105F180
:10C960001800FEF77FFA412202A91048FBF757FD95
:10C9700036B1AC2005E0FFE7002024B0BDE8F08729
:10C98000A520E862A06D686301E0AA20E8623EB1DC
:10C990000648412213A98230FBF741FD6068E86038
:10C9A0000120EAE7DBE5B1512874002088760020F9
:10C9B000034802490068FDF7DBBE00005058002024
:10C9C000D4D707002DE9F041224C0025224E207AD1
:10C9D000012730B92148311D0068FDF7D4FE3060D1
:10C9E00038B1022020723168087928B101281CD1A1
:10C9F00014E06560BDE8F081D1E90503C01A142890
:10CA000000D31420B7EB900F01D2820800E001227E
:10CA10000869C9681844194429DF03E0D1E9030112
:10CA2000084428DF58B1112812D003213068FDF7DF
:10CA300012FD25726560BDE8F041FFF7B9BF207CAB
:10CA40000028D7D1BDE8F04100210220FEF720BF29
:10CA50002772CFE7947D00204C580020D4D70700E0
:10CA600010B5074C201DFDF7A7FE002806D1607CFD
:10CA7000002803D1BDE81040FFF7A4BF10BD00009F
:10CA8000947D002010B510461A46FBF7C8FC002024
:10CA900010BD10B510461A46FBF7C1FC002010BDB2
:10CAA0002DE9F0411E681C461546074621B10129B3
:10CAB00018D0052923D119E000202060401C2060F7
:10CAC000B0421CD8012229463846FFF72BFE002829
:10CAD00006D015F8010B000601D52068EEE701200D
:10CAE000BDE8F08108200246186002E004200246FA
:10CAF000186029463846BDE8F041FFF713BE002014
:10CB0000EEE770B516460A460446C11C104600F012
:10CB1000ADFB054661193046C91C00F0A7FB28444F
:10CB200070BD000003B5094A85B0D2E91612CDE9FF
:10CB3000001207498989ADF8001006A9CDE9021055
:10CB4000044869464088AEDF07B000BD50D60700F4
:10CB5000CC5C0020F8570020084670470846704714
:10CB600070B5FEF75BFC114A114E136B546B916C60
:10CB7000E21A551EC5F30B05521B42F20405184478
:10CB80006D5802F6FF72B54201D0032070BD194402
:10CB9000A34201D1002070BD0823FDF7DFFC00286F
:10CBA000F9D1BDE87040FEF729BC000028740020D0
:10CBB000DBE5B151F0B50546002003464FF4405483
:10CBC0000C4E4FF6FE7712E0D4F804C0B44505D100
:10CBD00055F823C0B4F80CE0F44504D02AB155F858
:10CBE00023C0BC4501D10120F0BD5B1CDBB28B42F0
:10CBF000EAD3F0BDDBE5B15110B54FF44051174B0E
:10CC00004A68018A9A4221D171B100F11403426944
:10CC100090F8550062B1042808D00022BDE8104009
:10CC2000C9B21846FFF7C6BF002010BD0122F5E7C4
:10CC300010B1012808D1F7E7012905D9C9B20022AE
:10CC40001846FFF7B7FFEFE7012010BD11B14169AA
:10CC50000029E9D100780028F6D110BDDBE5B151FB
:10CC60003EB5044609496846FFF702F808E000BFF0
:10CC7000D0E900212046904730B16846FFF70FF811
:10CC800002980028F4D13EBD11203EBD18D90700FE
:10CC90003EB5044608496846FEF7EAFF07E000BFD4
:10CCA000D0E90021204690476846FEF7F8FF029839
:10CCB0000028F5D13EBD000024D9070002460348F4
:10CCC000014B006800F009B8A8700020245800202B
:10CCD00000225821001DFDF7A3B92DE9F0411446AB
:10CCE0004FF460751E460F4680462A46FBF7BBFB95
:10CCF00030B1002201214046FEF78EF998B905E0D7
:10CD00000CB10020A0470020BDE8F0812A4639463A
:10CD10003046FBF784FB23462A4631464046FEF761
:10CD200091F90028F0D00320EEE770B516460D46C5
:10CD3000040007D035B1206C80220021382822540D
:10CD400003D307E00E2070BD2154401C3828FBD3CC
:10CD50000BE02154401C4028FBD32146084600F03C
:10CD600097F838212046FBF773FB216CD4E9123089
:10CD70004A0FC900383459185041C4E90410227CC4
:10CD8000E2710A0A42EA0062A2710A0C42EA004217
:10CD90006271020242EA116020716069E070010A6A
:10CDA000A170010C6170000E04F838092146084694
:10CDB00000F06EF84FF00002EEB1E06ED100C84016
:10CDC000A854A36ECB40A8180371636ECB400372C6
:10CDD000236ECB400373E36DCB400374A36DCB4054
:10CDE0000375636DCB400376236DCB40521C0377F4
:10CDF000042AE2D31FE018235042216D03EBC00048
:10CE0000C140A954666DC640A9180E71A66DC640F2
:10CE10000E72E66DC6400E73266EC6400E74666EC8
:10CE2000C6400E75A66EC6400E76E66EC640521C13
:10CE30000E77042AE0D3002070BD0000A8B10021C5
:10CE40000164C0E912110A4901650A4941650A49AC
:10CE500081650A49C1650A4901660A4941660A496C
:10CE600081660A49C166002070470E2070470000A5
:10CE700067E6096A85AE67BB72F36E3C3AF54FA56B
:10CE80007F520E518C68059BABD9831F19CDE05B97
:10CE90002DE9F04FC8B0002213466F46CC181B1D79
:10CEA0002568E4782DBA25F0FF05254347F8225080
:10CEB000521C102AF2D31BE007EB820151F8083C08
:10CEC0004FEA734484EAF34484EA932451F83C3CE7
:10CED0004FEAF31585EAB34585EAD303234451F8B5
:10CEE0001C4C51F8401C2144194447F82210521C94
:10CEF000402AE1D3036D4793416D4691846D45947B
:10CF0000C26D44929246026E4392456E4295A94686
:10CF1000856E4195C66E4096B34600264FEAB2171D
:10CF200087EAF22787EA726C02EA090725EA020813
:10CF300087EA0807BC44204F57F8268008EB0B0708
:10CF4000BC445DF82670AB460CEB070E4FEAB30706
:10CF500087EA733787EAB35C81EA04074D4601EA42
:10CF6000040891461F400AEB0E02A24687EA080712
:10CF70000C46BC441946761C0EEB0C03402ECDD358
:10CF8000479E33440365469B1944416545992144B6
:10CF9000816544995144C1654399114401664299A0
:10CFA0004944416641992944816640995944C16682
:10CFB00048B0BDE8F08F000004D807002DE9F0412B
:10CFC00016460F46040004D006B317B10025A84644
:10CFD0001AE00E20BDE8F081216C785D6054206C71
:10CFE000401C206440280ED121460846FFF750FF20
:10CFF000D4E912014FF40072801841F10001C4F825
:10D000004080C4E912016D1CB542E5D30020E1E780
:10D0100010B51620FCF7C6FB48B10A4882684FF4E9
:10D02000800152B1016821F48001016010BDBDE8AA
:10D03000104042F20100FCF74FBC4FF0E020C0F876
:10D04000801110BD9C7B002010B51620FCF7AAFBB8
:10D05000A0B1114890F800044009082811D201211C
:10D06000814011F0EC0F0CD00C4882684FF4800125
:10D070006AB1016841F48001016010BD42F2010013
:10D0800001E042F20200BDE81040FCF725BC4FF081
:10D09000E020C0F8001110BD16E000E09C7B0020ED
:10D0A0007FB52A4800F15C01826B6846FFF702FBFE
:10D0B000274E9DE8070006F11C03274C83E8070074
:10D0C00019462448C8600020A0706060A0604FF43A
:10D0D0004771A6F54070FBF7BBF9A6F540721F49F2
:10D0E00002F54770FFF775F800282BD0A07858B3E9
:10D0F000A6F5407090F86C11002901781CD019BB7E
:10D1000090F8720100B3D4E90112A6F5C67568461D
:10D11000FFF7D0FA9DE80F001C3686E80F004FF4A9
:10D12000B2712846FBF794F92A460D493046FFF7BD
:10D1300050F8002806D003E031B1807920B1094DC4
:10D140000120E56004B070BD0020FBE728740020DA
:10D15000A87A002005C507002858002020D607001F
:10D1600000D50700B077002070B503466FF07F4010
:10D17000814200D20846124DD5F804250244081A0F
:10D18000411E22F07F425860952902D29630963A8D
:10D1900058601C7B05EB8400C0F8402509494FF41A
:10D1A000F86088474FF4A07000EB84012846FEF732
:10D1B0001FFC4FF48030A040C5F8040370BD000090
:10D1C0000040024071D4070070B5174E3078002837
:10D1D00029D1164800680125C0F3004008B9144859
:10D1E0000560144C4FF480712046FEF701FC4FF4AB
:10D1F000A0712046FEF7FCFB4FF4A2712046FEF71B
:10D20000F7FB0D49A02081F800040B4910202039BC
:10D21000C1F800010020C4F80805A56025600220BF
:10D22000C4F80403357070BDC057002018040040D6
:10D23000080000400040024024E000E070B51546C0
:10D240000E460446FFF7C0FF314620462560BDE884
:10D250007040FFF789BF0000017B4FF480308840A9
:10D260000149C1F808037047004002400870020AF3
:10D270004A70020C8A70000EC870042070470000CB
:10D2800010B50248FDF795FA002010BD485800205F
:10D2900010B514210448FBF7DBF804480068FDF7DB
:10D2A00041FA002010BD0000947D0020D4D7070073
:10D2B00030B50F2490F8553000220BB1042B03D168
:10D2C00090F86450012D06D0DD0707D090F8565035
:10D2D000012D02D002E0826E0DE0826D9B070AD51F
:10D2E00090F85C30012B06D1064B006EC3F5FC2391
:10D2F000984205D802440AB101240A60204630BD94
:10D300000424FBE70080070030B10068054988422B
:10D3100005D048F20250704748F201507047002093
:10D32000704700006E52464870B5FEF70FFD0028AA
:10D3300011D00020084A094B094C0121166801FA56
:10D3400000F52E4203D004EB8005C5F80036401CE2
:10D35000C0B20728F2D370BD080501403546526EB1
:10D3600000000140FFF7E0BF002070470020704739
:10D370002DE9FC4180461C4617460E460C48089D88
:10D38000FDF71AFA10B11120BDE8FC81A208394658
:10D390003046FEF705FB0648FDF70BFA33463A46E2
:10D3A00001214046CDE90045FDF73AF80020EBE7C2
:10D3B000485800202DE9F84F114D884681461E46F9
:10D3C00017466946DDF828A02868FDF7C6F904006D
:10D3D00013D01C21FBF73CF800202071C4F800900A
:10D3E000C4E90486C4E902A769462868FDF7D6F9AE
:10D3F000FFF736FB0020BDE8F88F0420FBE70000B4
:10D40000D4D70700038E4271A781D4309C3CDAEF59
:10D41000F6C47C55C9D10FFC1E67A8CEB4CDAA3383
:10D42000B6321EA6203CCF58AE8DEDC8D32099DE73
:10D430003899C4CC2F672DE9922161AD52040A417D
:10D4400086E919D70000000000000000000000007D
:10D450000000000000000000FFFFFFFF00000000D0
:10D4600000000001000000000000000000000000BB
:10D470000338FDD87047000041BD070047BD0700D5
:10D480001DBD070020000000780000000000000023
:10D4900048002800002040009D8707000000000091
:10D4A0000100010000000000010000000000000079
:10D4B0000200050001000000220000000000000042
:10D4C000000000000000000000000000000000005C
:10D4D0000100010000000000010000000000000049
:10D4E00002000500010000004200000000000000F2
:10D4F000000000000000000000000000000000002C
:10D50000010011000400FCFF040000000000000006
:10D51000020011000400FCFF0400000000000000F5
:10D52000030021000400FCFF0400100000000000C4
:10D53000040011000100FFFF0100000000000000D6
:10D54000050011000200FEFF0400000000000000C2
:10D55000060011000400FCFF0400000000000000B1
:10D56000070011000400FCFF0400000000000000A0
:10D57000080017000200FEFF24000000A0D40700EE
:10D58000090010000100FFFF010000009CD407000B
:10D590000A0027000200FEFF44000300D0D4070069
:10D5A000000000000000000000000000000000007B
:10D5B000010011000100FFFF010000000000000059
:10D5C000020017000200FEFF6401000000D5070002
:10D5D000000000000000000000000000000000004B
:10D5E000010007000000000068010000B0D507003E
:10D5F0000200010000000000010000000000000027
:10D6000003000500010000004200000000000000CF
:10D61000000000000000000000000000000000000A
:10D62000010017000400FCFF68010000B0D50700EE
:10D63000020017000400FCFFAC010000E0D5070069
:10D6400000000000000000000000000000000000DA
:10D65000001103000011130002000000010000008F
:10D660000338FDD870470C000C0000005802000081
:10D6700002000000000000000200000000000000A6
:10D68000905C002009000000000000000000000085
:10D690000100000000000000280000000000000061
:10D6A0000000000000010000000001000000000078
:10D6B000000000000000000000000000000000006A
:10D6C0008D9B07000000000000000000000000002B
:10D6D0000200000000000100000000000000000047
:10D6E00008000000000000008D9B070069BF0700D4
:10D6F0000000000000000000040000000000000026
:10D700000000000000000000000000000000000019
:10D710000000000000000000000000000000000009
:10D72000F4000000000000001800000000000000ED
:10D7300000000000000000000000000000000000E9
:10D7400000000000000000000000000000000000D9
:10D75000170000000000000050EADA308883B89F0C
:10D76000604F15F30000C98E0200000000000000A9
:10D7700000000000000000000400000000000000A5
:10D780000000000000000000000000000000000099
:10D790000001000000000000000000000000000088
:10D7A0000000000000000000001000000400000065
:10D7B00001000000F5A5070081D2070085CA070017
:10D7C00071D307008DA3070059CB070069D3070069
:10D7D00039A60700A87B002000100000040000000C
:10D7E0000100000001A6070091D2070093CA0700BC
:10D7F000B5D30700D5A307005DCB07006DD30700A5
:10D8000049A60700982F8A4291443771CFFBC0B5D3
:10D81000A5DBB5E95BC25639F111F159A4823F92FB
:10D82000D55E1CAB98AA07D8015B8312BE85312454
:10D83000C37D0C55745DBE72FEB1DE80A706DC9B15
:10D8400074F19BC1C1699BE48647BEEFC69DC10FC1
:10D85000CCA10C246F2CE92DAA84744ADCA9B05CFD
:10D86000DA88F97652513E986DC631A8C82703B0C0
:10D87000C77F59BFF30BE0C64791A7D55163CA06CE
:10D8800067292914850AB72738211B2EFC6D2C4DDA
:10D89000130D385354730A65BB0A6A762EC9C281C8
:10D8A000852C7292A1E8BFA24B661AA8708B4BC25E
:10D8B000A3516CC719E892D1240699D685350EF488
:10D8C00070A06A1016C1A419086C371E4C7748273F
:10D8D000B5BCB034B30C1C394AAAD84E4FCA9C5BB5
:10D8E000F36F2E68EE828F746F63A5781478C88406
:10D8F0000802C78CFAFFBE90EB6C50A4F7A3F9BEE8
:10D90000F27871C6C0DA0700C8DA0700000000002C
:10D91000000000000010020104D9070014D907001C
:10D92000080000003CD907004CD90700080000009F
:10D930004CD907005CD9070008000000E0DA0700B6
:10D94000E8DA07000000000000000000D0DA07005D
:10D95000E0DA070000000000000000000000000006
:10D96000000000000000000000000000B8DA07001E
:10D97000C0DA07000000000000000000B8570020D7
:10D980005CD907007CD9070008000000C8DA07004E
:10D99000D0DA070000000000000000008CD907006A
:10D9A0009CD907000800000079C1070021C10700C9
:10D9B000C9C007003FC0070045C00700FDBF070002
:10D9C0004BC0070089C007000000000008200001CC
:10D9D000FFFFFFFFFFFFFFFFFFFFFFFF0000000053
:10D9E000000000000000000001000000FFFFFFFF3A
:10D9F000512563FCC2CAB9F3849E17A7ADFAE6BCF1
:10DA0000FFFFFFFFFFFFFFFF00000000FFFFFFFF22
:10DA100096C298D84539A1F4A033EB2D817D0377C8
:10DA2000F240A463E5E6BCF847422CE1F2D1176B63
:10DA3000F551BF376840B6CBCE5E316B5733CE2B36
:10DA4000169E0F7C4AEBE78E9B7F1AFEE242E34F65
:10DA50004B60D2273E3CCE3BF6B053CCB0061D65A2
:10DA6000BC86987655BDEBB3E7933AAAD835C65A2B
:10DA70004B860700E993070005920700F4DA0700D8
:10DA8000B8570020B800000084970700ACDB0700FF
:10DA9000705800203845000094970700A59C0700A7
:10DAA000459C070008580020E05C0020F15C002045
:10DAB000F45C0020F40000003D9D07000000000021
:10DAC00059B807000000000091B8070000000000EE
