:020000040002F8
:1060000018680020C1630200C9630200F171020038
:10601000CD630200CF630200D163020000000000E4
:10602000000000000000000000000000D363020038
:10603000D563020000000000D7630200D9630200AC
:106040007D7A0200DB630200298402002D800200B9
:1060500041800200DB630200A96E0200057E02009F
:10606000DB630200F982020011830200DB6302009D
:10607000DB630200DB630200DB630200DB63020020
:10608000DB630200C17D0200DB630200DB63020010
:1060900055800200DB6302005D800200DB630200CA
:1060A000DB630200DB6302002983020041830200FC
:1060B000D17A0200DB630200000000000000000053
:1060C000DB630200E57A0200DB630200DB630200AF
:1060D000DB630200DB630200DB6302000000000000
:1060E00000000000000000000000000000000000B0
:1060F00000000000000000000000000000000000A0
:10610000000000000000000000000000000000008F
:10611000000000000000000000000000000000007F
:10612000000000000000000000000000000000006F
:10613000000000000000000000000000000000005F
:10614000000000000000000000000000000000004F
:10615000000000000000000000000000000000003F
:10616000000000000000000000000000000000002F
:10617000000000000000000000000000000000001F
:10618000000000000000000000000000000000000F
:1061900000000000000000000000000000000000FF
:1061A00000000000000000000000000000000000EF
:1061B00000000000000000000000000000000000DF
:1061C00000000000000000000000000000000000CF
:1061D00000000000000000000000000000000000BF
:1061E00000000000000000000000000000000000AF
:1061F000000000000000000000000000000000009F
:10620000DFF80CD000F00CFC00480047FDE2020073
:106210001868002030B450E8012F93B2C489234499
:106220008489A34228BF1B1B0489A34202BFBFF37A
:106230002F8F002007E0C3EA020340E80134002C5E
:10624000E9D14FF001000A6030BC704750E8012FDF
:10625000C2EA024240E801210029F7D1704730B478
:1062600050E8022F1FFAA2F3C488A34202BFBFF373
:106270002F8F00200DE0C48923448489A34228BFC6
:106280001B1BC2EA034340E80234002CE8D14FF064
:1062900001000A6030BC704750E8022FC2EA224277
:1062A00040E802210029F7D17047034653E8022F46
:1062B000D988B2EB324F4FF0000017BF92B241EADB
:1062C000014142EA014104E05A68B2EB324F08BF93
:1062D000012043E80212002AE8D1704730B4044696
:1062E00054E8000F0D4644E80053002BF8D1156028
:1062F00030BC704730B4044654E8000F40EA010552
:1063000044E80053002BF7D1156030BC704730B41F
:10631000044654E8000F00EA010544E80053002B4E
:10632000F7D1156030BC704730B4044654E8000F14
:1063300080EA010544E80053002BF7D1156030BC1A
:10634000704730B4044654E8000F00EB010544E800
:106350000053002BF7D1156030BC704730B40446B1
:1063600054E8000FA0EB010544E80053002BF7D1DF
:10637000156030BC704770B404464FF0000054E81C
:10638000006F0D68AE4207BF44E80023012044E8D7
:1063900000630E60002B1CBF0020F0E770BC70474C
:1063A00030B4044654E8000F88422CBF451A054615
:1063B00044E80053002BF5D1156030BC7047000055
:1063C0000648804706480047FEE7FEE7FEE7FEE78F
:1063D000FEE7FEE7FEE7FEE7FEE7FEE77580020068
:1063E000016202002DE9F05F0546002092469B46BF
:1063F00088460646814640241BE0284641464746DB
:10640000224600F02FF853465A46C01A914110D345
:1064100011461846224600F016F82D1A67EB0108BF
:106420004F4622460120002100F00DF817EB00092D
:106430004E41201EA4F10104DFDC484631462A46C5
:106440004346BDE8F09F202A04DB203A00FA02F11F
:10645000002070479140C2F1200320FA03F3194352
:1064600090407047202A04DB203A21FA02F00021F4
:10647000704721FA02F3D040C2F120029140084354
:106480001946704740EA01039B0703D009E008C999
:10649000121F08C0042AFAD203E011F8013B00F8E9
:1064A000013B521EF9D27047D2B201E000F8012B35
:1064B000491EFBD270470022F6E710B513460A4684
:1064C00004461946FFF7F0FF204610BD30B50446DC
:1064D0000020034600E05B1C934203D2E05CCD5CED
:1064E000401BF8D030BD2DE9FE4F804681EA030005
:1064F000C00F0C46009021F0004123F00045B8EB9E
:106500000200A94105D24046214690461C460B4652
:10651000024623F00040104347D0270DC7F30A007E
:10652000C3F30A510290401A019040286BDAC3F37A
:10653000130040F4801B0098924620B10023D2EB58
:10654000030A63EB0B0B01985946C0F14002504619
:10655000FFF779FF06460D4650465946019A00F06E
:10656000B9F910EB08006141002487EA115284EA6E
:10657000E7731A4340D0009A62B3019A012A4FEAA6
:10658000075215DC001B61EB02014FF0004202EAEA
:106590000752CDE90042001C41F5801132462B46DE
:1065A00000F0F0F903B0BDE8F08F40462146F9E76E
:1065B000001B61EB0201001C41F5801300185B41D8
:1065C0002018A2F5001747EB030140EAD570B61971
:1065D0006D4111E06D084FEA360645EAC0754FEA95
:1065E0000752001B61EB0201001C41F580114908B4
:1065F0004FEA30000019514132462B4603B0BDE846
:10660000F04F00F0B0B90098012240000023D0EB19
:10661000020263EBE073009821464FEAE074B8EBA6
:10662000000061EB0401E9E783F000435BE781F0E0
:10663000004158E72DE9FE4F81EA030404F00044CD
:1066400021F0004100944FF0000B23F0004350EA8A
:1066500001045ED052EA03045BD0C3F30A54C1F3D1
:106660000A552C44A4F2F3340194A0FB0254C1F364
:10667000130141F48011C3F3130343F4801301FBAE
:10668000024400FB034E840A970A44EA815447EA15
:106690008357A4FB076802958D0A05FB07854FEA1F
:1066A000932C04FB0C542705029D4FEA065847EA39
:1066B0001637B5EB08056EEB070C870E920E47EA0E
:1066C000811742EA8312A7FB0201B6EB0B0164EBD0
:1066D00000042B0D43EA0C335E1844EB1C50DA46E1
:1066E0005146E7FB0201C5F313044FEA0B3343EABB
:1066F00014534FEA0432019C43EA0603A4F10C044C
:106700000294009CCDE900B400F03CF903B0BDE870
:10671000F08F00200146F9E72DE9F04D81EA0304EE
:1067200004F0004B21F0004514464FF0000A23F01E
:10673000004150EA050220D054EA01021DD0C5F301
:106740000A570246C5F31303C1F31300C1F30A56F7
:1067500040F4801543F48013A7EB0608101BD646BF
:1067600008F2FD3873EB050002D308F1010801E0DF
:1067700092185B41B8F1000F03DA00200146BDE832
:10678000F08D00204FF48011064684460EE0171B62
:1067900073EB050705D3121B63EB050306434CEAB5
:1067A000010C49084FEA300092185B4150EA01079A
:1067B000EDD152EA030012D082EA040083EA050117
:1067C000084305D0101BAB4106D20122002306E08E
:1067D00000224FF0004302E06FF0010253101AEB69
:1067E00006004CEB085110EB0A0041EB0B01BDE831
:1067F000F04D00F0B8B830B40446962308002146A6
:1068000004D0B62330BC002200F07FB8204600211F
:10681000F8E7C1F30A5210B5C1F3130140F2FF3398
:1068200041F480119A4201DA002010BD40F2334356
:106830009A42A2F2334203DC5242FFF713FE10BD2C
:10684000904010BD00F0004230F000400AD0C10D71
:1068500001F56071C0F3160042EA0151C208400719
:1068600011437047002001467047000030B5041EF8
:1068700071F1000404DB4FF00044404264EB01017D
:10688000141E73F1000405DB1C464FF00043524216
:1068900063EB0403994208BF904230BD01F000430E
:1068A00030B421F0004150EA010206D00A0DA2F5F1
:1068B0006072C1F31301002A02DC30BC0020704773
:1068C000440F44EAC104C100E01830BC00EBC250E0
:1068D00000F012B8202A06DBCB17203A41FA02F06A
:1068E00043EAE07306E041FA02F3D040C2F120022D
:1068F00091400843194670470029A8BF7047401CC3
:10690000490008BF20F00100704710B4B0FA80FCC5
:1069100000FA0CF050EA010404BF10BC704749B102
:10692000CCF1200421FA04F411FA0CF118BF012172
:1069300021430843A3EB0C01CB1D4FEA00614FEA52
:10694000102042BF002010BC704700EBC350104421
:106950000029A4BF10BC7047401C490008BF20F0AC
:10696000010010BC704710B5141E73F1000408DA62
:10697000401C41F1000192185B411A4301D120F003
:10698000010010BD2DE9F04D92469B4611B1B1FAC0
:1069900081F202E0B0FA80F220329046FFF753FD18
:1069A00004460F4640EA0A0041EA0B0153465A46A4
:1069B000084313D0114653EA010019D0C8F1400230
:1069C0005046FFF74FFD05460E4650465946424693
:1069D000FFF739FD084305D0012004E02046394681
:1069E000BDE8F08D0020054346EAE0762C433743AE
:1069F0000A986305E40AA0EB08000022FD0A44EAB5
:106A000047540A3002D500200146E9E70105101974
:106A10006941DDE9084500196941BDE8F04DA2E78B
:106A2000064C074D06E0E06840F0010394E80700DB
:106A300098471034AC42F6D3FFF7E6FB305D030015
:106A4000505D03002DE9F04D00231A461B1A8A41C0
:106A500003DB00200146BDE8F08DC1F30A52C1F30B
:106A6000130141F480154FF0000BD10702D100183B
:106A70006D41521E0027044640F2FF11384601EBDB
:106A8000620A3E468046024600204FF48011FFF71E
:106A9000E9FCC2197141BB1846EB0100B4EB030CD1
:106AA00075EB000C04D3E41A65EB000517460E469F
:106AB000241908F101006D4180463428E3DDF919FD
:106AC00046EB0600091BA84103D24FF0FF321346E4
:106AD00001E0002213461BEB070046EB0A51BDE81C
:106AE000F04DFFF740BF0EB5C10F80EAE0700844DB
:106AF000CA07002140F233438DE80E000A460B46D8
:106B0000FFF740FF03B000BD0EB540F233410291E4
:106B10000021CDE900110A460B46FFF733FF03B011
:106B200000BD70B5C1F30A5201F000450024C1F365
:106B3000130140F2FF3341F480119A4201DA002040
:106B400070BD40F233439A42A2F2334203DC524218
:106B5000FFF788FC00E090402C43F1D0404270BD2C
:106B600070B58C1810F8015B15F0070301D110F80F
:106B7000013B2A1106D110F8012B03E010F8016B3C
:106B800001F8016B5B1EF9D12B0705D40023521EBF
:106B90000DD401F8013BFAE710F8013BCB1A921C27
:106BA00003E013F8015B01F8015B521EF9D5A14225
:106BB000D8D3002070BD10B50CF05FFA04F090F847
:106BC00006F0EAF906F03AFA0DF018FA02F06AFF58
:106BD00004F0AAFE10BD000070B505460E461E204A
:106BE00009F06DFD0446012C02D10349087002E052
:106BF00000200149087070BDA22A002090ED000A13
:106C0000B8EEC00ADFED120A80EE201A81ED001AFC
:106C100090ED010AB8EEC00ADFED0D0A80EE201AF1
:106C200081ED011A90ED020AB8EEC00ADFED080A04
:106C300080EE201A81ED021A90ED030AB8EEC00A28
:106C4000DFED030A80EE201A81ED031A7047000081
:106C50000000804E10B501F07FFB08F0FBFF00F054
:106C600059FC10BD70B52DED0A8B04460E46154635
:106C700094ED000AB5EEC00AF1EE10FA1CDD94EDB9
:106C8000000ADFED810A20EE200A10EE101A0846F5
:106C9000FFF7D8FD41EC1B0BB0EE4B0AF0EE6B0A90
:106CA00002F0F2F8B0EE40AAF0EE60AA51EC1A0B36
:106CB000FFF7AFFD30702EE094ED000AB5EEC00A8C
:106CC000F1EE10FA27D894ED000ADFED700A30EEED
:106CD000C00ADFED6D0A20EE200A10EE101A0846F9
:106CE000FFF7B0FD41EC1C0BB0EE4C0AF0EE6C0A65
:106CF00002F0CAF8B0EE40BAF0EE60BA9FED640B55
:106D000053EC102B51EC1B0BFFF791FC41EC1A0BD1
:106D1000FFF77FFD307094ED000A10EE101A084660
:106D2000FFF790FD41EC1C0BB0EE4C0AF0EE6C0A44
:106D300002F036F9B0EE40BAF0EE60BA9FED560BB5
:106D400053EC102B51EC1B0BFFF7CDFB41EC1A0B56
:106D5000FFF7A4FD09EE100A9FED510A29EE000A83
:106D600010EE101A0846FFF76DFD41EC1B0BB0EE5C
:106D70004B0AF0EE6B0A01F08BFFB0EE40AAF0EE8A
:106D800060AA51EC1A0BFFF744FDA87094ED020ABB
:106D9000DFED440A30EE200A10EE101A0846FFF725
:106DA00051FD41EC1C0BB0EE4C0AF0EE6C0A02F007
:106DB000F7F8B0EE40BAF0EE60BA9FED370B53EC47
:106DC000102B51EC1B0BFFF78EFB41EC1A0BFFF75E
:106DD00065FD08EE100A9FED320A28EE000A10EE5B
:106DE000101A0846FFF72EFD41EC1B0BB0EE4B0AC4
:106DF000F0EE6B0A01F04CFFB0EE40AAF0EE60AA94
:106E000051EC1A0BFFF705FD687094ED010A10EEC6
:106E1000101A0846FFF716FD41EC1C0BB0EE4C0AA9
:106E2000F0EE6C0A02F0BCF8B0EE40BAF0EE60BAD8
:106E30009FED190B53EC102B51EC1B0BFFF753FB81
:106E400041EC1A0BFFF72AFD08EE900A9FED140A99
:106E500028EE800A10EE101A0846FFF7F3FC41EC0A
:106E60001B0BB0EE4B0AF0EE6B0A01F011FFB0EE17
:106E700040AAF0EE60AA51EC1A0BFFF7CAFC28708A
:106E8000BDEC0A8B70BD00005C8F2240000000004A
:106E90000000000000002E40000000000000F03F55
:106EA0000000FF42DB0FC93F2DE9F04F89B00027FA
:106EB000002008904FF4807007900126002412E013
:106EC000079809F081FC40B100BF7B480068304062
:106ED00018B1079809F06AFC374376000798001D3F
:106EE00080B20790641C082CEAD34FF4BE7009F0FE
:106EF0006BFC50B14FF4BE7009F058FC47F00047EE
:106F000008AA0121002009F037FCF8B200B30126DD
:106F100000241BE006EA0700B0B100BF674850F844
:106F20002400C0F30420804600BF644850F82400C9
:106F3000C0F301408146204604F022FA054615B10F
:106F400049464046A84700BF7600641C082CE1D3A0
:106F500007F0004000287DD0002006900590002515
:106F600005E04FF0FF3004A941F825006D1C002D0D
:106F7000F7D000BF0020069000245FE05048005D7D
:106F80000390039820F0C0094D480057401C00288A
:106F900053D004A9484609F084F800284DD003983E
:106FA0004FEA901A484604F033FA804604F0E8F9B4
:106FB0000290029810B9BAF1030F3DD1BAF1030F54
:106FC00003D105A9484609F077F800BF00BF4FF08C
:106FD000A041084600F5E06151F82910C1F30148CD
:106FE00000BF08A9484609F05CF88346BBF1000FD2
:106FF00002D0B8F1020F05D0BBF1000F1BD1B8F1E0
:10700000030F18D1BAF1030F0FD1B8F1020F01D15C
:10701000032000E0022001904846019909F02BFB73
:107020000698401CC0B2069000BF029818B15146A5
:107030004846029A904700BF00BF641C002C9DD0B8
:10704000069888B34FF0010803AA0121002009F037
:1070500093FB00E02DE000250BE003A850F825008D
:1070600008A951F82510884202D04FF0000802E02C
:107070006D1C002DF1D000BFB8F1000F02D0002030
:10708000069010E000250CE003A850F8250008A9A0
:1070900041F8250005A850F8250004A941F825006D
:1070A0006D1C002DF0D000BF069800287FF462AF61
:1070B00000BF09B0BDE8F08F0463004010650040D8
:1070C000844300202DE9FF410AF0BAF8044600BFCE
:1070D000254625B100BF284602F08AFD00BF00BF4B
:1070E0003C480068039000208DF80D003A4A03A93F
:1070F0001B200AF02BF8044600BF254625B100BF2F
:10710000284602F075FD00BF00BF3248001D006830
:10711000029000208DF80900304A02A90C200AF0E4
:1071200015F8044600BF254625B100BF284602F0E9
:107130005FFD00BF00BF27480830006801900120B4
:107140008DF80500264A01A91E2009F0FFFF04461C
:1071500000BF254625B100BF284602F049FD00BF0B
:1071600000BF1C480C300068009003208DF805001B
:107170001B4A01A91D2009F0E9FF044600BF25466E
:1071800025B100BF284602F033FD00BF00BF1C211F
:107190000020002213461546164600BF4FF0A04CB3
:1071A000674642EA430C4CEA800C4CEA052C4CEA58
:1071B000064807F5E06C4CF8218000BF00BF0121B4
:1071C0001B2009F06DFF01211E2009F069FFBDE8B9
:1071D000FF8100009855030005840200357202000B
:1071E000D96B0200014903C970470000D82A00206A
:1071F00000BF00BF00BF00BF00BFBFF34F8F00BF85
:1072000000BF00BF0948006800F4E0600849084377
:10721000001D0649086000BF00BF00BFBFF34F8FCD
:1072200000BF00BF00BF00BF00BFFDE70CED00E0E6
:107230000000FA0538B504460D460648064B074AD5
:1072400007490090074804F06DFE012006490870C8
:1072500038BD0000B22A0020B02A0020DC3900200E
:10726000AA2A0020A42A0020A02A00201CB500F091
:1072700011F81424002000900346012211460190C9
:10728000204609F0B0F900BF0121142009F03AFAB4
:107290001CBD00001FB5044B0FCB8DE80F006946E5
:1072A000024809F043FE1FBD08560300F0550300D5
:1072B000F0B58DB007460D4616461C4600201A490B
:1072C00008701A4807600671002018498860087322
:1072D0001822174907A8FFF7D5F807A9154809F09C
:1072E00043FE04E010480078012800D100E0F9E7EF
:1072F00000BF00200C4908700C4908600846047162
:107300008560047318220A49183101A8FFF7BAF8FA
:1073100001A9084809F028FE05E003480078012883
:1073200001D10DB0F0BDF8E7182B0020BC3C0020C7
:1073300048560300F055030070B505460C46002082
:1073400009490870094805600471002007498860F0
:1073500008730749074809F007FE04E0024800786F
:10736000012800D170BDF9E7182B0020BC3C00209B
:107370001C2B0020F055030070B58CB006460D465E
:10738000144600201B4908701B48066001201A495A
:1073900008710020886008731822184906A8FFF7B2
:1073A00071F806A9164809F0DFFD04E011480078DD
:1073B000012800D100E0F9E700BF00200D49087066
:1073C0000D48056004710F480B4988600846047336
:1073D00018220A4918316846FFF754F869460848E8
:1073E00009F0C2FD05E003480078012801D10CB086
:1073F00070BDF8E7182B0020BC3C00201856030095
:10740000F0550300CC3C002010B5044600211420A8
:1074100009F078F900200149087010BD182B0020F0
:1074200070B504460D460121142009F06BF90120C6
:107430000149087070BD0000182B00200122014B8B
:107440001A707047182B002001280BD10D490978BC
:1074500014310C4A117011460978302910DB3021A3
:1074600011700DE002280BD106490978152902DCBC
:107470001521044A1170034909781439014A117021
:10748000704700009E2B00200149087070470000E3
:107490009E2B002010B5044621469E2000F0D8F90E
:1074A00010BD000070B50025002018490870487014
:1074B000002404E00221154800F076F9641C032C36
:1074C000F8DB17201149087018204870002414E0D8
:1074D00002231A460E490D4800F044F9FF200B49DB
:1074E000087048700A480078172805D10848407885
:1074F000182801D1E5B200BF641C042CE8DB032D81
:1075000001D1012070BD0020FCE70000982B002075
:107510009C2B002070B500F023FB002411E04FF4F9
:10752000A050164921F81400022C04D131F814009F
:1075300000F0E5F804E0114931F8140000F054F9C6
:10754000641C032CEBDB002513E000200B4921F821
:107550001500022D04D131F8150000F0C9F804E03F
:10756000064931F8150000F03FF9052008F0CAFE81
:107570006D1C032DE9DB012070BD0000A02B002055
:1075800010B5044621468C2000F062F910BD10B5FC
:1075900000F0CCFA642008F0B5FEFFF783FF044644
:1075A000204610BD2DE9F04105464E49097801F508
:1075B000A05000F0ABF800242CE004EB4400284479
:1075C00080784FF6FF7101EA0020C4F10F0101EB52
:1075D0004101454A22F8110004EB44002844407858
:1075E0004FF6FF7101EA0020C4F10F0101EB4101E8
:1075F00002EB4101488004EB4400285C4FF6FF7128
:1076000001EA0020C4F10F0101EB410102EB41014D
:107610008880641C0F2CD0DB2F20405D4FF6FF715B
:1076200001EA0020304908802E20405D4FF6FF71AE
:1076300001EA00202C49488095F82D004FF6FF7193
:1076400001EA00202849888000241AE0002715E07C
:10765000022F09D104EB4401234A02EB410131F826
:107660001700FFF717FF08E004EB44011E4A02EB86
:10767000410131F8170000F0B7F87F1C032FE7DB5A
:10768000641C0F2CE2DB00BF00240FE0022C06D1AB
:1076900015495A3131F81400FFF772FF05E012491D
:1076A0005A3131F8140000F09FF8641C032CEDDB14
:1076B00000BF002611E04FF6FF700C4921F81600BC
:1076C000022E04D131F8160000F012F804E0074948
:1076D00031F8160000F088F8761C032EEBDBBDE8CD
:1076E000F08100009E2B0020E83D0020A02B002010
:1076F00010B504462146AC2000F0AAF810BD10B524
:1077000004462146802000F0A3F810BD70B5054660
:10771000002410E0094820F81450022C05D101463D
:1077200031F81400FFF7EBFF04E0044931F81400CE
:1077300000F05AF8641C032CECDB70BDA02B002079
:1077400010B500F001F810BD1FB5044B0FCB8DE84C
:107750000F006946024809F0E9FB1FBD905603007F
:10776000785603002DE9F04104460D4616461F46A3
:107770000020094908700948046006718560077394
:107780000749084809F0F0FB05E0034800780128A4
:1077900001D1BDE8F081F8E74C2B0020183D002016
:1077A000682B00207856030070B505460C46002073
:1077B000094908700948056004710020074988607C
:1077C00008730749074809F0CFFB04E00248007836
:1077D000012800D170BDF9E74C2B0020183D002096
:1077E000502B00207856030038B50446200A8DF847
:1077F0000000E0B28DF8010002216846FFF7D4FFD7
:1078000038BD000070B506460C4615460B4806808C
:1078100000200B4908700B480460057100200949DD
:10782000886008730849094809F09EFB04E0044891
:107830000078012800D170BDF9E700004E2B002030
:107840004D2B0020183D0020802B0020785603008F
:1078500038B505460C46200A8DF80000E0B28DF8D8
:107860000100022269462846FFF7CCFF38BD000020
:107870000021014A117070474C2B002010B50446BE
:107880000348008800F096F900200249087010BDF6
:107890004E2B00204D2B00200122014B1A70704707
:1078A0004C2B00200122014B1A7070474D2B0020F9
:1078B00010B5002008F01EF810BD10B5012008F02A
:1078C00019F810BD10B540F27114204604F0C6F945
:1078D00010BD0000FEB507F00DFD06460EB10020FC
:1078E000FEBD782008F04EF9782007F073FC0F20D9
:1078F00008F0FEF801A807F0EDFC684607F0C8FCA8
:1079000002A807F09FFC04F001FB134C204606F090
:10791000E5F90546E01C06F0E1F945EAC00085B24C
:10792000A01D06F0DBF945EA801085B200BF2F46A6
:10793000384604F051FC094804F0E0FB084804F024
:10794000D5FBFFF7BFFF0F2004F0E0FB012004F0A0
:1079500015FC0020C4E70000CE3700206979020042
:107960006579020000BF704770B504460D46062CCD
:1079700035D100202149087021480078401C204959
:107980000870084600780B2801D1002008701C48B8
:10799000007810B90020FFF777FD19480078062815
:1079A00007D1FFF785FF022004F0E8FBFFF785FF12
:1079B00020E013480078072807D1FFF779FF01205E
:1079C00004F0DCFBFFF779FF14E00D48007808288D
:1079D00010D101200B49087002F09CF80AE0012C3C
:1079E00003D10120FFF730FD04E0022C02D1022078
:1079F000FFF72AFD00200449087070BDCC37002035
:107A0000CB370020CD370020A02A002000F01F0235
:107A100001219140024A430942F8231070470000B7
:107A200080E200E000F01F02012191404209920033
:107A300002F1E022C2F800117047000000F01F02BE
:107A400001219140024A430942F823107047000087
:107A500000E200E010B5002807DA4A07140E054AD4
:107A600000F00F031B1FD45403E04A07130E024A11
:107A7000135410BD18ED00E000E400E010B54FF421
:107A8000807008F00BFC80B14FF4807008F00FFCA0
:107A9000012008F015FC0D48407930B901200B4950
:107AA000487108460168002088474FF4827008F04A
:107AB000F5FB50B14FF4827008F0F9FB022008F09A
:107AC000FFFB024801680120884710BD6438002090
:107AD00010B50249024806F056F910BD8C4300204B
:107AE00000C0014010B50249024806F04CF910BD33
:107AF00094430020001002403EB50A4A07CA8DE8B0
:107B0000070000226946084809F080FC044600BFCF
:107B1000254625B100BF284602F06AF800BF00BF25
:107B20003EBD0000B4550300BC2A002010B5022061
:107B30000849088008460849086004208880012018
:107B400088600020C86002230A22044809F0FAFC79
:107B500010BD0000CC2A0020FC390020BC2A0020E7
:107B600010B501231A460449044809F0EBFC012131
:107B7000024809F029FD10BDFC390020BC2A002074
:107B80003EB50A4A07CA8DE8070000226946084840
:107B900009F03CFC044600BF254625B100BF28463D
:107BA00002F026F800BF00BF3EBD0000A85503004C
:107BB000B42A002010B5044607480480074908602D
:107BC00004208880012088600020C86001231A46B4
:107BD000034809F0B7FC10BDC42A0020EC3900208E
:107BE000B42A00202DE9F0412DED088B84B0044625
:107BF0000D4694ED000AD4ED010A20EE200AD4EDE2
:107C0000020A94ED031A00EE810AF0EE000A20EE5B
:107C1000200A10EE108A94ED010A20EE000AD4ED3D
:107C2000020A94ED021A00EE810AF7EE000AB0EEA5
:107C3000001A41EE400A10EE907A3846FEF702FE36
:107C400041EC1A0B4046FEF7FDFD41EC1B0BB0EE7C
:107C50004A1AF0EE6A1AB0EE4B0AF0EE6B0A00F028
:107C60001FFFB0EE409AF0EE609A51EC190BFEF750
:107C700015FEA86094ED000AD4ED020A20EE200A59
:107C8000D4ED030A94ED011A00EEC10AF0EE000AE9
:107C900020EE200A10EE106A3046FEF7D3FD41ECCC
:107CA0001A0BB0EE4A0AF0EE6A0A01F0E1F8B0EE03
:107CB000409AF0EE609A9FED3E0B53EC102B51EC86
:107CC000190BFEF7D3FD19D89FED3B0B8DED000B83
:107CD0003046FEF7B7FDCDE902010199039861F343
:107CE0001E0001909DED000BB0EE409AF0EE609A00
:107CF00051EC190BFEF7D2FD686013E03046FEF739
:107D0000A1FD41EC1A0BB0EE4A0AF0EE6A0A00F04F
:107D1000ABFBB0EE409AF0EE609A51EC190BFEF717
:107D2000BDFD686094ED000AD4ED030A20EE200A40
:107D3000D4ED010A94ED021A00EE810AF0EE000A79
:107D400020EE208A94ED020A20EE000AD4ED030A08
:107D500094ED031A00EE810AF7EE000AB0EE001A65
:107D6000F0EE608A41EE408A18EE900AFEF76AFD56
:107D700041EC1A0B18EE100AFEF764FD41EC1B0BE8
:107D8000B0EE4A1AF0EE6A1AB0EE4B0AF0EE6B0A49
:107D900000F086FEB0EE409AF0EE609A51EC190BBE
:107DA000FEF77CFD286004B0BDEC088BBDE8F081D7
:107DB000000000000000F03F00000060FB21F93FE0
:107DC00010B500200949086000210948C0F8441195
:107DD000C0F84811C0F84C1100200549C1F8000155
:107DE00002493C3908600CF025FF10BD40110140EC
:107DF0000010014008B56946002009F0DFFCBDF91C
:107E0000000008BDFEB54FF4827008F0A5FE002802
:107E100037D04FF4827008F0A9FE6C4890F82E001D
:107E200018B16A4890F82F0058B300208DF8000070
:107E300066484068019065480189ADF80810C0683F
:107E400018B900206149087412E06048008B5F494E
:107E500048830846C06848600846008B08810020B7
:107E6000C860084690F82E0010B9002008F096FE71
:107E700056480168684688470020544981F82F0019
:107E800000BF524890F82E00002852D04FF4807066
:107E900008F062FE00284CD04FF4807008F066FEB7
:107EA0004A48408B494991F82D10884216DD4748D1
:107EB000408B464991F82D10401A444948830A46A0
:107EC00012890B465B8BD21A0B465B6803EB4200B0
:107ED0000A4692F82D1008F02BFE23E03B48408B19
:107EE0003A4991F82D1088420FD13848C06860B1E6
:107EF0000120364981F82F00002048830A4692F875
:107F00002D10D06808F014FE0CE03048408B2F494B
:107F100091F82D10884205D101202C4981F82F00BD
:107F2000002048834FF4827008F020FE042008F0FF
:107F300035FE4FF4887008F00FFE70B14FF4887072
:107F400008F014FE00202149087402208DF800007A
:107F5000084601686846884700BF4FF48A7008F0F9
:107F6000FBFD38B14FF48A7008F000FE002017497D
:107F700008742AE01548456924E0B5FA85F64FF003
:107F80000040F0408543B00000F58C74204608F0B6
:107F9000E3FDB8B1204608F0E9FD01208DF80000AE
:107FA000A4F58C70C0F3C7008DF80400A4F58C70A4
:107FB000012121EA90018DF8051004480168684606
:107FC000884700BF002DD8D100BFFEBD1043002060
:107FD000FEB5134A07CA8DE807000025114E05B902
:107FE000114D3146284609F075FB044600BF00BF1D
:107FF000254625B100BF284601F0FAFD00BF00BFAD
:108000006946002009F0FAFA044600BF254625B16A
:1080100000BF284601F0ECFD00BF00BFFEBD000020
:10802000C455030025380300C055030010B50249AC
:10803000024805F0FAFE10BD9C43002000300040CD
:1080400010B503494FF0402005F0EFFE10BD0000D1
:10805000C043002010B50CF0E9FC10BD10B508F0CD
:10806000CDFE10BD01480249086070470090D00362
:10807000D038002010B504F089FB28B18D48008865
:10808000C0F304208C49086004F0D4FB10B18B4885
:108090008B49486704F0F6FB30B18648E038006849
:1080A000C0F342308749086004F016FC28B18648C6
:1080B000006820F080708449086004F025FC48B115
:1080C0000020824908604FF08041C1F810017D49CD
:1080D000091F086004F042FC18B10320794964319B
:1080E000086004F053FC68B105207949086001205C
:1080F00077497831086000207549083108603F20D1
:10810000091F086004F05AFC002855D06948E03087
:108110000068704908606748E4300068091D08601D
:108120006448E8300068091D08606248EC30006867
:10813000091D08605F48F0300068091D08605D484F
:10814000F4300068091D08605A48F8300068614939
:10815000203108605748FC300068091D08605E48FF
:108160000068091D08605C48001D0068091D086062
:10817000594808300068091D086057480C300068ED
:10818000091D0860544810300068524940310860A9
:10819000514814300068091D08604F4818300068C5
:1081A000091D08604C481C300068091D08604A48D9
:1081B00020300068091D086004F0BEFA30B13D4867
:1081C000CC38006800F04F004449086004F008FB18
:1081D00040B14348006800F0010018B16FF00100A1
:1081E0003F49086004F03EFB28B13E48006840F477
:1081F00080603C49086034487438006840F470007E
:1082000031497439086000BF00BF00BFBFF34F8F12
:1082100000BF00BF00BF00BF00BF00BFBFF36F8F34
:1082200000BF00BF00BF3048006800F00100E0B3AD
:1082300001202E49086000BF2D4800680028FBD0AF
:108240002948006820F001004FF01021C1F80C020D
:1082500000BF274800680028FBD0002023490860A1
:1082600000BF234800680028FBD000BF00BF00BF4C
:1082700000BF00BFBFF34F8F00BF00BF00BF124859
:10828000F038006800F4E0601A490843001D0E4908
:10829000F039086000BF00BF00BFBFF34F8F00BFC1
:1082A00000BF00BF00BF00BFFDE7FFE7FFF7DAFE3A
:1082B00010BD000024030010403501400DF0ADBAA0
:1082C00000C007403C050040FCED00E00C01004010
:1082D0001056004020C5004024040010E40E004069
:1082E000000400403C1700400C12001004E501405F
:1082F00000E401400000FA0510B5042202490348D9
:1083000005F013FD10BD0000E04200200090004089
:1083100010B504220249034805F007FD10BD000016
:10832000EC42002000A0004010B50622024903489C
:1083300005F0FBFC10BD0000F842002000A0014049
:1083400010B506220249034805F0EFFC10BD0000FD
:108350000443002000B0014010B5024809F042FC7F
:1083600010BD0000D055030010B5024809F04CFCC8
:1083700010BD0000D05503002DE9FE4F4FF0000B5B
:108380001C4903C9CDE9010103208DF807001A4AF1
:1083900001A91A4809F06CFC834600BF5D4625B16F
:1083A00000BF284601F024FC00BF00BF012513498F
:1083B0000868D0F81015CEB200BF00964FF47A507E
:1083C000A5FB009A48465146009AFEF74BF807462F
:1083D0003C4600BF00BF012004232246022100903A
:1083E000064809F023FC0021054A11605160BDE8F0
:1083F000FE8F0000E8550300794B0300D0550300C1
:10840000D82A002070B505460E461B2008F057F903
:108410000446012C02D10349087002E00020014902
:10842000087070BDA12A002010B502490868804775
:1084300010BD00006C38002003B401984100009882
:1084400050EAC12018BF04204A0D18BF40F00100B7
:1084500040F2FF72B2EB515F08BF40F0020001280A
:1084600008BF052002B0704770B5C1482DED020B62
:108470002DED0E8B82B0119D25F000449FEDBEDBEB
:108480009FEDBFEB84423EDBA4F140511098A1F177
:108490007F6108430FD0BC48844202DC28D1109889
:1084A00030B39DED100B02B0BDEC0E8B02B0BDE8F9
:1084B000704001F0C1B99DED100B53EC1D2B51EC38
:1084C000100BFEF7B7F89DED100B41EC180B53ECB9
:1084D0001E2B51EC100BFEF7ADF853EC182BFEF7EA
:1084E00002F841EC100B02B0BDEC0E8B02B070BD77
:1084F000012001F007FA02B0BDEC0E8B02B0BDE81E
:10850000704001F0ADB9A1489FEDA18B844256DACD
:108510009DED100BB4F1795F0ADA51EC100BFFF707
:108520008BFF042808BF01F0ABF99DED100BDAE7D3
:1085300053EC102B51EC100BFEF77CF841EC190BAF
:1085400095480621B0EE490AF0EE690A784401F038
:108550005FF853EC192B51EC100BFEF76BF841EC64
:108560001A0B8E48B0EE490AF0EE690A04217844ED
:1085700001F04EF853EC192B51EC100BFEF75AF8A2
:1085800053EC182BFDF7AFFF41EC100B51EC1A0B1D
:1085900053EC102BFEF7C0F8CDE900019DED000B68
:1085A00053EC102B9DED100B51EC100BFEF742F825
:1085B0009DED101B53EC112BFDF795FFD2E09DEDC7
:1085C000100B51EC100B04F075FB53EC182BFEF75D
:1085D0002EF89FED730BCDE9000153EC102B9DEDB0
:1085E000000B51EC100BFEF725F841EC190B6E480F
:1085F0000621B0EE490AF0EE690A784401F008F865
:1086000053EC192B51EC100BFEF714F841EC1B0B3B
:108610006648B0EE490AF0EE690A0421784400F099
:10862000F7FF53EC192B51EC100BFEF703F853EC4A
:10863000182BFDF758FF41EC1C0B51EC190B0CF0FB
:10864000D2F841EC180B5A489FED5BABA04222DCFC
:1086500053EC1C2B51EC1B0BFEF75EF8CDE900012F
:108660009DED000B51EC180B53EC102BFDF7E2FFC6
:1086700053EC182BFDF737FF53EC1A2BFDF7DAFFFD
:1086800053EC1D2BFDF7D0FF53EC1E2BFDF7CFFF56
:1086900041EC100B5FE08DED008B002000909DED14
:1086A000000B51EC180B53EC102BFDF71CFF9DED4C
:1086B000000B41EC1E0B53EC102B51EC100BFDF793
:1086C000B9FF53EC192BFDF7B2FF53EC1E2BFEF74D
:1086D00023F841EC190B53EC1C2B51EC1B0BFEF750
:1086E0001BF841EC1B0B53EC1A2B51EC190BFDF74B
:1086F000A1FF53EC1D2BFDF79AFF41EC190B53EC36
:108700001A2B51EC180BFDF795FF53EC1B2BFDF7C3
:1087100091FF53EC192BFDF787FF9DED000B41EC0A
:10872000180B53EC1A2B51EC100BFDF783FF9FED48
:10873000249B53EC192BFDF77AFF41EC100B51EC05
:10874000180B53EC102BFDF76FFF53EC192BFDF7B3
:108750006EFF41EC100B002D3FF7C5AE51EC100B36
:1087600081F0004141EC100BBDE60000000000006C
:108770000000F03F00000000075C143326A6913C87
:10878000182D4454FB21F93F0000F07F0000E03F2A
:10879000000000000000F03FD0D50000DED5000052
:1087A000000000000000E03F22D5000030D50000AE
:1087B0003333EF3F000000000000000000000040E5
:1087C000182D4454FB21E93F70B59B482DED020B59
:1087D0002DED068B079D25F00044A04218DC97483C
:1087E000844202DC0AD1069840B19DED060BBDEC37
:1087F000068B02B0BDE8704001F01EB8002DCCBF62
:108800009FED8F0B9FED900BBDEC068B02B070BD02
:108810008F48A04215DD8F48A042D8BF4FF0FF34EB
:1088200058DD9DED060B51EC100BFFF705FE0428FB
:1088300008BF01F025F89DED060BBDEC068B02B0DC
:1088400070BD9DED060B51EC100B04F033FACDE931
:10885000060181489FED828BA0423CDD8248A04208
:108860001FDD00249FED82AB9DED060B53EC1A2B10
:1088700051EC100BFDF737FE9DED060B41EC190B8B
:1088800053EC1A2B51EC100BFDF7D4FE53EC182BC4
:10889000FDF7CAFE53EC192BFDF73EFFCDE90601AB
:1088A00049E09DED060B012453EC182B51EC100B05
:1088B000FDF719FE9DED060B41EC190B53EC182B3F
:1088C00051EC100BFDF7B0FE53EC192BFDF724FF14
:1088D000CDE906012FE06848A0421FDD02249FED8C
:1088E000689B9DED060B53EC192B51EC100BFDF71B
:1088F000A1FE53EC182BFDF7F6FD9DED060B41ECA8
:10890000180B53EC192B51EC100BFDF78DFE53ECAB
:10891000182BFDF701FFCDE906010CE09DED060BDC
:10892000032453EC102B9FED580B51EC100BFDF76B
:10893000F3FECDE906019DED060B53EC102B51EC37
:10894000100BFDF777FE41EC180B53EC182BFDF7DD
:1089500071FE41EC190B4E480621B0EE490AF0EECB
:10896000690A784400F054FE53EC182B51EC100BBC
:10897000FDF760FE41EC180B4648B0EE490AF0EEF8
:10898000690A0521784400F043FE53EC192B51ECA1
:10899000100BFDF74FFE41EC100B51EC180B53EC94
:1089A000102B002C0EDAFDF79EFD9DED061B53ECFF
:1089B000112BFDF73FFE9DED061B53EC112BFDF730
:1089C00036FE35E0FDF78FFD9DED061B53EC112BB8
:1089D000FDF730FE41EC100B2F48784400EBC4004B
:1089E00090ED001B51EC100B53EC112BFDF71CFE0E
:1089F0009DED061B53EC112BFDF716FE41EC100B01
:108A00002648784400EBC40090ED001B51EC100B9D
:108A100053EC112BFDF70BFE41EC100B002DA2BF08
:108A2000BDEC068B02B070BD51EC100B81F0004123
:108A300041EC100B01E70000000010440000F07F43
:108A4000182D4454FB21F93F182D4454FB21F9BF44
:108A50000000DC3F0000203E0000F33F000000006B
:108A6000000000000000F03F0000E63F00000000B2
:108A700000000000000000400080034000000000F3
:108A8000000000000000F83F000000000000F0BF00
:108A900072D2000028D20000B2D100006AD10000DA
:108AA00070B56B4E2DED040B2DED028B82B0DDF811
:108AB0001CC0DDE905235C422CF000411C4341EA67
:108AC000D474049D22F00040B44205D86C422C437B
:108AD00040EAD474B4420BD99DED061B9DED040B06
:108AE00002B0BDEC028B04B0BDE8704000F0AEBE39
:108AF000ACF14054A4F17F641C430BD0022404EA7F
:108B0000AC7444EAD27405439FED538B9FED542B14
:108B100007D015E09DED040B51EC100B01F05EF950
:108B200042E0002C11BF012C9DED040B02B0BDEC06
:108B3000028B04BF04B070BD022C38D0032C3BD094
:108B40000B439FED491B9FED4A0B0AD0B14218D150
:108B5000B04209D121F0804120F08040079105907A
:108B60000FE0002A15DA10E0434B7B44002C08BFCD
:108B700093ED000B0DD0012C10D0022C17D0032C3C
:108B80001AD0B0421DD1002A03DAB0EE410AF0EE4D
:108B9000610A02B0BDEC028B04B070BD93ED000B16
:108BA00051EC100B81F0004141EC100BF1E7B0EEFD
:108BB000480AF0EE680AECE7B0EE420AF0EE620A0C
:108BC000E7E7401A00153C28C8BF8DED000B19DC03
:108BD000BCF1000FBEBF10F13C0F9FED290B8DEDD6
:108BE000000B0FDB9DED060B53EC102B9DED040BE2
:108BF00051EC100BFDF790FD04F05CF801F0EEF87D
:108C0000CDE90001002C08BF9DED000BC1D0012C67
:108C100010D0022C9FED1C0B53EC102B9DED000B84
:108C200051EC100B0DD0FDF7FFFC53EC182BFDF7AA
:108C3000FBFCB9E7019880F0004001909DED000B2E
:108C4000A7E7FDF7F1FC53EC182BFDF7F0FCABE7C1
:108C50000000F07F00000000182D4454FB21094063
:108C6000182D4454FB2109C0182D4454FB21F9BF91
:108C7000182D4454FB21F93FCAD000000000000029
:108C80000000000000000000075C143326A6A13C91
:108C90002DE9F0412DED020B9FED3D0B2DED028BEB
:108CA0009FED3D8BDDE90254C4F30A50A0F2FF367C
:108CB000142E37DA002E18DA53EC102B9DED020B30
:108CC00051EC100BFDF70FFC53EC182BFDF7CEFD0C
:108CD00057D2002CBCBF4FF00044002551DB54EAB2
:108CE000050018BF2E4C1BD14BE02E4820FA06F78A
:108CF00004EA070028431FD053EC102B9DED020B14
:108D000051EC100BFDF7EFFB53EC182BFDF7AEFD0C
:108D100037D2002C03DD4FF48010F0400444BC43F4
:108D200000252EE0332E07DCA6F114004FF0FF31B2
:108D300021FA00F73D4206D19DED020BBDEC028BFE
:108D400002B0BDE8F08153EC102B9DED020B51EC0D
:108D5000100BFDF76CFC53EC182BFDF787FD10D2C0
:108D6000002C0DDD142E08BF641C09D0C6F13400A0
:108D7000012101FA00F02844A84238BF641C0546CE
:108D8000BD43CDE902549DED020BD7E70000000082
:108D90009C7500883CE4377E000000000000000065
:108DA0000000F03FFFFF0F0010B52F499FED2C1B77
:108DB0002DED020B84B0059820F000408842D8BF0A
:108DC0009DED040B2DDD2949884209D1049840B955
:108DD0004FF0010000F096FD00F042FD06B010BD1E
:108DE00005DB9DED040B00F027FD06B010BD6846C5
:108DF0009DED040B00F038F910F0030004BF9DED69
:108E0000021B9DED000B0CD001280ED09DED021B26
:108E10009DED000B022817D0012000F075FC06B074
:108E200010BD00F03DFB06B010BD9DED021B9DED99
:108E3000000B012000F068FC51EC100B81F00041A8
:108E400006B041EC100B10BD00F02AFB51EC100BEA
:108E500081F0004106B041EC100B10BD0000000095
:108E60000000000000000000FB21E93F0000F07F4F
:108E70002DED020B019820F0004001909DED000BBC
:108E800002B07047000000002DE9F0412DED020B0B
:108E90009FED3D0B2DED028B9FED3D8BDDE90254E7
:108EA000C4F30A50A0F2FF36142E37DA002E18DA77
:108EB00053EC102B9DED020B51EC100BFDF713FB47
:108EC00053EC182BFDF7D2FC57D2002CA4BF002482
:108ED000254652DA24F00040284318BF2E4C4CD0CF
:108EE0001AE02E4820FA06F704EA070028431FD0AC
:108EF00053EC102B9DED020B51EC100BFDF7F3FA28
:108F000053EC182BFDF7B2FC37D2002C03DA4FF4E8
:108F10008010F0400444BC4300252EE0332E07DCD3
:108F2000A6F114004FF0FF3121FA00F73D4206D1BF
:108F30009DED020BBDEC028B02B0BDE8F08153EC5D
:108F4000102B9DED020B51EC100BFDF770FB53EC59
:108F5000182BFDF78BFC10D2002C0DDA142E08BF55
:108F6000641C09D0C6F13400012101FA00F0284444
:108F7000A84238BF641C0546BD43CDE902549DEDAF
:108F8000020BD7E7000000009C7500883CE4377EA8
:108F900000000000000000000000F0BFFFFF0F0015
:108FA00010B52F499FED2C1B2DED020B84B00598B9
:108FB00020F000408842DCBF00209DED040B32DD34
:108FC0002849884209D1049840B94FF0010000F0C7
:108FD00099FC00F045FC06B010BD05DB9DED040BCF
:108FE00000F02AFC06B010BD68469DED040B00F0B1
:108FF0003BF810F0030011D0012818D09DED021BA2
:109000009DED000B02281AD000F04AFA51EC100B2B
:1090100081F0004106B041EC100B10BD9DED021B2C
:109020009DED000B012000F06FFB06B010BD9DED23
:10903000021B9DED000B00F033FA06B010BD0120BD
:1090400000F062FB51EC100B81F0004106B041ECE6
:10905000100B10BD00000000000000000000000028
:10906000FB21E93F0000F07F2DE9F14F04462DED93
:10907000020B2DED088B8AB09FEDE70B80ED020B04
:10908000139EE74826F0004585420ADC9DED120B51
:10909000002084ED000B0AB0BDEC088B03B0BDE8E6
:1090A000F08FE0489FEDE0AB9FEDE1BBA84247DDCC
:1090B000E14F9FEDE39B9FEDE48B9DED120B53EC95
:1090C0001A2B51EC100B002E1CDDFDF7ADFA41EC14
:1090D000100BBD4208D053EC1B2B51EC100BFDF7CD
:1090E000A3FAC4E900010BE053EC192B51EC100B6F
:1090F000FDF79AFA53EC182BFDF796FAC4E9000134
:109100000120C8E7FDF7EFF941EC100BBD4208D094
:1091100053EC1B2B51EC100BFDF7E5F9C4E90001F2
:109120000BE053EC192B51EC100BFDF7DCF953EC71
:10913000182BFDF7D8F9C4E900014FF0FF30AAE77A
:10914000C348A84279DB9DED120B51EC100B03F0E4
:10915000B1FD41EC180B9FEDC00B53EC102BFDF74C
:1091600069FA9FEDBF1B53EC112BFDF7BCF9FDF71E
:10917000D8FC0746FDF7B7FC41EC190B53EC1A2B52
:10918000FDF758FA53EC182BFDF751FA41EC180B88
:1091900053EC1B2B51EC190BFDF74CFADFF8C8A26E
:1091A00041EC100B4FEA15580125FA4453EC102BF3
:1091B00051EC180BFDF738FA032DC4E900013DD03E
:1091C000C1F30A5005EB4511A8EB000011398142AB
:1091D00034DA0AEB051BB0EE48AA9BED000BF0EE6B
:1091E00068AA53EC102B51EC190BFDF723FA41EC54
:1091F0001B0B51EC1A0B53EC1B2BFDF715FA41EC32
:10920000180B51EC1A0B53EC182BFDF70DFA53EC1D
:109210001B2BFDF709FA9BED020B41EC1A0B53ECEB
:10922000102B51EC190BFDF705FA53EC1A2BFDF737
:10923000FBF941EC100B6D1CB8E70EE0002EA8BF47
:109240003846BFF628AF94ED000B51EC100B81F0BF
:109250000041C4E9000178421DE7C6F3130040F461
:10926000801EC6F30A50A0F2F530471100F01F052A
:10927000C5F12000DDF848B0089000200690079066
:109280000520EC467949002D07EB0002794408BF20
:1092900051F8221009D051F8223001EB8201AB4085
:1092A0004A68089922FA01F11943A1FB0E26A1FB95
:1092B0000B131A449A4234BF0123002303EB060820
:1092C0000CEB8003D3E901A60E448E4234BF01218A
:1092D000002192448A4411B1924502D903E092459B
:1092E00001D2012100E00021C3E901A641444CF86C
:1092F0002010011EA0F10100C4DC029800F1005012
:10930000850F0298DDE903678000DDF81480FDF722
:10931000EAFB41EC1A0B3046FDF7F6FB9FED541BC0
:1093200053EC112BFDF786F941EC1B0B3846FDF78A
:10933000EBFB9FED511B53EC112BFDF77BF941EC3F
:10934000180B4046FDF7E0FB9FED4D1B53EC112B36
:10935000FDF770F941EC190B51EC180B53EC192B7C
:10936000FDF7C1F853EC1B2BFDF7BDF853EC1A2B9E
:10937000FDF7B9F8CDE90801002008909DED080B34
:1093800053EC1A2B51EC100BFDF74EF953EC1B2B41
:10939000FDF74AF953EC182BFDF746F953EC192B5E
:1093A000FDF745F99FED381B53EC112BFDF742F902
:1093B0009FED370B41EC180B53EC102B9DED080B78
:1093C00051EC100BFDF736F953EC182BFDF78BF829
:1093D0009FED310B41EC180B53EC102B9DED080B5E
:1093E00051EC100BFDF726F953EC182BFDF77BF829
:1093F00041EC100B139810F0004F06D06D4251EC69
:10940000100B81F0004141EC100B284684ED000B5D
:1094100041E6000000000000000000000000000025
:10942000FB21E93F7CD9024000004054FB21F93F79
:109430003163621A61B4D03DFB21F93F00000000A6
:109440000000601A61B4D03D7370032E8A19A33BEB
:10945000FB2139410000000083C8C96D305FE43F43
:10946000000000000000E03F92CA0000E0C90000D8
:10947000000000000000103E000000000000103C52
:10948000000000000000103A182D4454FB21F93D63
:109490003326A611460B113C00000054FB21F93D78
:1094A00010B52DED040B2DED088B82B0B0EE419A76
:1094B000F0EE619A0B9820F000449FED4BABB4F1B5
:1094C000795F11DA9DED0A0B51EC100BFDF729FBCA
:1094D000002801BFB0EE4A0AF0EE6A0A02B0BDEC05
:1094E000088B04BF04B010BD9DED0A0B53EC102B8C
:1094F00051EC100BFDF79EF841EC180B3C4806218F
:10950000B0EE480AF0EE680A784400F081F853ECB7
:10951000182B51EC100BFDF78DF89DED0A0B41EC6B
:109520001B0B53EC192B51EC100BFDF783F841EC9E
:10953000190B53EC1B2B51EC180BFDF77BF853EC7C
:10954000192BFDF771F89FED2C0B41EC190B53EC27
:10955000102B51EC180BFDF76DF841EC100B28485F
:10956000844210DA53EC192B51EC100BFDF75CF828
:1095700053EC1A2BFDF75BF841EC100B02B0BDEC7D
:10958000088B04B010BD1F48A042BCBF9FED1E1B3E
:109590008DED001B06DBA4F500100190002000906B
:1095A0009DED001B51EC100B53EC112BFDF73CF81B
:1095B0009DED000B41EC180B53EC102B51EC1A0BEA
:1095C000FDF732F841EC1A0B53EC192B51EC180B48
:1095D000FDF72AF853EC1A2BFDF729F841EC100B94
:1095E000CCE7000000000000000000000000F03F99
:1095F000FCC6000000000000000000000000E03F8A
:109600003333D33F0000E93F000000000000D23FA9
:1096100070B504462DED028B4D1E00EBC500B0EE7B
:10962000408AF0EE608A90ED000B35F0060017D00E
:1096300053EC182B51EC100BFCF7FCFF41EC100B1A
:109640006D1E04EBC50090ED001B51EC100B53ECAC
:10965000112BFCF748FF41EC100B35F00600E7D169
:10966000022D36D0042D1CD0062D1CBFBDEC028B64
:1096700070BD53EC182B51EC100BFCF7DBFF94ED95
:109680000A1B53EC112BFCF72EFF53EC182BFCF7A5
:10969000D1FF94ED081B53EC112BFCF724FF41EC98
:1096A000100B53EC182B51EC100BFCF7C3FF94ED8F
:1096B000061B53EC112BFCF716FF53EC182BFCF791
:1096C000B9FF94ED040B53EC102BFCF70CFF41ECAD
:1096D000100B53EC182B51EC100BFCF7ABFF94ED77
:1096E000021B53EC112BFCF7FEFE53EC182BFCF77E
:1096F000A1FF94ED001B53EC112BFCF7F4FEBDEC25
:10970000028B41EC100B70BD31B504462DED040BFE
:109710002DED0A8BB0EE41BAF0EE61BA0B989DEDDB
:109720000A0B20F00040B0F1795F0DDA51EC100B1C
:10973000FEF782FE042808BF00F0A2F89DED0A0B98
:10974000BDEC0A8B05B030BD53EC102B51EC100B67
:10975000FCF770FF41EC180B9DED0A0B53EC182B36
:1097600051EC100BFCF766FF41EC190B2C48B0EEE6
:10977000480AF0EE680A05217844FFF749FF9FED9B
:109780002ACBB0EE40AAF0EE60AA9CB353EC1C2B9F
:1097900051EC190BFCF74EFF41EC1C0B53EC1A2B50
:1097A00051EC190BFCF746FF9FED210B41EC190B17
:1097B00053EC102B51EC1B0BFCF73CFF53EC192B1B
:1097C000FCF732FF53EC182BFCF734FF53EC1B2B48
:1097D000FCF72AFF53EC1C2BFCF726FF9DED0A1B20
:1097E00053EC112BFCF723FFBDEC0A8B05B041ECC9
:1097F000100B30BDFFE753EC1A2B51EC180BFCF7A4
:1098000019FF53EC1C2BFCF76EFE53EC192BFCF7E5
:1098100011FF9DED0A1B53EC112BFCF764FEE3E7EF
:109820008CC5000000000000495555555555C5BF71
:10983000000000000000E03F10B553EC102B51EC8D
:10984000100BFCF750FE41EC100B10BD10B553ECA3
:10985000112B51EC100BFCF746FE41EC100B10BD28
:109860009FED050B10B553EC102B51EC100BFCF7D2
:1098700053FF41EC100B10BD000000000000000081
:109880009FED050B10B553EC102B51EC100BFCF7B2
:10989000D1FE41EC100B10BD0000000000000010D4
:1098A00002E008C8121F08C1002AFAD170477047A9
:1098B000002001E001C1121F002AFBD17047000007
:1098C0000146202908DA012088400A4A104008B1E0
:1098D000012070470020FCE7402909DAA1F12000AF
:1098E000012202FA00F008B10120F2E70020F0E7BF
:1098F0000120EEE7FC06FFBD00BFEFF31081084634
:1099000072B670470149086070470000D4380020E3
:1099100070B505460C4605B10CB9002070BD28781D
:1099200040082178B0EB510F01D00020F6E7062265
:10993000611C681CFCF7CAFD08B90120EEE7002095
:10994000ECE7014601F0030008B901207047002050
:10995000FCE7024650680068401E084008B9012034
:1099600070470020FCE70246002104E0505C08B18B
:1099700001207047491C0629F8D30020F9E710B5EB
:109980000346D868884206D88818401E1C69A04241
:1099900001D8012010BD0020FCE7000010B50446EE
:1099A0006CB10848C068A04209D806480069A042C6
:1099B00005D3204604F09BFA08B1012010BD002019
:1099C000FCE70000D838002070B504460D4604F2CC
:1099D0004B20FFF7C8FF0646012D06D0022D0DD003
:1099E000032D11D0042D19D113E0A07928B194F8DA
:1099F000240010B90EB1012070BD00BFE07910B194
:109A00000EB10220F8E700BF207A08B10320F3E787
:109A100000BF607A08B10420EEE700BF0020EBE74A
:109A20000146481C052290FBF2F302FB1300C0B272
:109A3000704710B501220221002001F049FA0446C6
:109A400000BF1CB1072C01D0204610BD00BF07226B
:109A50000221012001F03CFA044600BF1CB1072C92
:109A600001D02046F1E700BF0A220021084601F09C
:109A70002FFA044600BF1CB1072C01D02046E4E7B2
:109A800000BF0020E1E710B504462C212046FCF77A
:109A900012FD012020714020206144F2506060617D
:109AA00010BD000030B5ABB0AC216846FCF703FD3B
:109AB00002208DF8000000208DF8020005208DF8AE
:109AC00003000121ADF84C100F49149101218DF8CC
:109AD0007C104021229144F2506123910B4829903F
:109AE00069460B4800F04FFB044600BF254625B1F0
:109AF00000BF284600F07CF800BF00BF01210448E9
:109B000000F03EFB2BB030BD142B00206D1D030078
:109B10000C3A002010B50321014800F0EDFB10BD08
:109B20000C3A002070B58CB004460D461646002055
:109B300005E0C0F10F01615C0DF80010401C102819
:109B4000F7D30D2104A8FCF7B6FC002005E02A5C41
:109B5000C0F10F0304A9CA54401C0328F7D3684678
:109B600046DF002005E0C0F10F0208A9895C3154EE
:109B7000401C0328F7D30CB070BD000010B504469C
:109B800002480178204600F00FFD10BD4738002044
:109B900008B5009072B600BF1349096801F00101D1
:109BA00001B100BE00BF00BF00BF00BF00BF00BFCB
:109BB000BFF34F8F00BF00BF00BF0B49E4390968F6
:109BC00001F4E061094A1143091D074AE43A1160B2
:109BD00000BF00BF00BFBFF34F8F00BF00BF00BF7B
:109BE00000BF00BFFDE70000F0ED00E00000FA0557
:109BF0003EB50446002000900190029002946A460F
:109C0000002144F20100FFF7C3FF3EBD10B503463B
:109C10000C4600BF0B48807808B9082010BD00BF73
:109C20000AB90720FAE70BB90720F7E71868007CA4
:109C300008B10820F2E71968002008744C744A61E2
:109C400000BFEBE7E443002010B509F0BFFD0020A2
:109C50000F49087048700B20887000200D4908607B
:109C60000D4908700D4908701420FDF7CFFE06213C
:109C70001420FDF7EFFE1420FDF7D4FE002009F0BC
:109C80007BFD09F073FD06490860002010BD00004F
:109C9000E4430020743800208438002085380020F8
:109CA000783800202DE9F04104460E461746254637
:109CB00000BF1048807810B90820BDE8F08100BFCF
:109CC0000CB90820F9E7052E01D20720F5E76869ED
:109CD00008B90820F1E7687C012801D1304600E08E
:109CE000002080463B464246314628460AF052FF55
:109CF000E3E70000E443002070B50446254600BFBA
:109D00000848807808B9082070BD00BF0CB16869A8
:109D100008B90820F8E700202874022128460AF034
:109D200068FFF1E7E443002010B50446204609F03F
:109D3000D7FD10BD70B5044625460E488068B0B109
:109D4000ADB9FFF7D9FD06460A4800680A49086020
:109D5000084840684FF0E021C1F80401002005499F
:109D600088601EB900BF62B600BF00BF00BF00BF61
:109D700070BD0000F044002000E100E0F8B50546A9
:109D80000C4617462088001DB84201D90C20F8BDAA
:109D9000684679DF064600BF304600B1F7E700BFEE
:109DA0000320218868542088401C208019202188A5
:109DB00068542088401C208020884119BDF800008C
:109DC0000AF0D4FF2188084420800020DFE770B526
:109DD00004460D46204604F013FA70BD10B541EC60
:109DE000100BFEF7F1FC51EC100B10BD10B5044642
:109DF000637903F003022179208804F01BF910BD78
:109E000010B50446207918B9204600F007F803E0A1
:109E10002046FFF7EBFF00BF00BF10BD2DE9FC415E
:109E2000064637884FF0000800224448017838463B
:109E300000F0D0FB7079C0F3800028B900213046D3
:109E400008F0CAFBBDE8FC8107F5807188B26B465B
:109E50000122072108F072FC054645B12946384623
:109E600009F064FF0021304608F0B6FBEAE7384607
:109E700003F034FE04464FF6FF718C421BD101986B
:109E800003F07CFD04464FF6FF70844213D0214658
:109E9000384603F001FE3846FFF770FE58B93846E1
:109EA00009F0D6FE3846FFF769FE20B9002130469A
:109EB00008F092FBC6E74FF6FF70844215D108F018
:109EC000C9FD04464FF6FF70844208D1042138468C
:109ED00009F02CFF0021304608F07EFBB2E7214656
:109EE000384603F0D9FD4FF0010807F5807188B2BC
:109EF0002246072108F098FC054625B90121304685
:109F000008F06AFB17E0862D07D1384609F0D2FE2B
:109F10000121304608F060FB0DE02946384609F083
:109F200005FF0021304608F057FBB8F1000F02D0C2
:109F3000204603F0BBFD00BF84E70000443800204A
:109F40002DE9F04104460F46154615B90E20BDE82F
:109F5000F0810020286000BF0CB90E20F7E700BF99
:109F600000BF206808B90E20F1E700BF00BFE088FD
:109F7000C11700EB91718910A0EB810109B1072095
:109F8000E5E700BF384600F0BFFAC6B2142E01D193
:109F90000520DCE72079B04201DC0420D7E7E18826
:109FA000206806FB010028600020D0E72DE9FC4175
:109FB000054688461646002437880020308095F8EC
:109FC0002D0058B13A463146404600F02FFB04467A
:109FD00000BF204608B1BDE8FC8100BFA87850B1A1
:109FE0003A4631464046FFF7C9FE044600BF2046C8
:109FF00000B1F0E700BFE87860B1E97848B23B46CD
:10A000003246414602F050FF044600BF204600B1F0
:10A01000E1E700BF686868B1696891F900003B46F4
:10A02000324641460AF081FE044600BF204600B198
:10A03000D1E700BF288900280EDD43460622022111
:10A0400005F10800CDE900670AF050FF044600BFA3
:10A05000204600B1BFE700BF288A00280EDD434636
:10A060000722032105F11000CDE900670AF03EFF49
:10A07000044600BF204600B1ADE700BF288B002892
:10A080000EDD43461522142105F11800CDE90067C5
:10A090000AF02CFF044600BF204600B19BE700BF3A
:10A0A000286A58B13B4632464146286A01F000FC16
:10A0B000044600BF204600B18DE700BF686A58B172
:10A0C0003B4632464146686A05F048F8044600BF00
:10A0D000204600B17FE700BF95F82C0000280BDD7B
:10A0E0003B4632464146284609F03CFF044600BF45
:10A0F000204600B16FE700BF287858B13B46324692
:10A100004146284605F01FFE044600BF204600B128
:10A1100061E700BF20465EE7F8B504460E461546E7
:10A12000002000902B466A463146204600F008F891
:10A1300007460FB90020F8BDBDF800002044FAE73B
:10A1400030B504460D4604B10AB9002030BD0021E7
:10A1500003E0605C401C084481B21088884203DC44
:10A16000481C205C984201D0A942F2DBA94201DBE5
:10A170000020EBE7881C1080605C401E80B2E5E7A1
:10A1800080F83010704770B504460D4605B10CB923
:10A190000E2070BD05F1780001F0CAFA08B9072059
:10A1A000F7E70020A0702C2205F17801201DFCF7B4
:10A1B00069F9002084F83000D5F8A4006063D5F870
:10A1C000A800A0634FF6FF70A4F8480204F50D70D4
:10A1D000C4F8440200214FF41470C4F84A12A4F8E1
:10A1E0004E120155207810B9FF2084F8540004F174
:10A1F0005500C4F8340294F82400012804D1EE215B
:10A200004FF40E70015303E01F214FF40E70015301
:10A2100004F50E7204F155012846FFF7C7FE064605
:10A2200000BF304600B1B4E700BF04F243104FF462
:10A230000F71085194F82400012803D1EE21A4F8ED
:10A24000401202E01F21A4F840124FF40F70015990
:10A2500004F5107205F13C00FFF7A8FE064600BFAA
:10A26000304600B195E700BF012151200155208BF8
:10A2700081B248200153012084F83C000021216470
:10A28000502001556169616404F13C02002104F130
:10A29000540072DF064600BF304600B179E700BFC8
:10A2A00001202070304674E770B504460D462C221C
:10A2B0002946201DFCF7E6F870BD70B504460D4632
:10A2C0002E462088102804D0112807D026280FD128
:10A2D00009E02146304607F0F7FD0AE02146304606
:10A2E00007F0C2FE05E02146304608F018F800E00D
:10A2F00000BF00BF70BD704770B504460E462078A1
:10A3000008B9082070BDA67000214FF41470C4F87D
:10A310004A12A4F84E120155A07910B1A078012874
:10A3200009D0E07910B1A078012804D0E07970B1AB
:10A33000A07802280BD1606B30B1012084F8510263
:10A340000820616B884702E0002084F85102314602
:10A350002046FFF739FBA070606BA0B1A0780328FE
:10A3600002D0A07804280ED1607960B194F852022E
:10A3700048B9002084F85402012084F853020720D1
:10A38000616B884702E0002084F85302182104F131
:10A390003C00FCF790F8012084F83C0004F12C000C
:10A3A00008F07BFC20B194F82C105120015502E0FC
:10A3B00001215120015594F8240060B104F12C00D2
:10A3C00008F06BFC20B194F828105220015502E0EF
:10A3D000012152200155002150200155A078052867
:10A3E00024D2DFE800F01F030A11180004F13C0139
:10A3F000204609F049FE054619E004F13C012046DB
:10A4000009F02AFE054612E004F13C01204609F05D
:10A410004DFE05460BE004F13C01204609F074FEB8
:10A42000054604E0002084F8310000E000BF00BFD2
:10A43000A07898B104F13C0204F15400D4F844121D
:10A4400072DF05460DB128465CE794F8301094F8A9
:10A45000540073DF05460DB1284653E7606B18B111
:10A4600094F83100616B884700204BE72DE9F041FB
:10A47000044600BF14B90E20BDE8F08100BF1C22C5
:10A4800021461C48FBF7FEFF1B481A49086020685C
:10A4900060B120687ADF05460DB12846ECE7164822
:10A4A00021680A6802604968416005E012487BDF64
:10A4B00005460DB12846DFE7002617E006EB8600CB
:10A4C0000E4901EB800700BF4FF6FF70388000BFD8
:10A4D0000B4800EB461078600A4A0021381DFFF750
:10A4E00095FB05460DB10320C6E7761C002EE5D08E
:10A4F0000020C1E7F83E0020F8370020E43E0020AD
:10A50000C43E0020D14D030010B50446204600F0A3
:10A510007FF808B1204610BD1420FCE710B50446B2
:10A52000204600F075F820B12146034805F047FDAC
:10A5300010BD0020FCE70000243F002070B5044659
:10A540000D46034988682A46214602F005FD70BD84
:10A55000143F002070B504460D46164620460AF00A
:10A5600081FC08B9002070BD034951F8240032462F
:10A57000294602F0F1FCF6E72C3F002070B50446B6
:10A580000025204600F044F850B12146054805F06A
:10A5900016FD06460EB1022000E00120054600BF70
:10A5A000284670BD203F002070B505460C46204669
:10A5B0000AF058FC50B1284600F02AF830B104499E
:10A5C00001EB8400294605F0FAFC70BD0020FCE791
:10A5D0002C3F002070B505460C46164620460AF072
:10A5E00041FC88B1284600F013F868B136B107493C
:10A5F00001EB8400294605F0F1FC05E0034901EB7D
:10A600008400294605F085FC70BD00002C3F002029
:10A6100010B50446142C01DB002010BD2146024871
:10A6200005F0CDFCF9E70000183F00202DE9FC41C2
:10A6300005460C46174620880930B84202D90C203E
:10A64000BDE8FC8168466DDF064600BF304600B1BC
:10A65000F6E700BF0820218868542088401C20802D
:10A660001B20218868542088401C20802088284492
:10A67000DDF801100160BDF8051081802088801D83
:10A6800020809DF80000400818B9002021886854F7
:10A6900002E00120218868542088401C208000208E
:10A6A000CEE710B54FF0FF3100203DDF044600BF7C
:10A6B000204600B110BD00BFB12100203CDF0446A0
:10A6C00000BF204600B1F5E700BF022006F010F9F8
:10A6D0000020EFE710B5FFF7E4FF0446204610BD69
:10A6E00070B504460D4600BF04B970BD00BF208898
:10A6F000502816D004DC102807D0112819D108E002
:10A7000051280AD0532814D10FE0204607F0D6FB79
:10A7100010E0204607F09AFC0CE0204607F0A8FD68
:10A7200008E0204607F0A2FE04E0204607F028FDDE
:10A7300000E000BF00BF00BFD7E7000070B50446CF
:10A740000426207B012802D0022822D109E001F052
:10A750009BFF05460DB9012602E0112D00D106260A
:10A7600019E0607B142801DC607B08B905260FE046
:10A77000627B04F10E011248FBF784FE607B1049F6
:10A78000091F8861084609F0EDFC054605B9012658
:10A7900001E0022600BF00BF012E0FD0207B314612
:10A7A00000F058F8054625B10648006841690320C5
:10A7B00088470448006841690220884770BD00004E
:10A7C0009C4200206038002070B505460E4600BF50
:10A7D0001E48006820B11D48406808B1012000E013
:10A7E000002000B970BD00BF184800F108014268A0
:10A7F00028469047044600BF082C24D07CB900208E
:10A800001349096888760121022000F023F80446E4
:10A81000CCB10F48006841690320884713E000204D
:10A820000B49096888760621022000F013F80446D7
:10A8300024B107480068416903208847044800683C
:10A8400041690220884700BFCCE700008C4200200D
:10A8500060380020F0B587B004460D46032700207D
:10A8600001900290039004900320069020208DF820
:10A8700014008DF815408DF816500E48C088ADF8BC
:10A88000040002208DF806000020ADF8080006A89C
:10A89000039005A804900749888801A9AEDF064601
:10A8A00026B9BDF81800032800D00C26304607B0A2
:10A8B000F0BD000070420020F8B505460F4628881C
:10A8C000212833D006DC10280BD0112829D01328DA
:10A8D0007BD13BE03B285BD0522848D0562874D12E
:10A8E00064E0072000F022FB044600BF264626B1A4
:10A8F00000BF3046FFF77CF900BF00BFA88834498D
:10A90000088008460188334805F061FC044600BF12
:10A91000264626B100BF3046FFF76AF900BF00BFE8
:10A9200054E04FF6FF702A4908804FE00020009065
:10A93000A88869468FDF044600BF264626B100BFBF
:10A940003046FFF755F900BF00BF3FE000231A462D
:10A9500085211F4800887FDF044600BF264626B1B8
:10A9600000BF3046FFF744F900BF00BF2EE00023D0
:10A970001A46194616480088B1DF044600BF26462D
:10A9800026B100BF3046FFF733F900BF00BF1DE01E
:10A99000A888132176DF044600BF264626B100BFF3
:10A9A0003046FFF725F900BF00BF0FE0A88813214C
:10A9B00076DF044600BF264626B100BF3046FFF7CB
:10A9C00017F900BF00BF01E0FFE700BF00BFF8BDFF
:10A9D000102B0020783C002070B505460E462888D4
:10A9E000102802D011282CD115E01748006860B952
:10A9F00001F040F8044600BF34B11448006818B1B3
:10AA0000204612490968884700BF0F480068401C6B
:10AA10000D49086016E00C480068401E0A490860AD
:10AA20000846006860B9FFF704F8044600BF34B177
:10AA30000648006818B1204604490968884700BFE5
:10AA400000E000BF00BF70BDF4370020F0370020E9
:10AA500070B504460D462088102806D0112808D06D
:10AA600012280ED0502810D107E0204607F0B4F984
:10AA70000CE0204607F0D0FA08E0204607F080FC02
:10AA800004E0204607F090F900E000BF00BF70BD71
:10AA90002DE9F04104468846A5882088102804D076
:10AAA000112815D01A2847D116E008F005FE2846CF
:10AAB00008F08CFC20B900BF0420FFF799F806E0ED
:10AAC000E07B012803D029461D4805F087FA33E0D2
:10AAD000284608F015FE2FE0207A0121B1EB101F67
:10AAE00001DA012000E000200646207A0221B1EBC5
:10AAF000101F01DA012000E0002007468EB1294630
:10AB00000F48001D05F06AFA2FB129460C4808309D
:10AB100005F064FA0FE029460948083005F0F9F914
:10AB200009E029460648001D05F0F3F929460448C6
:10AB3000083005F0EEF900BF00BFBDE8F08100006D
:10AB4000203F002070B504460D4600BF074800783E
:10AB500000B970BD00BF204602F07AFE204609F021
:10AB600009FC204602F010FC00BFF2E73438002058
:10AB700070B58EB004460E463E4B0FCB09AD0FC5E7
:10AB800000BF14B90E200EB070BD00BF00BF0EB9DB
:10AB90000E20F8E700BF3068A061214609A862DFF7
:10ABA000054600BF284600B1EDE700BF20788DF8CC
:10ABB00036000120ADF83400A21C0DA9A8DF05461F
:10ABC00000BF284600B1DEE700BF202101A8FBF747
:10ABD00072FC0220ADF8040020788DF80600F42005
:10ABE000ADF808000120ADF80A008DF810009DF8BE
:10ABF000110020F0080008308DF811009DF81100B8
:10AC000020F00400001D8DF8110001208DF81500C2
:10AC10008DF81600608804F10C0201A900F0FEFB1B
:10AC200005460DB12846AEE7202101A8FBF743FCFD
:10AC30000320ADF8040020788DF80600F420ADF86C
:10AC400008000120ADF80A008DF810009DF81100F1
:10AC500020F0100010308DF8110001208DF8150043
:10AC60008DF816008DF817006088221D01A900F0EC
:10AC7000D5FB88E7BC58030070B504460D4605B106
:10AC800004B970BD2E462088102804D0502807D063
:10AC900057280FD109E02146304607F0D5F80AE0E1
:10ACA0002146304607F098FB05E02146304607F084
:10ACB0007DFA00E000BF00BF00BFE2E770B50446C8
:10ACC00020460AF04DF80546C5F3400070BD70B54A
:10ACD000044620460AF044F8054605F0010070BD20
:10ACE00038B506F049F8044600BF254625B100BF37
:10ACF0002846FEF77DFF00BF00BF00200090694698
:10AD0000012005F05DFF044600BF254625B100BFC8
:10AD10002846FEF76DFF00BF00BF684605F0AEFF96
:10AD2000044600BF254625B100BF2846FEF760FF58
:10AD300000BF00BF38BD000010B502460949885C5D
:10AD400000BF4FF0A0442146D1F8043501248440CF
:10AD50009C43C1F80845012484401C40C1F80C45BF
:10AD600000BF10BD1657030010B504460249085D28
:10AD7000012105F0E4FC10BD1657030010B5044690
:10AD80000249085D002105F0DAFC10BD16570300EA
:10AD900010B50146094B585C00BF4FF0A044234654
:10ADA00000BFD3F80445C44004F001040CB10120F5
:10ADB00000E00020024682F0010010BD165703009B
:10ADC00010B5002403E02046FFF7CEFF641C042CDE
:10ADD000F9D310BD10B5002403E02046FFF7CEFFE5
:10ADE000641C042CF9D310BD02464FF0FF30002143
:10ADF00006E0054B5B5C934201D1084602E0491C2A
:10AE00000429F6D300BF70471A5703002DE9F0411B
:10AE100006460F464FF0000800243046FFF7E4FFD7
:10AE20000446042C3ED20FB3012F02D0022F38D19A
:10AE300030E004EB4400214911F8008004EB4400A9
:10AE40000844407850B11E4A4FF400411D48006844
:10AE5000FEF728FF05460DB91948067004EB4400BB
:10AE6000164908448078184908551AE015480068C2
:10AE7000FEF742FF1448005D04EB44010F4A114401
:10AE80008978884205D104EB44001146084490F8C3
:10AE9000028006E004EB44000849084490F8018071
:10AEA00000BF00BFB8F1000F06D00848006818B115
:10AEB0004046064909688847BDE8F081983E002071
:10AEC000E837002028570300E9370020E437002046
:10AED00030B503460020042B23D2012A07D10129D3
:10AEE00003D103F10E04E4B200E00024224679B15C
:10AEF000012902D0022911D104E003EB43040A4DD9
:10AF00002A550DE003EB4304074D2C44627007E023
:10AF100003EB4304044D2C44A27001E0072000BF62
:10AF200000E0072030BD0000983E002070B50446C8
:10AF300000250548007800F0010018B1204600F017
:10AF400005F80546284670BDDC3700202DE9F0479E
:10AF5000044600260025DA48007820B10020D849B0
:10AF6000087002F0D3FF182C7ED2DFE804F00C1634
:10AF7000174A7EB2F6F4F3F2F1F0EFEEEDECEBEA05
:10AF8000E9E8E7E6E5E402F0C1FFCE480068FEF735
:10AF9000B3FE0646CC4804708DE100BF0020FFF7E9
:10AFA000F7FE58B10020FFF7DFFE022C02D14FF46C
:10AFB000E16001E04FF47A60054609E00020FFF708
:10AFC000DDFE022C01D1C82001E04FF4C870054617
:10AFD000BD4804704FF40040A5FB00104FF4FA7315
:10AFE000CF1840F100015A0000233846FBF7FAF968
:10AFF000814600224946B3480068FEF753FE0646E4
:10B0000059E10020FFF7C4FE58B10020FFF7ACFE65
:10B01000032C02D14FF4487001E04FF47A600546EA
:10B0200009E00020FFF7AAFE032C01D1C82001E0AF
:10B030004FF4C8700546A44804704FF40040A5FBC7
:10B0400000104FF4FA728F1840F1000152000023F3
:10B050003846FBF7C7F981460022494699480068FF
:10B06000FEF720FE064626E124E10020FFF790FED1
:10B0700058B10020FFF778FE042C02D14FF47A601B
:10B0800001E04FF47A6005460AE00020FFF776FE03
:10B09000042C02D14FF4C87001E04FF4C87005468B
:10B0A000894804704FF40040A5FB00104FF4FA7378
:10B0B000CF1840F100015A0000233846FBF792F9FF
:10B0C0008146002249467F480068FEF7EBFD0646B0
:10B0D000F1E00020FFF75CFE50B10020FFF744FED6
:10B0E000052C01D1C82001E04FF47A60054609E043
:10B0F0000020FFF743FE052C01D1C82001E04FF4EA
:10B10000C8700546704804704FF40040A5FB00204D
:10B110004FF4FA73D71840F100015A000023384663
:10B12000FBF760F981460022494666480068FEF751
:10B13000B9FD0646BFE0B8E0B6E0AAE0A1E098E0BD
:10B1400092E05FE05DE05BE059E057E051E042E013
:10B1500033E024E015E00EE0FFE70020FFF7ECFD10
:10B1600059480470002240F6CD4156480068FEF769
:10B1700099FD06469FE00020FFF700FE524804704C
:10B1800099E001204E490870FFF7D6FD002240F6F5
:10B19000CD414C480068FEF785FD06468BE0012056
:10B1A00047490870FFF7C8FD00224FF48041454829
:10B1B0000068FEF777FD06467DE0012040490870F3
:10B1C000FFF7BAFD002240F6CD413E480068FEF789
:10B1D00069FD06466FE0012039490870FFF7ACFDB4
:10B1E00000224FF4804137480068FEF75BFD0646B9
:10B1F00061E0FFF7EFFD344804705CE000BF00BF82
:10B2000000BF00BF31480068FEF776FD0646C4F176
:10B21000110515B30EBB012D18D9A8B2C82148439A
:10B220004FF4004180FB01104FF4FA728F1840F187
:10B230000001520000233846FBF7D4F88146002273
:10B24000494622480068FEF72DFD06460220FFF71A
:10B2500095FD01201E49087005E00220FFF784FDDE
:10B2600000201B49087026E002F050FE16480470CA
:10B2700021E002F04BFE0020FFF780FD1248047031
:10B2800019E002F043FE0120FFF778FD0E4804703C
:10B2900011E002F03BFE0020FFF770FD0120FFF7F8
:10B2A0006DFD0948047006E000BFFFF793FD0648F6
:10B2B000047000E000BF00BF3046BDE8F08700002A
:10B2C000D937002020570300D83700202457030027
:10B2D000E03700207CB50446204602F0FFFB05461F
:10B2E00000236A46092107F01DFB052805D101222C
:10B2F000024801782046FFF76DF97CBD1038002028
:10B300007CB504460E460020019042F6A620ADF81A
:10B31000040001208DF806000748006800906A4686
:10B3200001A92046A0DF05462DB901220348017876
:10B330002046FFF74FF97CBD9C57030011380020D1
:10B3400001468879012809D10879012806D1488861
:10B3500042F60212904201D1012070470020FCE722
:10B360004FF0FF31054A42F82010082804DBFF2384
:10B37000A0F10801443253547047000040430020BC
:10B380000146024850F82100704700004043002069
:10B390002DE9F04F03460C464FF0FF390AB100206B
:10B3A00000E0082084460AB1082000E00920804619
:10B3B000614624E0154850F82100401CF0B91D46B4
:10B3C0000846274616464FFA80FBDFF840A00AF1F0
:10B3D000240A0AF805B0DFF834A04AF820704EB904
:10B3E0004FFA85FBA0F1080ADFF820E00EF1440EC9
:10B3F0000EF80AB000BF4FFA81F902E0491C41453E
:10B40000D8D300BF4846BDE8F08F0000404300207D
:10B4100001460148405670476443002070B590B023
:10B4200006460C461546A07818B901208DF80E0086
:10B4300002E0A0788DF80E002088ADF80C00002006
:10B440000290607C02A908F0C1FEA07C0DF1090108
:10B4500008F0BCFEE07B08B1012000E000209DF870
:10B460000A1060F3C3018DF80A10207C08B1012096
:10B4700000E000209DF80A1060F304118DF80A1016
:10B48000207B08B1012000E000209DF80A1060F345
:10B4900000018DF80A10207D08B1022000E0012093
:10B4A0009DF80A1060F342018DF80A101C2109A8CA
:10B4B000FBF701F8607BC0F3001018B9607BC0F3A4
:10B4C0004010F8B100200090E07C0DF1010108F07F
:10B4D0007DFE00BF9DF8000020F00F00401C8DF89D
:10B4E00000009DF8000020F0F00010308DF8000002
:10B4F00000BF9DF8020020F00600801C8DF80200BD
:10B50000CDF838D0607B8DF82400A07B8DF8250025
:10B51000142104A8FAF7CFFF03A8049002A805900D
:10B52000A088ADF81C00A06820B1E088ADF8180034
:10B53000A0680890A069002849D000200190A06967
:10B540000088ADF82C00A0694088ADF82E00A069F5
:10B5500040680A9001A80D90A169087B01A908F034
:10B5600035FEA169487B0DF1050108F02FFEA069A9
:10B57000807A08B1012000E000209DF8061060F3F9
:10B58000C3018DF80610A069C07A08B1012000E05F
:10B5900000209DF8061060F304118DF80610A069D4
:10B5A000007A08B1012000E000209DF8061060F349
:10B5B00000018DF80610A069807B08B1022000E030
:10B5C00001209DF8061060F342018DF80610E06935
:10B5D00008B1E0690C902B4604AA09A93046AADFFD
:10B5E00010B070BD2DE9F04104460D464FF6FF76D0
:10B5F000304684420AD14FF48071284604F0AFFCF3
:10B6000086B2B6F5807F10D126460EE0FF2C0CDC0A
:10B610002146284604F08CFC80F001070FB120463B
:10B6200001E04FF6FF70064600BF3046BDE8F081EE
:10B6300070B505460DB9094C01E0084C083409E025
:10B64000204602F05CFC064606B904E02846716814
:10B65000884700BFF4E700BF70BD0000BC42002077
:10B6600010B504462CB90120064948700020FFF7A8
:10B67000DFFF012C04D1012002498870FFF7D8FFB9
:10B6800010BD0000B442002010B5044620784F28B9
:10B6900002D108F0FBFD00BF00BF00BF10BD0000DD
:10B6A0002DE9F04782461F480068002836D01D4823
:10B6B0000068056808F05AF807461B4804682146E8
:10B6C000384609F0A7F9C61C1848007808B908F0F0
:10B6D0005FF8AE4201D2284600E03046044424F030
:10B6E0007F44204608F03CF808F040F88046394690
:10B6F000404609F08FF900F103093946204609F068
:10B7000089F9814509D908F031F8814608F028F80F
:10B710002F2005F0A9FC09F0D9FA01E008F056F84D
:10B72000BDE8F08774380020783800208638002083
:10B7300001468878012805D191F82000012801D11F
:10B7400000207047886A042802D0486A042801D182
:10B750000020F6E70120F4E72DE9FF4F03460C46F1
:10B76000002047E0225CFF2A3ED0C2F3C01922F03D
:10B7700080014DF82010B9F1000F0DD05DF82010B8
:10B7800000BF4FF0A0452E46012707FA01F5C6F885
:10B79000085500BF00BF0DE05DF8201000BF4FF05E
:10B7A000A0452E46012707FA01F5C6F80C5500BF43
:10B7B00000BF00BF5DF8201001252E460027BC46C3
:10B7C000B84600BF4FF0A04BDA4645EA460B4BEABD
:10B7D000870B4BEA0C2B4BEA084E0AF5E06B4BF853
:10B7E00021E000BF00BF03E04FF0FF314DF8201013
:10B7F000411CC8B20428B5DB6D461A68002107E079
:10B8000055F8217002F5AC6646F821704E1CF1B275
:10B810000429F5DB00BFBDE8FF8F33B58BB00546CB
:10B82000002000900C9878B100240BE021460CA871
:10B8300004F0C5FB28B1009A501C009001A820F824
:10B840001240641C142CF1D32C2269462846FAF7C6
:10B8500019FE0DB030BD01460888062808DB0888AF
:10B86000B0F5486F06DD08884FF6FF72904201D0B0
:10B87000072070474888062808DB4888B0F5486FDD
:10B8800006DD48884FF6FF72904201D00720F0E7AE
:10B8900008884FF6FF72904208D04888904205D041
:10B8A00008884A88904201DD0720E2E70020E0E7AF
:10B8B0002DE9F04107460D46144698462088801D24
:10B8C000404502D90C20BDE8F0813846FFF7C3FFA0
:10B8D000064600BF304600B1F5E700BF05202188CD
:10B8E00068542088401C20801220218868542088B9
:10B8F000401C208022885119388809F037FA2188A5
:10B900000844208022885119788809F02FFA21886C
:10B91000084420800020D6E710B5044600BF20462A
:10B92000FEF766F900BF10BD30B587B01C21684630
:10B93000FAF7C1FD002000904FF4203001904FF441
:10B940007020029003208DF80C000020ADF80E004E
:10B950008DF8100009480590094806906846FEF7E2
:10B9600085FD044600BF254625B100BF2846FEF7E9
:10B970003FF900BF00BF07B030BD00007D1D0300D0
:10B9800019B90200F8B505460C46607A88B9207AE4
:10B9900010B91048476801E00E4887682A463946C2
:10B9A0006068FEF77FF9064616B1304608F062F986
:10B9B0000EE0002020720748406948B101208DF850
:10B9C0000000ADF80250034841696846884700BF4F
:10B9D000F8BD0000F83E0020F0B587B004460D46E3
:10B9E00017461E4618220B4901A8FAF74BFDADF881
:10B9F00006408DF80C50ADF80E708DF810600022E6
:10BA0000054801782046FEF7E5FD01A801F002F99E
:10BA100007B0F0BD785803004438002010B586B058
:10BA20000446208806F0A4FD00BB2088FEF776FDC2
:10BA300030B92088012241F2060100F019FE15E01C
:10BA4000208800220A490978FEF7C4FD02208DF8FB
:10BA500000002088ADF8020000208DF808000021C9
:10BA60008DF80910684601F0D5F800BF06B010BD8A
:10BA70004438002010B5012200210846FFF728FABB
:10BA8000044600BF1CB1072C01D0204610BD00BFEA
:10BA9000072202210120FFF71BFA044600BF1CB158
:10BAA000072C01D02046F1E700BF0422022100202C
:10BAB000FFF70EFA044600BF1CB1072C01D0204648
:10BAC000E4E700BF0020E1E77FB506460C46002012
:10BAD00002900390ADF80840ADF80A400090019044
