:020000040002F8
:10600000606B0020C1630200C9630200F96F0200E7
:10601000CD630200CF630200D163020000000000E4
:10602000000000000000000000000000D363020038
:10603000D563020000000000D7630200D9630200AC
:10604000C9760200DB630200197F0200ED7B0200CB
:10605000017C0200DB630200DD6D0200217A020098
:10606000DB630200B97E0200D17E0200DB63020026
:10607000DB630200DB630200DB630200DB63020020
:10608000DB630200ED790200DB630200DB630200E8
:10609000157C0200DB6302001D7C0200DB63020052
:1060A000DB630200DB630200E97E0200017F020085
:1060B0001D770200DB63020000000000000000000A
:1060C000DB63020031770200DB630200DB63020066
:1060D000DB630200DB630200DB6302000000000000
:1060E00000000000000000000000000000000000B0
:1060F00000000000000000000000000000000000A0
:10610000000000000000000000000000000000008F
:10611000000000000000000000000000000000007F
:10612000000000000000000000000000000000006F
:10613000000000000000000000000000000000005F
:10614000000000000000000000000000000000004F
:10615000000000000000000000000000000000003F
:10616000000000000000000000000000000000002F
:10617000000000000000000000000000000000001F
:10618000000000000000000000000000000000000F
:1061900000000000000000000000000000000000FF
:1061A00000000000000000000000000000000000EF
:1061B00000000000000000000000000000000000DF
:1061C00000000000000000000000000000000000CF
:1061D00000000000000000000000000000000000BF
:1061E00000000000000000000000000000000000AF
:1061F000000000000000000000000000000000009F
:10620000DFF80CD000F02CFC0048004711DD020044
:10621000606B002030B450E8012F93B2C48923444E
:106220008489A34228BF1B1B0489A34202BFBFF37A
:106230002F8F002007E0C3EA020340E80134002C5E
:10624000E9D14FF001000A6030BC704750E8012FDF
:10625000C2EA024240E801210029F7D1704730B478
:1062600050E8022F1FFAA2F3C488A34202BFBFF373
:106270002F8F00200DE0C48923448489A34228BFC6
:106280001B1BC2EA034340E80234002CE8D14FF064
:1062900001000A6030BC704750E8022FC2EA224277
:1062A00040E802210029F7D17047034653E8022F46
:1062B000D988B2EB324F4FF0000017BF92B241EADB
:1062C000014142EA014104E05A68B2EB324F08BF93
:1062D000012043E80212002AE8D1704730B4044696
:1062E00054E8000F0D4644E80053002BF8D1156028
:1062F00030BC704730B4044654E8000F40EA010552
:1063000044E80053002BF7D1156030BC704730B41F
:10631000044654E8000F00EA010544E80053002B4E
:10632000F7D1156030BC704730B4044654E8000F14
:1063300080EA010544E80053002BF7D1156030BC1A
:10634000704730B4044654E8000F00EB010544E800
:106350000053002BF7D1156030BC704730B40446B1
:1063600054E8000FA0EB010544E80053002BF7D1DF
:10637000156030BC704770B404464FF0000054E81C
:10638000006F0D68AE4207BF44E80023012044E8D7
:1063900000630E60002B1CBF0020F0E770BC70474C
:1063A00030B4044654E8000F88422CBF451A054615
:1063B00044E80053002BF5D1156030BC7047000055
:1063C0000648804706480047FEE7FEE7FEE7FEE78F
:1063D000FEE7FEE7FEE7FEE7FEE7FEE7357C0200AC
:1063E000016202002DE9F05F0546002092469B46BF
:1063F00088460646814640241BE0284641464746DB
:10640000224600F02FF853465A46C01A914110D345
:1064100011461846224600F016F82D1A67EB0108BF
:106420004F4622460120002100F00DF817EB00092D
:106430004E41201EA4F10104DFDC484631462A46C5
:106440004346BDE8F09F202A04DB203A00FA02F11F
:10645000002070479140C2F1200320FA03F3194352
:1064600090407047202A04DB203A21FA02F00021F4
:10647000704721FA02F3D040C2F120029140084354
:106480001946704740EA01039B0703D009E008C999
:10649000121F08C0042AFAD203E011F8013B00F8E9
:1064A000013B521EF9D27047D2B201E000F8012B35
:1064B000491EFBD270470022F6E710B513460A4684
:1064C00004461946FFF7F0FF204610BD30B50446DC
:1064D0000020034600E05B1C934203D2E05CCD5CED
:1064E000401BF8D030BD2DE9FE4F804681EA030005
:1064F000C00F0C46009021F0004123F00045B8EB9E
:106500000200A94105D24046214690461C460B4652
:10651000024623F00040104347D0270DC7F30A007E
:10652000C3F30A510290401A019040286BDAC3F37A
:10653000130040F4801B0098924620B10023D2EB58
:10654000030A63EB0B0B01985946C0F14002504619
:10655000FFF779FF06460D4650465946019A00F06E
:10656000DFF810EB08006141002487EA115284EA49
:10657000E7731A4340D0009A62B3019A012A4FEAA6
:10658000075215DC001B61EB02014FF0004202EAEA
:106590000752CDE90042001C41F5801132462B46DE
:1065A00000F016F903B0BDE8F08F40462146F9E748
:1065B000001B61EB0201001C41F5801300185B41D8
:1065C0002018A2F5001747EB030140EAD570B61971
:1065D0006D4111E06D084FEA360645EAC0754FEA95
:1065E0000752001B61EB0201001C41F580114908B4
:1065F0004FEA30000019514132462B4603B0BDE846
:10660000F04F00F0D6B80098012240000023D0EBF4
:10661000020263EBE073009821464FEAE074B8EBA6
:10662000000061EB0401E9E783F000435BE781F0E0
:10663000004158E7C1F30A5210B5C1F3130140F20B
:10664000FF3341F480119A4201DA002010BD40F27C
:1066500033439A42A2F2334203DC5242FFF702FF75
:1066600010BD904010BD00F0004230F000400AD054
:10667000C10D01F56071C0F3160042EA0151C20874
:1066800040071143704700200146704730B5041E93
:1066900071F1000404DB4FF00044404264EB01015F
:1066A000141E73F1000405DB1C464FF000435242F8
:1066B00063EB0403994208BF904230BD01F00043F0
:1066C00030B421F0004150EA010206D00A0DA2F5D3
:1066D0006072C1F31301002A02DC30BC0020704755
:1066E000440F44EAC104C100E01830BC00EBC250C2
:1066F00000F028B830B50B460146002020220124C6
:1067000009E021FA02F59D4205D303FA02F5491B7F
:1067100004FA02F52844151EA2F10102F1DC30BD95
:10672000202A06DBCB17203A41FA02F043EAE07355
:1067300006E041FA02F3D040C2F120029140084342
:10674000194670470029A8BF7047401C490008BF80
:1067500020F00100704710B4B0FA80FC00FA0CF091
:1067600050EA010404BF10BC704749B1CCF12004C9
:1067700021FA04F411FA0CF118BF01212143084356
:10678000A3EB0C01CB1D4FEA00614FEA102042BF82
:10679000002010BC704700EBC35010440029A4BF78
:1067A00010BC7047401C490008BF20F0010010BC1D
:1067B000704710B5141E73F1000408DA401C41F153
:1067C000000192185B411A4301D120F0010010BD75
:1067D0002DE9F04D92469B4611B1B1FA81F202E0EB
:1067E000B0FA80F220329046FFF72DFE04460F46A5
:1067F00040EA0A0041EA0B0153465A46084313D0C7
:10680000114653EA010019D0C8F140025046FFF783
:1068100029FE05460E46504659464246FFF713FEEE
:10682000084305D0012004E020463946BDE8F08D3C
:106830000020054346EAE0762C4337430A98630577
:10684000E40AA0EB08000022FD0A44EA47540A309B
:1068500002D500200146E9E7010510196941DDE98B
:10686000084500196941BDE8F04DA2E72DE9FE4F4A
:1068700081EA030404F0004421F0004100944FF049
:10688000000B23F0004350EA01045ED052EA0304F7
:106890005BD0C3F30A54C1F30A552C44A4F2F33479
:1068A0000194A0FB0254C1F3130141F48011C3F31E
:1068B000130343F4801301FB024400FB034E840ADC
:1068C000970A44EA815447EA8357A4FB0768029574
:1068D0008D0A05FB07854FEA932C04FB0C54270512
:1068E000029D4FEA065847EA1637B5EB08056EEBEE
:1068F000070C870E920E47EA811742EA8312A7FB24
:106900000201B6EB0B0164EB00042B0D43EA0C33E0
:106910005E1844EB1C50DA465146E7FB0201C5F312
:1069200013044FEA0B3343EA14534FEA0432019C39
:1069300043EA0603A4F10C040294009CCDE900B4E0
:10694000FFF746FF03B0BDE8F08F00200146F9E7EE
:106950002DE9F04D81EA030404F0004B21F00045DD
:1069600014464FF0000A23F0004150EA050220D0FF
:1069700054EA01021DD0C5F30A570246C5F31303BA
:10698000C1F31300C1F30A5640F4801543F4801399
:10699000A7EB0608101BD64608F2FD3873EB05007E
:1069A00002D308F1010801E092185B41B8F1000F31
:1069B00003DA00200146BDE8F08D00204FF480117D
:1069C000064684460EE0171B73EB050705D3121B22
:1069D00063EB050306434CEA010C49084FEA30001B
:1069E00092185B4150EA0107EDD152EA030012D040
:1069F00082EA040083EA0501084305D0101BAB417D
:106A000006D20122002306E000224FF0004302E0FC
:106A10006FF0010253101AEB06004CEB085110EB1B
:106A20000A0041EB0B01BDE8F04DFFF7C2BEC1F318
:106A30000A52C1F3130140F2FF3341F480119A422C
:106A400002DA00200146704740F233439A42A2F234
:106A5000334202DC5242FFF705BDFFF7F4BC0000F1
:106A6000064C074D06E0E06840F0010394E807009B
:106A700098471034AC42F6D3FFF7C6FB58450300E5
:106A8000784503002DE9F04D00231A461B1A8A4170
:106A900003DB00200146BDE8F08DC1F30A52C1F3CB
:106AA000130141F480154FF0000BD10702D10018FB
:106AB0006D41521E0027044640F2FF11384601EB9B
:106AC000620A3E468046024600204FF48011FFF7DE
:106AD000C9FCC2197141BB1846EB0100B4EB030CB1
:106AE00075EB000C04D3E41A65EB000517460E465F
:106AF000241908F101006D4180463428E3DDF919BD
:106B000046EB0600091BA84103D24FF0FF321346A3
:106B100001E0002213461BEB070046EB0A51BDE8DB
:106B2000F04DFFF746BE0EB5C10F80EAE070084495
:106B3000CA07002140F233438DE80E000A460B4697
:106B4000FFF746FE03B000BD0EB540F2334102919F
:106B50000021CDE900110A460B46FFF739FE03B0CC
:106B600000BD70B5C1F30A5201F000450024C1F325
:106B7000130140F2FF3341F480119A4201DA002000
:106B800070BD40F233439A42A2F2334203DC5242D8
:106B9000FFF768FC00E090402C43F1D0404270BD0C
:106BA00070B58C1810F8015B15F0070301D110F8CF
:106BB000013B2A1106D110F8012B03E010F8016BFC
:106BC00001F8016B5B1EF9D12B0705D40023521E7F
:106BD0000DD401F8013BFAE710F8013BCB1A921CE7
:106BE00003E013F8015B01F8015B521EF9D5A142E5
:106BF000D8D3002070BD000090ED000AB8EEC00AA6
:106C0000DFED120A80EE201A81ED001A90ED010AE4
:106C1000B8EEC00ADFED0D0A80EE201A81ED011AF0
:106C200090ED020AB8EEC00ADFED080A80EE201AE5
:106C300081ED021A90ED030AB8EEC00ADFED030AF7
:106C400080EE201A81ED031A704700000000804E8C
:106C500070B52DED088B04460E46154694ED000ADE
:106C6000B5EEC00AF1EE10FA1CDD94ED000ADFED7E
:106C7000530A20EE200A10EE101A0846FFF7F3FC24
:106C800041EC1A0BB0EE4A0AF0EE6A0A01F0C4FDBC
:106C9000B0EE409AF0EE609A51EC190BFFF7CAFC87
:106CA00030702EE094ED000AB5EEC00AF1EE10FA55
:106CB00027D894ED000ADFED420A30EEC00ADFED7E
:106CC0003F0A20EE200A10EE101A0846FFF7CBFC10
:106CD00041EC1B0BB0EE4B0AF0EE6B0A01F09CFD91
:106CE000B0EE40AAF0EE60AA9FED360B53EC102BED
:106CF00051EC1A0BFFF79BFC41EC190BFFF79AFCC8
:106D000030700020A87094ED020ADFED300A30EEFA
:106D1000200A10EE101A0846FFF7A5FC41EC1B0BE9
:106D2000B0EE4B0AF0EE6B0A01F002FEB0EE40AAA4
:106D3000F0EE60AA9FED260B53EC102B51EC1A0BD2
:106D4000FFF7D1FB41EC190BFFF7B8FC08EE900AF6
:106D50009FED210A28EE800ABCEEC00A10EE100A50
:106D6000287094ED010A10EE101A0846FFF77BFC1C
:106D700041EC1B0BB0EE4B0AF0EE6B0A01F0D8FDB4
:106D8000B0EE40AAF0EE60AA9FED110B53EC102B71
:106D900051EC1A0BFFF7A7FB41EC190BFFF78EFC28
:106DA00008EE100A9FED0C0A28EE000ABCEEC00A9D
:106DB00010EE100A6870BDEC088B70BD5C8F22402D
:106DC000000000000000000000002E40DB0FC93F63
:106DD000000000000000F03F0000FF422DE9F04FEE
:106DE00089B00027002008904FF48070079001269A
:106DF000002412E0079808F0F5FB40B100BF7B4883
:106E00000068304018B1079808F0DEFB3743760081
:106E10000798001D80B20790641C082CEAD34FF439
:106E2000BE7008F0DFFB50B14FF4BE7008F0CCFB31
:106E300047F0004708AA0121002008F0ABFBF8B298
:106E400000B3012600241BE006EA0700B0B100BF32
:106E5000674850F82400C0F30420804600BF64480F
:106E600050F82400C0F301408146204604F07EF92A
:106E7000054615B149464046A84700BF7600641C48
:106E8000082CE1D307F0004000287DD000200690B8
:106E90000590002505E04FF0FF3004A941F82500DA
:106EA0006D1C002DF7D000BF0020069000245FE08D
:106EB0005048005D0390039820F0C0094D480057EA
:106EC000401C002853D004A9484607F0DEFF0028E4
:106ED0004DD003984FEA901A484604F08FF9804647
:106EE00004F044F90290029810B9BAF1030F3DD1B1
:106EF000BAF1030F03D105A9484607F0D1FF00BF3F
:106F000000BF4FF0A041084600F5E06151F829109C
:106F1000C1F3014800BF08A9484607F0B6FF834601
:106F2000BBF1000F02D0B8F1020F05D0BBF1000F8A
:106F30001BD1B8F1030F18D1BAF1030F0FD1B8F17B
:106F4000020F01D1032000E0022001904846019980
:106F500008F0A0FA0698401CC0B2069000BF029844
:106F600018B151464846029A904700BF00BF641CC2
:106F7000002C9DD0069888B34FF0010803AA012188
:106F8000002008F007FB00E02DE000250BE003A83F
:106F900050F8250008A951F82510884202D04FF07A
:106FA000000802E06D1C002DF1D000BFB8F1000F09
:106FB00002D00020069010E000250CE003A850F855
:106FC000250008A941F8250005A850F8250004A9C6
:106FD00041F825006D1C002DF0D000BF0698002858
:106FE0007FF462AF00BF09B0BDE8F08F04630040DA
:106FF000106500408046002000BF00BF00BF00BFFA
:1070000000BFBFF34F8F00BF00BF00BF094800683B
:1070100000F4E06008490843001D0649086000BF0D
:1070200000BF00BFBFF34F8F00BF00BF00BF00BF56
:1070300000BFFDE70CED00E00000FA050122014B66
:107040001A707047A92B00201CB500F011F8142409
:10705000002000900346012211460190204608F0CE
:10706000A4F900BF0121142008F05AFA1CBD000049
:107070001FB5044B0FCB8DE80F006946024808F09E
:1070800085FD1FBDC03E0300A83E0300F0B58DB0D6
:1070900007460D4616461C4600201A4908701A4835
:1070A0000760067100201849886008731822174984
:1070B00007A8FFF7E7F907A9154808F085FD04E0E0
:1070C00010480078012800D100E0F9E700BF002057
:1070D0000C4908700C490860084604718560047307
:1070E00018220A49183101A8FFF7CCF901A908486C
:1070F00008F06AFD05E003480078012801D10DB0D1
:10710000F0BDF8E7F02A0020B83F0020003F030060
:10711000A83E030070B505460C46002009490870DA
:107120000948056004710020074988600873074911
:10713000074808F049FD04E002480078012800D122
:1071400070BDF9E7F02A0020B83F0020F42A0020A3
:10715000A83E030070B58CB006460D4614460020CC
:107160001B4908701B48066001201A49087100205D
:10717000886008731822184906A8FFF783F906A942
:10718000164808F021FD04E011480078012800D1DC
:1071900000E0F9E700BF00200D4908700D480560C8
:1071A00004710F480B4988600846047318220A4985
:1071B00018316846FFF766F96946084808F004FD8B
:1071C00005E003480078012801D10CB070BDF8E754
:1071D000F02A0020B83F0020D03E0300A83E030064
:1071E000C83F002010B504460021142008F098F98B
:1071F00000200149087010BDF02A002070B5044637
:107200000D460121142008F08BF901200149087076
:1072100070BD0000F02A00200122014B1A70704757
:10722000F02A002010B5044621469C2000F090F979
:1072300010BD000070B50025002017490870487087
:10724000002404E00221144800F02EF9641C032CF1
:10725000F8DB17201049087018204870002414E04B
:1072600002231A460D490C4800F0FCF8FF200A4999
:107270000870487009480078172805D107484078F9
:10728000182801D1E5B200BF641C042CE8DB032DF3
:1072900000D100BF70BD0000702B0020742B0020B7
:1072A00010B504462146902000F052F910BD0000B0
:1072B0002DE9F0410546012000F0A8F800242CE05B
:1072C00004EB4400284480784FF6FF7101EA002067
:1072D000C4F10F0101EB4101434A22F8110004EB14
:1072E0004400284440784FF6FF7101EA0020C4F1C1
:1072F0000F0101EB410102EB4101488004EB440026
:10730000285C4FF6FF7101EA0020C4F10F0101EB88
:10731000410102EB41018880641C0F2CD0DB2F203F
:10732000405D4FF6FF7101EA00202F4908802E20B2
:10733000405D4FF6FF7101EA00202B49488095F827
:107340002D004FF6FF7101EA0020274988800024B4
:107350001AE0002715E0022F09D104EB4401224A6C
:1073600002EB410131F81700FFF75CFF08E004EB86
:1073700044011D4A02EB410131F8170000F0B4F856
:107380007F1C032FE7DB641C0F2CE2DB00BF002413
:107390000FE0022C06D114495A3131F81400FFF7DE
:1073A0007FFF05E010495A3131F8140000F09CF8D5
:1073B000641C032CEDDB00BF002611E04FF6FF70CC
:1073C0000A4921F81600022E04D131F8160000F007
:1073D0000FF804E0054931F8160000F085F8761C36
:1073E000032EEBDBBDE8F081E4400020762B00208B
:1073F00010B504462146AC2000F0AAF810BD10B527
:1074000004462146842000F0A3F810BD70B505465F
:10741000002410E0094820F81450022C05D1014640
:1074200031F81400FFF7EBFF04E0044931F81400D1
:1074300000F05AF8641C032CECDB70BD762B0020A6
:1074400010B500F001F810BD1FB5044B0FCB8DE84F
:107450000F006946024808F099FB1FBD483F030032
:10746000303F03002DE9F04104460D4616461F4605
:107470000020094908700948046006718560077397
:107480000749084808F0A0FB05E0034800780128F8
:1074900001D1BDE8F081F8E7242B00201440002042
:1074A000402B0020303F030070B505460C460020FD
:1074B000094908700948056004710020074988607F
:1074C00008730749074808F07FFB04E0024800788A
:1074D000012800D170BDF9E7242B002014400020C2
:1074E000282B0020303F030038B50446200A8DF8D1
:1074F0000000E0B28DF8010002216846FFF7D4FFDA
:1075000038BD000070B506460C4615460B4806808F
:1075100000200B4908700B480460057100200949E0
:10752000886008730849094808F04EFB04E00448E5
:107530000078012800D170BDF9E70000262B00205B
:10754000252B002014400020582B0020303F030042
:1075500038B505460C46200A8DF80000E0B28DF8DB
:107560000100022269462846FFF7CCFF38BD000023
:107570000021014A11707047242B002010B50446E9
:107580000348008800F02CF900200249087010BD63
:10759000262B0020252B00200122014B1A7070475A
:1075A000242B00200122014B1A707047252B00204C
:1075B0002DE9FE4306F0F6FD074617B10020BDE8B1
:1075C000FE83782007F046FA782006F05BFD142051
:1075D00007F0F6F901A806F0D5FD684606F0B0FD03
:1075E00002A806F087FD04F0E5F9144C204606F0E9
:1075F0007FF80546E01C06F07BF845EAC00085B23E
:10760000A01D06F075F845EA801085B200BFA846B7
:10761000404604F007FB0A4804F0C4FA094804F0A5
:10762000B9FA40F27116304604F06CF8142004F0F8
:10763000C1FA012007F0C6F80020C0E7A0370020FB
:107640004D7602004976020000BF704708B58DF8FC
:1076500000008DF8011008BD00F01F0201219140CB
:10766000024A430942F823107047000080E200E01C
:1076700000F01F02012191404209920002F1E02234
:10768000C2F800117047000000F01F020121914074
:10769000024A430942F823107047000000E200E06C
:1076A00010B5002807DA4A07140E054A00F00F0348
:1076B0001B1FD45403E04A07130E024A135410BD93
:1076C00018ED00E000E400E010B54FF4807007F022
:1076D00097FC80B14FF4807007F09BFC012007F00D
:1076E000A1FC0D48407930B901200B49487108468A
:1076F0000168002088474FF4827007F081FC50B188
:107700004FF4827007F085FC022007F08BFC0248E2
:1077100001680120884710BD4438002010B5024997
:10772000024806F03AF810BDB446002000C00140FF
:1077300010B50249024806F030F810BDBC460020E2
:10774000001002403EB50A4A07CA8DE80700002231
:107750006946084808F09EFC044600BF254625B14E
:1077600000BF284602F014FB00BF00BF3EBD000072
:10777000843E0300A02A002010B50220084908809A
:10778000084608490860042088800120886000209D
:10779000C86002230A22044808F000FD10BD000062
:1077A000B02A0020F8380020A02A00203EB50A4A5E
:1077B00007CA8DE8070000226946084808F06AFCFD
:1077C000044600BF254625B100BF284602F0E0FA76
:1077D00000BF00BF3EBD0000783E0300982A002095
:1077E00010B50446074804800749086004208880D3
:1077F000012088600020C86001231A46034808F071
:10780000CDFC10BDA82A0020E8380020982A0020CE
:107810002DE9F0412DED088B84B004460D4694ED22
:10782000000AD4ED010A20EE200AD4ED020A94EDFC
:10783000031A00EE810AF0EE000A20EE200A10EE94
:10784000108A94ED010A20EE000AD4ED020A94EDAC
:10785000021A00EE810AF7EE000AB0EE001A41EEBD
:10786000400A10EE907A3846FEF7FDFE41EC1A0B06
:107870004046FEF7F8FE41EC1B0BB0EE4A1AF0EE64
:107880006A1AB0EE4B0AF0EE6B0A00F0C1FEB0EEE1
:10789000409AF0EE609A51EC190BFEF70FFFA860CA
:1078A00094ED000AD4ED020A20EE200AD4ED030A7A
:1078B00094ED011A00EEC10AF0EE000A20EE200A53
:1078C00010EE106A3046FEF7CEFE41EC1A0BB0EE19
:1078D0004A0AF0EE6A0A00F093FFB0EE409AF0EE2A
:1078E000609A9FED3E0B53EC102B51EC190BFEF7F9
:1078F000CDFE19D89FED3B0B8DED000B3046FEF70A
:10790000B2FECDE902010199039861F31E000190D6
:107910009DED000BB0EE409AF0EE609A51EC190B21
:10792000FEF7CCFE686013E03046FEF79CFE41ECAB
:107930001A0BB0EE4A0AF0EE6A0A00F04DFBB0EE08
:10794000409AF0EE609A51EC190BFEF7B7FE6860B2
:1079500094ED000AD4ED030A20EE200AD4ED010ACA
:1079600094ED021A00EE810AF0EE000A20EE208A61
:1079700094ED020A20EE000AD4ED030A94ED031AF6
:1079800000EE810AF7EE000AB0EE001AF0EE608A0F
:1079900041EE408A18EE900AFEF765FE41EC1A0BA4
:1079A00018EE100AFEF75FFE41EC1B0BB0EE4A1A10
:1079B000F0EE6A1AB0EE4B0AF0EE6B0A00F028FE09
:1079C000B0EE409AF0EE609A51EC190BFEF776FE9D
:1079D000286004B0BDEC088BBDE8F0810000000019
:1079E0000000F03F00000060FB21F93F10B50020CF
:1079F0000949086000210948C0F84411C0F848113D
:107A0000C0F84C1100200549C1F8000102493C3979
:107A100008600BF00FFD10BD401101400010014047
:107A2000FEB54FF4827007F04FFF002837D04FF4B7
:107A3000827007F053FF6C4890F82E0018B16A4826
:107A400090F82F0058B300208DF800006648406879
:107A5000019065480189ADF80810C06818B9002088
:107A60006149087412E06048008B5F49488308460A
:107A7000C06848600846008B08810020C86008463E
:107A800090F82E0010B9002007F034FF5648016826
:107A9000684688470020544981F82F0000BF5248AB
:107AA00090F82E00002852D04FF4807007F00CFFA1
:107AB00000284CD04FF4807007F010FF4A48408BEC
:107AC000494991F82D10884216DD4748408B4649B8
:107AD00091F82D10401A444948830A4612890B46F2
:107AE0005B8BD21A0B465B6803EB42000A4692F8A6
:107AF0002D1007F0E1FE23E03B48408B3A4991F816
:107B00002D1088420FD13848C06860B10120364935
:107B100081F82F00002048830A4692F82D10D06883
:107B200007F0CAFE0CE03048408B2F4991F82D1029
:107B3000884205D101202C4981F82F00002048837C
:107B40004FF4827007F0CAFE042007F0D3FE4FF412
:107B5000887007F0B9FE70B14FF4887007F0BEFE70
:107B600000202149087402208DF8000008460168B1
:107B70006846884700BF4FF48A7007F0A5FE38B109
:107B80004FF48A7007F0AAFE0020174908742AE013
:107B90001548456924E0B5FA85F64FF00040F040FD
:107BA0008543B00000F58C74204607F08DFEB8B117
:107BB000204607F093FE01208DF80000A4F58C709C
:107BC000C0F3C7008DF80400A4F58C70012121EAF0
:107BD00090018DF80510044801686846884700BF89
:107BE000002DD8D100BFFEBD0C46002010B50249C3
:107BF000024805F024FE10BDC446002000300040BD
:107C000010B503494FF0402005F019FE10BD0000EB
:107C1000E846002010B50BF017FB10BD10B507F0BB
:107C20001DFF10BD01480249086070470090D00355
:107C3000CC38002010B504F0CFFA28B18D48008868
:107C4000C0F304208C49086004F01AFB10B18B4883
:107C50008B49486704F03CFB30B18648E038006847
:107C6000C0F342308749086004F05CFB28B18648C5
:107C7000006820F080708449086004F06BFB48B114
:107C80000020824908604FF08041C1F810017D4911
:107C9000091F086004F088FB18B10320794964319A
:107CA000086004F099FB68B105207949086001205B
:107CB00077497831086000207549083108603F2015
:107CC000091F086004F0A0FB002855D06948E03087
:107CD0000068704908606748E4300068091D086062
:107CE0006448E8300068091D08606248EC300068AC
:107CF000091D08605F48F0300068091D08605D4894
:107D0000F4300068091D08605A48F830006861497D
:107D1000203108605748FC300068091D08605E4843
:107D20000068091D08605C48001D0068091D0860A6
:107D3000594808300068091D086057480C30006831
:107D4000091D0860544810300068524940310860ED
:107D5000514814300068091D08604F481830006809
:107D6000091D08604C481C300068091D08604A481D
:107D700020300068091D086004F004FA30B13D4865
:107D8000CC38006800F04F004449086004F04EFA17
:107D900040B14348006800F0010018B16FF00100E5
:107DA0003F49086004F084FA28B13E48006840F476
:107DB00080603C49086034487438006840F47000C2
:107DC00031497439086000BF00BF00BFBFF34F8F57
:107DD00000BF00BF00BF00BF00BF00BFBFF36F8F79
:107DE00000BF00BF00BF3048006800F00100E0B3F2
:107DF00001202E49086000BF2D4800680028FBD0F4
:107E00002948006820F001004FF01021C1F80C0251
:107E100000BF274800680028FBD0002023490860E5
:107E200000BF234800680028FBD000BF00BF00BF90
:107E300000BF00BFBFF34F8F00BF00BF00BF12489D
:107E4000F038006800F4E0601A490843001D0E494C
:107E5000F039086000BF00BF00BFBFF34F8F00BF05
:107E600000BF00BF00BF00BFFDE7FFE7FFF7DAFE7E
:107E700010BD000024030010403501400DF0ADBAE4
:107E800000C007403C050040FCED00E00C01004054
:107E90001056004020C5004024040010E40E0040AD
:107EA000000400403C1700400C12001004E50140A3
:107EB00000E401400000FA0510B50422024903481D
:107EC00005F03DFC10BD0000DC45002000900040A6
:107ED00010B504220249034805F031FC10BD000032
:107EE000E845002000A0004010B5062202490348E2
:107EF00005F025FC10BD0000F445002000A0014065
:107F000010B506220249034805F019FC10BD000017
:107F10000046002000B0014010B5024908688047C3
:107F200010BD00004C38002030B58BB0182211492C
:107F300005A8FEF7A7FA00BF0F4801904FF40070A4
:107F400002900E4803904FF40070049007230C4AEF
:107F500001A905A801F0CCFF044600BF00BF2546DB
:107F600025B100BF284601F013FF00BF00BF00BFCE
:107F70000BB030BD903E030008390020083B0020C4
:107F8000A73503000FB4054B10B503A9044A0298A6
:107F900001F048FA10BC5DF814FB0000EFC90200C4
:107FA000C038002003B401984100009850EAC12075
:107FB00018BF04204A0D18BF40F0010040F2FF72C4
:107FC000B2EB515F08BF40F00200012808BF052056
:107FD00002B070470000000070B5C1482DED020BE3
:107FE0002DED0E8B82B0119D25F000449FEDBEDB80
:107FF0009FEDBFEB84423EDBA4F140511098A1F10C
:108000007F6108430FD0BC48844202DC28D110981D
:1080100030B39DED100B02B0BDEC0E8B02B0BDE88D
:10802000704001F0D1B89DED100B53EC1D2B51ECBD
:10803000100BFEF71BFC9DED100B41EC180B53ECE5
:108040001E2B51EC100BFEF711FC53EC182BFEF716
:108050004AFA41EC100B02B0BDEC0E8B02B070BDC1
:10806000012001F017F902B0BDEC0E8B02B0BDE8A3
:10807000704001F0BDB8A1489FEDA18B844256DA53
:108080009DED100BB4F1795F0ADA51EC100BFFF79C
:1080900089FF042808BF01F0BBF89DED100BDAE75B
:1080A00053EC102B51EC100BFEF7E0FB41EC190BDD
:1080B00095480621B0EE490AF0EE690A784400F0CE
:1080C0006FFF53EC192B51EC100BFEF7CFFB41EC7B
:1080D0001A0B8E48B0EE490AF0EE690A0421784482
:1080E00000F05EFF53EC192B51EC100BFEF7BEFBBA
:1080F00053EC182BFEF7F7F941EC100B51EC1A0B6F
:1081000053EC102BFEF724FCCDE900019DED000B94
:1081100053EC102B9DED100B51EC100BFEF7A6FB52
:108120009DED101B53EC112BFEF7DDF9D2E09DED18
:10813000100B51EC100B04F0E3FA53EC182BFEF784
:1081400076FA9FED730BCDE9000153EC102B9DEDFA
:10815000000B51EC100BFEF789FB41EC190B6E483C
:108160000621B0EE490AF0EE690A784400F018FFE3
:1081700053EC192B51EC100BFEF778FB41EC1B0B69
:108180006648B0EE490AF0EE690A0421784400F02E
:1081900007FF53EC192B51EC100BFEF767FB53EC68
:1081A000182BFEF7A0F941EC1C0B51EC190B0AF04F
:1081B00028FF41EC180B5A489FED5BABA04222DC34
:1081C00053EC1C2B51EC1B0BFEF7C2FBCDE900015D
:1081D0009DED000B51EC180B53EC102BFEF746FBFA
:1081E00053EC182BFEF77FF953EC1A2BFEF73EFBEE
:1081F00053EC1D2BFEF718FA53EC1E2BFEF717FA63
:1082000041EC100B5FE08DED008B002000909DEDA8
:10821000000B51EC180B53EC102BFEF764F99DED9D
:10822000000B41EC1E0B53EC102B51EC100BFEF726
:108230001DFB53EC192BFEF7FAF953EC1E2BFEF73E
:1082400087FB41EC190B53EC1C2B51EC1B0BFEF77D
:108250007FFB41EC1B0B53EC1A2B51EC190BFEF777
:1082600005FB53EC1D2BFEF7E2F941EC190B53EC27
:108270001A2B51EC180BFEF7F9FA53EC1B2BFEF7F7
:10828000F5FA53EC192BFEF7CFF99DED000B41ECFD
:10829000180B53EC1A2B51EC100BFEF7E7FA9FED7D
:1082A000249B53EC192BFEF7C2F941EC100B51EC57
:1082B000180B53EC102BFEF7B7F953EC192BFEF704
:1082C000B6F941EC100B002D3FF7C5AE51EC100B89
:1082D00081F0004141EC100BBDE600000000000001
:1082E0000000F03F00000000075C143326A6913C1C
:1082F000182D4454FB21F93F0000F07F0000E03FBF
:10830000000000000000F03F88C2000096C200009C
:10831000000000000000E03FDAC10000E8C10000FA
:108320003333EF3F00000000000000000000004079
:10833000182D4454FB21E93F70B59B482DED020BED
:108340002DED068B079D25F00044A04218DC9748D0
:10835000844202DC0AD1069840B19DED060BBDECCB
:10836000068B02B0BDE8704000F02EBF002DCCBFE0
:108370009FED8F0B9FED900BBDEC068B02B070BD97
:108380008F48A04215DD8F48A042D8BF4FF0FF3480
:1083900058DD9DED060B51EC100BFFF703FE042892
:1083A00008BF00F035FF9DED060BBDEC068B02B05B
:1083B00070BD9DED060B51EC100B04F0A1F9CDE959
:1083C000060181489FED828BA0423CDD8248A0429D
:1083D0001FDD00249FED82AB9DED060B53EC1A2BA5
:1083E00051EC100BFEF77FF89DED060B41EC190BDD
:1083F00053EC1A2B51EC100BFEF738FA53EC182BF8
:10840000FEF712F953EC192BFEF7A2FACDE906019B
:1084100049E09DED060B012453EC182B51EC100B99
:10842000FEF761F89DED060B41EC190B53EC182B90
:1084300051EC100BFEF7F8F853EC192BFEF788FA05
:10844000CDE906012FE06848A0421FDD02249FED20
:10845000689B9DED060B53EC192B51EC100BFEF7AE
:1084600005FA53EC182BFEF73EF89DED060B41EC98
:10847000180B53EC192B51EC100BFEF7D5F853ECFD
:10848000182BFEF765FACDE906010CE09DED060B11
:10849000032453EC102B9FED580B51EC100BFEF7FF
:1084A00057FACDE906019DED060B53EC102B51EC6C
:1084B000100BFEF7DBF941EC180B53EC182BFEF711
:1084C000D5F941EC190B4E480621B0EE490AF0EE01
:1084D000690A784400F064FD53EC182B51EC100B42
:1084E000FEF7C4F941EC180B4648B0EE490AF0EE2D
:1084F000690A0521784400F053FD53EC192B51EC27
:10850000100BFEF7B3F941EC100B51EC180B53ECC8
:10851000102B002C0EDAFDF7E6FF9DED061B53EC49
:10852000112BFEF7A3F99DED061B53EC112BFEF763
:108530007EF835E0FDF7D7FF9DED061B53EC112BC0
:10854000FEF794F941EC100B2F48784400EBC4007F
:1085500090ED001B51EC100B53EC112BFEF764F85F
:108560009DED061B53EC112BFEF75EF841EC100B52
:108570002648784400EBC40090ED001B51EC100B32
:1085800053EC112BFEF753F841EC100B002DA2BF5A
:10859000BDEC068B02B070BD51EC100B81F00041B8
:1085A00041EC100B01E70000000010440000F07FD8
:1085B000182D4454FB21F93F182D4454FB21F9BFD9
:1085C0000000DC3F0000203E0000F33F0000000000
:1085D000000000000000F03F0000E63F0000000047
:1085E0000000000000000040008003400000000088
:1085F000000000000000F83F000000000000F0BF95
:108600002ABF0000E0BE00006ABE000022BE0000DB
:1086100070B56B4E2DED040B2DED028B82B0DDF8A5
:108620001CC0DDE905235C422CF000411C4341EAFB
:10863000D474049D22F00040B44205D86C422C430F
:1086400040EAD474B4420BD99DED061B9DED040B9A
:1086500002B0BDEC028B04B0BDE8704000F0BEBDBE
:10866000ACF14054A4F17F641C430BD0022404EA13
:10867000AC7444EAD27405439FED538B9FED542BA9
:1086800007D015E09DED040B51EC100B01F033FD0C
:1086900042E0002C11BF012C9DED040B02B0BDEC9B
:1086A000028B04BF04B070BD022C38D0032C3BD029
:1086B0000B439FED491B9FED4A0B0AD0B14218D1E5
:1086C000B04209D121F0804120F08040079105900F
:1086D0000FE0002A15DA10E0434B7B44002C08BF62
:1086E00093ED000B0DD0012C10D0022C17D0032CD1
:1086F0001AD0B0421DD1002A03DAB0EE410AF0EEE2
:10870000610A02B0BDEC028B04B070BD93ED000BAA
:1087100051EC100B81F0004141EC100BF1E7B0EE91
:10872000480AF0EE680AECE7B0EE420AF0EE620AA0
:10873000E7E7401A00153C28C8BF8DED000B19DC97
:10874000BCF1000FBEBF10F13C0F9FED290B8DED6A
:10875000000B0FDB9DED060B53EC102B9DED040B76
:1087600051EC100BFEF7F4F803F0CAFF01F0C3FC64
:10877000CDE90001002C08BF9DED000BC1D0012CFC
:1087800010D0022C9FED1C0B53EC102B9DED000B19
:1087900051EC100B0DD0FDF747FF53EC182BFDF7F4
:1087A00043FFB9E7019880F0004001909DED000B78
:1087B000A7E7FDF739FF53EC182BFDF738FFABE7C0
:1087C0000000F07F00000000182D4454FB210940F8
:1087D000182D4454FB2109C0182D4454FB21F9BF26
:1087E000182D4454FB21F93F82BD00000000000019
:1087F0000000000000000000075C143326A6A13C26
:108800002DED020B019820F0004001909DED000B32
:1088100002B07047000000002DE9F0412DED020B81
:108820009FED3D0B2DED028B9FED3D8BDDE902545D
:10883000C4F30A50A0F2FF36142E37DA002E18DAED
:1088400053EC102B9DED020B51EC100BFDF74BFE82
:1088500053EC182BFDF71AFF57D2002CA4BF0024AD
:10886000254652DA24F00040284318BF2E4C4CD045
:108870001AE02E4820FA06F704EA070028431FD022
:1088800053EC102B9DED020B51EC100BFDF72BFE62
:1088900053EC182BFDF7FAFE37D2002C03DA4FF415
:1088A0008010F0400444BC4300252EE0332E07DC4A
:1088B000A6F114004FF0FF3121FA00F73D4206D136
:1088C0009DED020BBDEC028B02B0BDE8F08153ECD4
:1088D000102B9DED020B51EC100BFDF7A8FE53EC95
:1088E000182BFDF7D3FE10D2002C0DDA142E08BF82
:1088F000641C09D0C6F13400012101FA00F02844BB
:10890000A84238BF641C0546BD43CDE902549DED25
:10891000020BD7E7000000009C7500883CE4377E1E
:1089200000000000000000000000F0BFFFFF0F008B
:1089300010B52F499FED2C1B2DED020B84B005982F
:1089400020F000408842DCBF00209DED040B32DDAA
:108950002849884209D1049840B94FF0010000F03D
:1089600099FC00F045FC06B010BD05DB9DED040B45
:1089700000F02AFC06B010BD68469DED040B00F027
:108980003BF810F0030011D0012818D09DED021B18
:108990009DED000B02281AD000F04AFA51EC100BA2
:1089A00081F0004106B041EC100B10BD9DED021BA3
:1089B0009DED000B012000F06FFB06B010BD9DED9A
:1089C000021B9DED000B00F033FA06B010BD012034
:1089D00000F062FB51EC100B81F0004106B041EC5D
:1089E000100B10BD0000000000000000000000009F
:1089F000FB21E93F0000F07F2DE9F14F04462DED0A
:108A0000020B2DED088B8AB09FEDE70B80ED020B7A
:108A1000139EE74826F0004585420ADC9DED120BC7
:108A2000002084ED000B0AB0BDEC088B03B0BDE85C
:108A3000F08FE0489FEDE0AB9FEDE1BBA84247DD42
:108A4000E14F9FEDE39B9FEDE48B9DED120B53EC0B
:108A50001A2B51EC100B002E1CDDFDF7E5FD41EC4F
:108A6000100BBD4208D053EC1B2B51EC100BFDF743
:108A7000DBFDC4E900010BE053EC192B51EC100BAA
:108A8000FDF7D2FD53EC182BFDF7CEFDC4E9000134
:108A90000120C8E7FDF727FD41EC100BBD4208D0CF
:108AA00053EC1B2B51EC100BFDF71DFDC4E900012D
:108AB0000BE053EC192B51EC100BFDF714FD53ECAC
:108AC000182BFDF710FDC4E900014FF0FF30AAE7B5
:108AD000C348A84279DB9DED120B51EC100B03F05B
:108AE0000FFE41EC180B9FEDC00B53EC102BFDF764
:108AF000BDFE9FEDBF1B53EC112BFDF7F4FCFEF701
:108B000030F80746FEF70FF841EC190B53EC1A2B1F
:108B1000FDF7ACFE53EC182BFDF789FD41EC180B6B
:108B200053EC1B2B51EC190BFDF7A0FEDFF8C8A28C
:108B300041EC100B4FEA15580125FA4453EC102B69
:108B400051EC180BFDF770FD032DC4E900013DD079
:108B5000C1F30A5005EB4511A8EB00001139814221
:108B600034DA0AEB051BB0EE48AA9BED000BF0EEE1
:108B700068AA53EC102B51EC190BFDF777FE41EC72
:108B80001B0B51EC1A0B53EC1B2BFDF74DFD41EC6D
:108B9000180B51EC1A0B53EC182BFDF745FD53EC59
:108BA0001B2BFDF741FD9BED020B41EC1A0B53EC27
:108BB000102B51EC190BFDF759FE53EC1A2BFDF756
:108BC00033FD41EC100B6D1CB8E70EE0002EA8BF82
:108BD0003846BFF628AF94ED000B51EC100B81F036
:108BE0000041C4E9000178421DE7C6F3130040F4D8
:108BF000801EC6F30A50A0F2F530471100F01F05A1
:108C0000C5F12000DDF848B00890002006900790DC
:108C10000520EC467949002D07EB0002794408BF96
:108C200051F8221009D051F8223001EB8201AB40FB
:108C30004A68089922FA01F11943A1FB0E26A1FB0B
:108C40000B131A449A4234BF0123002303EB060896
:108C50000CEB8003D3E901A60E448E4234BF012100
:108C6000002192448A4411B1924502D903E0924511
:108C700001D2012100E00021C3E901A641444CF8E2
:108C80002010011EA0F10100C4DC029800F1005088
:108C9000850F0298DDE903678000DDF81480FDF799
:108CA00042FF41EC1A0B3046FDF74EFF9FED541B7F
:108CB00053EC112BFDF7DAFD41EC1B0B3846FDF7A9
:108CC00043FF9FED511B53EC112BFDF7CFFD41EC02
:108CD000180B4046FDF738FF9FED4D1B53EC112B51
:108CE000FDF7C4FD41EC190B51EC180B53EC192B9B
:108CF000FDF7F9FB53EC1B2BFDF7F5FB53EC1A2B9F
:108D0000FDF7F1FBCDE90801002008909DED080B6F
:108D100053EC1A2B51EC100BFDF786FC53EC1B2B7C
:108D2000FDF782FC53EC182BFDF77EFC53EC192B5E
:108D3000FDF77DFC9FED381B53EC112BFDF796FDE5
:108D40009FED370B41EC180B53EC102B9DED080BEE
:108D500051EC100BFDF78AFD53EC182BFDF7C3FB0C
:108D60009FED310B41EC180B53EC102B9DED080BD4
:108D700051EC100BFDF77AFD53EC182BFDF7B3FB0C
:108D800041EC100B139810F0004F06D06D4251ECDF
:108D9000100B81F0004141EC100B284684ED000BD4
:108DA00041E600000000000000000000000000009C
:108DB000FB21E93F7CD9024000004054FB21F93FF0
:108DC0003163621A61B4D03DFB21F93F000000001D
:108DD0000000601A61B4D03D7370032E8A19A33B62
:108DE000FB2139410000000083C8C96D305FE43FBA
:108DF000000000000000E03F2AB9000078B8000041
:108E0000000000000000103E000000000000103CC8
:108E1000000000000000103A182D4454FB21F93DD9
:108E20003326A611460B113C00000054FB21F93DEE
:108E300010B52DED040B2DED088B82B0B0EE419AEC
:108E4000F0EE619A0B9820F000449FED4BABB4F12B
:108E5000795F11DA9DED0A0B51EC100BFDF781FEE5
:108E6000002801BFB0EE4A0AF0EE6A0A02B0BDEC7B
:108E7000088B04BF04B010BD9DED0A0B53EC102B02
:108E800051EC100BFDF7F2FC41EC180B3C480621AD
:108E9000B0EE480AF0EE680A784400F081F853EC2E
:108EA000182B51EC100BFDF7E1FC9DED0A0B41EC8A
:108EB0001B0B53EC192B51EC100BFDF7D7FC41ECBD
:108EC000190B53EC1B2B51EC180BFDF7CFFC53EC9B
:108ED000192BFDF7A9FB9FED2C0B41EC190B53EC63
:108EE000102B51EC180BFDF7C1FC41EC100B28487E
:108EF000844210DA53EC192B51EC100BFDF794FB64
:108F000053EC1A2BFDF793FB41EC100B02B0BDECB8
:108F1000088B04B010BD1F48A042BCBF9FED1E1BB4
:108F20008DED001B06DBA4F50010019000200090E1
:108F30009DED001B51EC100B53EC112BFDF774FB56
:108F40009DED000B41EC180B53EC102B51EC1A0B60
:108F5000FDF76AFB41EC1A0B53EC192B51EC180B83
:108F6000FDF762FB53EC1A2BFDF761FB41EC100B94
:108F7000CCE7000000000000000000000000F03F0F
:108F800094B5000000000000000000000000E03F79
:108F90003333D33F0000E93F000000000000D23F20
:108FA00070B504462DED028B4D1E00EBC500B0EEF2
:108FB000408AF0EE608A90ED000B35F0060017D085
:108FC00053EC182B51EC100BFDF750FC41EC100B3F
:108FD0006D1E04EBC50090ED001B51EC100B53EC23
:108FE000112BFDF780FA41EC100B35F00600E7D1AC
:108FF000022D36D0042D1CD0062D1CBFBDEC028BDB
:1090000070BD53EC182B51EC100BFDF72FFC94EDB9
:109010000A1B53EC112BFDF766FA53EC182BFDF7E6
:1090200025FC94ED081B53EC112BFDF75CFA41EC89
:10903000100B53EC182B51EC100BFDF717FC94EDB3
:10904000061B53EC112BFDF74EFA53EC182BFDF7D2
:109050000DFC94ED040B53EC102BFDF744FA41EC9E
:10906000100B53EC182B51EC100BFDF7FFFB94ED9C
:10907000021B53EC112BFDF736FA53EC182BFDF7BE
:10908000F5FB94ED001B53EC112BFDF72CFABDEC16
:10909000028B41EC100B70BD31B504462DED040B75
:1090A0002DED0A8BB0EE41BAF0EE61BA0B989DED52
:1090B0000A0B20F00040B0F1795F0DDA51EC100B93
:1090C000FEF770FF042808BF00F0A2F89DED0A0B20
:1090D000BDEC0A8B05B030BD53EC102B51EC100BDE
:1090E000FDF7C4FB41EC180B9DED0A0B53EC182B5C
:1090F00051EC100BFDF7BAFB41EC190B2C48B0EE0C
:10910000480AF0EE680A05217844FFF749FF9FED11
:109110002ACBB0EE40AAF0EE60AA9CB353EC1C2B15
:1091200051EC190BFDF7A2FB41EC1C0B53EC1A2B75
:1091300051EC190BFDF79AFB9FED210B41EC190B3C
:1091400053EC102B51EC1B0BFDF790FB53EC192B40
:10915000FDF76AFA53EC182BFDF788FB53EC1B2B39
:10916000FDF762FA53EC1C2BFDF75EFA9DED0A1B2E
:1091700053EC112BFDF75BFABDEC0A8B05B041EC0B
:10918000100B30BDFFE753EC1A2B51EC180BFDF719
:109190006DFB53EC1C2BFDF7A6F953EC192BFDF7D7
:1091A00065FB9DED0A1B53EC112BFDF79CF9E3E7E2
:1091B00024B4000000000000495555555555C5BF61
:1091C000000000000000E03F10B553EC102B51EC04
:1091D000100BFDF788F941EC100B10BD10B553ECE6
:1091E000112B51EC100BFDF77EF941EC100B10BD6B
:1091F0009FED050B10B553EC102B51EC100BFDF748
:10920000A7FB41EC100B10BD0000000000000000A7
:109210009FED050B10B553EC102B51EC100BFDF727
:1092200025FB41EC100B10BD0000000000000010F9
:1092300002E008C8121F08C1002AFAD1704770471F
:10924000002001E001C1121F002AFBD1704700007D
:109250000146202908DA012088400A4A104008B156
:10926000012070470020FCE7402909DAA1F1200025
:10927000012202FA00F008B10120F2E70020F0E735
:109280000120EEE7FC06FFBD00BFEFF310810846AA
:1092900072B670470149086070470000D03800205E
:1092A0002DE9FF5F82B00021DDE90430020DDDF819
:1092B00040B0034318D044F61050A2F2FF324243AC
:1092C0001514119801281FD0A5EB0B00401C5FEA74
:1092D000000A4FF000064E4FDFF83891B046504676
:1092E00015D5CAF1000413E0119801244AA30128FE
:1092F00001D16FEA0B010298119AC0E90031C0E96F
:10930000024206B0BDE8F09FCBF10000DFE7044663
:109310000021404A491842EB0450CDE9001012E008
:10932000E00707D032463B4640464946FDF79EFAE5
:109330008046894632463B4610461946FDF796FA66
:1093400006460F466410002CEAD1DDE90401DDE990
:109350000023BAF1000F06DAFDF788FA42464B46C1
:10936000FDF784FA05E0FDF7F3FA42464B46FDF7B8
:10937000EFFA04460E460022284BFDF787F903D882
:109380004FF0FF30014607E00022254B20463146D2
:10939000FDF7A9F8FDF74BFB102409E0002C0ADBD0
:1093A0000A220023FDF71EF8039B30321A55641E73
:1093B00050EA0102F2D1641C039AC4F1110314446F
:1093C000119A012A03D0012208430DD10AE0084373
:1093D00004D000204FF0110B119072E7A3EB0B05A6
:1093E0006D1E0DE05B4504DD4FF0000205F1010547
:1093F00004E003DA4FF00002A5F10105002AECD0E9
:1094000002981199C0E90231C0E9004579E70000EE
:10941000000014400000F03F300000000000F04366
:109420000000E03F2DE9FF4F95B09B468946064678
:1094300000250FE2252877D100242746F84A01218C
:10944000059400E0044316F8013F203B01FA03F0C5
:109450001042F7D130782A2811D06FF02F033078DE
:10946000A0F13002092A16D8059A44F0020402EB52
:10947000820203EB42021044761C0590EFE759F894
:10948000042B0592002A03DA504244F4005405905C
:1094900044F00204761C30782E2816D116F8010FFD
:1094A00044F004042A280DD06FF02F023078A0F188
:1094B0003003092B09D807EB870302EB4303C718D6
:1094C000761CF3E759F8047B761C30786C280FD0B3
:1094D00006DC4C2817D068280DD06A2814D104E087
:1094E000742810D07A280FD10DE044F400140AE05B
:1094F00044F4801401E044F440147278824202D1B2
:1095000004F58014761C761C307866280BD013DCAA
:10951000582877D009DC002875D04528F6D0462891
:10952000F4D047281AD19DE118E0632835D064288B
:1095300079D0652812D195E1702873D008DC6728AE
:10954000F1D069286FD06E280DD06F2806D1B5E014
:1095500073282CD0752875D0782874D05A4617995E
:1095600090476D1C75E1C4F30250022809D003280E
:109570000DD0D9F8001004280DD00D6009F10409B0
:1095800067E1D9F80010EA17C1E90052F6E7D9F807
:1095900000100D80F2E70D70F0E719F8041B8DF84C
:1095A000001000208DF80100EA46012003E059F880
:1095B00004AB4FF0FF3061074FF0000102D40DE023
:1095C00008F101018846B9420FDA8045F8DB1AF844
:1095D00008100029F4D108E008F101018846814211
:1095E000FADB1AF808100029F6D105985B46A0EBC3
:1095F000080721463846179A00F094FA284400EBF1
:10960000080507E04DE029E10DE01AF8010B5A4684
:1096100017999047B8F10108F7D25B4621463846C2
:10962000179A13E142E00A220092C4F302524FF06B
:10963000000A022A08D059F804CB032A4FEAEC7139
:109640000AD00DE029E02AE009F1070121F0070224
:10965000F2E802C1914609E00FFA8CFC4FEAEC7186
:10966000042A03D14FFA8CFC4FEAEC71002907DA87
:109670000A460021DCF1000C61EB02012D2202E020
:10968000220504D52B228DF80420012203E0E207F5
:1096900001D02022F7E7904659E00A2102E010228B
:1096A0000DE010214FF0000A00910BE010224FF066
:1096B000000A44F004040827009203E008224FF057
:1096C000000A0092C4F30252022A05D059F804CBD2
:1096D0000021032A08D009E009F1070121F007025F
:1096E000F2E802C1914605E01FFA8CFC042A01D180
:1096F0000CF0FF0C4FF00008220728D5702806D088
:10970000009B83F0100353EA0A0305D00EE04022C9
:109710008DF80420012208E05CEA010206D0302224
:109720008DF804208DF8050002229046009B83F0FE
:10973000080353EA0A030AD15CEA010201D1620775
:1097400005D530228DF804204FF001087F1E5828DF
:1097500004D034A003900EA802900DE036A0F9E7E3
:1097600053466046009AFCF73DFE84460398825CAF
:109770000298401E029002705CEA0100F0D102984B
:1097800006A9081A00F1200A600702D524F48034E3
:1097900000E00127574502DDA7EB0A0000E00020AA
:1097A00000EB0A01009005984144401A0590E0033F
:1097B00006D45B462146179A059800F0B3F9054494
:1097C000002706E001A85A46C05D179990476D1C16
:1097D0007F1C4745F6DBE0030CD55B462146179A14
:1097E000059800F09FF9054404E030205A46179987
:1097F00090476D1C0099481E00900029F5DC08E098
:10980000029802995A460078491C0291179990478C
:109810006D1CBAF10001AAF1010AF1DC65E100005A
:109820000928010030313233343536373839616236
:1098300063646566000000003031323334353637FA
:1098400038394142434445460000000000F058F9D1
:109850000544761C307800287FF4ECAD19B028461A
:10986000BDE8F08F620700D4062709F1070222F055
:10987000070CFCE80223E14603F000485FEA080C0D
:1098800002D00FF2702C0DE05FEA045C02D50FF2FB
:10989000682C07E05FEAC47C02D00FF2602C01E084
:1098A000AFF2700C4FF0FF3823F00043CDF850C0FA
:1098B00065280CD006DC452809D046281DD047284D
:1098C0003DD13DE0662818D067287ED138E00021E0
:1098D000112F01DB112000E0781CCDE9000106A961
:1098E0000EA8FFF7DDFCDDE90F010E9A03910021C0
:1098F000009207F1010A04914DE04FF000400097FB
:10990000CDE9011006A90EA8FFF7CAFCDDE90F0298
:1099100003920E9B11990022DDF80CA00093049293
:1099200011B9791C00EB010AB7EB0A0004D4C0F1AD
:10993000FF3007F1010A0490AAEB0700019044E010
:10994000012F00DA01270021112F01DD112000E095
:109950003846CDE9000106A90EA8FFF7A1FCDDE914
:109960000F010E9A0391002104910092BA4621073B
:109970000CD40399514500DA8A46BAF1010F05DD8E
:10998000009AAAF10101515C302908D0B84202DAEC
:1099900010F1040F06DA0121CDE9011015E0AAF15A
:1099A0000101E9E7002805DC049901440491AAEBD0
:1099B000000102E0411C514500DD8A460499401A2D
:1099C000401C01904FF000400290200704D4019801
:1099D000504501DBCDF8048000208DF84F0002983F
:1099E0000DF14F07B0F1004F25D02B200E900298BB
:1099F0004FF0020800280CDA404202902D200E9011
:109A000007E00A210298FCF775FE3031029007F852
:109A1000011DB8F10001A8F10108F2DC029800284C
:109A2000EFD1791E0E980870307800F0200040F0D9
:109A3000450007F8020D12A8C01B00F10708149892
:109A4000007800B1012000EB0A01019801EBE07100
:109A500005984144401A401E0590E00306D45B4639
:109A60002146179A059800F05DF80544149800788F
:109A700018B15A46179990476D1CE00324D55B46F0
:109A80002146179A059800F04DF805441CE004980B
:109A9000002807DBDDE90301884203DD0098405C14
:109AA000179901E0179930205A469047049805F11C
:109AB0000105401C04900198401E019004D12E2005
:109AC0005A46179990476D1CBAF10001AAF1010A94
:109AD000DDDC05E017F8010B5A46179990476D1C1D
:109AE000B8F10001A8F10108F4DC5B462146179AA1
:109AF0000598ABE62D0000002B00000020000000C0
:109B00002DE9F041044600251E461746880404D47A
:109B100005E039462020B0476D1C641EF9D5284663
:109B2000BDE8F0812DE9F041044600251E4690462F
:109B3000C80301D5302700E02027880404D505E0BC
:109B400041463846B0476D1C641EF9D52846BDE82D
:109B5000F08170B505460C4605B10CB9002070BD0A
:109B6000287840082178B0EB510F01D00020F6E7AB
:109B70000622611C681CFCF7A9FC08B90120EEE76D
:109B80000020ECE7014601F0030008B9012070470E
:109B90000020FCE7024650680068401E084008B9F3
:109BA000012070470020FCE70246002104E0505CE1
:109BB00008B101207047491C0629F8D30020F9E7B5
:109BC00010B50346D868884206D88818401E1C691C
:109BD000A04201D8012010BD0020FCE710B50446CA
:109BE0006CB10848C068A04209D806480069A04284
:109BF00005D3204603F085FE08B1012010BD0020EA
:109C0000FCE70000D438002070B504460D4604F28D
:109C10004B20FFF7C9FF0646012D06D0022D0DD0BF
:109C2000032D11D0042D19D113E0A07928B194F897
:109C3000240010B90EB1012070BD00BFE07910B151
:109C40000EB10220F8E700BF207A08B10320F3E745
:109C500000BF607A08B10420EEE700BF0020EBE708
:109C60000146481C052290FBF2F302FB1300C0B230
:109C7000704710B501220221002001F01FF80446B0
:109C800000BF1CB1072C01D0204610BD00BF072229
:109C90000221012001F012F8044600BF1CB1072C7C
:109CA00001D02046F1E700BF0A220021084601F05A
:109CB00005F8044600BF1CB1072C01D02046E4E79C
:109CC00000BF0020E1E770B58CB004460D46164693
:109CD000002005E0C0F10F01615C0DF80010401C90
:109CE0001028F7D30D2104A8FCF7E5FB002005E0C0
:109CF0002A5CC0F10F0304A9CA54401C0328F7D3FF
:109D0000684646DF002005E0C0F10F0208A9895C23
:109D10003154401C0328F7D30CB070BD10B5044675
:109D200002480178204600F021FC10BD1B380020BD
:109D300008B5009072B600BF1349096801F001012F
:109D400001B100BE00BF00BF00BF00BF00BF00BF29
:109D5000BFF34F8F00BF00BF00BF0B49E439096854
:109D600001F4E061094A1143091D074AE43A116010
:109D700000BF00BF00BFBFF34F8F00BF00BF00BFD9
:109D800000BF00BFFDE70000F0ED00E00000FA05B5
:109D90003EB50446002000900190029002946A466D
:109DA000002144F20100FFF7C3FF3EBD70B5044639
:109DB0000D46204602F073FD28B12946204602F0E8
:109DC00062FD002070BD0520FCE7034609B90E20A6
:109DD000704712B1501E104008B10920F8E7196011
:109DE000501E988000209860D86000BFF0E770B5E2
:109DF00004460D46204602F052FDA188884205D84F
:109E00002946204602F05EFD002070BD0420FCE7DC
:109E100010B508F0B3F900200F49087048700B2006
:109E2000887000200D4908600D4908700D490870C0
:109E30001420FDF711FC06211420FDF731FC14203D
:109E4000FDF716FC002008F06FF908F067F90649E5
:109E50000860002010BD00000C470020543800208E
:109E60006438002065380020583800202DE9F04182
:109E700004460E461746254600BF1048807810B9A4
:109E80000820BDE8F08100BF0CB90820F9E7052ED5
:109E900001D20720F5E7686908B90820F1E7687C76
:109EA000012801D1304600E0002080463B46424672
:109EB0003146284609F06EFAE3E700000C4700201F
:109EC00070B50446254600BF0848807808B90820C8
:109ED00070BD00BF0CB1686908B90820F8E7002020
:109EE00028740221284609F084FAF1E70C47002083
:109EF0002DE9F04188B004460E46174698462B4897
:109F000007601EB9072008B0BDE8F081B08882B2B2
:109F100027483168FFF759FF054600BF284600B1C2
:109F2000F1E700BFB08982B22248B168FFF74DFF68
:109F3000054600BF284600B1E5E700BF20221E49C4
:109F40006846FCF79FFA60690690207C08B1012002
:109F500000E000208DF814008DF81C80607C08B1B2
:109F60000E2000E000208DF81500E0680290A06847
:109F700003902068019060680090104A694610487C
:109F800005F00CF9054600BF284600B1BBE700BF4D
:109F900000200C4908702068401C28B101220A49A1
:109FA000074805F025F9AEE70020ACE7743800203B
:109FB000244800203448002038420300B135030013
:109FC000683800207A380020793800202DE9F041E7
:109FD000044621460D48FFF70AFF054695B90C4E89
:109FE0000027301D06F0B4FB074600BF57B90949EA
:109FF0000648FFF7DBFE28B901220649304605F086
:10A0000006F905462846BDE8F081000034480020E6
:10A01000683800207838002010B50446204608F043
:10A0200073F910BD70B5044625460E488068B0B17E
:10A03000ADB9FFF729F906460A4800680A490860E1
:10A04000084840684FF0E021C1F8040100200549AC
:10A0500088601EB900BF62B600BF00BF00BF00BF6E
:10A0600070BD00001848002000E100E070B5054612
:10A070000C462068401C28B1206805F03BFA206897
:10A0800005F0F0F96068401C18B10021606805F027
:10A09000DCF92868A169C0F8241500BF617D227D24
:10A0A000286841EA0203C0F86C3500BFD4E9001209
:10A0B000286805F0ECFD207D012814D1A068401C23
:10A0C00018B10021A06805F0C0F9E068401C28B173
:10A0D000E06805F00FFAE06805F0C4F9D4E9022160
:10A0E000286805F0BDFD70BD70B504460D462046DC
:10A0F00003F090FD70BD10B541EC100BFEF71CF99C
:10A1000051EC100B10BD10B50446637903F0030247
:10A110002179208803F098FC10BD10B50446207901
:10A1200018B9204600F008F803E02046FFF7EBFFDF
:10A1300000BF00BF10BD00002DE9FC410646378876
:10A140004FF00008002244480178384600F024FA15
:10A150007079C0F3800028B90021304606F022FF54
:10A16000BDE8FC8107F5807188B26B4601220721AA
:10A1700006F0CAFF054645B12946384608F0EAFA16
:10A180000021304606F00EFFEAE7384603F06CF98E
:10A1900004464FF6FF718C421BD1019803F0B4F8CE
:10A1A00004464FF6FF70844213D02146384603F030
:10A1B00039F93846FFF7B2FD58B9384608F05CFA6D
:10A1C0003846FFF7ABFD20B90021304606F0EAFE25
:10A1D000C6E74FF6FF70844215D107F021F9044617
:10A1E0004FF6FF70844208D10421384608F0B2FAD5
:10A1F0000021304606F0D6FEB2E72146384603F08D
:10A2000011F94FF0010807F5807188B22246072145
:10A2100006F0F0FF054625B90121304606F0C2FEE2
:10A2200017E0862D07D1384608F058FA012130464C
:10A2300006F0B8FE0DE02946384608F08BFA0021FA
:10A24000304606F0AFFEB8F1000F02D0204603F012
:10A25000F3F800BF84E70000183800202DE9F04132
:10A2600004460F46154615B90E20BDE8F0810020C2
:10A27000286000BF0CB90E20F7E700BF00BF2068C0
:10A2800008B90E20F1E700BF00BFE088C11700EB5E
:10A2900091718910A0EB810109B10720E5E700BFAA
:10A2A000384600F01EF9C6B2142E01D10520DCE7B5
:10A2B0002079B04201DC0420D7E7E188206806FB62
:10A2C000010028600020D0E7F8B504460E46154688
:10A2D000002000902B466A463146204600F008F8E0
:10A2E00007460FB90020F8BDBDF800002044FAE78A
:10A2F00030B504460D4604B10AB9002030BD002136
:10A3000003E0605C401C084481B21088884203DC92
:10A31000481C205C984201D0A942F2DBA94201DB33
:10A320000020EBE7881C1080605C401E80B2E5E7EF
:10A3300070B504460D462E462088102804D01128FA
:10A3400007D026280FD109E02146304606F0A2FAB0
:10A350000AE02146304606F06DFB05E02146304616
:10A3600006F0C3FC00E000BF00BF70BD704770B5D1
:10A3700004460E46207808B9082070BDA67000215A
:10A380004FF41470C4F84A12A4F84E120155A07983
:10A3900010B1A078012809D0E07910B1A078012887
:10A3A00004D0E07970B1A07802280BD1606B30B195
:10A3B000012084F851020820616B884702E00020E8
:10A3C00084F8510231462046FFF71EFCA070606BF6
:10A3D000A0B1A078032802D0A07804280ED160791B
:10A3E00060B194F8520248B9002084F85402012068
:10A3F00084F853020720616B884702E0002084F84C
:10A400005302182104F13C00FCF755F8012084F8B0
:10A410003C0004F12C0007F026F920B194F82C1030
:10A420005120015502E001215120015594F82400EA
:10A4300060B104F12C0007F016F920B194F828104F
:10A440005220015502E001215220015500215020E7
:10A450000155A078052824D2DFE800F01F030A1177
:10A46000180004F13C01204608F096FA054619E070
:10A4700004F13C01204608F077FA054612E004F1A9
:10A480003C01204608F09AFA05460BE004F13C0135
:10A49000204608F0C1FA054604E0002084F83100A7
:10A4A00000E000BF00BFA07898B104F13C0204F1C5
:10A4B0005400D4F8441272DF05460DB128465CE71B
:10A4C00094F8301094F8540073DF05460DB1284617
:10A4D00053E7606B18B194F83100616B8847002036
:10A4E0004BE710B50446204600F074F808B120464A
:10A4F00010BD1420FCE7000010B50446204600F013
:10A5000069F820B12146034804F04DFC10BD00203D
:10A51000FCE700002042002070B504460D461646B8
:10A52000204609F0B3F908B9002070BD034951F87D
:10A5300024003246294602F041FAF6E7284200207C
:10A5400070B504460025204600F044F850B121467D
:10A55000054804F028FC06460EB1022000E0012068
:10A56000054600BF284670BD1C42002070B5054658
:10A570000C46204609F08AF950B1284600F02AF826
:10A5800030B1044901EB8400294604F00CFC70BD95
:10A590000020FCE72842002070B505460C46164610
:10A5A000204609F073F988B1284600F013F868B125
:10A5B00036B1074901EB8400294604F003FC05E0AD
:10A5C000034901EB8400294604F097FB70BD0000AD
:10A5D0002842002010B50446142C01DB002010BDD9
:10A5E0002146024804F0DFFBF9E700001442002096
:10A5F00010B54FF0FF3100203DDF044600BF20467C
:10A6000000B110BD00BFB12100203CDF044600BFF7
:10A61000204600B1F5E700BF022005F043F8002016
:10A62000EFE710B5FFF7E4FF0446204610BD70B514
:10A6300004460D4600BF04B970BD00BF20885028F5
:10A6400016D004DC102807D0112819D108E05128B1
:10A650000AD0532814D10FE0204606F015F910E077
:10A66000204606F0D9F90CE0204606F0E7FA08E0AB
:10A67000204606F0E1FB04E0204606F067FA00E021
:10A6800000BF00BF00BFD7E770B504460426207B9B
:10A69000012802D0022822D109E001F01BFD054665
:10A6A0000DB9012602E0112D00D1062619E0607BCC
:10A6B000142801DC607B08B905260FE0627B04F1F9
:10A6C0000E011248FBF7DEFE607B1049091F88610E
:10A6D000084608F0CFF9054605B9012601E0022633
:10A6E00000BF00BF012E0FD0207B314600F058F88C
:10A6F000054625B10648006841690320884704489B
:10A70000006841690220884770BD0000984500201C
:10A710003438002070B505460E4600BF1E4800685C
:10A7200020B11D48406808B1012000E0002000B9B8
:10A7300070BD00BF184800F10801426828469047E4
:10A74000044600BF082C24D07CB9002013490968B6
:10A7500088760121022000F023F80446CCB10F488E
:10A76000006841690320884713E000200B4909680D
:10A7700088760621022000F013F8044624B1074829
:10A780000068416903208847044800684169022045
:10A79000884700BFCCE700008845002034380020FF
:10A7A000F0B587B004460D460327002001900290C3
:10A7B000039004900320069020208DF814008DF85B
:10A7C00015408DF816500E48C088ADF804000220E0
:10A7D0008DF806000020ADF8080006A8039005A833
:10A7E00004900749888801A9AEDF064626B9BDF85E
:10A7F0001800032800D00C26304607B0F0BD00003A
:10A800006C450020F8B505460F462888212833D02E
:10A8100006DC10280BD0112829D013287BD13BE06F
:10A820003B285BD0522848D0562874D164E00720DA
:10A8300000F072FA044600BF264626B100BF30463B
:10A84000FFF7A6FA00BF00BFA88834490880084671
:10A850000188334804F086FB044600BF264626B133
:10A8600000BF3046FFF794FA00BF00BF54E04FF638
:10A87000FF702A4908804FE000200090A8886946B0
:10A880008FDF044600BF264626B100BF3046FFF7E3
:10A890007FFA00BF00BF3FE000231A4685211F4812
:10A8A00000887FDF044600BF264626B100BF304641
:10A8B000FFF76EFA00BF00BF2EE000231A461946CC
:10A8C00016480088B1DF044600BF264626B100BF07
:10A8D0003046FFF75DFA00BF00BF1DE0A8881321D6
:10A8E00076DF044600BF264626B100BF3046FFF79C
:10A8F0004FFA00BF00BF0FE0A888132176DF04469F
:10A9000000BF264626B100BF3046FFF741FA00BF20
:10A9100000BF01E0FFE700BF00BFF8BDE82A00204C
:10A92000743F002070B505460E462888102802D0D6
:10A9300011282CD115E01748006860B900F0F6FD29
:10A94000044600BF34B11448006818B120461249CB
:10A950000968884700BF0F480068401C0D4908601F
:10A9600016E00C480068401E0A4908600846006866
:10A9700060B9FFF77EF9044600BF34B106480068AD
:10A9800018B1204604490968884700BF00E000BFAD
:10A9900000BF70BDC8370020C437002070B5044622
:10A9A0000D462088102806D0112808D012280ED075
:10A9B000502810D107E0204605F0F4FE0CE02046B8
:10A9C00006F010F808E0204606F0C0F904E0204642
:10A9D00005F0D0FE00E000BF00BF70BD2DE9F041E2
:10A9E00004468846A5882088102804D0112815D050
:10A9F0001A2847D116E007F037FB284607F0BEF9C2
:10AA000020B900BF0420FFF7C3F906E0E07B01286E
:10AA100003D029461D4804F0D5F933E0284607F055
:10AA200047FB2FE0207A0121B1EB101F01DA012052
:10AA300000E000200646207A0221B1EB101F01DA67
:10AA4000012000E0002007468EB129460F48001D76
:10AA500004F0B8F92FB129460C48083004F0B2F9D7
:10AA60000FE029460948083004F047F909E0294673
:10AA70000648001D04F041F929460448083004F056
:10AA80003CF900BF00BFBDE8F08100001C4200207F
:10AA900070B504460D4600BF0748007800B970BD88
:10AAA00000BF204602F09AFB204608F071F82046CD
:10AAB00002F030F900BFF2E70838002070B5044614
:10AAC0000D4605B104B970BD2E462088102804D06B
:10AAD000502807D057280FD109E02146304605F00D
:10AAE00099FE0AE02146304606F05CF905E0214671
:10AAF000304606F041F800E000BF00BF00BFE2E7CB
:10AB000070B50446204608F07FFE0546C5F34000B8
:10AB100070BD70B50446204608F076FE054605F087
:10AB2000010070BD10B502460949885C00BF4FF0B6
:10AB3000A0442146D1F80435012484409C43C1F847
:10AB40000845012484401C40C1F80C4500BF10BDDD
:10AB5000CB3F030010B504460249085D012104F013
:10AB6000FCFC10BDCB3F030010B504460249085D54
:10AB7000002104F0F2FC10BDCB3F030010B50146EC
:10AB8000094B585C00BF4FF0A044234600BFD3F8E8
:10AB90000445C44004F001040CB1012000E0002091
:10ABA000024682F0010010BDCB3F030010B5002427
:10ABB00003E02046FFF7CEFF641C042CF9D310BD40
:10ABC00010B5002403E02046FFF7CEFF641C042CE0
:10ABD000F9D310BD02464FF0FF30002106E0054BCF
:10ABE0005B5C934201D1084602E0491C0429F6D37C
:10ABF00000BF7047CF3F03002DE9F04106460F46E6
:10AC00004FF0000800243046FFF7E4FF0446042C10
:10AC10003ED20FB3012F02D0022F38D130E004EB27
:10AC20004400214911F8008004EB440008444078B6
:10AC300050B11E4A4FF400411D480068FFF716F955
:10AC400005460DB91948067004EB4400164908443E
:10AC50008078184908551AE015480068FFF730F960
:10AC60001448005D04EB44010F4A1144897888427E
:10AC700005D104EB44001146084490F8028006E038
:10AC800004EB44000849084490F8018000BF00BF6D
:10AC9000B8F1000F06D00848006818B140460649D0
:10ACA00009688847BDE8F08194410020BC37002046
:10ACB000DC3F0300BD370020B837002030B5034625
:10ACC0000020042B23D2012A07D1012903D103F14B
:10ACD0000E04E4B200E00024224679B1012902D03A
:10ACE000022911D104E003EB43040A4D2A550DE07B
:10ACF00003EB4304074D2C44627007E003EB43046D
:10AD0000044D2C44A27001E0072000BF00E00720A2
:10AD100030BD00009441002070B504460025054870
:10AD2000007800F0010018B1204600F005F8054653
:10AD3000284670BDB03700202DE9F04704460026B4
:10AD40000025DA48007820B10020D849087002F0C8
:10AD5000E7FD182C7ED2DFE804F00C16174A7EB20D
:10AD6000F6F4F3F2F1F0EFEEEDECEBEAE9E8E7E60A
:10AD7000E5E402F0D5FDCE480068FFF7A1F80646ED
:10AD8000CC4804708DE100BF0020FFF7F7FE58B1FA
:10AD90000020FFF7DFFE022C02D14FF4E16001E05A
:10ADA0004FF47A60054609E00020FFF7DDFE022C33
:10ADB00001D1C82001E04FF4C8700546BD480470B9
:10ADC0004FF40040A5FB00104FF4FA73CF1840F188
:10ADD00000015A0000233846FBF704FB814600229D
:10ADE0004946B3480068FFF741F8064659E100209C
:10ADF000FFF7C4FE58B10020FFF7ACFE032C02D1D0
:10AE00004FF4487001E04FF47A60054609E00020F5
:10AE1000FFF7AAFE032C01D1C82001E04FF4C8704F
:10AE20000546A44804704FF40040A5FB00104FF401
:10AE3000FA728F1840F10001520000233846FBF7E8
:10AE4000D1FA81460022494699480068FFF70EF87A
:10AE5000064626E124E10020FFF790FE58B10020CD
:10AE6000FFF778FE042C02D14FF47A6001E04FF432
:10AE70007A6005460AE00020FFF776FE042C02D136
:10AE80004FF4C87001E04FF4C8700546894804705B
:10AE90004FF40040A5FB00104FF4FA73CF1840F1B7
:10AEA00000015A0000233846FBF79CFA8146002235
:10AEB00049467F480068FEF7D9FF0646F1E00020CA
:10AEC000FFF75CFE50B10020FFF744FE052C01D1D6
:10AED000C82001E04FF47A60054609E00020FFF742
:10AEE00043FE052C01D1C82001E04FF4C87005468F
:10AEF000704804704FF40040A5FB00204FF4FA7333
:10AF0000D71840F100015A0000233846FBF76AFACF
:10AF100081460022494666480068FEF7A7FF0646BC
:10AF2000BFE0B8E0B6E0AAE0A1E098E092E05FE020
:10AF30005DE05BE059E057E051E042E033E024E0BF
:10AF400015E00EE0FFE70020FFF7ECFD5948047024
:10AF5000002240F6CD4156480068FEF787FF0646BE
:10AF60009FE00020FFF700FE5248047099E00120A6
:10AF70004E490870FFF7D6FD002240F6CD414C48FF
:10AF80000068FEF773FF06468BE001204749087012
:10AF9000FFF7C8FD00224FF4804145480068FEF7E6
:10AFA00065FF06467DE0012040490870FFF7BAFDC5
:10AFB000002240F6CD413E480068FEF757FF0646A6
:10AFC0006FE0012039490870FFF7ACFD00224FF413
:10AFD000804137480068FEF749FF064661E0FFF709
:10AFE000EFFD344804705CE000BF00BF00BF00BF4D
:10AFF00031480068FEF764FF0646C4F1110515B339
:10B000000EBB012D18D9A8B2C82148434FF4004106
:10B0100080FB01104FF4FA728F1840F100015200CA
:10B0200000233846FBF7DEF98146002249462248D4
:10B030000068FEF71BFF06460220FFF795FD012082
:10B040001E49087005E00220FFF784FD00201B491F
:10B05000087026E002F064FC1648047021E002F05B
:10B060005FFC0020FFF780FD1248047019E002F039
:10B0700057FC0120FFF778FD0E48047011E002F044
:10B080004FFC0020FFF770FD0120FFF76DFD094820
:10B09000047006E000BFFFF793FD0648047000E06F
:10B0A00000BF00BF3046BDE8F0870000AD3700208C
:10B0B000D43F0300AC370020D83F0300B437002052
:10B0C0007CB50446204602F0CFF9054600236A46C7
:10B0D000092106F00DF9052805D101220248017861
:10B0E0002046FFF759FA7CBDE43700207CB50446C2
:10B0F0000E460020019042F6A620ADF80400012083
:10B100008DF806000748006800906A4601A92046AD
:10B11000A0DF05462DB90122034801782046FFF73C
:10B120003BFA7CBD50400300E5370020014688799A
:10B13000012809D10879012806D1488842F602126F
:10B14000904201D1012070470020FCE74FF0FF3111
:10B15000054A42F82010082804DBFF23A0F108016B
:10B1600044325354704700003C46002001460248D8
:10B1700050F82100704700003C4600202DE9F04FB8
:10B1800003460C464FF0FF390AB1002000E00820CA
:10B1900084460AB1082000E009208046614624E088
:10B1A000154850F82100401CF0B91D4608462746B6
:10B1B00016464FFA80FBDFF840A00AF1240A0AF88D
:10B1C00005B0DFF834A04AF820704EB94FFA85FB7D
:10B1D000A0F1080ADFF820E00EF1440E0EF80AB0E4
:10B1E00000BF4FFA81F902E0491C4145D8D300BFA6
:10B1F0004846BDE8F08F00003C460020014601486B
:10B2000040567047604600202DE9F04104460D4647
:10B210004FF6FF76304684420AD14FF480712846BB
:10B2200003F091FD86B2B6F5807F10D126460EE080
:10B23000FF2C0CDC2146284603F06EFD80F0010750
:10B240000FB1204601E04FF6FF70064600BF3046C2
:10B25000BDE8F08170B505460DB9094C01E0084C18
:10B26000083409E0204602F054FB064606B904E023
:10B2700028467168884700BFF4E700BF70BD000032
:10B28000B845002010B504462CB901200649487085
:10B290000020FFF7DFFF012C04D101200249887054
:10B2A000FFF7D8FF10BD0000B04500202DE9F047A2
:10B2B00082461F480068002836D01D48006805688F
:10B2C00006F02CFF07461B4804682146384607F065
:10B2D000AFFFC61C1848007808B906F031FFAE422F
:10B2E00001D2284600E03046044424F07F44204642
:10B2F00006F00EFF06F012FF80463946404607F082
:10B3000097FF00F103093946204607F091FF814578
:10B3100009D906F003FF814606F0FAFE2F2004F05B
:10B32000E7FC08F0D3F801E006F028FFBDE8F0875D
:10B330005438002058380020663800202DE9FF4F8F
:10B3400003460C46002047E0225CFF2A3ED0C2F3B1
:10B35000C01922F080014DF82010B9F1000F0DD076
:10B360005DF8201000BF4FF0A0452E46012707FAD8
:10B3700001F5C6F8085500BF00BF0DE05DF82010CC
:10B3800000BF4FF0A0452E46012707FA01F5C6F889
:10B390000C5500BF00BF00BF5DF8201001252E46F0
:10B3A0000027BC46B84600BF4FF0A04BDA4645EA3E
:10B3B000460B4BEA870B4BEA0C2B4BEA084E0AF57F
:10B3C000E06B4BF821E000BF00BF03E04FF0FF311E
:10B3D0004DF82010411CC8B20428B5DB6D461A6830
:10B3E000002107E055F8217002F5AC6646F821709F
:10B3F0004E1CF1B20429F5DB00BFBDE8FF8F33B569
:10B400008BB00546002000900C9878B100240BE02A
:10B4100021460CA803F0C7FC28B1009A501C0090EC
:10B4200001A820F81240641C142CF1D32C22694688
:10B430002846FBF727F80DB030BD0000F8B50546EB
:10B440000C46607A88B9207A10B91048476801E044
:10B450000E4887682A4639466068FEF707FD0646AB
:10B4600016B1304607F01AF90EE0002020720748A6
:10B47000406948B101208DF80000ADF80250034842
:10B4800041696846884700BFF8BD0000F4410020CC
:10B49000F0B587B004460D4617461E4618220B49E4
:10B4A00001A8FAF7EFFFADF806408DF80C50ADF8A3
:10B4B0000E708DF810600022054801782046FFF7D5
:10B4C0006BF801A801F0CCF807B0F0BD2C410300E7
:10B4D0001838002010B586B00446208805F02EFDEF
:10B4E00000BB2088FFF708F830B92088012241F21C
:10B4F000060100F0E3FD15E0208800220A490978E2
:10B50000FFF74AF802208DF800002088ADF802000D
:10B5100000208DF8080000218DF80910684601F020
:10B520009FF800BF06B010BD1838002010B50122EA
:10B5300000210846FFF7C2FB044600BF1CB1072CE0
:10B5400001D0204610BD00BF072202210120FFF7D5
:10B55000B5FB044600BF1CB1072C01D02046F1E723
:10B5600000BF042202210020FFF7A8FB044600BF11
:10B570001CB1072C01D02046E4E700BF0020E1E722
:10B580007FB506460C46002002900390ADF80840B7
:10B59000ADF80A40009001906A4602A9304690DF5B
:10B5A000054605B100BF284604B070BD2DE9F04145
:10B5B00005460F460F4C0121204603F045FC064688
:10B5C00000BF00BF00BF00BFBFF35F8F00BF00BF61
:10B5D00000BF0EB9012000E0002040B1284602F073
:10B5E00065FB08B1BDE8F081024804F00DF800BF2A
:10B5F000F8E70000DC3700202DE9F0410446E07850
:10B6000000F0C006E07800F03F05607800F001002F
:10B6100098B1EF102846E91705EB5171C910A5EB59
:10B62000C101491C01F0FF080B48006820B10A481D
:10B63000414602683846904700BF607800F0080035
:10B6400030B10548406818B1B011034A51688847C5
:10B650000020BDE8F08100004441002070B506469E
:10B660000D460EB1012070BD287920B1012809D006
:10B67000022813D10FE002202871284606F0D8FBDB
:10B6800004460DE0284601F027F904460A2C01D1B2
:10B6900041F61D5404E041F61D5401E00F2400BFA3
:10B6A00000BF2046DFE770B5044620793D2802D16F
:10B6B00041F23D0001E04FF4885005462088002209
:10B6C000294602F0C1F970BD38B5044664B12020A6
:10B6D0008DF8000028208DF8010030208DF8020040
:10B6E00038208DF8030004E0A32204216846FAF70D
:10B6F000DBFE6A46042140F69E2003F013FA02F0B6
:10B7000069FF38BD3EB5044602208DF80000CA200E
:10B710008DF80100E3208DF8020009208DF8030068
:10B720006A460421682003F0FDF9A3208DF800008B
:10B7300004F0400048B1C0208DF80100C8208DF809
:10B740000200C2208DF8030006E0A3208DF801005E
:10B750008DF802008DF8030004F4C07048B1C420D5
:10B760008DF80400CC208DF80500C6208DF8060069
:10B7700006E0A3208DF804008DF805008DF8060082
:10B78000A3208DF807008DF808008DF809006A469F
:10B790000A2140F6A72003F0C5F904F0030018B110
:10B7A00020208DF8000002E0D8208DF800006A46C5
:10B7B000012140F6B62003F0B5F904F0200018B1DD
:10B7C000012000F0ADF802E0002000F0A9F804F438
:10B7D000C07008B304F4807060B1B2208DF800002E
:10B7E0008B208DF80100B6208DF802009B208DF88B
:10B7F00003000BE0B0208DF8000080208DF80100E0
:10B80000B4208DF8020090208DF803006A460421D0
:10B8100040F6A22003F086F904F0010020B3F820DE
:10B820008DF800006A4601214FF40B6003F07AF9AD
:10B83000FA21072000F00AFB072000F0D1FA0120CE
:10B8400000F0F1FA642000F0E1FB4FF4FA7000F030
:10B85000F0FBC821304800F081FA282000F09AFA65
:10B860000A2000F0AAFA08E0D8208DF800006A4605
:10B8700001214FF40B6003F055F904F0020018B1F8
:10B88000D9208DF8000002E0D8208DF800006A462B
:10B89000012140F23D7003F045F904F0040018B1B5
:10B8A000012000F069F802E0002000F065F804F0E3
:10B8B000100018B10120FFF707FF02E00020FFF79A
:10B8C00003FF44F008001549488102F083FE002080
:10B8D0001249887304F0400018B10846807B801D2F
:10B8E000887304F4C07020B10C48807B801D0B4924
:10B8F000887304F0140020B10848807B1030074999
:10B90000887304F0030020B10448807B001D0349C4
:10B91000887300203EBD000009E3CA0244410020B4
:10B920003EB504466CB10EA1D1E900208968CDE98D
:10B93000002002916A4609214FF4976003F0F2F863
:10B940003EBD0AA2D2E900109268CDE90102009141
:10B950006A4609214FF4976003F0E4F8F0E700002D
:10B96000B8AAB38DB4980D355D000000B8AAAAAA94
:10B97000B088C3C5C700000038B5044664B1C02014
:10B980008DF80000C2208DF80100C4208DF802005F
:10B99000C6208DF8030004E08B2204216846FAF7E4
:10B9A00083FD6A46042140F6982003F0BBF802F0BC
:10B9B00011FE38BD10B5C8234FF48062024940F62D
:10B9C000F63002F08DFC10BDAA2B00202DE9F047C7
:10B9D0008CB00746884615461E46DDF850A0002468
:10B9E000002030806A49887B524604A902F050FD4D
:10B9F00018B1601E0CB0BDE8F0876548807A00F091
:10BA00001400002867D09DF8100000069DF8111062
:10BA100040EA01409DF8121040EA01209DF8131001
:10BA2000084328609DF8140000069DF8151040EAB0
:10BA300001409DF8161040EA01209DF817100843B8
:10BA400068609DF8180000069DF8191040EA014052
:10BA50009DF81A1040EA01209DF81B100843A860C9
:10BA60009DF81C0000069DF81D1040EA01409DF85D
:10BA70001E1040EA01209DF81F100843E86004F101
:10BA80001000C4B228680014009068680014019087
:10BA9000A86800140290E8680014039000984043DE
:10BAA000019901FB0100029901FB0100039901FBCF
:10BAB0000109B9F1706F02DBB9F1885F05DD02F0B1
:10BAC00089FD00203080401E94E7B6F9000040F464
:10BAD0008070308000BF2E48807A00F0400020B394
