:020000040002F8
:10600000F8650020C1630200C963020095670200C1
:10601000CD630200CF630200D163020000000000E4
:10602000000000000000000000000000D363020038
:10603000D563020000000000D7630200D9630200AC
:10604000456B0200DB6302000D710200E16D02008E
:10605000F56D0200DB63020065650200156C02004D
:10606000DB630200AD700200C5700200DB6302005A
:10607000DB630200DB630200DB630200DB63020020
:10608000DB630200E16B0200DB630200DB63020002
:10609000096E0200DB630200116E0200DB63020086
:1060A000DB630200DB630200DD700200F5700200BA
:1060B000996B0200DB63020000000000000000009A
:1060C000DB630200DB630200DB630200DB630200D0
:1060D000DB630200DB630200DB6302000000000000
:1060E00000000000000000000000000000000000B0
:1060F00000000000000000000000000000000000A0
:10610000000000000000000000000000000000008F
:10611000000000000000000000000000000000007F
:10612000000000000000000000000000000000006F
:10613000000000000000000000000000000000005F
:10614000000000000000000000000000000000004F
:10615000000000000000000000000000000000003F
:10616000000000000000000000000000000000002F
:10617000000000000000000000000000000000001F
:10618000000000000000000000000000000000000F
:1061900000000000000000000000000000000000FF
:1061A00000000000000000000000000000000000EF
:1061B00000000000000000000000000000000000DF
:1061C00000000000000000000000000000000000CF
:1061D00000000000000000000000000000000000BF
:1061E00000000000000000000000000000000000AF
:1061F000000000000000000000000000000000009F
:10620000DFF80CD000F070F9004800477DB30200C1
:10621000F865002030B450E8012F93B2C4892344BC
:106220008489A34228BF1B1B0489A34202BFBFF37A
:106230002F8F002007E0C3EA020340E80134002C5E
:10624000E9D14FF001000A6030BC704750E8012FDF
:10625000C2EA024240E801210029F7D1704730B478
:1062600050E8022F1FFAA2F3C488A34202BFBFF373
:106270002F8F00200DE0C48923448489A34228BFC6
:106280001B1BC2EA034340E80234002CE8D14FF064
:1062900001000A6030BC704750E8022FC2EA224277
:1062A00040E802210029F7D17047034653E8022F46
:1062B000D988B2EB324F4FF0000017BF92B241EADB
:1062C000014142EA014104E05A68B2EB324F08BF93
:1062D000012043E80212002AE8D1704730B4044696
:1062E00054E8000F0D4644E80053002BF8D1156028
:1062F00030BC704730B4044654E8000F40EA010552
:1063000044E80053002BF7D1156030BC704730B41F
:10631000044654E8000F00EA010544E80053002B4E
:10632000F7D1156030BC704730B4044654E8000F14
:1063300080EA010544E80053002BF7D1156030BC1A
:10634000704730B4044654E8000F00EB010544E800
:106350000053002BF7D1156030BC704730B40446B1
:1063600054E8000FA0EB010544E80053002BF7D1DF
:10637000156030BC704770B404464FF0000054E81C
:10638000006F0D68AE4207BF44E80023012044E8D7
:1063900000630E60002B1CBF0020F0E770BC70474C
:1063A00030B4044654E8000F88422CBF451A054615
:1063B00044E80053002BF5D1156030BC7047000055
:1063C0000648804706480047FEE7FEE7FEE7FEE78F
:1063D000FEE7FEE7FEE7FEE7FEE7FEE7296E0200C6
:1063E000016202002DE9F05F0546002092469B46BF
:1063F00088460646814640241BE0284641464746DB
:10640000224600F02FF853465A46C01A914110D345
:1064100011461846224600F016F82D1A67EB0108BF
:106420004F4622460120002100F00DF817EB00092D
:106430004E41201EA4F10104DFDC484631462A46C5
:106440004346BDE8F09F202A04DB203A00FA02F11F
:10645000002070479140C2F1200320FA03F3194352
:1064600090407047202A04DB203A21FA02F00021F4
:10647000704721FA02F3D040C2F120029140084354
:106480001946704740EA01039B0703D009E008C999
:10649000121F08C0042AFAD203E011F8013B00F8E9
:1064A000013B521EF9D27047D2B201E000F8012B35
:1064B000491EFBD270470022F6E710B513460A4684
:1064C00004461946FFF7F0FF204610BD30B50446DC
:1064D0000020034600E05B1C934203D2E05CCD5CED
:1064E000401BF8D030BD0000064C074D06E0E068C8
:1064F00040F0010394E8070098471034AC42F6D30B
:10650000FFF782FE141603003416030070B58C18D2
:1065100010F8015B15F0070301D110F8013B2A11B7
:1065200006D110F8012B03E010F8016B01F8016BA4
:106530005B1EF9D12B0705D40023521E0DD401F8A0
:10654000013BFAE710F8013BCB1A921C03E013F869
:10655000015B01F8015B521EF9D5A142D8D300209E
:1065600070BD00002DE9F04F89B000270020089091
:106570004FF4807007900126002412E0079806F07F
:10658000DDF940B100BF7B480068304018B1079882
:1065900006F0C6F9374376000798001D80B20790D1
:1065A000641C082CEAD34FF4BE7006F0C7F950B152
:1065B0004FF4BE7006F0B4F947F0004708AA012175
:1065C000002006F093F9F8B200B3012600241BE086
:1065D00006EA0700B0B100BF674850F82400C0F3D6
:1065E0000420804600BF644850F82400C0F30140F6
:1065F0008146204602F004F9054615B14946404659
:10660000A84700BF7600641C082CE1D307F00040C7
:1066100000287DD0002006900590002505E04FF071
:10662000FF3004A941F825006D1C002DF7D000BFF4
:106630000020069000245FE05048005D039003981E
:1066400020F0C0094D480057401C002853D004A931
:10665000484605F0C6FD00284DD003984FEA901A31
:10666000484602F015F9804602F0CAF802900298F6
:1066700010B9BAF1030F3DD1BAF1030F03D105A947
:10668000484605F0B9FD00BF00BF4FF0A0410846E5
:1066900000F5E06151F82910C1F3014800BF08A9D5
:1066A000484605F09EFD8346BBF1000F02D0B8F1CD
:1066B000020F05D0BBF1000F1BD1B8F1030F18D1A9
:1066C000BAF1030F0FD1B8F1020F01D1032000E09E
:1066D000022001904846019906F087F80698401C70
:1066E000C0B2069000BF029818B151464846029ABF
:1066F000904700BF00BF641C042C9DD3069888B34C
:106700004FF0010803AA0121002006F0EFF800E095
:106710002DE000250BE003A850F8250008A951F84A
:106720002510884202D04FF0000802E06D1C002DB9
:10673000F1D000BFB8F1000F02D00020069010E0A9
:1067400000250CE003A850F8250008A941F8250011
:1067500005A850F8250004A941F825006D1C002D5E
:10676000F0D000BF069800287FF462AF00BF09B0E8
:10677000BDE8F08F04630040106500402041002018
:1067800010B500210B2005F0F4FF00210C2005F0CE
:10679000F0FF10BD00BF00BF00BF00BF00BFBFF3D0
:1067A0004F8F00BF00BF00BF0948006800F4E060E1
:1067B00008490843001D0649086000BF00BF00BF2C
:1067C000BFF34F8F00BF00BF00BF00BF00BFFDE79A
:1067D0000CED00E00000FA050122014B1A70704731
:1067E000412B00201CB500F011F80424002000907B
:1067F0000346012211460190204605F06AFF00BFC2
:106800000121042006F037F81CBD00001FB5044B21
:106810000FCB8DE80F006946024806F03FFB1FBD15
:10682000BC110300A41103002DE9F04104460D46FC
:1068300016461F4600200949087009480460067181
:10684000856007730749084806F046FB05E00348E2
:106850000078012801D1BDE8F081F8E7E02A0020A6
:106860006C3B0020FC2A0020A4110300F0B58DB081
:1068700007460D4616461C4600201A4908701A485D
:1068800007600671002018498860087318221749AC
:1068900007A8FFF7F7FD07A9154806F01DFB04E060
:1068A00010480078012800D100E0F9E700BF00207F
:1068B0000C4908700C49086008460471856004732F
:1068C00018220A49183101A8FFF7DCFD01A9084880
:1068D00006F002FB05E003480078012801D10DB065
:1068E000F0BDF8E7E02A00206C3B0020FC1103001B
:1068F000A411030070B505460C4600200949087034
:106900000948056004710020074988600873074939
:10691000074806F0E1FA04E002480078012800D1B7
:1069200070BDF9E7E02A00206C3B0020E42A00203B
:10693000A411030070B58CB006460D461446002025
:106940001B4908701B48066001201A490871002085
:10695000886008731822184906A8FFF793FD06A956
:10696000164806F0B9FA04E011480078012800D171
:1069700000E0F9E700BF00200D4908700D480560F0
:1069800004710F480B4988600846047318220A49AD
:1069900018316846FFF776FD6946084806F09CFA0C
:1069A00005E003480078012801D10CB070BDF8E77C
:1069B000E02A00206C3B0020CC110300A41103004E
:1069C0007C3B002010B504460021042005F053FF55
:1069D00000200149087010BDE02A002070B504466F
:1069E0000D460121042005F046FF012001490870F1
:1069F00070BD0000E02A00200122014B1A70704790
:106A0000E02A002008B5F52007490870022301227A
:106A100069460548FFF708FF9DF80100382801D1B5
:106A2000012008BD0020FCE7402B00202DE9FE439B
:106A300004F064FD074617B10020BDE8FE8378200E
:106A400005F0B4F9782004F0C9FC642005F064F97D
:106A500001A804F043FD684604F01EFD02A804F0FE
:106A6000F5FC02F0F1FA144C204604F077F90546E3
:106A7000E01C04F073F945EAC00085B2A01D04F0E3
:106A80006DF945EA801085B200BFA846404602F085
:106A900013FC0A4802F0D0FB094802F0C5FB40F2A3
:106AA0007116304602F078F9642002F0CDFB012027
:106AB00005F034F80020C0E738370020C96A02002A
:106AC000C56A020000BF704708B58DF800008DF858
:106AD000011008BD00F01F0201219140024A430944
:106AE00042F823107047000080E200E000F01F022F
:106AF000012191404209920002F1E022C2F8001106
:106B00007047000000F01F0201219140024A430932
:106B100042F823107047000000E200E010B50028A2
:106B200007DA4A07140E054A00F00F031B1FD4545E
:106B300003E04A07130E024A135410BD18ED00E09B
:106B400000E400E010B54FF4807005F005FC80B162
:106B50004FF4807005F009FC012005F00FFC0D4892
:106B6000407930B901200B4948710846016800207E
:106B700088474FF4827005F0EFFB50B14FF48270FC
:106B800005F0F3FB022005F0F9FB02480168012043
:106B9000884710BDDC37002010B50249024804F0D8
:106BA00032F910BDEC37002000C001403EB50A4A62
:106BB00007CA8DE8070000226946084806F0F0FB86
:106BC000044600BF254625B100BF284600F032FC30
:106BD00000BF00BF3EBD000080110300982A0020C6
:106BE00010B500200949086000210948C0F8441187
:106BF000C0F84811C0F84C1100200549C1F8000147
:106C000002493C39086009F0A1FD10BD4011014066
:106C100000100140FEB54FF4827005F0DDFF002842
:106C200037D04FF4827005F0E1FF6C4890F82E00E9
:106C300018B16A4890F82F0058B300208DF8000072
:106C400066484068019065480189ADF80810C06841
:106C500018B900206149087412E06048008B5F4950
:106C600048830846C06848600846008B08810020B9
:106C7000C860084690F82E0010B9002005F0C2FF49
:106C800056480168684688470020544981F82F001B
:106C900000BF524890F82E00002852D04FF4807068
:106CA00005F09AFF00284CD04FF4807005F09EFF4D
:106CB0004A48408B494991F82D10884216DD4748D3
:106CC000408B464991F82D10401A444948830A46A2
:106CD00012890B465B8BD21A0B465B6803EB4200B2
:106CE0000A4692F82D1005F06FFF23E03B48408BD9
:106CF0003A4991F82D1088420FD13848C06860B1E8
:106D00000120364981F82F00002048830A4692F876
:106D10002D10D06805F058FF0CE03048408B2F490B
:106D200091F82D10884205D101202C4981F82F00BF
:106D3000002048834FF4827005F058FF042005F0CE
:106D400061FF4FF4887005F047FF70B14FF4887011
:106D500005F04CFF00202149087402208DF8000046
:106D6000084601686846884700BF4FF48A7005F0FE
:106D700033FF38B14FF48A7005F038FF002017490F
:106D800008742AE01548456924E0B5FA85F64FF005
:106D90000040F0408543B00000F58C74204605F0BB
:106DA0001BFFB8B1204605F021FF01208DF800003F
:106DB000A4F58C70C0F3C7008DF80400A4F58C70A6
:106DC000012121EA90018DF8051004480168684608
:106DD000884700BF002DD8D100BFFEBDA0400020D5
:106DE00010B50249024804F060F810BD5841002077
:106DF0000030004010B503494FF0402004F055F832
:106E000010BD00007C41002010B509F0A9FB10BDA9
:106E100010B505F0ABFF10BD01480249086070478E
:106E20000090D0036438002010B502F01FFD28B197
:106E30008D480088C0F304208C49086002F06AFD88
:106E400010B18B488B49486702F08CFD30B1864801
:106E5000E0380068C0F342308749086002F0ACFDBA
:106E600028B18648006820F080708449086002F0EC
:106E7000BBFD48B10020824908604FF08041C1F855
:106E800010017D49091F086002F0D8FD18B10320E8
:106E900079496431086002F0E9FD68B1052079495B
:106EA0000860012077497831086000207549083171
:106EB00008603F20091F086002F0F0FD002855D04F
:106EC0006948E0300068704908606748E43000684D
:106ED000091D08606448E8300068091D08606248C0
:106EE000EC300068091D08605F48F0300068091D3B
:106EF00008605D48F4300068091D08605A48F830A1
:106F000000686149203108605748FC300068091D5D
:106F100008605E480068091D08605C48001D006844
:106F2000091D0860594808300068091D0860574865
:106F30000C300068091D0860544810300068524940
:106F400040310860514814300068091D08604F48FE
:106F500018300068091D08604C481C300068091D85
:106F600008604A4820300068091D086002F054FC9F
:106F700030B13D48CC38006800F04F00444908600B
:106F800002F09EFC40B14348006800F0010018B1D7
:106F90006FF001003F49086002F0D4FC28B13E4880
:106FA000006840F480603C490860344874380068E8
:106FB00040F4700031497439086000BF00BF00BF61
:106FC000BFF34F8F00BF00BF00BF00BF00BF00BFB7
:106FD000BFF36F8F00BF00BF00BF3048006800F0F4
:106FE0000100E0B301202E49086000BF2D48006871
:106FF0000028FBD02948006820F001004FF0102144
:10700000C1F80C0200BF274800680028FBD0002010
:107010002349086000BF234800680028FBD000BF58
:1070200000BF00BF00BF00BFBFF34F8F00BF00BF56
:1070300000BF1248F038006800F4E0601A490843C5
:10704000001D0E49F039086000BF00BF00BFBFF34C
:107050004F8F00BF00BF00BF00BF00BFFDE7FFE7CD
:10706000FFF7DAFE10BD0000240300104035014098
:107070000DF0ADBA00C007403C050040FCED00E05B
:107080000C0100401056004020C5004024040010B0
:10709000E40E0040000400403C1700400C120010B9
:1070A00004E5014000E401400000FA0510B50422A7
:1070B0000249034803F079FE10BD00007040002033
:1070C0000090004010B504220249034803F06DFE11
:1070D00010BD00007C40002000A0004010B506223A
:1070E0000249034803F061FE10BD00008840002003
:1070F00000A0014010B506220249034803F055FEE6
:1071000010BD00009440002000B0014010B50249BD
:107110000868804710BD0000E437002030B58BB010
:107120001822104905A8FFF7ADF900BF0E480190DD
:10713000202002900D4803902020049007230C4A41
:1071400001A905A800F026FA044600BF00BF2546A5
:1071500025B100BF284600F06DF900BF00BF00BF99
:107160000BB030BD8C1103007C3800209C3800200F
:10717000BF08030070B505460E46002406E000BFB8
:10718000285D00F075FA0028FAD1641CB442F6DBE1
:1071900070BD02E008C8121F08C1002AFAD170476A
:1071A0007047002001E001C1121F002AFBD1704787
:1071B0000146202908DA012088400A4A104008B117
:1071C000012070470020FCE7402909DAA1F12000E6
:1071D000012202FA00F008B10120F2E70020F0E7F6
:1071E0000120EEE7FC06FFBD00BFEFF3108108466B
:1071F00072B6704770B505460C4605B10CB9002053
:1072000070BD287840082178B0EB510F01D00020E4
:10721000F6E70622611C681CFFF758F908B901203F
:10722000EEE70020ECE7014601F0030008B9012079
:1072300070470020FCE7024650680068401E084086
:1072400008B9012070470020FCE70246002104E055
:10725000505C08B101207047491C0629F8D3002072
:10726000F9E710B50346D868884206D88818401E4A
:107270001C69A04201D8012010BD0020FCE70000DD
:1072800010B504466CB10848C068A04209D8064849
:107290000069A04205D3204603F069FE08B1012031
:1072A00010BD0020FCE700006838002070B50446DF
:1072B0000D4604F24B20FFF7C8FF0646012D06D00D
:1072C000022D0DD0032D11D0042D19D113E0A0797A
:1072D00028B194F8240010B90EB1012070BD00BF90
:1072E000E07910B10EB10220F8E700BF207A08B1B2
:1072F0000320F3E700BF607A08B10420EEE700BF87
:107300000020EBE70146481C052290FBF2F302FB4C
:107310001300C0B2704710B501220221002001F015
:1073200017F8044600BF1CB1072C01D0204610BD41
:1073300000BF07220221012001F00AF8044600BF25
:107340001CB1072C01D02046F1E700BF0A22002122
:10735000084600F0FDFF044600BF1CB1072C01D019
:107360002046E4E700BF0020E1E770B58CB004469A
:107370000D461646002005E0C0F10F01615C0DF8D6
:107380000010401C1028F7D30D2104A8FFF793F834
:10739000002005E02A5CC0F10F0304A9CA54401C78
:1073A0000328F7D3684646DF002005E0C0F10F024E
:1073B00008A9895C3154401C0328F7D30CB070BD78
:1073C00010B5044602480178204600F019FC10BDB3
:1073D000B337002008B5009072B600BF13490968A2
:1073E00001F0010101B100BE00BF00BF00BF00BF3E
:1073F00000BF00BFBFF34F8F00BF00BF00BF0B49EE
:10740000E439096801F4E061094A1143091D074A9A
:10741000E43A116000BF00BF00BFBFF34F8F00BF51
:1074200000BF00BF00BF00BFFDE70000F0ED00E0BF
:107430000000FA053EB5044600200090019002903D
:1074400002946A46002144F20100FFF7C3FF3EBDEB
:1074500070B504460D46204602F05FFD28B129466E
:10746000204602F04EFD002070BD0520FCE70346DB
:1074700009B90E20704712B1501E104008B1092002
:10748000F8E71960501E988000209860D86000BF0F
:10749000F0E770B504460D46204602F03EFDA18897
:1074A000884205D82946204602F04AFD002070BDDA
:1074B0000420FCE710B507F0A5FF00200F49087075
:1074C00048700B20887000200D4908600D49087035
:1074D0000D4908701420FFF7FDFA06211420FFF76C
:1074E0001DFB1420FFF702FB002007F061FF07F0EF
:1074F00059FF06490860002010BD0000A04100208F
:10750000F43700200438002005380020F837002028
:107510002DE9F04104460E461746254600BF1048A7
:10752000807810B90820BDE8F08100BF0CB90820B0
:10753000F9E7052E01D20720F5E7686908B90820A8
:10754000F1E7687C012801D1304600E00020804648
:107550003B4642463146284609F0A8F8E3E70000DA
:10756000A041002070B50446254600BF0848807839
:1075700008B9082070BD00BF0CB1686908B90820BF
:10758000F8E7002028740221284609F0BEF8F1E748
:10759000A04100202DE9F04188B004460E46174670
:1075A00098462B4807601EB9072008B0BDE8F08157
:1075B000B08882B227483168FFF759FF054600BFFF
:1075C000284600B1F1E700BFB08982B22248B16815
:1075D000FFF74DFF054600BF284600B1E5E700BFB5
:1075E00020221E496846FEF74DFF60690690207C08
:1075F00008B1012000E000208DF814008DF81C80F7
:10760000607C08B10E2000E000208DF81500E068D5
:107610000290A06803902068019060680090104A72
:107620006946104804F04EFF054600BF284600B1E9
:10763000BBE700BF00200C4908702068401C28B13F
:1076400001220A49074804F067FFAEE70020ACE7D3
:1076500014380020B8420020C8420020081503005A
:10766000C9080300083800201A3800201938002003
:107670002DE9F041044621460D48FFF70AFF054673
:1076800095B90C4E0027301D06F0A6F9074600BF3D
:1076900057B909490648FFF7DBFE28B90122064918
:1076A000304604F048FF05462846BDE8F08100005A
:1076B000C8420020083800201838002010B50446C1
:1076C000204607F065FF10BD70B5044625460E48FC
:1076D0008068B0B1ADB9FFF787FD06460A4800687B
:1076E0000A490860084840684FF0E021C1F80401E9
:1076F0000020054988601EB900BF62B600BF00BF08
:1077000000BF00BF70BD0000AC42002000E100E0FF
:1077100070B505460C462068401C28B1206805F06D
:1077200094F8206805F049F86068401C18B1002101
:10773000606805F035F82868A169C0F8241500BF15
:10774000617D227D286841EA0203C0F86C3500BFE4
:10775000D4E90012286805F022FC207D012814D10C
:10776000A068401C18B10021A06805F019F8E06875
:10777000401C28B1E06805F068F8E06805F01DF8E5
:10778000D4E90221286805F0F3FB70BD70B504460A
:107790000D46204603F074FD70BD10B504466379B4
:1077A00003F003022179208803F084FC10BD10B59A
:1077B0000446207918B9204600F008F803E0204676
:1077C000FFF7EBFF00BF00BF10BD00002DE9FC413B
:1077D000064637884FF000080022444801783846B2
:1077E00000F024FA7079C0F3800028B900213046F7
:1077F00006F01CFDBDE8FC8107F5807188B26B4680
:107800000122072106F0C4FD054645B12946384648
:1078100008F096F90021304606F008FDEAE7384600
:1078200003F058F904464FF6FF718C421BD10198C2
:1078300003F0A0F804464FF6FF70844213D02146AF
:10784000384603F025F93846FFF7BAFD58B93846EF
:1078500008F056F83846FFF7B3FD20B9002130464E
:1078600006F0E4FCC6E74FF6FF70844215D106F03F
:107870001BFF04464FF6FF70844208D104213846AE
:1078800008F05EF90021304606F0D0FCB2E7214650
:10789000384603F0FDF84FF0010807F5807188B213
:1078A0002246072106F0EAFD054625B901213046AA
:1078B00006F0BCFC17E0862D07D1384608F004F925
:1078C0000121304606F0B2FC0DE02946384608F0AA
:1078D00037F90021304606F0A9FCB8F1000F02D0BC
:1078E000204603F0DFF800BF84E70000B037002037
:1078F0002DE9F04104460F46154615B90E20BDE8A6
:10790000F0810020286000BF0CB90E20F7E700BF0F
:1079100000BF206808B90E20F1E700BF00BFE08873
:10792000C11700EB91718910A0EB810109B107200B
:10793000E5E700BF384600F01EF9C6B2142E01D1AB
:107940000520DCE72079B04201DC0420D7E7E1889C
:10795000206806FB010028600020D0E7F8B5044647
:107960000E461546002000902B466A4631462046BA
:1079700000F008F807460FB90020F8BDBDF8000078
:107980002044FAE730B504460D4604B10AB9002098
:1079900030BD002103E0605C401C084481B21088C7
:1079A000884203DC481C205C984201D0A942F2DBEB
:1079B000A94201DB0020EBE7881C1080605C401EC0
:1079C00080B2E5E770B504460D462E4620881028A3
:1079D00004D0112807D026280FD109E021463046CF
:1079E00006F09CF80AE02146304606F067F905E00B
:1079F0002146304606F0BDFA00E000BF00BF70BD72
:107A0000704770B504460E46207808B9082070BD4E
:107A1000A67000214FF41470C4F84A12A4F84E1254
:107A20000155A07910B1A078012809D0E07910B1F2
:107A3000A078012804D0E07970B1A07802280BD199
:107A4000606B30B1012084F851020820616B8847D7
:107A500002E0002084F8510231462046FFF726FC60
:107A6000A070606BA0B1A078032802D0A078042891
:107A70000ED1607960B194F8520248B9002084F8C0
:107A80005402012084F853020720616B884702E00A
:107A9000002084F85302182104F13C00FEF70BFD8E
:107AA000012084F83C0004F12C0006F020FF20B1F6
:107AB00094F82C105120015502E00121512001556C
:107AC00094F8240060B104F12C0006F010FF20B1FE
:107AD00094F828105220015502E00121522001554E
:107AE000002150200155A078052824D2DFE800F0BD
:107AF0001F030A11180004F13C01204608F042F966
:107B0000054619E004F13C01204608F023F905463A
:107B100012E004F13C01204608F046F905460BE06E
:107B200004F13C01204608F06DF9054604E0002010
:107B300084F8310000E000BF00BFA07898B104F1E4
:107B40003C0204F15400D4F8441272DF05460DB132
:107B500028465CE794F8301094F8540073DF05462B
:107B60000DB1284653E7606B18B194F83100616B92
:107B7000884700204BE710B50446204600F074F813
:107B800008B1204610BD1420FCE7000010B50446E3
:107B9000204600F069F820B12146034804F0AFFA0E
:107BA00010BD0020FCE70000B43C002070B5044686
:107BB0000D461646204608F0F5FF08B9002070BDB6
:107BC000034951F824003246294602F035FAF6E717
:107BD000BC3C002070B504460025204600F044F867
:107BE00050B12146054804F08AFA06460EB102203B
:107BF00000E00120054600BF284670BDB03C0020D3
:107C000070B505460C46204608F0CCFF50B128461A
:107C100000F02AF830B1044901EB8400294604F051
:107C20006EFA70BD0020FCE7BC3C002070B5054634
:107C30000C461646204608F0B5FF88B1284600F0ED
:107C400013F868B136B1074901EB8400294604F006
:107C500065FA05E0034901EB8400294604F0F9F9CF
:107C600070BD0000BC3C002010B50446142C01DBA4
:107C7000002010BD2146024804F041FAF9E7000057
:107C8000A83C002010B54FF0FF3100203DDF044636
:107C900000BF204600B110BD00BFB12100203CDF75
:107CA000044600BF204600B1F5E700BF022004F003
:107CB00081FE0020EFE710B5FFF7E4FF0446204601
:107CC00010BD70B504460D4600BF04B970BD00BFBD
:107CD0002088502816D004DC102807D0112819D18C
:107CE00008E051280AD0532814D10FE0204605F0AF
:107CF0000FFF10E0204605F0D3FF0CE0204606F011
:107D0000E1F808E0204606F0DBF904E0204606F042
:107D100061F800E000BF00BF00BFD7E770B50446C0
:107D20000426207B012802D0022822D109E001F09C
:107D30001BFD05460DB9012602E0112D00D10626D6
:107D400019E0607B142801DC607B08B905260FE090
:107D5000627B04F10E011248FEF794FB607B104930
:107D6000091F8861084608F07BF8054605B9012619
:107D700001E0022600BF00BF012E0FD0207B31465C
:107D800000F058F8054625B106480068416903200F
:107D900088470448006841690220884770BD000098
:107DA0002C400020CC37002070B505460E4600BFA1
:107DB0001E48006820B11D48406808B1012000E05D
:107DC000002000B970BD00BF184800F108014268EA
:107DD00028469047044600BF082C24D07CB90020D8
:107DE0001349096888760121022000F023F804462F
:107DF000CCB10F48006841690320884713E0002098
:107E00000B49096888760621022000F013F8044621
:107E100024B1074800684169032088470448006886
:107E200041690220884700BFCCE700001C400020C9
:107E3000CC370020F0B587B004460D46032700205C
:107E400001900290039004900320069020208DF86A
:107E500014008DF815408DF816500E48C088ADF806
:107E6000040002208DF806000020ADF8080006A8E6
:107E7000039005A804900749888801A9AEDF06464B
:107E800026B9BDF81800032800D00C26304607B0EC
:107E9000F0BD000000400020F8B505460F462888D8
:107EA000212833D006DC10280BD0112829D0132824
:107EB0007BD13BE03B285BD0522848D0562874D178
:107EC00064E0072000F072FA044600BF264626B19F
:107ED00000BF3046FFF7AEFA00BF00BFA8883449A4
:107EE000088008460188334804F0E8F9044600BFDA
:107EF000264626B100BF3046FFF79CFA00BF00BF00
:107F000054E04FF6FF702A4908804FE000200090AF
:107F1000A88869468FDF044600BF264626B100BF09
:107F20003046FFF787FA00BF00BF3FE000231A4644
:107F300085211F4800887FDF044600BF264626B102
:107F400000BF3046FFF776FA00BF00BF2EE00023E7
:107F50001A46194616480088B1DF044600BF264677
:107F600026B100BF3046FFF765FA00BF00BF1DE035
:107F7000A888132176DF044600BF264626B100BF3D
:107F80003046FFF757FA00BF00BF0FE0A888132163
:107F900076DF044600BF264626B100BF3046FFF715
:107FA00049FA00BF00BF01E0FFE700BF00BFF8BD16
:107FB000D82A0020283B002070B505460E462888A8
:107FC000102802D011282CD115E01748006860B99C
:107FD00000F0F6FD044600BF34B11448006818B143
:107FE000204612490968884700BF0F480068401CB6
:107FF0000D49086016E00C480068401E0A490860F8
:108000000846006860B9FFF786F9044600BF34B13E
:108010000648006818B1204604490968884700BF2F
:1080200000E000BF00BF70BD603700205C3700205B
:1080300070B504460D462088102806D0112808D0B7
:1080400012280ED0502810D107E0204605F0EEFC93
:108050000CE0204605F00AFE08E0204605F0BAFFD5
:1080600004E0204605F0CAFC00E000BF00BF70BD80
:108070002DE9F04104468846A5882088102804D0C0
:10808000112815D01A2847D116E007F031F92846F3
:1080900006F0B8FF20B900BF0420FFF7CBF906E0D7
:1080A000E07B012803D029461D4804F037F833E06F
:1080B000284607F041F92FE0207A0121B1EB101F8B
:1080C00001DA012000E000200646207A0221B1EB0F
:1080D000101F01DA012000E0002007468EB129467A
:1080E0000F48001D04F01AF82FB129460C4808303B
:1080F00004F014F80FE029460948083003F0A9FFFE
:1081000009E029460648001D03F0A3FF294604485C
:10811000083003F09EFF00BF00BFBDE8F081000003
:10812000B03C002070B504460D4600BF07480078FB
:1081300000B970BD00BF204602F086FB204607F064
:108140001DFF204602F01CF900BFF2E7A037002017
:1081500070B504460D4605B104B970BD2E462088A1
:10816000102804D0502807D057280FD109E0214605
:10817000304605F093FC0AE02146304605F056FFF4
:1081800005E02146304605F03BFE00E000BF00BFA1
:1081900000BFE2E770B50446204608F0C1FC054682
:1081A000C5F3400070BD70B50446204608F0B8FC29
:1081B000054605F0010070BD10B502460949885C0E
:1081C00000BF4FF0A0442146D1F80435012484407B
:1081D0009C43C1F80845012484401C40C1F80C456B
:1081E00000BF10BD9B12030010B504460249085D94
:1081F000012104F05DFB10BD9B12030010B5044685
:108200000249085D002104F053FB10BD9B120300DE
:1082100010B50146094B585C00BF4FF0A0442346FF
:1082200000BFD3F80445C44004F001040CB10120A0
:1082300000E00020024682F0010010BD9B12030006
:1082400010B5002403E02046FFF7CEFF641C042C89
:10825000F9D310BD10B5002403E02046FFF7CEFF90
:10826000641C042CF9D310BD02464FF0FF300021EE
:1082700006E0054B5B5C934201D1084602E0491CD5
:108280000429F6D300BF70479F1203002DE9F04187
:1082900006460F464FF0000800243046FFF7E4FF83
:1082A0000446042C3ED20FB3012F02D0022F38D146
:1082B00030E004EB4400214911F8008004EB440055
:1082C0000844407850B11E4A4FF400411D480068F0
:1082D000FFF71EF905460DB91948067004EB440076
:1082E000164908448078184908551AE0154800686E
:1082F000FFF738F91448005D04EB44010F4A1144BC
:108300008978884205D104EB44001146084490F86E
:10831000028006E004EB44000849084490F801801C
:1083200000BF00BFB8F1000F06D00848006818B1C0
:108330004046064909688847BDE8F081283C00208E
:1083400054370020AC12030055370020503700206E
:1083500030B503460020042B23D2012A07D101297E
:1083600003D103F10E04E4B200E00024224679B107
:10837000012902D0022911D104E003EB43040A4D84
:108380002A550DE003EB4304074D2C44627007E0CF
:1083900003EB4304044D2C44A27001E0072000BF0E
:1083A00000E0072030BD0000283C002070B50446E6
:1083B00000250548007800F0010018B1204600F0C3
:1083C00005F80546284670BD483700202DE9F047DE
:1083D000044600260025DA48007820B10020D8495C
:1083E000087002F0D3FD182C7ED2DFE804F00C16E2
:1083F000174A7EB2F6F4F3F2F1F0EFEEEDECEBEAB1
:10840000E9E8E7E6E5E402F0C1FDCE480068FFF7E1
:10841000A9F80646CC4804708DE100BF0020FFF7A4
:10842000F7FE58B10020FFF7DFFE022C02D14FF417
:10843000E16001E04FF47A60054609E00020FFF7B3
:10844000DDFE022C01D1C82001E04FF4C8700546C2
:10845000BD4804704FF40040A5FB00104FF4FA73C0
:10846000CF1840F100015A0000233846FDF7BAFF4B
:10847000814600224946B3480068FFF749F806469E
:1084800059E10020FFF7C4FE58B10020FFF7ACFE11
:10849000032C02D14FF4487001E04FF47A60054696
:1084A00009E00020FFF7AAFE032C01D1C82001E05B
:1084B0004FF4C8700546A44804704FF40040A5FB73
:1084C00000104FF4FA728F1840F10001520000239F
:1084D0003846FDF787FF81460022494699480068E3
:1084E000FFF716F8064626E124E10020FFF790FE8C
:1084F00058B10020FFF778FE042C02D14FF47A60C7
:1085000001E04FF47A6005460AE00020FFF776FEAE
:10851000042C02D14FF4C87001E04FF4C870054636
:10852000894804704FF40040A5FB00104FF4FA7323
:10853000CF1840F100015A0000233846FDF752FFE2
:108540008146002249467F480068FEF7E1FF064663
:10855000F1E00020FFF75CFE50B10020FFF744FE81
:10856000052C01D1C82001E04FF47A60054609E0EE
:108570000020FFF743FE052C01D1C82001E04FF495
:10858000C8700546704804704FF40040A5FB0020F9
:108590004FF4FA73D71840F100015A00002338460F
:1085A000FDF720FF81460022494666480068FEF735
:1085B000AFFF0646BFE0B8E0B6E0AAE0A1E098E071
:1085C00092E05FE05DE05BE059E057E051E042E0BF
:1085D00033E024E015E00EE0FFE70020FFF7ECFDBC
:1085E00059480470002240F6CD4156480068FEF715
:1085F0008FFF06469FE00020FFF700FE5248047000
:1086000099E001204E490870FFF7D6FD002240F6A0
:10861000CD414C480068FEF77BFF06468BE0012009
:1086200047490870FFF7C8FD00224FF480414548D4
:108630000068FEF76DFF06467DE0012040490870A6
:10864000FFF7BAFD002240F6CD413E480068FEF734
:108650005FFF06466FE0012039490870FFF7ACFD67
:1086600000224FF4804137480068FEF751FF06466C
:1086700061E0FFF7EFFD344804705CE000BF00BF2D
:1086800000BF00BF31480068FEF76CFF0646C4F12A
:10869000110515B30EBB012D18D9A8B2C821484346
:1086A0004FF4004180FB01104FF4FA728F1840F133
:1086B0000001520000233846FDF794FE8146002257
:1086C000494622480068FEF723FF06460220FFF7CE
:1086D00095FD01201E49087005E00220FFF784FD8A
:1086E00000201B49087026E002F050FC1648047078
:1086F00021E002F04BFC0020FFF780FD12480470DF
:1087000019E002F043FC0120FFF778FD0E480470E9
:1087100011E002F03BFC0020FFF770FD0120FFF7A5
:108720006DFD0948047006E000BFFFF793FD0648A1
:10873000047000E000BF00BF3046BDE8F0870000D5
:1087400045370020A412030044370020A81203007C
:108750004C3700207CB50446204602F0BBF90546A4
:1087600000236A46092105F007FF052805D10122EB
:10877000024801782046FFF759FA7CBD7C3700207B
:108780007CB504460E460020019042F6A620ADF8C6
:10879000040001208DF806000748006800906A4632
:1087A00001A92046A0DF05462DB901220348017822
:1087B0002046FFF73BFA7CBD201303007D370020E5
:1087C00001468879012809D10879012806D148880D
:1087D00042F60212904201D1012070470020FCE7CE
:1087E0004FF0FF31054A42F82010082804DBFF2330
:1087F000A0F108015032535470470000D0400020CF
:108800000146024850F8210070470000D040002087
:108810002DE9F04F03460C464FF0FF390AB1002016
:1088200000E0082084460AB1082000E00C208046C1
:10883000614624E0154850F82100401CF0B91D465F
:108840000846274616464FFA80FBDFF840A00AF19B
:10885000300A0AF805B0DFF834A04AF820704EB9A3
:108860004FFA85FBA0F1080ADFF820E00EF1500E68
:108870000EF80AB000BF4FFA81F902E0491C4145E9
:10888000D8D300BF4846BDE8F08F0000D04000209C
:108890000146014840567047004100202DE9F04153
:1088A00004460D464FF6FF76304684420AD14FF417
:1088B0008071284603F0F3FB86B2B6F5807F10D1B5
:1088C00026460EE0FF2C0CDC2146284603F0D0FBA8
:1088D00080F001070FB1204601E04FF6FF70064619
:1088E00000BF3046BDE8F08170B505460DB9094CB2
:1088F00001E0084C083409E0204602F040FB06463F
:1089000006B904E028467168884700BFF4E700BF55
:1089100070BD00004C40002010B504462CB9012069
:10892000064948700020FFF7DFFF012C04D1012029
:1089300002498870FFF7D8FF10BD000044400020B6
:108940002DE9F04782461F480068002836D01D48B0
:108950000068056806F026FD07461B4804682146A6
:10896000384607F0F1FDC61C1848007808B906F033
:108970002BFDAE4201D2284600E03046044424F0EC
:108980007F44204606F008FD06F00CFD804639467F
:10899000404607F0D9FD00F103093946204607F0AB
:1089A000D3FD814509D906F0FDFC814606F0F4FCB3
:1089B0002F2004F025FB07F015FF01E006F022FD53
:1089C000BDE8F087F4370020F83700200638002093
:1089D0002DE9FF4F03460C46002047E0225CFF2AAA
:1089E0003ED0C2F3C01922F080014DF82010B9F139
:1089F000000F0DD05DF8201000BF4FF0A0452E46AF
:108A0000012707FA01F5C6F8085500BF00BF0DE0C1
:108A10005DF8201000BF4FF0A0452E46012707FA51
:108A200001F5C6F80C5500BF00BF00BF5DF820106F
:108A300001252E460027BC46B84600BF4FF0A04B8C
:108A4000DA4645EA460B4BEA870B4BEA0C2B4BEA1E
:108A5000084E0AF5E06B4BF821E000BF00BF03E0D1
:108A60004FF0FF314DF82010411CC8B20428B5DB8F
:108A70006D461A68002107E055F8217002F5AC66D2
:108A800046F821704E1CF1B20429F5DB00BFBDE8A9
:108A9000FF8F33B58BB00546002000900C9878B15D
:108AA00000240BE021460CA803F029FB28B1009A12
:108AB000501C009001A820F81240641C142CF1D323
:108AC0002C2269462846FDF7DDFC0DB030BD0000C4
:108AD000F8B505460C46607A88B9207A10B9104876
:108AE000476801E00E4887682A4639466068FEF705
:108AF0000FFD064616B1304606F014FF0EE00020CA
:108B000020720748406948B101208DF80000ADF897
:108B10000250034841696846884700BFF8BD00001D
:108B2000883C0020F0B587B004460D4617461E4627
:108B300018220B4901A8FDF7A5FCADF806408DF8F9
:108B40000C50ADF80E708DF81060002205480178C9
:108B50002046FFF76BF801A801F0CCF807B0F0BD94
:108B6000FC130300B037002010B586B004462088FF
:108B700005F028FB00BB2088FFF708F830B92088F3
:108B8000012241F2060100F0E3FD15E020880022F9
:108B90000A490978FFF74AF802208DF8000020887A
:108BA000ADF8020000208DF8080000218DF80910B2
:108BB000684601F09FF800BF06B010BDB037002036
:108BC00010B5012200210846FFF7C2FB044600BF92
:108BD0001CB1072C01D0204610BD00BF0722022186
:108BE0000120FFF7B5FB044600BF1CB1072C01D0E4
:108BF0002046F1E700BF042202210020FFF7A8FB76
:108C0000044600BF1CB1072C01D02046E4E700BF9A
:108C10000020E1E77FB506460C4600200290039055
:108C2000ADF80840ADF80A40009001906A4602A9EC
:108C3000304690DF054605B100BF284604B070BD40
:108C40002DE9F04105460F460F4C0121204603F067
:108C5000A7FA064600BF00BF00BF00BFBFF35F8F8B
:108C600000BF00BF00BF0EB9012000E0002040B1EE
:108C7000284602F051FB08B1BDE8F081024803F03C
:108C80006FFE00BFF8E70000743700202DE9F041C7
:108C90000446E07800F0C006E07800F03F05607818
:108CA00000F0010098B1EF102846E91705EB51716B
:108CB000C910A5EBC101491C01F0FF080B48006871
:108CC00020B10A48414602683846904700BF6078A4
:108CD00000F0080030B10548406818B1B011034AEF
:108CE000516888470020BDE8F0810000D83B002093
:108CF00070B506460D460EB1012070BD287920B131
:108D0000012809D0022813D10FE00220287128463B
:108D100006F0D2F904460DE0284601F01BF904469E
:108D20000A2C01D141F61D5404E041F61D5401E026
:108D30000F2400BF00BF2046DFE770B5044620794E
:108D40003D2802D141F23D0001E04FF48850054634
:108D500020880022294602F0ADF970BD38B50446DE
:108D600064B120208DF8000028208DF8010030200B
:108D70008DF8020038208DF8030004E0A3220421BE
:108D80006846FDF791FB6A46042140F69E2003F0F9
:108D900075F802F0CBFD38BD3EB5044602208DF8D3
:108DA0000000CA208DF80100E3208DF802000920A0
:108DB0008DF803006A460421682003F05FF8A320C1
:108DC0008DF8000004F0400048B1C0208DF801008B
:108DD000C8208DF80200C2208DF8030006E0A32011
:108DE0008DF801008DF802008DF8030004F4C070C6
:108DF00048B1C4208DF80400CC208DF80500C620B1
:108E00008DF8060006E0A3208DF804008DF805001B
:108E10008DF80600A3208DF807008DF808008DF866
:108E200009006A460A2140F6A72003F027F804F05B
:108E3000030018B120208DF8000002E0D8208DF842
:108E400000006A46012140F6B62003F017F804F04E
:108E5000200018B1012000F0ADF802E0002000F081
:108E6000A9F804F4C07008B304F4807060B1B220B3
:108E70008DF800008B208DF80100B6208DF80200DF
:108E80009B208DF803000BE0B0208DF800008020BF
:108E90008DF80100B4208DF8020090208DF80300B9
:108EA0006A46042140F6A22002F0E8FF04F0010027
:108EB00020B3F8208DF800006A4601214FF40B60C2
:108EC00002F0DCFFFA21072000F00AFB072000F087
:108ED000D1FA012000F0F1FA642000F0E1FB4FF438
:108EE000FA7000F0F0FBC821304800F081FA282029
:108EF00000F09AFA0A2000F0AAFA08E0D8208DF8CB
:108F000000006A4601214FF40B6002F0B7FF04F045
:108F1000020018B1D9208DF8000002E0D8208DF8A9
:108F200000006A46012140F23D7002F0A7FF04F004
:108F3000040018B1012000F069F802E0002000F000
:108F400065F804F0100018B10120FFF707FF02E0F8
:108F50000020FFF703FF44F008001549488102F0A4
:108F6000E5FC00201249887304F0400018B108465F
:108F7000807B801D887304F4C07020B10C48807B16
:108F8000801D0B49887304F0140020B10848807BD1
:108F900010300749887304F0030020B10448807B37
:108FA000001D0349887300203EBD000009E3CA028A
:108FB000D83B00203EB504466CB10EA1D1E900209B
:108FC0008968CDE9002002916A4609214FF4976033
:108FD00002F054FF3EBD0AA2D2E900109268CDE92A
:108FE000010200916A4609214FF4976002F046FFA2
:108FF000F0E70000B8AAB38DB4980D355D0000000D
:10900000B8AAAAAAB088C3C5C700000038B50446EC
:1090100064B1C0208DF80000C2208DF80100C4208A
:109020008DF80200C6208DF8030004E08B22042195
:109030006846FDF739FA6A46042140F6982002F0A6
:109040001DFF02F073FC38BD10B5C8234FF48062D9
:10905000024940F6F63002F0EFFA10BD422B002034
:109060002DE9F0478CB00746884615461E46DDF8C8
:1090700050A00024002030806A49887B524604A911
:1090800002F0B2FB18B1601E0CB0BDE8F087654875
:10909000807A00F01400002867D09DF810000006C8
:1090A0009DF8111040EA01409DF8121040EA01209D
:1090B0009DF81310084328609DF8140000069DF8E1
:1090C000151040EA01409DF8161040EA01209DF875
:1090D0001710084368609DF8180000069DF81910E5
:1090E00040EA01409DF81A1040EA01209DF81B104B
:1090F0000843A8609DF81C0000069DF81D1040EA7A
:1091000001409DF81E1040EA01209DF81F10084301
:10911000E86004F11000C4B2286800140090686888
:1091200000140190A86800140290E86800140390ED
:1091300000984043019901FB0100029901FB0100E5
:10914000039901FB0109B9F1706F02DBB9F1885F86
:1091500005DD02F0EBFB00203080401E94E7B6F9FD
:10916000000040F48070308000BF2E48807A00F00C
:10917000400020B304A9601C085C095D40EA01209E
:1091800000B2A8F8000004A9E01C095C04AAA01C15
:10919000105C41EA002000B2A8F8020004A9601D9A
:1091A000095C201D105C41EA002000B2A8F8040010
:1091B000A01DC4B2B6F9000040F008003080194884
:1091C000408900F4C07008B304A9601C085C095D04
:1091D00040EA012000B2388004A9E01C095C04AA1E
:1091E000A01C105C41EA002000B2788004A9601D38
:1091F000095C201D105C41EA002000B2B880A01D6F
:10920000C4B2B6F9000040F0700030800548807AA2
:1092100000F0030018B104A90819FFF737FD00207A
:1092200032E70000D83B00200146024841600020A0
:1092300070470000D83B0020014602480160002032
:1092400070470000D83B002030B585B0044616A218
:1092500007CA02AB07C3C82C03DD4FF0FF3005B0CF
:1092600030BDC82090FBF4F0401E85B2280A8DF86E
:109270000000E8B28DF801006A46022140F2162093
:1092800002F0FCFD10B14FF0FF30E8E702AA0C211C
:1092900040F6C12002F0F2FD10B14FF0FF30DEE7E2
:1092A000044884810020DAE7FEF2ABC4AAF1DFDFD4
:1092B000BBAFDFDFD83B002010B586B0044647A027
:1092C0000068039046A00068029046A000680190E4
:1092D00045A00068009004F0030003A9085C8DF825
:1092E000140003A8C4F3C101405C8DF8150003A865
:1092F000C4F38111405C8DF8160004F0030002A94C
:10930000085C8DF8100002A8C4F3C101405C8DF820
:10931000110002A8C4F38111405C8DF8120005AA67
:10932000032140F2264002F0A9FD18B14FF0FF30B2
:1093300006B010BD04AA032140F22A4002F09EFDAF
:1093400010B14FF0FF30F3E70198059000980490BA
:1093500004F0040058B19DF8140040F001008DF8AD
:1093600014009DF8100040F001008DF8100004F08A
:10937000200058B19DF8150040F001008DF815004F
:109380009DF8110040F001008DF8110004F4807088
:1093900058B19DF8160040F001008DF816009DF8B8
:1093A000120040F001008DF8120005AA03214FF4CD
:1093B000886002F063FD10B14FF0FF30B8E704AAF7
:1093C000032140F2314002F059FD10B14FF0FF305F
:1093D000AEE7064804810020AAE700004CCD6C00EF
:1093E0000CC92C003656760026466600D83B002075
:1093F000F8B505460E464FF47A7095FBF0F000FB89
:1094000006F4200E8DF80000200C8DF80100200AD3
:109410008DF80200E0B28DF803006A4604214FF493
:10942000AE7002F02BFDF8BD38B50446052094FB64
:10943000F0F084B220128DF80000E0B28DF8010047
:109440006A4602214FF4AD7002F018FD38BD38B500
:109450000446052094FBF0F084B220128DF8000041
:10946000E0B28DF801006A4602214FF4AC7002F0C0
:1094700005FD38BD38B504460020009004F0010019
:1094800020B19DF8000040F03000009004F0020090
:1094900020B19DF8000040F00C00009004F00400A2
:1094A00020B19DF8000040F0030000906A460121C1
:1094B0004FF4A47002F0E2FC38BD38B50446012C2C
:1094C00001DA012402E0042C00DD0424601EC0B295
:1094D00000906A46012140F24F1002F0CFFC38BDE7
:1094E000F0B52DED028B83B006460F4606F007005F
:1094F00010B1B7F5C86F05DD4FF0FF3003B0BDEC1C
:10950000028BF0BD00EE107AB8EE400ADFED5B0A88
:1095100080EE208A01A801F099FF9DF8040002283E
:1095200006D0042817D0082828D010284CD138E0BD
:109530009FED530A28EE000ABCEEC00A10EE100A96
:1095400084B29FED500A28EE000ABCEEC00A10EE6D
:10955000100A85B23BE09FED4C0A28EE000ABCEEF3
:10956000C00A10EE100A84B29FED480A28EE000AE5
:10957000BCEEC00A10EE100A85B228E09FED440A46
:1095800028EE000ABCEEC00A10EE100A84B29FED6D
:10959000410A28EE000ABCEEC00A10EE100A85B29D
:1095A00015E09FED3D0A28EE000ABCEEC00A10EE61
:1095B000100A84B29FED390A28EE000ABCEEC00AF8
:1095C00010EE100A85B202E04FF0FF3096E700BFC0
:1095D00020128DF80800E0B28DF8090028128DF8ED
:1095E0000A00E8B28DF80B0006F00100A0B102AA53
:1095F00002214FF4EA7002F041FC10B14FF0FF304D
:109600007CE70DF10A0202214FF4927002F036FC61
:1096100010B14FF0FF3071E706F00200A0B102AACE
:1096200002214FF4EC7002F029FC10B14FF0FF3032
:1096300064E70DF10A0202214FF4947002F01EFC5F
:1096400010B14FF0FF3059E706F00400A0B102AAB4
:1096500002214FF4EE7002F011FC10B14FF0FF3018
:109660004CE70DF10A0202214FF4967002F006FC5D
:1096700010B14FF0FF3041E700203FE700004843C2
:109680000000804600004046000000460000C04543
:109690000000804500004045000000450000C04437
:1096A00038B50446052094FBF0F085B228128DF8F9
:1096B0000000E8B28DF801006A4602214FF4EF7015
:1096C00002F0DCFB38BD38B50446052094FBF0F011
:1096D00085B228128DF80000E8B28DF801006A46C4
:1096E00002214FF4ED7002F0C9FB38BD0146144869
:1096F0000078144A127890421DD011480078401C1E
:109700000F4A107010460078022801D10020107016
:109710000D480B4A127850F8220008600B4A08687E
:1097200012681044094A10601046006820F07F401B
:109730001060012070470020086000BFFAE70000B9
:109740000438002005380020FC370020F8370020BE
:1097500070B506460C4615462B462246002130467B
:10976000FFF7E0F970BD000010B510480068807E7A
:1097700060B106210120FEF75DFB044624B10B48D1
:109780000068416903208847002010BD0120074977
:109790000968487601210846FEF74CFB04461CB1D7
:1097A00000200249096848762046EEE7CC370020C1
:1097B0002DE9F84305460E46174698466946104877
:1097C000006802F00EFC044614B90420BDE8F883DA
:1097D0001C212046FCF76FFE012020712560C4F893
:1097E000088008480068B6FBF0F0E06067616946F1
:1097F0000348006802F01FFC05F086FB0020E5E747
:109800004C1503004015030010B50446D4E90321AC
:10981000501828DF10BD000013480078062820D11A
:109820001148001D007800F00F00D0B90E48083034
:10983000007800F0F000302801D1012070470A487C
:109840000830007800F0F000402801D10120F5E751
:1098500005480830007800F0F000502801D10120C0
:10986000ECE70020EAE70000E00F00F01348007882
:10987000062820D11148001D007800F00F00D0B953
:109880000E480830007800F0F000302801D10120A7
:1098900070470A480830007800F0F000402801D1F5
:1098A0000120F5E705480830007800F0F000502866
:1098B00001D10120ECE70020EAE70000E00F00F012
:1098C00013480078062820D11148001D007800F0C8
:1098D0000F00D0B90E480830007800F0F0003028B2
:1098E00001D1012070470A480830007800F0F000EC
:1098F000402801D10120F5E705480830007800F044
:10990000F000502801D10120ECE70020EAE7000038
:10991000E00F00F00A48007806280ED10848001D24
:10992000007800F00F0040B905480830007800F0DA
:10993000F000302801D1012070470020FCE7000032
:10994000E00F00F006480068062806D10448001D14
:109950000068062801D1012070470020FCE70000C4
:109960003001001013480078062820D11148001D4E
:10997000007800F00F00D0B90E480830007800F0F1
:10998000F000302801D1012070470A4808300078E3
:1099900000F0F000402801D10120F5E7054808302B
:1099A000007800F0F000502801D10120ECE7002001
:1099B000EAE70000E00F00F00A48007806280ED120
:1099C0000848001D007800F00F0040B90548083035
:1099D000007800F0F000302801D10120704700200D
:1099E000FCE70000E00F00F013480078062820D1C3
:1099F0001148001D007800F00F00D0B90E48083063
:109A0000007800F0F000302801D1012070470A48AA
:109A10000830007800F0F000402801D10120F5E77F
:109A200005480830007800F0F000502801D10120EE
:109A3000ECE70020EAE70000E00F00F00A480078B9
:109A400006280ED10848001D007800F00F0040B92C
:109A500005480830007800F0F000302801D10120DE
:109A600070470020FCE70000E00F00F00A48007893
:109A700006280ED10848001D007800F00F0040B9FC
:109A800005480830007800F0F000302801D10120AE
:109A900070470020FCE70000E00F00F00A48007863
:109AA00006280ED10848001D007800F00F0040B9CC
:109AB00005480830007800F0F000502801D101205E
:109AC00070470020FCE70000E00F00F00278072A52
:109AD00038D2DFE802F037040712222B34000022CC
:109AE0000A7030E001220A7003898B818388CB8160
:109AF000C2688A6000230B7425E002220A70038981
:109B00008B818388CB81C2688A60827D062A01D1DD
:109B1000012300E000230B7415E003220A70C388C0
:109B20008B810389CB81C2688A600CE004220A70B1
:109B3000C3888B810023CB8100228A6003E0052249
:109B40000A7000E000BF00BF7047000070B5054616
:109B5000002409E0064850F8240020B1044850F8D9
:109B6000241028468847641C042CF3D370BD0000E1
:109B7000D842002030B587B004460D462068806882
:109B800008B907B030BD182101A8FCF794FC029574
:109B9000A0680690207910B1012815D109E00120B4
:109BA0008DF8040020690390E068049060690590D6
:109BB0000BE002208DF804000749E068096848437B
:109BC00003906069059000E000BF00BF20688168D5
:109BD00001A8884700BFD4E74015030070B586B0E0
:109BE00006460C46154684B3112C2ED0082C2CD0DA
:109BF00018216846FCF75FFCADF80260304600F0C3
:109C000069FFADF804000D2C14D103208DF800007D
:109C10002DB1287800F0010008B1012000E00220F9
:109C20008DF8080000218DF80C1041F20111ADF8FB
:109C30000A1006E007208DF80000029400218DF83C
:109C40000C10684600F06AF800BF06B070BD10B591
:109C50000446204600F062F810BD000070B50446CE
:109C6000608800F037FFA080002505E0044850F828
:109C70002510204688476D1C002DF7D070BD0000D0
:109C80006C37002070B50446A08800F053FE608059
:109C9000002505E0044850F82510204688476D1C33
:109CA000002DF7D070BD00008037002070B505464C
:109CB000002405E0044850F8241028468847641C16
:109CC000022CF7D370BD00006413030070B5054685
:109CD000002405E0054850F8241028468847641CF5
:109CE000034800788442F5DB70BD0000B43F0020DB
:109CF000AE37002070B50446608800F0EBFEA0800F
:109D0000002505E0044850F82510204688476D1CC2
:109D1000002DF7D070BD0000B013030070B50546EC
:109D2000002405E0044850F8241028468847641CA5
:109D3000002CF7D070BD00003C140300F0B50346C2
:109D400000241FE0124E306806689E4203D9066860
:109D5000F61A06601AE006689B1B06683444002663
:109D600006600B4E35680A4FC6693E60C66846B14C
:109D70000E1926F07F464660C66886601668C66182
:109D8000156000BF024800680028DBD100BFF0BDAD
:109D9000F437002038B505460E48007808B902208F
:109DA00038BD4FF6FF70854201D10420F8E76846C0
:109DB00004F09AFF04460CB90820F1E70520207052
:109DC00001202071E580684604F09EFF05F090F8C0
:109DD0000020E5E71C38002038B504460CB9052002
:109DE00038BD6946204605F085F900B3BDF800008E
:109DF00000EB80000F4901EB8000C068A8B1A07A99
:109E000098B1BDF8000000EB800001EB8000C06855
:109E1000401EBDF8001001EB8101064A02EB8101F2
:109E2000C8600020A072002502E0062500E00A2597
:109E30002846D5E7844300207FB514461D462B46AF
:109E4000224601A9684605F0F1F804B070BD37B5A7
:109E50000C4615462B4622466946002005F0E6F8DA
:109E60003EBD37B50C4615462B46224600216846B6
:109E700005F0DCF83EBD024602B109B90520704785
:109E8000106808600020FAE7F8B504460D4604B1F2
:109E90000DB90520F8BD6946204605F02BF9A0B1A3
:109EA0006668BDF8001001EB8101094A02EB8101EF
:109EB00001F10C00012102F047F92E6060680C30BE
:109EC00068600120A0720020E4E70A20E2E70000B9
:109ED0008443002070B504460D460CB9052070BDC2
:109EE000032300222946204607F000F8F7E770B563
:109EF00004460D46022300222946204606F0F6FFBE
:109F000070BD70B504460D462A460021204600F07B
:109F10000EF8A068401CA06070BD01468A68C86841
:109F2000801A704701468A68C868801A704710B561
:109F300083680B44848823400468E35C137010BD7D
:109F4000C26883881A4003689954C268521CC26070
:109F5000704700003EB504460A4B6A460021A01D2A
:109F600005F064F8054635B9064A9188019805F070
:109F70003BF9054603E003480021016041602846A3
:109F80003EBD0000383800200146A1F5404080B2B7
:109F9000704710B50446E07FFF2808D0A07F18B1B5
:109FA000E07F02F03BFC02E0E07F02F059FC002081
:109FB0006077207204F10800D4E90021904710BDB9
:109FC00070B504460D464FF40E72115B0122D4F8B1
:109FD0003402FDF7C3FC064606B1357004F13C02BD
:109FE00004F50D7104F1540072DF70BD2DE9F041EC
:109FF00006460C4615460027112C01D1012700E02A
:10A00000002765B13A460A4801783046FDF70EFE52
:10A010000022084801783046FDF708FE05E03A4680
:10A02000044801783046FDF701FEBDE8F0810000EC
:10A03000CB370020C8370020F7B50D4617460DB9BD
:10A040000020FEBD0026009868B1002409E02146EA
:10A05000684602F054F818B1A0B23946A847761CF9
:10A06000641C142CF3D33046EBE710B5044660684B
:10A0700004F096FE10BD000070B505460DB101203C
:10A0800070BD1848007B18B100201649087301E024
:10A0900000F0DEF81348007808281DD2DFE800F051
:10A0A0001C04080C101C141800F03EF8044615E0BF
:10A0B00000F0BCF8044611E000F098F804460DE00A
:10A0C00000F046F8044609E000F02CF9044605E0EB
:10A0D00000F03AF9044601E00F2400BF00BF20461B
:10A0E000CEE70000AC4300200D480089401C0C491D
:10A0F000088100204880087300BF0DE000EB80015C
:10A10000084A12F8211009B9012200E0002204498E
:10A110000A310A54411C88B20228EFDB7047000064
:10A12000AC4300208443002010B5084800F036F806
:10A1300040B900200549891E08704880486041F6F2
:10A140001D5010BD00F072F8FBE70000AE43002088
:10A1500070B50F48458805EB85000E4901EB80007E
:10A16000C06878B904200A49087005EB8500094ADF
:10A1700002EB8000002301224168074802F0EAF95F
:10A18000044602E000F090F80446204670BD00004E
:10A19000AC430020844300206838002010B50146FD
:10A1A0000022002018E00F4B1B5C9BB100240D4BDC
:10A1B0001C5400EB80030C4C04EB8303DB684BB9AD
:10A1C00000EB800304EB83031B7C012B02D108808E
:10A1D000012203E0431C98B20228E4DB00BF1046D2
:10A1E00010BD0000B643002084430020F8B50C48A1
:10A1F00044680C4800680B49898800EB8105608839
:10A20000C01C86B20320064908700020B3000090ED
:10A21000084629464268044802F02CFAF8BD0000BE
:10A22000AC430020303800206838002010B50749C2
:10A230004888091D04F09CFF18B1FFF7D7FF0446BA
:10A2400002E0FFF785FF0446204610BDAC43002026
:10A2500010B514480078082820D2DFE800F0041F69
:10A260001F0A1016171BFFF73FFF01200D4908704A
:10A2700015E000F075F802200A4908700FE000F0C0
:10A2800029F806200749087009E000BF07200549A2
:10A29000087004E001200349087000E000BF00BF1F
:10A2A00010BD0000AC43002010B505200649087021
:10A2B00002200649888008460023012201680448DC
:10A2C00002F048F910BD0000AC43002030380020F7
:10A2D00068380020104908681049498801EB81015D
:10A2E0000F4A02EB810149680B4A11600B4949880A
:10A2F00001EB81010A4A02EB810148600649898825
:10A30000064A528802EB8202054B03EB820211815E
:10A310000221014A9180704730380020AC43002070
:10A320008443002010B5062005490870498801EBD8
:10A330008101044A02EB8101486803F021FF10BD4E
:10A34000AC4300208443002010B507200349087067
:10A350000020486003F024FF10BD0000AC43002043
:10A36000054A50684288D21C91B2044A92880A4435
:10A37000024B9A8070470000AC4300203038002028
:10A380002DE9F04186B00446A588208850282ED0BB
:10A3900004DC352836D0362808D163E0522802D0B4
:10A3A0005428F9D103E0284600F06AFF7BE0182228
:10A3B00044496846FCF766F8ADF80250284600F0BC
:10A3C00089FBADF80400BDF8040000F0EBF80022B2
:10A3D0003D4801782846FDF729FC00223B480178DA
:10A3E0002846FDF723FC6846FFF738FC5BE0A01D1C
:10A3F000FEF7E6F928B10121284600F081FF06F0BA
:10A40000A7FB50E00027A58804F10A063048017830
:10A410002846FDF7F5FB00B945E000222C480178FD
:10A420002846FDF703FCE088B0F5857F14D0E0886E
:10A4300090B9708801280FD1B18800222846A1DF89
:10A440008046B8F1000F06D101270122214801788A
:10A450002846FDF7EBFB00BF1FB90021284606F098
:10A460004DF820E00027A58804F10A061948017874
:10A470002846FDF7C5FB00B915E000221548017814
:10A480002846FDF7D3FBE08840B9B088012805D104
:10A49000B07908B1012000E000200746394628467F
:10A4A00006F02CF800BF00BF00BF00220A490B488D
:10A4B0000078FDF77BFB00BF05F0A4FB06B0BDE80C
:10A4C000F0810000341303007B3700207A3700202E
:10A4D0007D3700207E3700208D77020079370020FD
:10A4E00010B50446207858B9608800F0C9FE60882D
:10A4F00005F078FB6088FEF72DF906F029FB00E0F7
:10A5000000BF00BF10BD00007CB5044620780828BD
:10A5100040D1607A00283DD1207A012814D0072844
:10A5200002D0082834D12BE0A08800F003FA0546B9
:10A530004FF6FF70854206D00121284600F0E0FE6C
:10A540002846FEF707F924E0A0886A46012103F0B7
:10A55000EBFE06469EB90198007880B1A08800F015
:10A56000E9F905464FF6FF70854207D001220B48F6
:10A5700001782846FDF75AFB05F044FB00BF08E0D0
:10A5800007480068012802D1054802F0E9F900E017
:10A5900000BF00BF06F0DCFA7CBD00007A37002067
:10A5A000743700201CB50446044903C9CDE90001F5
:10A5B00000226946204604F02CF81CBD5C13030001
:10A5C0002DE9FC478146484600F084FA05460026FE
:10A5D00000274FF003084FF0010A4FF6FF70854245
:10A5E0000CD06A460821284603F09EFE04462CB98A
:10A5F0000198861D8788D0F8008000BF00BF4346C1
:10A600003A4631464846B1DF0446042C01D11124B4
:10A6100015E0082C01D1002411E00B2C0FD14FF0D4
:10A62000000A08F0020010B14FF0010807E006B977
:10A6300027B1002600274FF0030800E003240B2C6D
:10A64000DDD0BAF1000F00D10B242046BDE8FC8715
:10A650002DE9FC478046404600F03CFA06464FF69E
:10A66000FF70864203D143F20200BDE8FC874FF041
:10A6700001094FF0000A00BF4FF0000A4A46511C82
:10A680001FFA81F96B460821304603F081FE04462B
:10A690000CBB019D032028602A1DA91D40462B6884
:10A6A000B2DF044634B932460821304603F0E6FEF4
:10A6B00004460FE00C2C02D14FF0010A02E0052CF9
:10A6C00000D100240821304603F0C8FE074607B138
:10A6D000032400BF02E0072C00D10C24BAF1000FC4
:10A6E000CAD100BF2046C0E710B504460448008820
:10A6F0004FF6FF71884201D005F090FA10BD0000BE
:10A7000086370020FEB5044602A80190204600F0DE
:10A71000E1F906466A460121304603F005FE05468A
:10A720000DB10020FEBD01980078FBE770B505462D
:10A730004FF6FF760E48B3DF04460CB1032070BD20
:10A7400000BF4FF6FF720A4801882846AFDF044673
:10A7500043F20300844204D105480088401C0449A8
:10A76000088043F203008442EBD02046E7E7000074
:10A770008837002070B504460D46204600F01AF8D0
:10A78000A84201D9022070BDA0884FF6FF7188420F
:10A7900001D0208808B90120F5E70020F3E7024640
:10A7A00013468B4204D21868401C08B10120704740
:10A7B0000020FCE701464A8801F10C0000EB820012
:10A7C00070473EB504460D4620780221B1EB500F8C
:10A7D00001D000203EBDB4F80100ADF80800E078DB
:10A7E0008DF80A00A188ADF80010A0798DF802005C
:10A7F00001AA69462846FCF7B8FD032201A902A870
:10A80000FBF764FE08B90120E4E70020E2E700005E
:10A8100070B504460D46142C03DA2046FDF724FAE1
:10A8200010B943F2020070BD04EB8400054901EB4E
:10A830004000D0F802102960C188A980007AA87170
:10A840000020F0E71C3D002030B591B00546288877
:10A85000102801D011B030BD2C22291D06A8FBF70D
:10A8600011FE4FF6FF749DF81C000321B1EB500F51
:10A8700035D003F079FE9DF81C00400820B1012876
:10A8800003D0022828D114E000BF09E0049800F1A9
:10A89000110107A8FCF7AEFC10B1BDF8144006E0AA
:10A8A00003AA05A9072003F029FE0028EED100BF66
:10A8B00013E008E00498411C07A8FFF782FF10B1DD
:10A8C000BDF8144006E003AA05A9072003F016FE10
:10A8D0000028EFD100BF00E000BF00BF00BFBDF8FF
:10A8E000180000EB8000124921F81040BDF8180054
:10A8F00000EB800001EB40000799C0F80210BDF8A2
:10A900002010C1809DF8221001724FF6FF70844222
:10A910000CD0BDF81800ADF80200ADF804400020DE
:10A920008DF800006846FFF7C1F900BF00BF91E74E
:10A930001C3D002070B505464FF6FF70854200D1E2
:10A9400070BD00240EE004EB8400094931F81000CA
:10A95000A84205D12046FDF787F908B12046EFE768
:10A96000601C84B2142CEEDB4FF6FF70E8E70000A9
:10A970001C3D00203EB505460C4603F0F5FD0BE0FE
:10A98000BDF80800A04207D02846019900F00EF853
:10A9900010B1BDF808003EBD6A4602A9072003F0C9
:10A9A000ADFD0028ECD14FF6FF70F4E72DE9F0473C
:10A9B00004460D4604F1110605F111071022691C29
:10A9C000601CFBF783FD48B9601C00F0C4FA28B195
:10A9D000681C00F0C0FA08B1012000E000208246A7
:10A9E00039463046FCF706FC804630780221B1EB50
:10A9F000500F10D030780321B1EB500F0BD03878C6
:10AA00000221B1EB500F06D038780321B1EB500F83
:10AA100001D0012000E000208146B8F1000F02D0F3
:10AA2000B9F1000F05D1BAF1000F05D0B9F1000F4F
:10AA300002D10120BDE8F0870020FBE70246108824
:10AA400008B101207047002105E0901C405C08B16E
:10AA50000120F7E7491C0829F7D30020F2E770B579
:10AA600005460C462846FFF7E9FF08B9002070BDEF
:10AA700028882188884201D00020F8E70822A11CFC
:10AA8000A81CFBF723FD08B90120F0E70020EEE742
:10AA9000142804DA00EB8002014B23F812107047EF
:10AAA0001C3D002070B506463046FFF743FF0446C4
:10AAB000304603F044FC054645B9142C06DA4FF63F
:10AAC000FF7004EB8401024A22F81100284670BD91
:10AAD0001C3D002010B50446142C03DA2046FDF777
:10AAE000C3F810B94FF6FF7010BD04EB84000249A3
:10AAF00031F81000F8E700001C3D00203EB5044688
:10AB000003F032FD10E0019800F146012046FFF706
:10AB1000A6FF30B9019800F12A012046FFF79FFFF8
:10AB200010B1BDF808003EBD6A4602A9072003F037
:10AB3000E5FC0028E7D14FF6FF70F4E770B5044656
:10AB40000D460A4860600A4801F0F7FA58B902F069
:10AB500025F9074908741C234FF4EE72054906488D
:10AB6000006801F02AFA002070BD000040150300C3
:10AB7000B4450020C84300204C1503002DE9F041E6
:10AB800006460C460F272EB100204249486001209E
:10AB9000BDE8F081207930B101280AD0022835D0F3
:10ABA00003286DD140E00120207103F0F9FA074637
:10ABB00067E04FF00008002519E005EB85003649F5
:10ABC00011F82000022810D1002005EB8501324A3F
:10ABD00002F821004FF0010805EB850102EB81012D
:10ABE000486803F0CDFA074603E0681C85B2022DE1
:10ABF000E3DB00BFB8F1000F07D101202549087041
:10AC00000020486041F61D50C2E73AE00020207164
:10AC1000022022498880084600230122016820483A
:10AC200001F098FC07462CE0002020711B490868C1
:10AC300003F0A6FA07461B4845881848D0F800805C
:10AC400005EB8500144901EB80004068134908605A
:10AC500005EB8500104901EB8000C0F804800F4827
:10AC6000808805EB85010C4A02EB810108810220F6
:10AC70000A498880002005EB850102F8210000E0E8
:10AC800000BF00BF27B10020024948600E207FE7C7
:10AC900000207DE71C38002084430020303800204D
:10ACA00068380020AC430020024600210CE001EB94
:10ACB0008100074B33F82000904204D101EB810062
:10ACC00003EB80007047491C0029F0D00020F9E711
:10ACD000743C00202DE9F04104460E464FF48E717D
:10ACE000206802F03EF94FF4A271206802F039F9B1
:10ACF0001749206802F044F9206802F091F90546EE
:10AD0000374628463946002809DA4A074FEA126CC6
:10AD1000104A00F00F031B1F02F803C003E04A07AC
:10AD2000130E0D4A135400BF00BF206802F078F9DB
:10AD30000546284600F01F02012191404209920079
:10AD400002F1E022C2F8001100BF00BFBDE8F081AF
:10AD50008000020018ED00E000E400E0014691F9F7
:10AD60000020002A01DD00201EE091F90020002AC9
:10AD700001DA042018E091F90120002A01DD012008
:10AD800012E091F90120002A01DA05200CE091F986
:10AD90000220002A01DD022006E091F90220002AAB
:10ADA00001DA062000E0072070472DE9F04704464D
:10ADB0000E469046002722E0384602F0B2F80546DB
:10ADC000384602F0B5F881462046294642580AB175
:10ADD000012200E0002282B14846D4F80413014069
:10ADE00009B1012100E0002139B12946204602F0D5
:10ADF000A4F82846D6E900219047781CC7B24745F9
:10AE0000DADBBDE8F08770B505460C464FF4887173
:10AE1000284601F0BBFD68B14FF48871284601F067
:10AE2000BCFD607900F0040020B1206810B1012061
:10AE3000216888474FF48A71284601F0A7FD68B160
:10AE40004FF48A71284601F0A8FD607900F00800EF
:10AE500020B1206810B10220216888474FF48E711C
:10AE6000284601F093FD68B14FF48E71284601F039
:10AE700094FD607900F0100020B9206810B1002026
:10AE8000216888474FF48271284601F07FFD58B150
:10AE90004FF48271284601F080FD01202071206866
:10AEA00010B103202168884770BD70B505460C4677
:10AEB0004FF48C71284602F01DF838B14FF48C71B4
:10AEC000284602F01EF82046FFF763F870BD000028
:10AED00001460348007A08B1012070470020FCE7D2
:10AEE000B44500202DE9F0410446A08800EB020C97
:10AEF000B4F80480904501DD104600E0A088A8EB7E
:10AF00000005E088C618B4F80680984501DD1846AB
:10AF100000E0E088A8EB00074888B4F800804045CE
:10AF200004DB4888B4F80280404502DD0020BDE81B
:10AF3000F0818888A84202D38888604501D9002022
:10AF4000F5E7C888B84202D3C888B04201D90020CA
:10AF5000EDE70120EBE70246002104E0505C08B178
:10AF600001207047491C1029F8D30020F9E7014659
:10AF700001F0030008B9012070470020FCE70146FA
:10AF8000086808B102680A607047000010B50848F8
:10AF9000007850B1002405E0022C02D02046FDF7D5
:10AFA00023F9641C042CF7D301E0FDF749F910BD27
:10AFB0004C37002010B502F013F8002001498870CA
:10AFC00010BD000044400020F7210180172141807E
:10AFD000002101714171FB2181711B21C1717047F9
:10AFE0002DE9FE4F81460F46924698460FB1002646
:10AFF00012E0684600F0ACFF6A460021484603F0C4
:10B0000037F9009E2248007828B99DF8090010B948
:10B010000520BDE8FE8F00BF52463146484605F088
:10B0200032F80446002221464846FEF7DFFF0D2C89
:10B030001CD005DCCCB1082C1AD00B2C1BD118E08D
:10B04000112C04D0A4F540500238A0B90FE03A46C4
:10B05000104801784846FCF7E9FD52460E48017851
:10B060004846FCF7E3FD002507E000BF00BF00BF36
:10B0700000BF254601E0032500BF00BFB8F1000F67
:10B0800004D0324621464846FEF7A8FD2846C0E7D0
:10B09000C0370020CA370020C937002070B50546E8
:10B0A0000E46314628467EDF0446042C00D111248A
:10B0B000204670BD70B504460D46164600BF0B48CD
:10B0C00001782046FCF79CFD70B1204603F07AF829
:10B0D00028B132462946204603F07EF804E0324685
:10B0E00029462046FEF734FB70BD0000B037002033
:10B0F0002DE9F041044688460A4801782046FCF7CD
:10B100007FFD0646084801782046FCF779FD074692
:10B110000123324639462046FFF762FF0546BDE867
:10B12000F0810000C9370020CA37002070B50546FD
:10B130000C46002624B121462846FFF7AFFF0646FD
:10B14000304670BD2DE9F041064600274748D0F84B
:10B15000008078E016B13446E66947E0444800785C
:10B1600000EB40014248001D00EBC105001F0078C4
:10B17000401C3F490870084600788978884202D10F
:10B1800000203B4908706C68287801281AD00228F2
:10B1900002D0032817D107E0686805F043FA00B130
:10B1A0000127002020744EE007E0304908680021A4
:10B1B00001742E4AC169116000BF2C480068002844
:10B1C000F3D140E000E03EE000BF207C00B13AE077
:10B1D000A8686060E868A0602869E0606869A061AC
:10B1E0002448007808B10020606000BF22496068F0
:10B1F0000968401A20F07F402049884208D21E4941
:10B200006068096805F0A0F9A168084420600FE0B3
:10B2100019486168006805F097F90546A068A842DA
:10B2200003D9A068401B206001E00020206000BF1F
:10B2300000206060A060012020740020E0612046B2
:10B2400005F0BCF900BF002E84D1094800780849F8
:10B2500049788842F8D11FB904480068404502D0B7
:10B260000120BDE8F0810020FBE70000F43700205A
:10B27000A041002007380020F8370020FFFF7F00A2
:10B2800070B586B00546002618216846FBF713F90D
:10B29000ADF802504FF6FF70854201D106B070BD87
:10B2A0002846FFF78DF9044644B10B2C0FD0112C22
:10B2B0000BD0A4F54050023888B90FE00E208DF86D
:10B2C00000006846FEF7CAFC0EE001260CE00F20E5
:10B2D0008DF800006846FEF7C1FC05E004E0214659
:10B2E000284604F003FC00BF00BF32460348017843
:10B2F0002846FCF79BFC00BFD0E700007937002010
:10B3000070B505460C462246024801782846FCF7EF
:10B310008DFC70BD78370020F0B587B0044600265C
:10B3200000272046FFF794F9054645B1112D09D0B5
:10B33000862D09D0A5F54050023880B901E00127DB
:10B3400012E011E001260FE018220B4901A8FBF7DB
:10B3500099F8ADF8064001A8FEF780FC04E0294604
:10B36000204604F0C3FB00BF00BF31462046FFF774
:10B37000C7FF384607B0F0BDE81203008CB000BF2D
:10B3800005F035FAFBF7FCF9FBF72CFAFBF70EFC9E
:10B39000FBF7C4FE00BFFBF735FB00BFFBF746FB26
:10B3A00000BF18E00C480078012814D106A807ABAC
:10B3B00002AA08A900900AA8FDF752FEBDF81C00D9
:10B3C00000F4807018B102A9022004F0B7FA00BF9F
:10B3D000002001490870E5E7412B002070B50446C4
:10B3E000002624F00104184890F8240008B1002039
:10B3F00070BD1548807A10B94FF0FF30F8E7124859
:10B40000057C807A2040104908740846007CA042E0
:10B4100002D04FF0FF3600E0002614B90A48007D44
:10B4200018B1012004F03AFD02E0002004F036FDDE
:10B430003CB100F07BFA20B1034805744FF0FF30B7
:10B44000D6E73046D4E70000142B0020014611480F
:10B45000407A30B1012807D0022808D003280CD147
:10B4600008E0022008700BE00420087008E00820C3
:10B47000087005E01020087002E04FF0FF307047C0
:10B4800000BF0448C07C18B108784006000E087060
:10B490000020F4E7142B002001460F48007A30B159
:10B4A000012807D0022809D003280FD10AE0FA208A
:10B4B00008800EE04FF4FA7008800AE04FF47A70CA
:10B4C000088006E04FF4FA60088002E0002008805F
:10B4D00000BF00BF00207047142B00200146064823
:10B4E00090F8240010B14FF0FF3070470248C08937
:10B4F00008800020F9E70000142B00203EB58020D2
:10B500008DF8050049480068407D8DF8040002214F
:10B5100001A8FBF7EFF94FF47A7000F039FF002033
:10B520008DF80500022101A8FBF7E4F900213F484E
:10B53000C17448208DF805003C480068007A8DF8F9
:10B540000400022101A8FBF7D5F9FF2137488172D9
:10B55000FF2036490872FF2134484172C1724FF60C
:10B56000FF71C181FF21017481740121017380F891
:10B570002210002180F823104175017516300160FA
:10B5800041608160163880F8241080F82510C1844D
:10B590004FF4FA6000F006FB10B14FF0FF303EBDF3
:10B5A000022000F07BFA10B14FF0FF30F7E72A20BD
:10B5B00000F070FB10B14FF0FF30F0E7322000F0E8
:10B5C000ABFB10B14FF0FF30E9E70020FFF706FFBB
:10B5D00010B14FF0FF30E2E701F0FEFD044600BF7E
:10B5E000254625B100BF2846FBF724FF00BF00BF5A
:10B5F0000F480068009000208DF801000D4A694650
:10B60000052001F06FFD044600BF254625B100BFAF
:10B610002846FBF70FFF00BF00BF0121052001F006
:10B620000BFD002000F0C2FB0020B8E7142B002027
:10B6300098120300D96702002DE9F04385B0054652
:10B640000E4617469946274890F8250020B14FF03E
:10B65000FF3005B0BDE8F08316B94FF0FF30F8E7D2
:10B66000002426E0281B102802DB4FF0100802E01F
:10B67000281B1FFA80F832194146204600F0FEFBD5
:10B6800010B14FF0FF30E4E701AA4146204600F038
:10B6900013F910B14FF0FF30DBE73019424601A932
:10B6A000FAF714FF10B16FF00100D2E704EB0800C5
:10B6B00084B2AC42D6DB38128DF80100F8B28DF8B6
:10B6C000020008480068407F8DF8000003216846AA
:10B6D000FBF710F90121034880F82510A0F8269007
:10B6E0000020B6E7142B002038B50446282C02DDD4
:10B6F0004FF0FF3038BDB4B9002000F097FA0020B9
:10B700008DF8020007208DF8010036480068407D62
:10B710008DF8000003216846FBF7ECF80021314862
:10B7200001750020E6E7012000F080FA012C03D12A
:10B7300002208DF8010033E0022C03D103208DF8A4
:10B7400001002DE0052C03DC04208DF8010027E02A
:10B750000A2C03DC05208DF8010021E0142C03DC09
:10B7600006208DF801001BE0282C03DC07208DF853
:10B77000010015E0502C03DC08208DF801000FE0DB
:10B78000A02C03DC09208DF8010009E0B4F5A07FAE
:10B7900003DC0A208DF8010002E00B208DF8010087
:10B7A00010480068407A8DF8000002216846FBF7D7
:10B7B000A1F820208DF801000A480068407D8DF82E
:10B7C000000002216846FBF795F8082105488172C0
:10B7D00000210173012101750020FFF7FFFD00200A
:10B7E00088E70000142B0020F8B504460F461646E3
:10B7F0002F4890F8240010B94FF0FF30F8BD2C48C6
:10B80000807A10B94FF0FF30F8E729480068007BD4
:10B810008030284908700223012269462548FBF739
:10B8200025F89DF801009DF8001040EA0125A54289
:10B8300003DA00203070401EE0E71D484068408871
:10B84000B5EB600F21DD1A480068C07C80301949D3
:10B85000087001231A4669461648FBF707F89DF859
:10B86000000000F0100080B100F060F8104800689F
:10B87000007B80300F4908700223012269460D4881
:10B88000FAF7F4FF6FF00100B8E709480068407B61
:10B89000803008490870E3B2012239460548FAF7BA
:10B8A000E5FF95FBF4F0401E30700020A6E7000095
:10B8B000142B0020402B0020F8B504460D461646F8
:10B8C00016B94FF0FF30F8BD1648807A10B94FF026
:10B8D000FF30F8E720128DF80100E0B28DF8020089
:10B8E0009DF8020028440F4949684989884202DDD1
:10B8F0004FF0FF30E7E70B480068C07E8DF800008E
:10B9000003216846FAF7F6FF06480068007E80309B
:10B9100005490870EBB2012231460348FAF7A6FF49
:10B920000020D0E7142B0020402B002008B55A48F7
:10B93000807A10B94FF0FF3008BD00208DF801006B
:10B9400055480068407C8DF8000002216846FAF7EF
:10B95000D1FF5148006840798DF800000221684607
:10B96000FAF7C8FF4C48006800798DF80000022102
:10B970006846FAF7BFFF484890F82400002845D0F1
:10B980000C208DF801004448006800798DF8000013
:10B9900002216846FAF7AEFF322000F0F9FCC02021
:10B9A0008DF801003C48807A00F0010028B19DF834
:10B9B000000040F020008DF8000037480068007952
:10B9C0008DF8000002216846FAF794FF3248407C67
:10B9D00018B102208DF8010002E000208DF801006E
:10B9E0002D480068407C8DF8000002216846FAF777
:10B9F00081FF00208DF801002748006840798DF80C
:10BA0000000002216846FAF775FF42E004208DF835
:10BA100001002148006800798DF800000221684685
:10BA2000FAF768FF1C48807C20B91B48807A00F038
:10BA3000010018B940208DF8010002E060208DF867
:10BA400001001548006800798DF80000322000F0F0
:10BA50009FFC1148407C18B101208DF8010002E0E4
:10BA600000208DF801000C480068407C8DF8000033
:10BA700002216846FAF73EFF0748007C8DF8010076
:10BA80000548006840798DF8000002216846FAF701
:10BA900031FF002050E70000142B002038B5044689
:10BAA0001D48807A10B94FF0FF3038BD022C06D007
:10BAB000042C08D0082C0AD0102C10D10BE0002048
:10BAC0008DF801000EE008208DF801000AE010203A
:10BAD0008DF8010006E018208DF8010002E04FF01B
