:020000040002F8
:1060000018680020C1630200C96302009171020098
:10601000CD630200CF630200D163020000000000E4
:10602000000000000000000000000000D363020038
:10603000D563020000000000D7630200D9630200AC
:10604000017A0200DB630200AD830200B17F02002F
:10605000C57F0200DB630200A96E0200897D020099
:10606000DB6302007D82020095820200DB63020096
:10607000DB630200DB630200DB630200DB63020020
:10608000DB630200457D0200DB630200DB6302008C
:10609000D97F0200DB630200E17F0200DB630200C4
:1060A000DB630200DB630200AD820200C5820200F6
:1060B000557A0200DB6302000000000000000000CF
:1060C000DB630200697A0200DB630200DB6302002B
:1060D000DB630200DB630200DB6302000000000000
:1060E00000000000000000000000000000000000B0
:1060F00000000000000000000000000000000000A0
:10610000000000000000000000000000000000008F
:10611000000000000000000000000000000000007F
:10612000000000000000000000000000000000006F
:10613000000000000000000000000000000000005F
:10614000000000000000000000000000000000004F
:10615000000000000000000000000000000000003F
:10616000000000000000000000000000000000002F
:10617000000000000000000000000000000000001F
:10618000000000000000000000000000000000000F
:1061900000000000000000000000000000000000FF
:1061A00000000000000000000000000000000000EF
:1061B00000000000000000000000000000000000DF
:1061C00000000000000000000000000000000000CF
:1061D00000000000000000000000000000000000BF
:1061E00000000000000000000000000000000000AF
:1061F000000000000000000000000000000000009F
:10620000DFF80CD000F00CFC0048004785E20200EB
:106210001868002030B450E8012F93B2C489234499
:106220008489A34228BF1B1B0489A34202BFBFF37A
:106230002F8F002007E0C3EA020340E80134002C5E
:10624000E9D14FF001000A6030BC704750E8012FDF
:10625000C2EA024240E801210029F7D1704730B478
:1062600050E8022F1FFAA2F3C488A34202BFBFF373
:106270002F8F00200DE0C48923448489A34228BFC6
:106280001B1BC2EA034340E80234002CE8D14FF064
:1062900001000A6030BC704750E8022FC2EA224277
:1062A00040E802210029F7D17047034653E8022F46
:1062B000D988B2EB324F4FF0000017BF92B241EADB
:1062C000014142EA014104E05A68B2EB324F08BF93
:1062D000012043E80212002AE8D1704730B4044696
:1062E00054E8000F0D4644E80053002BF8D1156028
:1062F00030BC704730B4044654E8000F40EA010552
:1063000044E80053002BF7D1156030BC704730B41F
:10631000044654E8000F00EA010544E80053002B4E
:10632000F7D1156030BC704730B4044654E8000F14
:1063300080EA010544E80053002BF7D1156030BC1A
:10634000704730B4044654E8000F00EB010544E800
:106350000053002BF7D1156030BC704730B40446B1
:1063600054E8000FA0EB010544E80053002BF7D1DF
:10637000156030BC704770B404464FF0000054E81C
:10638000006F0D68AE4207BF44E80023012044E8D7
:1063900000630E60002B1CBF0020F0E770BC70474C
:1063A00030B4044654E8000F88422CBF451A054615
:1063B00044E80053002BF5D1156030BC7047000055
:1063C0000648804706480047FEE7FEE7FEE7FEE78F
:1063D000FEE7FEE7FEE7FEE7FEE7FEE7F97F0200E5
:1063E000016202002DE9F05F0546002092469B46BF
:1063F00088460646814640241BE0284641464746DB
:10640000224600F02FF853465A46C01A914110D345
:1064100011461846224600F016F82D1A67EB0108BF
:106420004F4622460120002100F00DF817EB00092D
:106430004E41201EA4F10104DFDC484631462A46C5
:106440004346BDE8F09F202A04DB203A00FA02F11F
:10645000002070479140C2F1200320FA03F3194352
:1064600090407047202A04DB203A21FA02F00021F4
:10647000704721FA02F3D040C2F120029140084354
:106480001946704740EA01039B0703D009E008C999
:10649000121F08C0042AFAD203E011F8013B00F8E9
:1064A000013B521EF9D27047D2B201E000F8012B35
:1064B000491EFBD270470022F6E710B513460A4684
:1064C00004461946FFF7F0FF204610BD30B50446DC
:1064D0000020034600E05B1C934203D2E05CCD5CED
:1064E000401BF8D030BD2DE9FE4F804681EA030005
:1064F000C00F0C46009021F0004123F00045B8EB9E
:106500000200A94105D24046214690461C460B4652
:10651000024623F00040104347D0270DC7F30A007E
:10652000C3F30A510290401A019040286BDAC3F37A
:10653000130040F4801B0098924620B10023D2EB58
:10654000030A63EB0B0B01985946C0F14002504619
:10655000FFF779FF06460D4650465946019A00F06E
:10656000B9F910EB08006141002487EA115284EA6E
:10657000E7731A4340D0009A62B3019A012A4FEAA6
:10658000075215DC001B61EB02014FF0004202EAEA
:106590000752CDE90042001C41F5801132462B46DE
:1065A00000F0F0F903B0BDE8F08F40462146F9E76E
:1065B000001B61EB0201001C41F5801300185B41D8
:1065C0002018A2F5001747EB030140EAD570B61971
:1065D0006D4111E06D084FEA360645EAC0754FEA95
:1065E0000752001B61EB0201001C41F580114908B4
:1065F0004FEA30000019514132462B4603B0BDE846
:10660000F04F00F0B0B90098012240000023D0EB19
:10661000020263EBE073009821464FEAE074B8EBA6
:10662000000061EB0401E9E783F000435BE781F0E0
:10663000004158E72DE9FE4F81EA030404F00044CD
:1066400021F0004100944FF0000B23F0004350EA8A
:1066500001045ED052EA03045BD0C3F30A54C1F3D1
:106660000A552C44A4F2F3340194A0FB0254C1F364
:10667000130141F48011C3F3130343F4801301FBAE
:10668000024400FB034E840A970A44EA815447EA15
:106690008357A4FB076802958D0A05FB07854FEA1F
:1066A000932C04FB0C542705029D4FEA065847EA39
:1066B0001637B5EB08056EEB070C870E920E47EA0E
:1066C000811742EA8312A7FB0201B6EB0B0164EBD0
:1066D00000042B0D43EA0C335E1844EB1C50DA46E1
:1066E0005146E7FB0201C5F313044FEA0B3343EABB
:1066F00014534FEA0432019C43EA0603A4F10C044C
:106700000294009CCDE900B400F03CF903B0BDE870
:10671000F08F00200146F9E72DE9F04D81EA0304EE
:1067200004F0004B21F0004514464FF0000A23F01E
:10673000004150EA050220D054EA01021DD0C5F301
:106740000A570246C5F31303C1F31300C1F30A56F7
:1067500040F4801543F48013A7EB0608101BD646BF
:1067600008F2FD3873EB050002D308F1010801E0DF
:1067700092185B41B8F1000F03DA00200146BDE832
:10678000F08D00204FF48011064684460EE0171B62
:1067900073EB050705D3121B63EB050306434CEAB5
:1067A000010C49084FEA300092185B4150EA01079A
:1067B000EDD152EA030012D082EA040083EA050117
:1067C000084305D0101BAB4106D20122002306E08E
:1067D00000224FF0004302E06FF0010253101AEB69
:1067E00006004CEB085110EB0A0041EB0B01BDE831
:1067F000F04D00F0B8B830B40446962308002146A6
:1068000004D0B62330BC002200F07FB8204600211F
:10681000F8E7C1F30A5210B5C1F3130140F2FF3398
:1068200041F480119A4201DA002010BD40F2334356
:106830009A42A2F2334203DC5242FFF713FE10BD2C
:10684000904010BD00F0004230F000400AD0C10D71
:1068500001F56071C0F3160042EA0151C208400719
:1068600011437047002001467047000030B5041EF8
:1068700071F1000404DB4FF00044404264EB01017D
:10688000141E73F1000405DB1C464FF00043524216
:1068900063EB0403994208BF904230BD01F000430E
:1068A00030B421F0004150EA010206D00A0DA2F5F1
:1068B0006072C1F31301002A02DC30BC0020704773
:1068C000440F44EAC104C100E01830BC00EBC250E0
:1068D00000F012B8202A06DBCB17203A41FA02F06A
:1068E00043EAE07306E041FA02F3D040C2F120022D
:1068F00091400843194670470029A8BF7047401CC3
:10690000490008BF20F00100704710B4B0FA80FCC5
:1069100000FA0CF050EA010404BF10BC704749B102
:10692000CCF1200421FA04F411FA0CF118BF012172
:1069300021430843A3EB0C01CB1D4FEA00614FEA52
:10694000102042BF002010BC704700EBC350104421
:106950000029A4BF10BC7047401C490008BF20F0AC
:10696000010010BC704710B5141E73F1000408DA62
:10697000401C41F1000192185B411A4301D120F003
:10698000010010BD2DE9F04D92469B4611B1B1FAC0
:1069900081F202E0B0FA80F220329046FFF753FD18
:1069A00004460F4640EA0A0041EA0B0153465A46A4
:1069B000084313D0114653EA010019D0C8F1400230
:1069C0005046FFF74FFD05460E4650465946424693
:1069D000FFF739FD084305D0012004E02046394681
:1069E000BDE8F08D0020054346EAE0762C433743AE
:1069F0000A986305E40AA0EB08000022FD0A44EAB5
:106A000047540A3002D500200146E9E70105101974
:106A10006941DDE9084500196941BDE8F04DA2E78B
:106A2000064C074D06E0E06840F0010394E80700DB
:106A300098471034AC42F6D3FFF7E6FBA05C0300A6
:106A4000C05C03002DE9F04D00231A461B1A8A4151
:106A500003DB00200146BDE8F08DC1F30A52C1F30B
:106A6000130141F480154FF0000BD10702D100183B
:106A70006D41521E0027044640F2FF11384601EBDB
:106A8000620A3E468046024600204FF48011FFF71E
:106A9000E9FCC2197141BB1846EB0100B4EB030CD1
:106AA00075EB000C04D3E41A65EB000517460E469F
:106AB000241908F101006D4180463428E3DDF919FD
:106AC00046EB0600091BA84103D24FF0FF321346E4
:106AD00001E0002213461BEB070046EB0A51BDE81C
:106AE000F04DFFF740BF0EB5C10F80EAE0700844DB
:106AF000CA07002140F233438DE80E000A460B46D8
:106B0000FFF740FF03B000BD0EB540F233410291E4
:106B10000021CDE900110A460B46FFF733FF03B011
:106B200000BD70B5C1F30A5201F000450024C1F365
:106B3000130140F2FF3341F480119A4201DA002040
:106B400070BD40F233439A42A2F2334203DC524218
:106B5000FFF788FC00E090402C43F1D0404270BD2C
:106B600070B58C1810F8015B15F0070301D110F80F
:106B7000013B2A1106D110F8012B03E010F8016B3C
:106B800001F8016B5B1EF9D12B0705D40023521EBF
:106B90000DD401F8013BFAE710F8013BCB1A921C27
:106BA00003E013F8015B01F8015B521EF9D5A14225
:106BB000D8D3002070BD10B50CF019FA04F054F8C9
:106BC00006F0AEF906F0FEF90DF0D2F902F02EFF54
:106BD00004F06EFE10BD000070B505460E461E2086
:106BE00009F027FD0446012C02D10349087002E098
:106BF00000200149087070BDA62A002090ED000A0F
:106C0000B8EEC00ADFED120A80EE201A81ED001AFC
:106C100090ED010AB8EEC00ADFED0D0A80EE201AF1
:106C200081ED011A90ED020AB8EEC00ADFED080A04
:106C300080EE201A81ED021A90ED030AB8EEC00A28
:106C4000DFED030A80EE201A81ED031A7047000081
:106C50000000804E10B501F041FB08F0B5FF00F0D8
:106C600023FC10BD70B52DED0A8B04460E4615466B
:106C700094ED000AB5EEC00AF1EE10FA1CDD94EDB9
:106C8000000ADFED810A20EE200A10EE101A0846F5
:106C9000FFF7D8FD41EC1B0BB0EE4B0AF0EE6B0A90
:106CA00002F0B6F8B0EE40AAF0EE60AA51EC1A0B72
:106CB000FFF7AFFD30702EE094ED000AB5EEC00A8C
:106CC000F1EE10FA27D894ED000ADFED700A30EEED
:106CD000C00ADFED6D0A20EE200A10EE101A0846F9
:106CE000FFF7B0FD41EC1C0BB0EE4C0AF0EE6C0A65
:106CF00002F08EF8B0EE40BAF0EE60BA9FED640B91
:106D000053EC102B51EC1B0BFFF791FC41EC1A0BD1
:106D1000FFF77FFD307094ED000A10EE101A084660
:106D2000FFF790FD41EC1C0BB0EE4C0AF0EE6C0A44
:106D300002F0FAF8B0EE40BAF0EE60BA9FED560BF2
:106D400053EC102B51EC1B0BFFF7CDFB41EC1A0B56
:106D5000FFF7A4FD09EE100A9FED510A29EE000A83
:106D600010EE101A0846FFF76DFD41EC1B0BB0EE5C
:106D70004B0AF0EE6B0A01F04FFFB0EE40AAF0EEC6
:106D800060AA51EC1A0BFFF744FDA87094ED020ABB
:106D9000DFED440A30EE200A10EE101A0846FFF725
:106DA00051FD41EC1C0BB0EE4C0AF0EE6C0A02F007
:106DB000BBF8B0EE40BAF0EE60BA9FED370B53EC83
:106DC000102B51EC1B0BFFF78EFB41EC1A0BFFF75E
:106DD00065FD08EE100A9FED320A28EE000A10EE5B
:106DE000101A0846FFF72EFD41EC1B0BB0EE4B0AC4
:106DF000F0EE6B0A01F010FFB0EE40AAF0EE60AAD0
:106E000051EC1A0BFFF705FD687094ED010A10EEC6
:106E1000101A0846FFF716FD41EC1C0BB0EE4C0AA9
:106E2000F0EE6C0A02F080F8B0EE40BAF0EE60BA14
:106E30009FED190B53EC102B51EC1B0BFFF753FB81
:106E400041EC1A0BFFF72AFD08EE900A9FED140A99
:106E500028EE800A10EE101A0846FFF7F3FC41EC0A
:106E60001B0BB0EE4B0AF0EE6B0A01F0D5FEB0EE54
:106E700040AAF0EE60AA51EC1A0BFFF7CAFC28708A
:106E8000BDEC0A8B70BD00005C8F2240000000004A
:106E90000000000000002E40000000000000F03F55
:106EA0000000FF42DB0FC93F2DE9F04F89B00027FA
:106EB000002008904FF4807007900126002412E013
:106EC000079809F03BFC40B100BF7B4800683040A8
:106ED00018B1079809F024FC374376000798001D85
:106EE00080B20790641C082CEAD34FF4BE7009F0FE
:106EF00025FC50B14FF4BE7009F012FC47F000477A
:106F000008AA0121002009F0F1FBF8B200B3012624
:106F100000241BE006EA0700B0B100BF674850F844
:106F20002400C0F30420804600BF644850F82400C9
:106F3000C0F301408146204604F0E6F9054615B14C
:106F400049464046A84700BF7600641C082CE1D3A0
:106F500007F0004000287DD0002006900590002515
:106F600005E04FF0FF3004A941F825006D1C002D0D
:106F7000F7D000BF0020069000245FE05048005D7D
:106F80000390039820F0C0094D480057401C00288A
:106F900053D004A9484609F03EF800284DD0039884
:106FA0004FEA901A484604F0F7F9804604F0ACF92D
:106FB0000290029810B9BAF1030F3DD1BAF1030F54
:106FC00003D105A9484609F031F800BF00BF4FF0D2
:106FD000A041084600F5E06151F82910C1F30148CD
:106FE00000BF08A9484609F016F88346BBF1000F18
:106FF00002D0B8F1020F05D0BBF1000F1BD1B8F1E0
:10700000030F18D1BAF1030F0FD1B8F1020F01D15C
:10701000032000E0022001904846019909F0E5FABA
:107020000698401CC0B2069000BF029818B15146A5
:107030004846029A904700BF00BF641C002C9DD0B8
:10704000069888B34FF0010803AA0121002009F037
:107050004DFB00E02DE000250BE003A850F82500D3
:1070600008A951F82510884202D04FF0000802E02C
:107070006D1C002DF1D000BFB8F1000F02D0002030
:10708000069010E000250CE003A850F8250008A9A0
:1070900041F8250005A850F8250004A941F825006D
:1070A0006D1C002DF0D000BF069800287FF462AF61
:1070B00000BF09B0BDE8F08F0463004010650040D8
:1070C000844300203EB50AF075F8044600BF25460B
:1070D00025B100BF284602F04FFD00BF00BF254884
:1070E0000068029000208DF80900234A02A91C20A4
:1070F00009F0E6FF044600BF254625B100BF28463B
:1071000002F03AFD00BF00BF1A48001D0068019060
:1071100000208DF80500194A01A90C2009F0D0FFC4
:10712000044600BF254625B100BF284602F024FDD5
:1071300000BF00BF0F4808300068009001208DF8A4
:1071400001000F4A69461E2009F0BAFF044600BF3D
:10715000254625B100BF284602F00EFD00BF00BF46
:1071600001211C2009F056FF01211E2009F052FFC9
:107170003EBD00000855030089830200D57102005E
:10718000D96B0200014903C970470000D82A0020CA
:1071900000BF00BF00BF00BF00BFBFF34F8F00BFE5
:1071A00000BF00BF0948006800F4E06008490843D8
:1071B000001D0649086000BF00BF00BFBFF34F8F2E
:1071C00000BF00BF00BF00BF00BFFDE70CED00E047
:1071D0000000FA0538B504460D460648064B074A36
:1071E00007490090074804F061FE01200649087035
:1071F00038BD0000B62A0020B42A0020DC39002067
:10720000AE2A0020A82A0020A42A00201CB500F0E5
:1072100011F8142400200090034601221146019029
:10722000204609F09AF900BF0121142009F024FA40
:107230001CBD00001FB5044B0FCB8DE80F00694645
:10724000024809F02DFE1FBD78550300605503006C
:10725000F0B58DB007460D4616461C4600201A496B
:1072600008701A4807600671002018498860087382
:107270001822174907A8FFF705F907A9154809F0CB
:107280002DFE04E010480078012800D100E0F9E765
:1072900000BF00200C4908700C49086008460471C2
:1072A0008560047318220A49183101A8FFF7EAF82B
:1072B00001A9084809F012FE05E0034800780128FA
:1072C00001D10DB0F0BDF8E7182B0020BC3C002028
:1072D000B85503006055030070B505460C46002004
:1072E0000949087009480560047100200749886051
:1072F00008730749074809F0F1FD04E002480078E7
:10730000012800D170BDF9E7182B0020BC3C0020FB
:107310001C2B00206055030070B58CB006460D464E
:10732000144600201B4908701B48066001201A49BA
:1073300008710020886008731822184906A8FFF712
:10734000A1F806A9164809F0C9FD04E01148007823
:10735000012800D100E0F9E700BF00200D490870C6
:107360000D48056004710F480B4988600846047396
:1073700018220A4918316846FFF784F86946084818
:1073800009F0ACFD05E003480078012801D10CB0FC
:1073900070BDF8E7182B0020BC3C00208855030086
:1073A00060550300CC3C002010B504460021142099
:1073B00009F062F900200149087010BD182B002067
:1073C00070B504460D460121142009F055F901203D
:1073D0000149087070BD0000182B00200122014BEC
:1073E0001A707047182B002001280BD10D4909781D
:1073F00014310C4A117011460978302910DB302104
:1074000011700DE002280BD106490978152902DC1C
:107410001521044A1170034909781439014A117081
:10742000704700009E2B002010B5044621469E2088
:1074300000F0D8F910BD000070B5002500201849F3
:1074400008704870002404E00221154800F076F925
:10745000641C032CF8DB17201149087018204870B1
:10746000002414E002231A460E490D4800F044F9A6
:10747000FF200B49087048700A480078172805D18A
:1074800008484078182801D1E5B200BF641C042CDC
:10749000E8DB032D01D1012070BD0020FCE70000D6
:1074A000982B00209C2B002070B500F01BFB0024C3
:1074B00011E04FF4A050164921F81400022C04D119
:1074C00031F8140000F0E5F804E0114931F8140037
:1074D00000F054F9641C032CEBDB002513E00020C2
:1074E0000B4921F81500022D04D131F8150000F0E8
:1074F000C9F804E0064931F8150000F03FF905200D
:1075000008F0BAFE6D1C032DE9DB012070BD000000
:10751000A02B002010B5044621468C2000F062F913
:1075200010BD10B500F0C4FA642008F0A5FEFFF706
:1075300083FF0446204610BD2DE9F04105464E4923
:10754000097801F5A05000F0ABF800242CE004EB22
:107550004400284480784FF6FF7101EA0020C4F10E
:107560000F0101EB4101454A22F8110004EB4400F0
:10757000284440784FF6FF7101EA0020C4F10F0162
:1075800001EB410102EB4101488004EB4400285C1F
:107590004FF6FF7101EA0020C4F10F0101EB410138
:1075A00002EB41018880641C0F2CD0DB2F20405D52
:1075B0004FF6FF7101EA0020304908802E20405D1F
:1075C0004FF6FF7101EA00202C49488095F82D0004
:1075D0004FF6FF7101EA00202849888000241AE054
:1075E000002715E0022F09D104EB4401234A02EBE6
:1075F000410131F81700FFF717FF08E004EB4401E1
:107600001E4A02EB410131F8170000F0B7F87F1C69
:10761000032FE7DB641C0F2CE2DB00BF00240FE02C
:10762000022C06D115495A3131F81400FFF772FFC8
:1076300005E012495A3131F8140000F09FF8641C3B
:10764000032CEDDB00BF002611E04FF6FF700C4964
:1076500021F81600022E04D131F8160000F012F8BD
:1076600004E0074931F8160000F088F8761C032E74
:10767000EBDBBDE8F08100009E2B0020E83D002000
:10768000A02B002010B504462146AC2000F0AAF83B
:1076900010BD10B504462146802000F0A3F810BDAF
:1076A00070B50546002410E0094820F81450022C5B
:1076B00005D1014631F81400FFF7EBFF04E004495F
:1076C00031F8140000F05AF8641C032CECDB70BD98
:1076D000A02B002010B500F001F810BD1FB5044B21
:1076E0000FCB8DE80F006946024809F0D9FB1FBD9A
:1076F00000560300E85503002DE9F04104460D460D
:1077000016461F46002009490870094804600671A2
:10771000856007730749084809F0E0FB05E0034866
:107720000078012801D1BDE8F081F8E74C2B00205A
:10773000183D0020682B0020E855030070B5054671
:107740000C460020094908700948056004710020B2
:107750000749886008730749074809F0BFFB04E040
:1077600002480078012800D170BDF9E74C2B0020B9
:10777000183D0020502B0020E855030038B5044682
:10778000200A8DF80000E0B28DF801000221684661
:10779000FFF7D4FF38BD000070B506460C4615460D
:1077A0000B48068000200B4908700B4804600571E7
:1077B00000200949886008730849094809F08EFBD0
:1077C00004E004480078012800D170BDF9E700000A
:1077D0004E2B00204D2B0020183D0020802B002038
:1077E000E855030038B505460C46200A8DF8000020
:1077F000E0B28DF80100022269462846FFF7CCFF6F
:1078000038BD00000021014A117070474C2B002048
:1078100010B504460348008800F08EF900200249A4
:10782000087010BD4E2B00204D2B00200122014B73
:107830001A7070474C2B00200122014B1A707047C0
:107840004D2B002010B5002008F00EF810BD10B52B
:10785000012008F009F810BD10B540F2711420465F
:1078600004F0C0F910BD0000FEB507F0FDFC0646AF
:107870000EB10020FEBD782008F03EF9782007F018
:1078800063FC0F2008F0EEF801A807F0DDFC684665
:1078900007F0B8FC02A807F08FFC04F0FBFA134CC9
:1078A000204606F0DFF90546E01C06F0DBF945EA64
:1078B000C00085B2A01D06F0D5F945EA801085B25A
:1078C00000BF2F46384604F04BFC094804F0DAFBB1
:1078D000084804F0CFFBFFF7BFFF0F2004F0DAFBEE
:1078E000012004F00FFC0020C4E70000CD37002089
:1078F000FD780200F978020000BF704770B50446B9
:107900000D46062C32D100201E4908701E48007812
:10791000401C1D490870084600780B2801D1002042
:1079200008701948007806280AD100201749087005
:10793000FFF788FF022004F0E5FBFFF788FF20E057
:107940001148007807280AD1002010490870FFF775
:1079500079FF012004F0D6FBFFF779FF11E00A4818
:10796000007808280DD102F099F80AE0012C03D123
:107970000120FFF739FD04E0022C02D10220FFF7BD
:1079800033FD70BDCC370020CB370020A42A002067
:1079900000F01F0201219140024A430942F82310DE
:1079A0007047000080E200E000F01F0201219140DA
:1079B0004209920002F1E022C2F800117047000073
:1079C00000F01F0201219140024A430942F82310AE
:1079D0007047000000E200E010B5002807DA4A070F
:1079E000140E054A00F00F031B1FD45403E04A078E
:1079F000130E024A135410BD18ED00E000E400E03D
:107A000010B54FF4807008F003FC80B14FF4807023
:107A100008F007FC012008F00DFC0D48407930B952
:107A200001200B49487108460168002088474FF43F
:107A3000827008F0EDFB50B14FF4827008F0F1FB5A
:107A4000022008F0F7FB024801680120884710BDBA
:107A50006438002010B50249024806F058F910BDFC
:107A60008C43002000C0014010B50249024806F0D6
:107A70004EF910BD94430020001002403EB50A4A62
:107A800007CA8DE8070000226946084809F078FC1B
:107A9000044600BF254625B100BF284602F06CF819
:107AA00000BF00BF3EBD000020550300C02A0020DB
:107AB00010B50220084908800846084908600420DB
:107AC0008880012088600020C86002230A220448C0
:107AD00009F0F2FC10BD0000D02A0020FC39002083
:107AE000C02A002010B501231A460449044809F0B1
:107AF000E3FC0121024809F021FD10BDFC39002002
:107B0000C02A00203EB50A4A07CA8DE807000022B5
:107B10006946084809F034FC044600BF254625B1F3
:107B200000BF284602F028F800BF00BF3EBD00009D
:107B300014550300B82A002010B5044607480480F5
:107B40000749086004208880012088600020C86000
:107B500001231A46034809F0AFFC10BDC82A0020D3
:107B6000EC390020B82A00202DE9F0412DED088BDA
:107B700084B004460D4694ED000AD4ED010A20EECF
:107B8000200AD4ED020A94ED031A00EE810AF0EE09
:107B9000000A20EE200A10EE108A94ED010A20EE71
:107BA000000AD4ED020A94ED021A00EE810AF7EE03
:107BB000000AB0EE001A41EE400A10EE907A384604
:107BC000FEF740FE41EC1A0B4046FEF73BFE41EC4F
:107BD0001B0BB0EE4A1AF0EE6A1AB0EE4B0AF0EE4A
:107BE0006B0A00F021FFB0EE409AF0EE609A51EC83
:107BF000190BFEF753FEA86094ED000AD4ED020ABB
:107C000020EE200AD4ED030A94ED011A00EEC10A19
:107C1000F0EE000A20EE200A10EE106A3046FEF761
:107C200011FE41EC1A0BB0EE4A0AF0EE6A0A01F0BE
:107C3000E3F8B0EE409AF0EE609A9FED3E0B53EC05
:107C4000102B51EC190BFEF711FE19D89FED3B0BD1
:107C50008DED000B3046FEF7F5FDCDE902010199EF
:107C6000039861F31E0001909DED000BB0EE409A69
:107C7000F0EE609A51EC190BFEF710FE686013E00D
:107C80003046FEF7DFFD41EC1A0BB0EE4A0AF0EE8B
:107C90006A0A00F0ADFBB0EE409AF0EE609A51EC4B
:107CA000190BFEF7FBFD686094ED000AD4ED030AA2
:107CB00020EE200AD4ED010A94ED021A00EE810AAA
:107CC000F0EE000A20EE208A94ED020A20EE000A6F
:107CD000D4ED030A94ED031A00EE810AF7EE000AD0
:107CE000B0EE001AF0EE608A41EE408A18EE900A7B
:107CF000FEF7A8FD41EC1A0B18EE100AFEF7A2FDE4
:107D000041EC1B0BB0EE4A1AF0EE6A1AB0EE4B0AC9
:107D1000F0EE6B0A00F088FEB0EE409AF0EE609A4A
:107D200051EC190BFEF7BAFD286004B0BDEC088BCE
:107D3000BDE8F081000000000000F03F000000609E
:107D4000FB21F93F10B500200949086000210948CE
:107D5000C0F84411C0F84811C0F84C110020054982
:107D6000C1F8000102493C3908600CF01DFF10BD4C
:107D7000401101400010014008B56946002009F09B
:107D8000D7FCBDF9000008BDFEB54FF4827008F0C5
:107D90009DFE002837D04FF4827008F0A1FE6C4899
:107DA00090F82E0018B16A4890F82F0058B30020C0
:107DB0008DF8000066484068019065480189ADF87B
:107DC0000810C06818B900206149087412E06048C2
:107DD000008B5F4948830846C06848600846008BAE
:107DE00008810020C860084690F82E0010B90020D5
:107DF00008F08EFE564801686846884700205449BE
:107E000081F82F0000BF524890F82E00002852D071
:107E10004FF4807008F05AFE00284CD04FF4807068
:107E200008F05EFE4A48408B494991F82D1088427F
:107E300016DD4748408B464991F82D10401A4449B9
:107E400048830A4612890B465B8BD21A0B465B6845
:107E500003EB42000A4692F82D1008F023FE23E0BF
:107E60003B48408B3A4991F82D1088420FD1384851
:107E7000C06860B10120364981F82F000020488396
:107E80000A4692F82D10D06808F00CFE0CE030483D
:107E9000408B2F4991F82D10884205D101202C49A3
:107EA00081F82F00002048834FF4827008F018FEFC
:107EB000042008F02DFE4FF4887008F007FE70B122
:107EC0004FF4887008F00CFE00202149087402204D
:107ED0008DF80000084601686846884700BF4FF4E7
:107EE0008A7008F0F3FD38B14FF48A7008F0F8FD9D
:107EF0000020174908742AE01548456924E0B5FABE
:107F000085F64FF00040F0408543B00000F58C74DA
:107F1000204608F0DBFDB8B1204608F0E1FD012065
:107F20008DF80000A4F58C70C0F3C7008DF8040034
:107F3000A4F58C70012121EA90018DF80510044808
:107F400001686846884700BF002DD8D100BFFEBD3C
:107F500010430020FEB5134A07CA8DE8070000252C
:107F6000114E05B9114D3146284609F06DFB044606
:107F700000BF00BF254625B100BF284601F0FCFD2B
:107F800000BF00BF6946002009F0F2FA044600BFB6
:107F9000254625B100BF284601F0EEFD00BF00BF19
:107FA000FEBD000030550300993703002C55030037
:107FB00010B50249024805F0FCFE10BD9C430020AC
:107FC0000030004010B503494FF0402005F0F1FEAD
:107FD00010BD0000C043002010B50CF0E1FC10BD46
:107FE00010B508F0C5FE10BD014802490860704791
:107FF0000090D003D038002010B504F08BFB28B1DE
:108000008D480088C0F304208C49086004F0D6FB3A
:1080100010B18B488B49486704F0F8FB30B18648B3
:10802000E0380068C0F342308749086004F018FC6B
:1080300028B18648006820F080708449086004F008
:1080400027FC48B10020824908604FF08041C1F808
:1080500010017D49091F086004F044FC18B1032099
:1080600079496431086004F055FC68B1052079490C
:10807000086001207749783108600020754908318F
:1080800008603F20091F086004F05CFC002855D000
:108090006948E0300068704908606748E43000686B
:1080A000091D08606448E8300068091D08606248DE
:1080B000EC300068091D08605F48F0300068091D59
:1080C00008605D48F4300068091D08605A48F830BF
:1080D00000686149203108605748FC300068091D7C
:1080E00008605E480068091D08605C48001D006863
:1080F000091D0860594808300068091D0860574884
:108100000C300068091D086054481030006852495E
:1081100040310860514814300068091D08604F481C
:1081200018300068091D08604C481C300068091DA3
:1081300008604A4820300068091D086004F0C0FA51
:1081400030B13D48CC38006800F04F004449086029
:1081500004F00AFB40B14348006800F0010018B188
:108160006FF001003F49086004F040FB28B13E4831
:10817000006840F480603C49086034487438006806
:1081800040F4700031497439086000BF00BF00BF7F
:10819000BFF34F8F00BF00BF00BF00BF00BF00BFD5
:1081A000BFF36F8F00BF00BF00BF3048006800F012
:1081B0000100E0B301202E49086000BF2D4800688F
:1081C0000028FBD02948006820F001004FF0102162
:1081D000C1F80C0200BF274800680028FBD000202F
:1081E0002349086000BF234800680028FBD000BF77
:1081F00000BF00BF00BF00BFBFF34F8F00BF00BF75
:1082000000BF1248F038006800F4E0601A490843E3
:10821000001D0E49F039086000BF00BF00BFBFF36A
:108220004F8F00BF00BF00BF00BF00BFFDE7FFE7EB
:10823000FFF7DAFE10BD00002403001040350140B6
:108240000DF0ADBA00C007403C050040FCED00E079
:108250000C0100401056004020C5004024040010CE
:10826000E40E0040000400403C1700400C120010D7
:1082700004E5014000E401400000FA0510B50422C5
:108280000249034805F015FD10BD0000E042002042
:108290000090004010B504220249034805F009FD92
:1082A00010BD0000EC42002000A0004010B50622E6
:1082B0000249034805F0FDFC10BD0000F842002013
:1082C00000A0014010B506220249034805F0F1FC68
:1082D00010BD00000443002000B0014010B502486A
:1082E00009F03AFC10BD00004055030010B50248EB
:1082F00009F044FC10BD0000405503002DE9FE4F7D
:108300004FF0000B1C4903C9CDE9010103208DF892
:1083100007001A4A01A91A4809F064FC834600BF05
:108320005D4625B100BF284601F026FC00BF00BF16
:10833000012513490868D0F81015CEB200BF009689
:108340004FF47A50A5FB009A48465146009AFEF732
:1083500089F807463C4600BF00BF0120042322469F
:1083600002210090064809F01BFC0021054A11601B
:108370005160BDE8FE8F000058550300ED4A030030
:1083800040550300D82A002070B505460E461C2033
:1083900008F04FF90446012C02D10349087002E0AD
:1083A00000200149087070BDA52A002010B50249BF
:1083B0000868804710BD00006C38002003B40198A5
:1083C0004100009850EAC12018BF04204A0D18BF90
:1083D00040F0010040F2FF72B2EB515F08BF40F085
:1083E0000200012808BF052002B07047000000000D
:1083F00070B5C1482DED020B2DED0E8B82B0119D95
:1084000025F000449FEDBEDB9FEDBFEB84423EDBD9
:10841000A4F140511098A1F17F6108430FD0BC48EE
:10842000844202DC28D1109830B39DED100B02B0CD
:10843000BDEC0E8B02B0BDE8704001F0C1B99DEDFE
:10844000100B53EC1D2B51EC100BFEF7F3F89DEDC8
:10845000100B41EC180B53EC1E2B51EC100BFEF7DC
:10846000E9F853EC182BFEF73EF841EC100B02B084
:10847000BDEC0E8B02B070BD012001F007FA02B016
:10848000BDEC0E8B02B0BDE8704001F0ADB9A14863
:108490009FEDA18B844256DA9DED100BB4F1795F0C
:1084A0000ADA51EC100BFFF789FF042808BF01F02E
:1084B000ABF99DED100BDAE753EC102B51EC100BE0
:1084C000FEF7B8F841EC190B95480621B0EE490AC1
:1084D000F0EE690A784401F05FF853EC192B51EC87
:1084E000100BFEF7A7F841EC1A0B8E48B0EE490AC4
:1084F000F0EE690A0421784401F04EF853EC192B90
:1085000051EC100BFEF796F853EC182BFDF7EBFF30
:1085100041EC100B51EC1A0B53EC102BFEF7FCF84E
:10852000CDE900019DED000B53EC102B9DED100BE0
:1085300051EC100BFEF77EF89DED101B53EC112B48
:10854000FDF7D1FFD2E09DED100B51EC100B04F0C4
:1085500075FB53EC182BFEF76AF89FED730BCDE912
:10856000000153EC102B9DED000B51EC100BFEF7AE
:1085700061F841EC190B6E480621B0EE490AF0EEA5
:10858000690A784401F008F853EC192B51EC100BF0
:10859000FEF750F841EC1B0B6648B0EE490AF0EECE
:1085A000690A0421784400F0F7FF53EC192B51ECD1
:1085B000100BFEF73FF853EC182BFDF794FF41EC3E
:1085C0001C0B51EC190B0CF0C8F841EC180B5A4875
:1085D0009FED5BABA04222DC53EC1C2B51EC1B0B40
:1085E000FEF79AF8CDE900019DED000B51EC180B58
:1085F00053EC102BFEF71EF853EC182BFDF773FF0E
:1086000053EC1A2BFEF716F853EC1D2BFEF70CF863
:1086100053EC1E2BFEF70BF841EC100B5FE08DEDD9
:10862000008B002000909DED000B51EC180B53ECDB
:10863000102BFDF758FF9DED000B41EC1E0B53EC8A
:10864000102B51EC100BFDF7F5FF53EC192BFDF738
:10865000EEFF53EC1E2BFEF75FF841EC190B53ECC9
:108660001C2B51EC1B0BFEF757F841EC1B0B53EC8A
:108670001A2B51EC190BFDF7DDFF53EC1D2BFDF709
:10868000D6FF41EC190B53EC1A2B51EC180BFDF7EC
:10869000D1FF53EC1B2BFDF7CDFF53EC192BFDF74E
:1086A000C3FF9DED000B41EC180B53EC1A2B51EC62
:1086B000100BFDF7BFFF9FED249B53EC192BFDF72B
:1086C000B6FF41EC100B51EC180B53EC102BFDF7DF
:1086D000ABFF53EC192BFDF7AAFF41EC100B002D5B
:1086E0003FF7C5AE51EC100B81F0004141EC100B8F
:1086F000BDE60000000000000000F03F00000000A8
:10870000075C143326A6913C182D4454FB21F93FF5
:108710000000F07F0000E03F000000000000F03F9C
:10872000B8D50000C6D50000000000000000E03F02
:108730000AD5000018D500003333EF3F00000000D9
:108740000000000000000040182D4454FB21E93FC8
:1087500070B59B482DED020B2DED068B079D25F086
:108760000044A04218DC9748844202DC0AD10698F3
:1087700040B19DED060BBDEC068B02B0BDE870402C
:1087800001F01EB8002DCCBF9FED8F0B9FED900B1D
:10879000BDEC068B02B070BD8F48A04215DD8F483E
:1087A000A042D8BF4FF0FF3458DD9DED060B51ECD1
:1087B000100BFFF703FE042808BF01F025F89DED1C
:1087C000060BBDEC068B02B070BD9DED060B51ECA7
:1087D000100B04F033FACDE9060181489FED828B3E
:1087E000A0423CDD8248A0421FDD00249FED82AB09
:1087F0009DED060B53EC1A2B51EC100BFDF773FE9D
:108800009DED060B41EC190B53EC1A2B51EC100BA0
:10881000FDF710FF53EC182BFDF706FF53EC192B57
:10882000FDF77AFFCDE9060149E09DED060B012435
:1088300053EC182B51EC100BFDF755FE9DED060B7C
:1088400041EC190B53EC182B51EC100BFDF7ECFE1F
:1088500053EC192BFDF760FFCDE906012FE06848C6
:10886000A0421FDD02249FED689B9DED060B53EC9B
:10887000192B51EC100BFDF7DDFE53EC182BFDF717
:1088800032FE9DED060B41EC180B53EC192B51EC0D
:10889000100BFDF7C9FE53EC182BFDF73DFFCDE99A
:1088A00006010CE09DED060B032453EC102B9FED0D
:1088B000580B51EC100BFDF72FFFCDE906019DED94
:1088C000060B53EC102B51EC100BFDF7B3FE41ECF3
:1088D000180B53EC182BFDF7ADFE41EC190B4E486D
:1088E0000621B0EE490AF0EE690A784400F054FE21
:1088F00053EC182B51EC100BFDF79CFE41EC180BC0
:108900004648B0EE490AF0EE690A0521784400F0C5
:1089100043FE53EC192B51EC100BFDF78BFE41EC91
:10892000100B51EC180B53EC102B002C0EDAFDF74A
:10893000DAFD9DED061B53EC112BFDF77BFE9DED43
:10894000061B53EC112BFDF772FE35E0FDF7CBFD56
:108950009DED061B53EC112BFDF76CFE41EC100B4B
:108960002F48784400EBC40090ED001B51EC100B35
:1089700053EC112BFDF758FE9DED061B53EC112B0C
:10898000FDF752FE41EC100B2648784400EBC40082
:1089900090ED001B51EC100B53EC112BFDF747FE33
:1089A00041EC100B002DA2BFBDEC068B02B070BDD8
:1089B00051EC100B81F0004141EC100B01E700007D
:1089C000000010440000F07F182D4454FB21F93FB3
:1089D000182D4454FB21F9BF0000DC3F0000203E6D
:1089E0000000F33F00000000000000000000F03F26
:1089F0000000E63F00000000000000000000004012
:108A00000080034000000000000000000000F83F6C
:108A1000000000000000F0BF5AD2000010D2000099
:108A20009AD1000052D1000070B56B4E2DED040BB1
:108A30002DED028B82B0DDF81CC0DDE905235C4220
:108A40002CF000411C4341EAD474049D22F0004004
:108A5000B44205D86C422C4340EAD474B4420BD9DA
:108A60009DED061B9DED040B02B0BDEC028B04B026
:108A7000BDE8704000F0AEBEACF14054A4F17F649C
:108A80001C430BD0022404EAAC7444EAD2740543BC
:108A90009FED538B9FED542B07D015E09DED040BFC
:108AA00051EC100B01F05EF942E0002C11BF012CDB
:108AB0009DED040B02B0BDEC028B04BF04B070BD91
:108AC000022C38D0032C3BD00B439FED491B9FED6C
:108AD0004A0B0AD0B14218D1B04209D121F08041ED
:108AE00020F08040079105900FE0002A15DA10E091
:108AF000434B7B44002C08BF93ED000B0DD0012CA1
:108B000010D0022C17D0032C1AD0B0421DD1002A4D
:108B100003DAB0EE410AF0EE610A02B0BDEC028B5E
:108B200004B070BD93ED000B51EC100B81F00041CF
:108B300041EC100BF1E7B0EE480AF0EE680AECE702
:108B4000B0EE420AF0EE620AE7E7401A00153C2850
:108B5000C8BF8DED000B19DCBCF1000FBEBF10F1DA
:108B60003C0F9FED290B8DED000B0FDB9DED060BF0
:108B700053EC102B9DED040B51EC100BFDF7CCFDCD
:108B800004F05CF801F0EEF8CDE90001002C08BF1C
:108B90009DED000BC1D0012C10D0022C9FED1C0BC1
:108BA00053EC102B9DED000B51EC100B0DD0FDF78D
:108BB0003BFD53EC182BFDF737FDB9E7019880F02A
:108BC000004001909DED000BA7E7FDF72DFD53EC54
:108BD000182BFDF72CFDABE70000F07F0000000034
:108BE000182D4454FB210940182D4454FB2109C081
:108BF000182D4454FB21F9BF182D4454FB21F93F93
:108C0000B2D00000000000000000000000000000E2
:108C1000075C143326A6A13C2DE9F0412DED020B93
:108C20009FED3D0B2DED028B9FED3D8BDDE9025459
:108C3000C4F30A50A0F2FF36142E37DA002E18DAE9
:108C400053EC102B9DED020B51EC100BFDF74BFC80
:108C500053EC182BFDF70AFE57D2002CBCBF4FF087
:108C60000044002551DB54EA050018BF2E4C1BD1EF
:108C70004BE02E4820FA06F704EA070028431FD0ED
:108C800053EC102B9DED020B51EC100BFDF72BFC60
:108C900053EC182BFDF7EAFD37D2002C03DD4FF41F
:108CA0008010F0400444BC4300252EE0332E07DC46
:108CB000A6F114004FF0FF3121FA00F73D4206D132
:108CC0009DED020BBDEC028B02B0BDE8F08153ECD0
:108CD000102B9DED020B51EC100BFDF7A8FC53EC93
:108CE000182BFDF7C3FD10D2002C0DDD142E08BF8C
:108CF000641C09D0C6F13400012101FA00F02844B7
:108D0000A84238BF641C0546BD43CDE902549DED21
:108D1000020BD7E7000000009C7500883CE4377E1A
:108D200000000000000000000000F03FFFFF0F0007
:108D300010B52F499FED2C1B2DED020B84B005982B
:108D400020F000408842D8BF9DED040B2DDD29495D
:108D5000884209D1049840B94FF0010000F096FD17
:108D600000F042FD06B010BD05DB9DED040B00F0E8
:108D700027FD06B010BD68469DED040B00F038F9E4
:108D800010F0030004BF9DED021B9DED000B0CD005
:108D900001280ED09DED021B9DED000B022817D07F
:108DA000012000F075FC06B010BD00F03DFB06B0E0
:108DB00010BD9DED021B9DED000B012000F068FC35
:108DC00051EC100B81F0004106B041EC100B10BDCE
:108DD00000F02AFB51EC100B81F0004106B041EC91
:108DE000100B10BD0000000000000000000000009B
:108DF000FB21E93F0000F07F2DED020B019820F0F0
:108E0000004001909DED000B02B070470000000093
:108E10002DE9F0412DED020B9FED3D0B2DED028B69
:108E20009FED3D8BDDE90254C4F30A50A0F2FF36FA
:108E3000142E37DA002E18DA53EC102B9DED020BAE
:108E400051EC100BFDF74FFB53EC182BFDF70EFD0B
:108E500057D2002CA4BF0024254652DA24F000404B
:108E6000284318BF2E4C4CD01AE02E4820FA06F7A3
:108E700004EA070028431FD053EC102B9DED020B92
:108E800051EC100BFDF72FFB53EC182BFDF7EEFC0C
:108E900037D2002C03DA4FF48010F0400444BC4376
:108EA00000252EE0332E07DCA6F114004FF0FF3131
:108EB00021FA00F73D4206D19DED020BBDEC028B7D
:108EC00002B0BDE8F08153EC102B9DED020B51EC8C
:108ED000100BFDF7ACFB53EC182BFDF7C7FC10D2C1
:108EE000002C0DDA142E08BF641C09D0C6F1340022
:108EF000012101FA00F02844A84238BF641C05464D
:108F0000BD43CDE902549DED020BD7E70000000000
:108F10009C7500883CE4377E0000000000000000E3
:108F20000000F0BFFFFF0F0010B52F499FED2C1B75
:108F30002DED020B84B0059820F000408842DCBF84
:108F400000209DED040B32DD2849884209D10498A8
:108F500040B94FF0010000F099FC00F045FC06B06C
:108F600010BD05DB9DED040B00F02AFC06B010BD22
:108F700068469DED040B00F03BF810F0030011D0A3
:108F8000012818D09DED021B9DED000B02281AD080
:108F900000F04AFA51EC100B81F0004106B041ECB0
:108FA000100B10BD9DED021B9DED000B012000F08C
:108FB0006FFB06B010BD9DED021B9DED000B00F098
:108FC00033FA06B010BD012000F062FB51EC100B2B
:108FD00081F0004106B041EC100B10BD0000000014
:108FE0000000000000000000FB21E93F0000F07FCE
:108FF0002DE9F14F04462DED020B2DED088B8AB0C3
:109000009FEDE70B80ED020B139EE74826F000452D
:1090100085420ADC9DED120B002084ED000B0AB0A6
:10902000BDEC088B03B0BDE8F08FE0489FEDE0ABEE
:109030009FEDE1BBA84247DDE14F9FEDE39B9FED34
:10904000E48B9DED120B53EC1A2B51EC100B002E00
:109050001CDDFDF7E9FA41EC100BBD4208D053ECE2
:109060001B2B51EC100BFDF7DFFAC4E900010BE0FC
:1090700053EC192B51EC100BFDF7D6FA53EC182BCF
:10908000FDF7D2FAC4E900010120C8E7FDF72BFA89
:1090900041EC100BBD4208D053EC1B2B51EC100BD4
:1090A000FDF721FAC4E900010BE053EC192B51EC58
:1090B000100BFDF718FA53EC182BFDF714FAC4E95E
:1090C00000014FF0FF30AAE7C348A84279DB9DEDCD
:1090D000120B51EC100B03F0B1FD41EC180B9FED9E
:1090E000C00B53EC102BFDF7A5FA9FEDBF1B53EC03
:1090F000112BFDF7F8F9FDF714FD0746FDF7F3FC1A
:1091000041EC190B53EC1A2BFDF794FA53EC182B86
:10911000FDF78DFA41EC180B53EC1B2B51EC190B9E
:10912000FDF788FADFF8C8A241EC100B4FEA15589A
:109130000125FA4453EC102B51EC180BFDF774FA8F
:10914000032DC4E900013DD0C1F30A5005EB4511E0
:10915000A8EB00001139814234DA0AEB051BB0EEAE
:1091600048AA9BED000BF0EE68AA53EC102B51ECD3
:10917000190BFDF75FFA41EC1B0B51EC1A0B53EC8A
:109180001B2BFDF751FA41EC180B51EC1A0B53EC69
:10919000182BFDF749FA53EC1B2BFDF745FA9BED15
:1091A000020B41EC1A0B53EC102B51EC190BFDF791
:1091B00041FA53EC1A2BFDF737FA41EC100B6D1CFA
:1091C000B8E70EE0002EA8BF3846BFF628AF94EDF2
:1091D000000B51EC100B81F00041C4E90001784212
:1091E0001DE7C6F3130040F4801EC6F30A50A0F238
:1091F000F530471100F01F05C5F12000DDF848B03B
:1092000008900020069007900520EC467949002D33
:1092100007EB0002794408BF51F8221009D051F839
:10922000223001EB8201AB404A68089922FA01F131
:109230001943A1FB0E26A1FB0B131A449A4234BF1B
:109240000123002303EB06080CEB8003D3E901A6FE
:109250000E448E4234BF0121002192448A4411B150
:10926000924502D903E0924501D2012100E000219C
:10927000C3E901A641444CF82010011EA0F10100F1
:10928000C4DC029800F10050850F0298DDE9036705
:109290008000DDF81480FDF726FC41EC1A0B304607
:1092A000FDF732FC9FED541B53EC112BFDF7C2F977
:1092B00041EC1B0B3846FDF727FC9FED511B53EC8F
:1092C000112BFDF7B7F941EC180B4046FDF71CFCDC
:1092D0009FED4D1B53EC112BFDF7ACF941EC190B35
:1092E00051EC180B53EC192BFDF7FDF853EC1B2B2D
:1092F000FDF7F9F853EC1A2BFDF7F5F8CDE9080165
:10930000002008909DED080B53EC1A2B51EC100B2C
:10931000FDF78AF953EC1B2BFDF786F953EC182B5C
:10932000FDF782F953EC192BFDF781F99FED381BFE
:1093300053EC112BFDF77EF99FED370B41EC180B29
:1093400053EC102B9DED080B51EC100BFDF772F94F
:1093500053EC182BFDF7C7F89FED310B41EC180BC0
:1093600053EC102B9DED080B51EC100BFDF762F93F
:1093700053EC182BFDF7B7F841EC100B139810F0D5
:10938000004F06D06D4251EC100B81F0004141ECD2
:10939000100B284684ED000B41E6000000000000A1
:1093A0000000000000000000FB21E93F7CD90240E2
:1093B00000004054FB21F93F3163621A61B4D03D93
:1093C000FB21F93F000000000000601A61B4D03DAD
:1093D0007370032E8A19A33BFB2139410000000062
:1093E00083C8C96D305FE43F000000000000E03F2B
:1093F0007ACA0000C8C90000000000000000103E4A
:10940000000000000000103C000000000000103AC6
:10941000182D4454FB21F93D3326A611460B113C6F
:1094200000000054FB21F93D10B52DED040B2DED8E
:10943000088B82B0B0EE419AF0EE619A0B9820F062
:1094400000449FED4BABB4F1795F11DA9DED0A0B4F
:1094500051EC100BFDF765FB002801BFB0EE4A0A86
:10946000F0EE6A0A02B0BDEC088B04BF04B010BD78
:109470009DED0A0B53EC102B51EC100BFDF7DAF8B5
:1094800041EC180B3C480621B0EE480AF0EE680AA1
:10949000784400F081F853EC182B51EC100BFDF7D9
:1094A000C9F89DED0A0B41EC1B0B53EC192B51EC49
:1094B000100BFDF7BFF841EC190B53EC1B2B51ECD3
:1094C000180BFDF7B7F853EC192BFDF7ADF89FED2E
:1094D0002C0B41EC190B53EC102B51EC180BFDF736
:1094E000A9F841EC100B2848844210DA53EC192BF0
:1094F00051EC100BFDF798F853EC1A2BFDF797F889
:1095000041EC100B02B0BDEC088B04B010BD1F483D
:10951000A042BCBF9FED1E1B8DED001B06DBA4F51A
:1095200000100190002000909DED001B51EC100BED
:1095300053EC112BFDF778F89DED000B41EC180B67
:1095400053EC102B51EC1A0BFDF76EF841EC1A0B93
:1095500053EC192B51EC180BFDF766F853EC1A2B52
:10956000FDF765F841EC100BCCE7000000000000AF
:10957000000000000000F03FE4C600000000000012
:10958000000000000000E03F3333D33F0000E93F1C
:10959000000000000000D23F70B504462DED028BA4
:1095A0004D1E00EBC500B0EE408AF0EE608A90EDF3
:1095B000000B35F0060017D053EC182B51EC100BB4
:1095C000FDF738F841EC100B6D1E04EBC50090ED73
:1095D000001B51EC100B53EC112BFCF784FF41ECFA
:1095E000100B35F00600E7D1022D36D0042D1CD02B
:1095F000062D1CBFBDEC028B70BD53EC182B51EC3B
:10960000100BFDF717F894ED0A1B53EC112BFCF728
:109610006AFF53EC182BFDF70DF894ED081B53EC83
:10962000112BFCF760FF41EC100B53EC182B51ECA5
:10963000100BFCF7FFFF94ED061B53EC112BFCF70E
:1096400052FF53EC182BFCF7F5FF94ED040B53EC91
:10965000102BFCF748FF41EC100B53EC182B51EC8E
:10966000100BFCF7E7FF94ED021B53EC112BFCF7FA
:109670003AFF53EC182BFCF7DDFF94ED001B53EC85
:10968000112BFCF730FFBDEC028B41EC100B70BDD1
:1096900031B504462DED040B2DED0A8BB0EE41BA29
:1096A000F0EE61BA0B989DED0A0B20F00040B0F18E
:1096B000795F0DDA51EC100BFEF780FE042808BF2D
:1096C00000F0A2F89DED0A0BBDEC0A8B05B030BD91
:1096D00053EC102B51EC100BFCF7ACFF41EC180BCA
:1096E0009DED0A0B53EC182B51EC100BFCF7A2FF6D
:1096F00041EC190B2C48B0EE480AF0EE680A05213F
:109700007844FFF749FF9FED2ACBB0EE40AAF0EE78
:1097100060AA9CB353EC1C2B51EC190BFCF78AFF8D
:1097200041EC1C0B53EC1A2B51EC190BFCF782FF8C
:109730009FED210B41EC190B53EC102B51EC1B0B43
:10974000FCF778FF53EC192BFCF76EFF53EC182B4A
:10975000FCF770FF53EC1B2BFCF766FF53EC1C2B44
:10976000FCF762FF9DED0A1B53EC112BFCF75FFF2A
:10977000BDEC0A8B05B041EC100B30BDFFE753EC9C
:109780001A2B51EC180BFCF755FF53EC1C2BFCF774
:10979000AAFE53EC192BFCF74DFF9DED0A1B53EC71
:1097A000112BFCF7A0FEE3E774C5000000000000E9
:1097B000495555555555C5BF000000000000E03F14
:1097C00010B553EC102B51EC100BFCF78CFE41EC58
:1097D000100B10BD10B553EC112B51EC100BFCF716
:1097E00082FE41EC100B10BD9FED050B10B553EC44
:1097F000102B51EC100BFCF78FFF41EC100B10BD40
:1098000000000000000000009FED050B10B553ECB8
:10981000102B51EC100BFCF70DFF41EC100B10BDA1
:10982000000000000000001002E008C8121F08C17C
:10983000002AFAD170477047002001E001C1121FD1
:10984000002AFBD1704700000146202908DA0120D8
:1098500088400A4A104008B1012070470020FCE708
:10986000402909DAA1F12000012202FA00F008B132
:109870000120F2E70020F0E70120EEE7FC06FFBD43
:1098800000BFEFF31081084672B6704701490860C7
:1098900070470000D438002070B505460C4605B16D
:1098A0000CB9002070BD287840082178B0EB510F2A
:1098B00001D00020F6E70622611C681CFCF706FEBA
:1098C00008B90120EEE70020ECE7014601F00300B3
:1098D00008B9012070470020FCE702465068006884
:1098E000401E084008B9012070470020FCE70246EE
:1098F000002104E0505C08B101207047491C062992
:10990000F8D30020F9E710B50346D868884206D896
:109910008818401E1C69A04201D8012010BD0020FB
:10992000FCE7000010B504466CB10848C068A042CE
:1099300009D806480069A04205D3204604F09BFAE6
:1099400008B1012010BD0020FCE70000D83800203D
:1099500070B504460D4604F24B20FFF7C8FF0646DB
:10996000012D06D0022D0DD0032D11D0042D19D1BB
:1099700013E0A07928B194F8240010B90EB10120A9
:1099800070BD00BFE07910B10EB10220F8E700BF52
:10999000207A08B10320F3E700BF607A08B1042001
:1099A000EEE700BF0020EBE70146481C052290FBD4
:1099B000F2F302FB1300C0B2704710B5012202217E
:1099C000002001F049FA044600BF1CB1072C01D069
:1099D000204610BD00BF07220221012001F03CFA01
:1099E000044600BF1CB1072C01D02046F1E700BFA0
:1099F0000A220021084601F02FFA044600BF1CB1DC
:109A0000072C01D02046E4E700BF0020E1E710B5B5
:109A100004462C212046FCF74EFD012020714020F9
:109A2000206144F25060606110BD000030B5ABB001
:109A3000AC216846FCF73FFD02208DF800000020B5
:109A40008DF8020005208DF803000121ADF84C10BF
:109A50000F49149101218DF87C104021229144F28C
:109A6000506123910B48299069460B4800F04FFB49
:109A7000044600BF254625B100BF284600F07CF80B
:109A800000BF00BF0121044800F03EFB2BB030BDF9
:109A9000142B0020E11C03000C3A002010B5032118
:109AA000014800F0EDFB10BD0C3A002070B58CB001
:109AB00004460D461646002005E0C0F10F01615C2A
:109AC0000DF80010401C1028F7D30D2104A8FCF756
:109AD000F2FC002005E02A5CC0F10F0304A9CA547F
:109AE000401C0328F7D3684646DF002005E0C0F19C
:109AF0000F0208A9895C3154401C0328F7D30CB02D
:109B000070BD000010B5044602480178204600F000
:109B10000FFD10BD4738002008B5009072B600BF99
:109B20001349096801F0010101B100BE00BF00BF87
:109B300000BF00BF00BF00BFBFF34F8F00BF00BF1B
:109B400000BF0B49E439096801F4E061094A114397
:109B5000091D074AE43A116000BF00BF00BFBFF310
:109B60004F8F00BF00BF00BF00BF00BFFDE7000078
:109B7000F0ED00E00000FA053EB50446002000903C
:109B80000190029002946A46002144F20100FFF71E
:109B9000C3FF3EBD10B503460C4600BF0B4880789E
:109BA00008B9082010BD00BF0AB90720FAE70BB9B1
:109BB0000720F7E71868007C08B10820F2E7196869
:109BC000002008744C744A6100BFEBE7E4430020B6
:109BD00010B509F0B5FD00200F49087048700B2042
:109BE000887000200D4908600D4908700D49087003
:109BF0001420FDF7CDFE06211420FDF7EDFE142004
:109C0000FDF7D2FE002009F071FD09F069FD06495B
:109C10000860002010BD0000E443002074380020DC
:109C20008438002085380020783800202DE9F04164
:109C300004460E461746254600BF1048807810B9E6
:109C40000820BDE8F08100BF0CB90820F9E7052E17
:109C500001D20720F5E7686908B90820F1E7687CB8
:109C6000012801D1304600E0002080463B464246B4
:109C7000314628460AF048FFE3E70000E4430020AD
:109C800070B50446254600BF0848807808B908200A
:109C900070BD00BF0CB1686908B90820F8E7002062
:109CA0002874022128460AF05EFFF1E7E443002011
:109CB00010B50446204609F0CDFD10BD70B5044630
:109CC00025460E488068B0B1ADB9FFF7D9FD06460C
:109CD0000A4800680A490860084840684FF0E021D7
:109CE000C1F804010020054988601EB900BF62B6B2
:109CF00000BF00BF00BF00BF70BD0000F0440020E7
:109D000000E100E0F8B505460C4617462088001D26
:109D1000B84201D90C20F8BD684679DF064600BF7D
:109D2000304600B1F7E700BF03202188685420883F
:109D3000401C20801920218868542088401C2080E5
:109D400020884119BDF800000AF0CAFF21880844A4
:109D500020800020DFE770B504460D46204604F061
:109D600013FA70BD10B541EC100BFEF7F1FC51EC8D
:109D7000100B10BD10B50446637903F0030221797E
:109D8000208804F01BF910BD10B50446207918B9DD
:109D9000204600F007F803E02046FFF7EBFF00BF86
:109DA00000BF10BD2DE9FC41064637884FF0000882
:109DB000002244480178384600F0D0FB7079C0F3A7
:109DC000800028B90021304608F0C0FBBDE8FC81C6
:109DD00007F5807188B26B460122072108F068FC04
:109DE000054645B12946384609F05AFF002130465C
:109DF00008F0ACFBEAE7384603F034FE04464FF6C1
:109E0000FF718C421BD1019803F07CFD04464FF694
:109E1000FF70844213D02146384603F001FE3846D5
:109E2000FFF770FE58B9384609F0CCFE3846FFF708
:109E300069FE20B90021304608F088FBC6E74FF6DE
:109E4000FF70844215D108F0BFFD04464FF6FF7045
:109E5000844208D10421384609F022FF002130460F
:109E600008F074FBB2E72146384603F0D9FD4FF005
:109E7000010807F5807188B22246072108F08EFCA0
:109E8000054625B90121304608F060FB17E0862D14
:109E900007D1384609F0C8FE0121304608F056FBCC
:109EA0000DE02946384609F0FBFE0021304608F057
:109EB0004DFBB8F1000F02D0204603F0BBFD00BF00
:109EC00084E70000443800202DE9F04104460F46A5
:109ED000154615B90E20BDE8F0810020286000BFAE
:109EE0000CB90E20F7E700BF00BF206808B90E20AC
:109EF000F1E700BF00BFE088C11700EB9171891046
:109F0000A0EB810109B10720E5E700BF384600F06A
:109F1000BFFAC6B2142E01D10520DCE72079B04289
:109F200001DC0420D7E7E188206806FB01002860F7
:109F30000020D0E72DE9FC4105468846164600245E
:109F400037880020308095F82D0058B13A463146C8
:109F5000404600F02FFB044600BF204608B1BDE894
:109F6000FC8100BFA87850B13A4631464046FFF721
:109F7000C9FE044600BF204600B1F0E700BFE87804
:109F800060B1E97848B23B463246414602F050FFA4
:109F9000044600BF204600B1E1E700BF686868B131
:109FA000696891F900003B46324641460AF077FE67
:109FB000044600BF204600B1D1E700BF2889002831
:109FC0000EDD43460622022105F10800CDE90067B7
:109FD0000AF046FF044600BF204600B1BFE700BFBD
:109FE000288A00280EDD43460722032105F11000D0
:109FF000CDE900670AF034FF044600BF204600B1F7
:10A00000ADE700BF288B00280EDD43461522142142
:10A0100005F11800CDE900670AF022FF044600BFF1
:10A02000204600B19BE700BF286A58B13B46324644
:10A030004146286A01F000FC044600BF204600B1FA
:10A040008DE700BF686A58B13B4632464146686AB0
:10A0500005F03EF8044600BF204600B17FE700BF90
:10A0600095F82C0000280BDD3B4632464146284639
:10A0700009F032FF044600BF204600B16FE700BF81
:10A08000287858B13B4632464146284605F015FE31
:10A09000044600BF204600B161E700BF20465EE7EE
:10A0A000F8B504460E461546002000902B466A4639
:10A0B0003146204600F008F807460FB90020F8BDE9
:10A0C000BDF800002044FAE730B504460D4604B15F
:10A0D0000AB9002030BD002103E0605C401C084448
:10A0E00081B21088884203DC481C205C984201D071
:10A0F000A942F2DBA94201DB0020EBE7881C1080BB
:10A10000605C401E80B2E5E780F83010704770B5A3
:10A1100004460D4605B10CB90E2070BD05F178005E
:10A1200001F0CAFA08B90720F7E70020A0702C2236
:10A1300005F17801201DFCF7A5F9002084F8300016
:10A14000D5F8A4006063D5F8A800A0634FF6FF70AF
:10A15000A4F8480204F50D70C4F8440200214FF43D
:10A160001470C4F84A12A4F84E120155207810B9A0
:10A17000FF2084F8540004F15500C4F8340294F828
:10A180002400012804D1EE214FF40E70015303E0A6
:10A190001F214FF40E70015304F50E7204F15501A6
:10A1A0002846FFF7C7FE064600BF304600B1B4E7B9
:10A1B00000BF04F243104FF40F71085194F82400CB
:10A1C000012803D1EE21A4F8401202E01F21A4F8D7
:10A1D00040124FF40F70015904F5107205F13C0064
:10A1E000FFF7A8FE064600BF304600B195E700BF66
:10A1F000012151200155208B81B2482001530120BB
:10A2000084F83C000021216450200155616961649B
:10A2100004F13C02002104F1540072DF064600BF45
:10A22000304600B179E700BF01202070304674E766
:10A2300070B504460D462C222946201DFCF722F954
:10A2400070BD70B504460D462E462088102804D0F7
:10A25000112807D026280FD109E02146304607F003
:10A26000EDFD0AE02146304607F0B8FE05E0214644
:10A27000304608F00EF800E000BF00BF70BD704728
:10A2800070B504460E46207808B9082070BDA67047
:10A2900000214FF41470C4F84A12A4F84E1201556C
:10A2A000A07910B1A078012809D0E07910B1A07888
:10A2B000012804D0E07970B1A07802280BD1606B3E
:10A2C00030B1012084F851020820616B884702E018
:10A2D000002084F8510231462046FFF739FBA07078
:10A2E000606BA0B1A078032802D0A07804280ED11A
:10A2F000607960B194F8520248B9002084F85402A1
:10A30000012084F853020720616B884702E0002097
:10A3100084F85302182104F13C00FCF7CCF801202A
:10A3200084F83C0004F12C0008F071FC20B194F892
:10A330002C105120015502E001215120015594F8C3
:10A34000240060B104F12C0008F061FC20B194F805
:10A3500028105220015502E0012152200155002110
:10A3600050200155A078052824D2DFE800F01F0313
:10A370000A11180004F13C01204609F03FFE054691
:10A3800019E004F13C01204609F020FE054612E0E8
:10A3900004F13C01204609F043FE05460BE004F1C0
:10A3A0003C01204609F06AFE054604E0002084F8DE
:10A3B000310000E000BF00BFA07898B104F13C027A
:10A3C00004F15400D4F8441272DF05460DB128465A
:10A3D0005CE794F8301094F8540073DF05460DB133
:10A3E000284653E7606B18B194F83100616B8847D9
:10A3F00000204BE72DE9F041044600BF14B90E20C0
:10A40000BDE8F08100BF1C2221461C48FCF73AF849
:10A410001B481A490860206860B120687ADF054649
:10A420000DB12846ECE7164821680A6802604968C1
:10A43000416005E012487BDF05460DB12846DFE7A5
:10A44000002617E006EB86000E4901EB800700BFEF
:10A450004FF6FF70388000BF0B4800EB4610786065
:10A460000A4A0021381DFFF795FB05460DB1032070
:10A47000C6E7761C002EE5D00020C1E7F83E00209C
:10A48000F8370020E43E0020C43E0020454D030084
:10A4900010B50446204600F07FF808B1204610BDF4
:10A4A0001420FCE710B50446204600F075F820B1F2
:10A4B0002146034805F03DFD10BD0020FCE70000EB
:10A4C000243F002070B504460D46034988682A469B
:10A4D000214602F005FD70BD143F002070B5044612
:10A4E0000D46164620460AF077FC08B9002070BDDC
:10A4F000034951F824003246294602F0F1FCF6E700
:10A500002C3F002070B504460025204600F044F89A
:10A5100050B12146054805F00CFD06460EB102205B
:10A5200000E00120054600BF284670BD203F002006
:10A5300070B505460C4620460AF04EFC50B1284640
:10A5400000F02AF830B1044901EB8400294605F0F7
:10A55000F0FC70BD0020FCE72C3F002070B50546E4
:10A560000C46164620460AF037FC88B1284600F013
:10A5700013F868B136B1074901EB8400294605F0AC
:10A58000E7FC05E0034901EB8400294605F07BFC6C
:10A5900070BD00002C3F002010B50446142C01DBD8
:10A5A000002010BD2146024805F0C3FCF9E7000079
:10A5B000183F00202DE9FC4105460C46174620882F
:10A5C0000930B84202D90C20BDE8FC8168466DDF35
:10A5D000064600BF304600B1F6E700BF08202188DC
:10A5E00068542088401C20801B20218868542088C3
:10A5F000401C208020882844DDF801100160BDF84F
:10A60000051081802088801D20809DF80000400872
:10A6100018B900202188685402E00120218868547C
:10A620002088401C20800020CEE710B54FF0FF317D
:10A6300000203DDF044600BF204600B110BD00BF32
:10A64000B12100203CDF044600BF204600B1F5E701
:10A6500000BF022006F006F90020EFE710B5FFF773
:10A66000E4FF0446204610BD70B504460D4600BF09
:10A6700004B970BD00BF2088502816D004DC102813
:10A6800007D0112819D108E051280AD0532814D135
:10A690000FE0204607F0CCFB10E0204607F090FCCE
:10A6A0000CE0204607F09EFD08E0204607F098FEEB
:10A6B00004E0204607F01EFD00E000BF00BF00BF21
:10A6C000D7E7000070B504460426207B012802D09D
:10A6D000022822D109E001F09BFF05460DB90126B1
:10A6E00002E0112D00D1062619E0607B142801DC60
:10A6F000607B08B905260FE0627B04F10E01124869
:10A70000FBF7C0FE607B1049091F8861084609F00D
:10A71000E3FC054605B9012601E0022600BF00BFA3
:10A72000012E0FD0207B314600F058F8054625B1A8
:10A730000648006841690320884704480068416969
:10A740000220884770BD00009C4200206038002035
:10A7500070B505460E4600BF1E48006820B11D4872
:10A76000406808B1012000E0002000B970BD00BFC2
:10A77000184800F10801426828469047044600BF87
:10A78000082C24D07CB9002013490968887601215F
:10A79000022000F023F80446CCB10F48006841695C
:10A7A0000320884713E000200B49096888760621BA
:10A7B000022000F013F8044624B1074800684169FC
:10A7C000032088470448006841690220884700BF89
:10A7D000CCE700008C42002060380020F0B587B044
:10A7E00004460D4603270020019002900390049038
:10A7F0000320069020208DF814008DF815408DF868
:10A8000016500E48C088ADF8040002208DF80600EE
:10A810000020ADF8080006A8039005A80490074999
:10A82000888801A9AEDF064626B9BDF818000328BE
:10A8300000D00C26304607B0F0BD0000704200206A
:10A84000F8B505460F462888212833D006DC1028A5
:10A850000BD0112829D013287BD13BE03B285BD0BB
:10A86000522848D0562874D164E0072000F022FB1B
:10A87000044600BF264626B100BF3046FFF77CF9EC
:10A8800000BF00BFA88834490880084601883348C3
:10A8900005F057FC044600BF264626B100BF3046EF
:10A8A000FFF76AF900BF00BF54E04FF6FF702A4976
:10A8B00008804FE000200090A88869468FDF04469A
:10A8C00000BF264626B100BF3046FFF755F900BF4E
:10A8D00000BF3FE000231A4685211F4800887FDF24
:10A8E000044600BF264626B100BF3046FFF744F9B4
:10A8F00000BF00BF2EE000231A4619461648008804
:10A90000B1DF044600BF264626B100BF3046FFF740
:10A9100033F900BF00BF1DE0A888132176DF04468D
:10A9200000BF264626B100BF3046FFF725F900BF1D
:10A9300000BF0FE0A888132176DF044600BF26463B
:10A9400026B100BF3046FFF717F900BF00BF01E096
:10A95000FFE700BF00BFF8BD102B0020783C0020AF
:10A9600070B505460E462888102802D011282CD133
:10A9700015E01748006860B901F040F8044600BFD0
:10A9800034B11448006818B1204612490968884754
:10A9900000BF0F480068401C0D49086016E00C48D5
:10A9A0000068401E0A4908600846006860B9FFF761
:10A9B00004F8044600BF34B10648006818B12046C8
:10A9C00004490968884700BF00E000BF00BF70BDB0
:10A9D000F4370020F037002070B504460D4620887B
:10A9E000102806D0112808D012280ED0502810D1D7
:10A9F00007E0204607F0AAF90CE0204607F0C6FA67
:10AA000008E0204607F076FC04E0204607F086F9CF
:10AA100000E000BF00BF70BD2DE9F041044688464C
:10AA2000A5882088102804D0112815D01A2847D1CD
:10AA300016E008F0FBFD284608F082FC20B900BFB4
:10AA40000420FFF799F806E0E07B012803D02946AF
:10AA50001D4805F07DFA33E0284608F00BFE2FE094
:10AA6000207A0121B1EB101F01DA012000E0002063
:10AA70000646207A0221B1EB101F01DA012000E026
:10AA8000002007468EB129460F48001D05F060FAE8
:10AA90002FB129460C48083005F05AFA0FE0294634
:10AAA0000948083005F0EFF909E029460648001D7D
:10AAB00005F0E9F929460448083005F0E4F900BF3B
:10AAC00000BFBDE8F0810000203F002070B50446C3
:10AAD0000D4600BF0748007800B970BD00BF204692
:10AAE00002F07AFE204609F0FFFB204602F010FC3F
:10AAF00000BFF2E73438002070B58EB004460E4631
:10AB00003E4B0FCB09AD0FC500BF14B90E200EB0E0
:10AB100070BD00BF00BF0EB90E20F8E700BF30685F
:10AB2000A061214609A862DF054600BF284600B1A2
:10AB3000EDE700BF20788DF836000120ADF8340035
:10AB4000A21C0DA9A8DF054600BF284600B1DEE71C
:10AB500000BF202101A8FBF7AEFC0220ADF80400E5
:10AB600020788DF80600F420ADF808000120ADF83B
:10AB70000A008DF810009DF8110020F00800083040
:10AB80008DF811009DF8110020F00400001D8DF8D3
:10AB9000110001208DF815008DF81600608804F171
:10ABA0000C0201A900F0FEFB05460DB12846AEE7F8
:10ABB000202101A8FBF77FFC0320ADF804002078DA
:10ABC0008DF80600F420ADF808000120ADF80A0069
:10ABD0008DF810009DF8110020F0100010308DF855
:10ABE000110001208DF815008DF816008DF8170062
:10ABF0006088221D01A900F0D5FB88E72C580300CE
:10AC000070B504460D4605B104B970BD2E462088C6
:10AC1000102804D0502807D057280FD109E021462A
:10AC2000304607F0CBF80AE02146304607F08EFBAD
:10AC300005E02146304607F073FA00E000BF00BF90
:10AC400000BFE2E770B5044620460AF043F8054627
:10AC5000C5F3400070BD70B5044620460AF03AF8CE
:10AC6000054605F0010070BD38B506F03FF8044612
:10AC700000BF254625B100BF2846FEF77DFF00BF77
:10AC800000BF002000906946012005F053FF0446F4
:10AC900000BF254625B100BF2846FEF76DFF00BF67
:10ACA00000BF684605F0A4FF044600BF254625B155
:10ACB00000BF2846FEF760FF00BF00BF38BD0000A0
:10ACC00010B502460949885C00BF4FF0A0442146F8
:10ACD000D1F80435012484409C43C1F8084501247F
:10ACE00084401C40C1F80C4500BF10BD86560300CF
:10ACF00010B504460249085D012105F0DAFC10BDDB
:10AD00008656030010B504460249085D002105F08F
:10AD1000D0FC10BD8656030010B50146094B585CA7
:10AD200000BF4FF0A044234600BFD3F80445C44001
:10AD300004F001040CB1012000E00020024682F082
:10AD4000010010BD8656030010B5002403E0204624
:10AD5000FFF7CEFF641C042CF9D310BD10B50024FE
:10AD600003E02046FFF7CEFF641C042CF9D310BD8E
:10AD700002464FF0FF30002106E0054B5B5C93423A
:10AD800001D1084602E0491C0429F6D300BF7047F0
:10AD90008A5603002DE9F04106460F464FF00008A1
:10ADA00000243046FFF7E4FF0446042C3ED20FB3E4
:10ADB000012F02D0022F38D130E004EB44002149AA
:10ADC00011F8008004EB44000844407850B11E4A5A
:10ADD0004FF400411D480068FEF728FF05460DB9F5
:10ADE0001948067004EB4400164908448078184955
:10ADF00008551AE015480068FEF742FF1448005D48
:10AE000004EB44010F4A11448978884205D104EBD0
:10AE100044001146084490F8028006E004EB440028
:10AE20000849084490F8018000BF00BFB8F1000F46
:10AE300006D00848006818B14046064909688847A6
:10AE4000BDE8F081983E0020E837002098560300C6
:10AE5000E9370020E437002030B503460020042BFA
:10AE600023D2012A07D1012903D103F10E04E4B250
:10AE700000E00024224679B1012902D0022911D133
:10AE800004E003EB43040A4D2A550DE003EB4304B1
:10AE9000074D2C44627007E003EB4304044D2C443F
:10AEA000A27001E0072000BF00E0072030BD0000D5
:10AEB000983E002070B5044600250548007800F053
:10AEC000010018B1204600F005F80546284670BD7F
:10AED000DC3700202DE9F047044600260025DA483B
:10AEE000007820B10020D849087002F0D3FF182C58
:10AEF0007ED2DFE804F00C16174A7EB2F6F4F3F2C5
:10AF0000F1F0EFEEEDECEBEAE9E8E7E6E5E402F07C
:10AF1000C1FFCE480068FEF7B3FE0646CC48047079
:10AF20008DE100BF0020FFF7F7FE58B10020FFF7CA
:10AF3000DFFE022C02D14FF4E16001E04FF47A60B1
:10AF4000054609E00020FFF7DDFE022C01D1C820F4
:10AF500001E04FF4C8700546BD4804704FF400404E
:10AF6000A5FB00104FF4FA73CF1840F100015A000E
:10AF700000233846FBF736FA814600224946B3489B
:10AF80000068FEF753FE064659E10020FFF7C4FEB5
:10AF900058B10020FFF7ACFE032C02D14FF44870EB
:10AFA00001E04FF47A60054609E00020FFF7AAFEB1
:10AFB000032C01D1C82001E04FF4C8700546A44815
:10AFC00004704FF40040A5FB00104FF4FA728F1884
:10AFD00040F10001520000233846FBF703FA814696
:10AFE0000022494699480068FEF720FE064626E101
:10AFF00024E10020FFF790FE58B10020FFF778FE13
:10B00000042C02D14FF47A6001E04FF47A600546D7
:10B010000AE00020FFF776FE042C02D14FF4C8703E
:10B0200001E04FF4C8700546894804704FF40040B1
:10B03000A5FB00104FF4FA73CF1840F100015A003D
:10B0400000233846FBF7CEF98146002249467F4867
:10B050000068FEF7EBFD0646F1E00020FFF75CFE1E
:10B0600050B10020FFF744FE052C01D1C82001E0BB
:10B070004FF47A60054609E00020FFF743FE052CF7
:10B0800001D1C82001E04FF4C87005467048047033
:10B090004FF40040A5FB00204FF4FA73D71840F19D
:10B0A00000015A0000233846FBF79CF98146002234
:10B0B000494666480068FEF7B9FD0646BFE0B8E0BD
:10B0C000B6E0AAE0A1E098E092E05FE05DE05BE03E
:10B0D00059E057E051E042E033E024E015E00EE0B3
:10B0E000FFE70020FFF7ECFD59480470002240F60E
:10B0F000CD4156480068FEF799FD06469FE00020C6
:10B10000FFF700FE5248047099E001204E49087094
:10B11000FFF7D6FD002240F6CD414C480068FEF70F
:10B1200085FD06468BE0012047490870FFF7C8FD02
:10B1300000224FF4804145480068FEF777FD06463F
:10B140007DE0012040490870FFF7BAFD002240F67B
:10B15000CD413E480068FEF769FD06466FE00120DC
:10B1600039490870FFF7ACFD00224FF480413748A1
:10B170000068FEF75BFD064661E0FFF7EFFD34482F
:10B1800004705CE000BF00BF00BF00BF3148006832
:10B19000FEF776FD0646C4F1110515B30EBB012D71
:10B1A00018D9A8B2C82148434FF4004180FB0110D0
:10B1B0004FF4FA728F1840F1000152000023384614
:10B1C000FBF710F981460022494622480068FEF745
:10B1D0002DFD06460220FFF795FD01201E4908704F
:10B1E00005E00220FFF784FD00201B49087026E0DF
:10B1F00002F050FE1648047021E002F04BFE0020E1
:10B20000FFF780FD1248047019E002F043FE0120B0
:10B21000FFF778FD0E48047011E002F03BFE0020BD
:10B22000FFF770FD0120FFF76DFD0948047006E08F
:10B2300000BFFFF793FD0648047000E000BF00BFA9
:10B240003046BDE8F0870000D93700209056030053
:10B25000D837002094560300E03700207CB5044620
:10B26000204602F0FFFB054600236A46092107F04D
:10B2700013FB052805D10122024801782046FFF77B
:10B280006DF97CBD103800207CB504460E460020C8
:10B29000019042F6A620ADF8040001208DF80600CA
:10B2A0000748006800906A4601A92046A0DF0546CD
:10B2B0002DB90122034801782046FFF74FF97CBDE4
:10B2C0000C5703001138002001468879012809D164
:10B2D0000879012806D1488842F60212904201D12D
:10B2E000012070470020FCE74FF0FF31054A42F88B
:10B2F0002010082804DBFF23A0F108014432535436
:10B3000070470000404300200146024850F82100E9
:10B3100070470000404300202DE9F04F03460C46E3
:10B320004FF0FF390AB1002000E0082084460AB13E
:10B33000082000E009208046614624E0154850F8C6
:10B340002100401CF0B91D460846274616464FFA14
:10B3500080FBDFF840A00AF1240A0AF805B0DFF804
:10B3600034A04AF820704EB94FFA85FBA0F1080AC4
:10B37000DFF820E00EF1440E0EF80AB000BF4FFADD
:10B3800081F902E0491C4145D8D300BF4846BDE8D9
:10B39000F08F0000404300200146014840567047AE
:10B3A0006443002070B590B006460C461546A07860
:10B3B00018B901208DF80E0002E0A0788DF80E007B
:10B3C0002088ADF80C0000200290607C02A908F0F3
:10B3D000B7FEA07C0DF1090108F0B2FEE07B08B1D8
:10B3E000012000E000209DF80A1060F3C3018DF8F1
:10B3F0000A10207C08B1012000E000209DF80A100E
:10B4000060F304118DF80A10207B08B1012000E0E0
:10B4100000209DF80A1060F300018DF80A10207DCD
:10B4200008B1022000E001209DF80A1060F34201FB
:10B430008DF80A101C2109A8FBF73DF8607BC0F3CA
:10B44000001018B9607BC0F34010F8B100200090E4
:10B45000E07C0DF1010108F073FE00BF9DF80000D3
:10B4600020F00F00401C8DF800009DF8000020F037
:10B47000F00010308DF8000000BF9DF8020020F0B1
:10B480000600801C8DF80200CDF838D0607B8DF866
:10B490002400A07B8DF82500142104A8FBF70BF8ED
:10B4A00003A8049002A80590A088ADF81C00A0682D
:10B4B00020B1E088ADF81800A0680890A0690028C5
:10B4C00049D000200190A0690088ADF82C00A06947
:10B4D0004088ADF82E00A06940680A9001A80D9040
:10B4E000A169087B01A908F02BFEA169487B0DF139
:10B4F000050108F025FEA069807A08B1012000E06E
:10B5000000209DF8061060F3C3018DF80610A069B5
:10B51000C07A08B1012000E000209DF8061060F319
:10B5200004118DF80610A069007A08B1012000E02E
:10B5300000209DF8061060F300018DF80610A06948
:10B54000807B08B1022000E001209DF8061060F326
:10B5500042018DF80610E06908B1E0690C902B46B5
:10B5600004AA09A93046AADF10B070BD2DE9F04148
:10B5700004460D464FF6FF76304684420AD14FF41A
:10B580008071284604F0A5FC86B2B6F5807F10D104
:10B5900026460EE0FF2C0CDC2146284604F082FCF7
:10B5A00080F001070FB1204601E04FF6FF7006461C
:10B5B00000BF3046BDE8F08170B505460DB9094CB5
:10B5C00001E0084C083409E0204602F05CFC064625
:10B5D00006B904E028467168884700BFF4E700BF59
:10B5E00070BD0000BC42002010B504462CB90120FB
:10B5F000064948700020FFF7DFFF012C04D101202D
:10B6000002498870FFF7D8FF10BD0000B442002047
:10B6100010B5044620784F2802D108F0F1FD00BF94
:10B6200000BF00BF10BD00002DE9F04782461F4853
:10B630000068002836D01D480068056808F050F8FA
:10B6400007461B4804682146384609F09DF9C61C88
:10B650001848007808B908F055F8AE4201D22846DB
:10B6600000E03046044424F07F44204608F032F8DD
:10B6700008F036F880463946404609F085F900F171
:10B6800003093946204609F07FF9814509D908F0B8
:10B6900027F8814608F01EF82F2005F09FFC09F0DE
:10B6A000CFFA01E008F04CF8BDE8F08774380020CC
:10B6B000783800208638002001468878012805D196
:10B6C00091F82000012801D100207047886A0428E1
:10B6D00002D0486A042801D10020F6E70120F4E7EF
:10B6E0002DE9FF4F03460C46002047E0225CFF2A6D
:10B6F0003ED0C2F3C01922F080014DF82010B9F1FC
:10B70000000F0DD05DF8201000BF4FF0A0452E4671
:10B71000012707FA01F5C6F8085500BF00BF0DE084
:10B720005DF8201000BF4FF0A0452E46012707FA14
:10B7300001F5C6F80C5500BF00BF00BF5DF8201032
:10B7400001252E460027BC46B84600BF4FF0A04B4F
:10B75000DA4645EA460B4BEA870B4BEA0C2B4BEAE1
:10B76000084E0AF5E06B4BF821E000BF00BF03E094
:10B770004FF0FF314DF82010411CC8B20428B5DB52
:10B780006D461A68002107E055F8217002F5AC6695
:10B7900046F821704E1CF1B20429F5DB00BFBDE86C
:10B7A000FF8F33B58BB00546002000900C9878B120
:10B7B00000240BE021460CA804F0BBFB28B1009A42
:10B7C000501C009001A820F81240641C142CF1D3E6
:10B7D0002C2269462846FAF755FE0DB030BD0146C9
:10B7E0000888062808DB0888B0F5486F06DD088859
:10B7F0004FF6FF72904201D0072070474888062814
:10B8000008DB4888B0F5486F06DD48884FF6FF72C0
:10B81000904201D00720F0E708884FF6FF7290426F
:10B8200008D04888904205D008884A88904201DDB7
:10B830000720E2E70020E0E72DE9F04107460D464A
:10B84000144698462088801D404502D90C20BDE84A
:10B85000F0813846FFF7C3FF064600BF304600B10F
:10B86000F5E700BF0520218868542088401C20800F
:10B870001220218868542088401C20802288511979
:10B88000388809F02DFA218808442080228851192F
:10B89000788809F025FA2188084420800020D6E71E
:10B8A00010B5044600BF2046FEF766F900BF10BD84
:10B8B00030B587B01C216846FAF7FDFD00200090E6
:10B8C0004FF4203001904FF47020029003208DF847
:10B8D0000C000020ADF80E008DF81000094805900E
:10B8E000094806906846FEF785FD044600BF2546D8
:10B8F00025B100BF2846FEF73FF900BF00BF07B0E3
:10B9000030BD0000F11C0300A1B80200F8B50546E7
:10B910000C46607A88B9207A10B91048476801E06F
:10B920000E4887682A4639466068FEF77FF9064662
:10B9300016B1304608F058F90EE000202072074892
:10B94000406948B101208DF80000ADF8025003486D
:10B9500041696846884700BFF8BD0000F83E0020F6
:10B96000F0B587B004460D4617461E4618220B490F
:10B9700001A8FAF787FDADF806408DF80C50ADF838
:10B980000E708DF810600022054801782046FEF701
:10B99000E5FD01A801F002F907B0F0BDE85703008A
:10B9A0004438002010B586B00446208806F09AFD81
:10B9B00000BB2088FEF776FD30B92088012241F2D5
:10B9C000060100F019FE15E0208800220A490978D6
:10B9D000FEF7C4FD02208DF800002088ADF80200BB
:10B9E00000208DF8080000218DF80910684601F04C
:10B9F000D5F800BF06B010BD4438002010B50122B4
:10BA000000210846FFF728FA044600BF1CB1072CA6
:10BA100001D0204610BD00BF072202210120FFF700
:10BA20001BFA044600BF1CB1072C01D02046F1E7E9
:10BA300000BF042202210020FFF70EFA044600BFD7
:10BA40001CB1072C01D02046E4E700BF0020E1E74D
:10BA50007FB506460C46002002900390ADF80840E2
:10BA6000ADF80A40009001906A4602A9304690DF86
:10BA7000054605B100BF284604B070BD2DE9F04170
:10BA800005460F460F4C0121204604F0A3FA064656
:10BA900000BF00BF00BF00BFBFF35F8F00BF00BF8C
:10BAA00000BF0EB9012000E0002040B1284602F09E
:10BAB000B7FB08B1BDE8F081024804F051FE00BFB9
:10BAC000F8E70000083800202DE9F0410446E0784E
:10BAD00000F0C006E07800F03F05607800F001005B
