:020000040002F8
:10600000D05A0020C1630200C963020095670200F4
:10601000CD630200CF630200D163020000000000E4
:10602000000000000000000000000000D363020038
:10603000D563020000000000D7630200D9630200AC
:10604000F56B0200DB630200697202003D6F020023
:10605000516F0200DB63020065650200716D020092
:10606000DB6302000972020021720200DB6302009E
:10607000DB630200DB630200DB630200DB63020020
:10608000DB6302003D6D0200DB630200DB630200A4
:10609000656F0200DB6302006D6F0200DB630200CC
:1060A000DB630200DB6302003972020051720200FE
:1060B000496C0200DB6302000000000000000000E9
:1060C000DB6302005D6C0200DB630200DB63020045
:1060D000DB630200DB630200DB6302000000000000
:1060E00000000000000000000000000000000000B0
:1060F00000000000000000000000000000000000A0
:10610000000000000000000000000000000000008F
:10611000000000000000000000000000000000007F
:10612000000000000000000000000000000000006F
:10613000000000000000000000000000000000005F
:10614000000000000000000000000000000000004F
:10615000000000000000000000000000000000003F
:10616000000000000000000000000000000000002F
:10617000000000000000000000000000000000001F
:10618000000000000000000000000000000000000F
:1061900000000000000000000000000000000000FF
:1061A00000000000000000000000000000000000EF
:1061B00000000000000000000000000000000000DF
:1061C00000000000000000000000000000000000CF
:1061D00000000000000000000000000000000000BF
:1061E00000000000000000000000000000000000AF
:1061F000000000000000000000000000000000009F
:10620000DFF80CD000F070F9004800478DA90200BB
:10621000D05A002030B450E8012F93B2C4892344EF
:106220008489A34228BF1B1B0489A34202BFBFF37A
:106230002F8F002007E0C3EA020340E80134002C5E
:10624000E9D14FF001000A6030BC704750E8012FDF
:10625000C2EA024240E801210029F7D1704730B478
:1062600050E8022F1FFAA2F3C488A34202BFBFF373
:106270002F8F00200DE0C48923448489A34228BFC6
:106280001B1BC2EA034340E80234002CE8D14FF064
:1062900001000A6030BC704750E8022FC2EA224277
:1062A00040E802210029F7D17047034653E8022F46
:1062B000D988B2EB324F4FF0000017BF92B241EADB
:1062C000014142EA014104E05A68B2EB324F08BF93
:1062D000012043E80212002AE8D1704730B4044696
:1062E00054E8000F0D4644E80053002BF8D1156028
:1062F00030BC704730B4044654E8000F40EA010552
:1063000044E80053002BF7D1156030BC704730B41F
:10631000044654E8000F00EA010544E80053002B4E
:10632000F7D1156030BC704730B4044654E8000F14
:1063300080EA010544E80053002BF7D1156030BC1A
:10634000704730B4044654E8000F00EB010544E800
:106350000053002BF7D1156030BC704730B40446B1
:1063600054E8000FA0EB010544E80053002BF7D1DF
:10637000156030BC704770B404464FF0000054E81C
:10638000006F0D68AE4207BF44E80023012044E8D7
:1063900000630E60002B1CBF0020F0E770BC70474C
:1063A00030B4044654E8000F88422CBF451A054615
:1063B00044E80053002BF5D1156030BC7047000055
:1063C0000648804706480047FEE7FEE7FEE7FEE78F
:1063D000FEE7FEE7FEE7FEE7FEE7FEE7856F020069
:1063E000016202002DE9F05F0546002092469B46BF
:1063F00088460646814640241BE0284641464746DB
:10640000224600F02FF853465A46C01A914110D345
:1064100011461846224600F016F82D1A67EB0108BF
:106420004F4622460120002100F00DF817EB00092D
:106430004E41201EA4F10104DFDC484631462A46C5
:106440004346BDE8F09F202A04DB203A00FA02F11F
:10645000002070479140C2F1200320FA03F3194352
:1064600090407047202A04DB203A21FA02F00021F4
:10647000704721FA02F3D040C2F120029140084354
:106480001946704740EA01039B0703D009E008C999
:10649000121F08C0042AFAD203E011F8013B00F8E9
:1064A000013B521EF9D27047D2B201E000F8012B35
:1064B000491EFBD270470022F6E710B513460A4684
:1064C00004461946FFF7F0FF204610BD30B50446DC
:1064D0000020034600E05B1C934203D2E05CCD5CED
:1064E000401BF8D030BD0000064C074D06E0E068C8
:1064F00040F0010394E8070098471034AC42F6D30B
:10650000FFF782FEF4FC020014FD020070B58C1847
:1065100010F8015B15F0070301D110F8013B2A11B7
:1065200006D110F8012B03E010F8016B01F8016BA4
:106530005B1EF9D12B0705D40023521E0DD401F8A0
:10654000013BFAE710F8013BCB1A921C03E013F869
:10655000015B01F8015B521EF9D5A142D8D300209E
:1065600070BD00002DE9F04F89B000270020089091
:106570004FF4807007900126002412E0079804F081
:1065800033FF40B100BF7B480068304018B1079826
:1065900004F01CFF374376000798001D80B2079077
:1065A000641C082CEAD34FF4BE7004F01DFF50B1F8
:1065B0004FF4BE7004F00AFF47F0004708AA01211B
:1065C000002004F0E9FEF8B200B3012600241BE02D
:1065D00006EA0700B0B100BF674850F82400C0F3D6
:1065E0000420804600BF644850F82400C0F30140F6
:1065F0008146204602F06EF9054615B149464046EF
:10660000A84700BF7600641C082CE1D307F00040C7
:1066100000287DD0002006900590002505E04FF071
:10662000FF3004A941F825006D1C002DF7D000BFF4
:106630000020069000245FE05048005D039003981E
:1066400020F0C0094D480057401C002853D004A931
:10665000484604F06EFB00284DD003984FEA901A8C
:10666000484602F03FF9804602F034F90290029861
:1066700010B9BAF1030F3DD1BAF1030F03D105A947
:10668000484604F061FB00BF00BF4FF0A041084640
:1066900000F5E06151F82910C1F3014800BF08A9D5
:1066A000484604F046FB8346BBF1000F02D0B8F128
:1066B000020F05D0BBF1000F1BD1B8F1030F18D1A9
:1066C000BAF1030F0FD1B8F1020F01D1032000E09E
:1066D000022001904846019904F007FE0698401CEC
:1066E000C0B2069000BF029818B151464846029ABF
:1066F000904700BF00BF641C042C9DD3069888B34C
:106700004FF0010803AA0121002004F045FE00E03B
:106710002DE000250BE003A850F8250008A951F84A
:106720002510884202D04FF0000802E06D1C002DB9
:10673000F1D000BFB8F1000F02D00020069010E0A9
:1067400000250CE003A850F8250008A941F8250011
:1067500005A850F8250004A941F825006D1C002D5E
:10676000F0D000BF069800287FF462AF00BF09B0E8
:10677000BDE8F08F0463004010650040E83500205C
:1067800010B500211C2004F074FD00211D2004F030
:1067900070FD10BD00BF00BF00BF00BF00BFBFF352
:1067A0004F8F00BF00BF00BF0948006800F4E060E1
:1067B00008490843001D0649086000BF00BF00BF2C
:1067C000BFF34F8F00BF00BF00BF00BF00BFFDE79A
:1067D0000CED00E00000FA0510B5044621469C20AF
:1067E00000F0A0F910BD000070B500250020174989
:1067F00008704870002404E00221144800F03EF9BB
:10680000641C032CF8DB172010490870182048700E
:10681000002414E002231A460D490C4800F00CF93C
:10682000FF200A490870487009480078172805D1E8
:1068300007484078182801D1E5B200BF641C042C39
:10684000E8DB032D00D100BF70BD00003C2B002011
:10685000402B002010B504462146902000F062F93C
:1068600010BD000073B505460026002410E010207E
:10687000604921F81400022C04D131F8140000F012
:10688000C2F804E05B4931F8140000F017F9641C09
:10689000032CECDB002445E0C5F10E0000EB4000CA
:1068A000A04209D19DF806004FF6FF7101EA0020D1
:1068B000504921F8140025E0C5F10E0000EB40001E
:1068C000401CA04209D19DF805004FF6FF7101EA76
:1068D0000020484921F8140014E0C5F10E0000EB37
:1068E0004000801CA04209D19DF804004FF6FF71C2
:1068F00001EA00203F4921F8140003E000203D494F
:1069000021F81400022E06D13A4931F81400FFF79D
:1069100063FF002605E0374931F8140000F0CEF897
:10692000761C641C2D2CB7DB00BF002442E00F2D29
:1069300028D15CB99DF806004FF6FF7101EA0021ED
:1069400004F12D002B4A22F8101021E0012C0BD16C
:106950009DF805004FF6FF7101EA002104F12D00BA
:10696000244A22F8101013E0022C11D19DF80400E3
:106970004FF6FF7101EA002104F12D001D4A22F8B3
:10698000101005E0002104F12D001A4A22F8101021
:10699000022C07D104F12D01164A32F81100FFF73D
:1069A00059FF06E004F12D01124A32F8110000F0FF
:1069B00085F8641C032CBADB00BF4FF6FF700D494D
:1069C000088048808880002410E0022C08D1094902
:1069D00031F8140000F010F8022004F081FA04E00D
:1069E000044931F8140000F069F8641C032CECDB56
:1069F0007CBD0000F02F002010B504462146AC20DD
:106A000000F090F810BD10B504462146842000F037
:106A100089F810BD10B500F001F810BD1FB5044B8A
:106A20000FCB8DE80F006946024804F0ABFF1FBD95
:106A300064F902004CF902002DE9F04104460D46CC
:106A400016461F460020094908700948046006716F
:106A5000856007730749084804F0B2FF05E0034862
:106A60000078012801D1BDE8F081F8E7F02A002084
:106A7000E02F00200C2B00204CF9020070B50546D9
:106A80000C4600200949087009480560047100207F
:106A90000749886008730749074804F091FF04E03C
:106AA00002480078012800D170BDF9E7F02A0020E3
:106AB000E02F0020F42A00204CF9020038B50446EB
:106AC000200A8DF80000E0B28DF80100022168462E
:106AD000FFF7D4FF38BD000070B506460C461546DA
:106AE0000B48068000200B4908700B4804600571B4
:106AF00000200949886008730849094804F060FFCC
:106B000004E004480078012800D170BDF9E70000D6
:106B1000F22A0020F12A0020E02F0020242B002060
:106B20004CF9020038B505460C46200A8DF80000E5
:106B3000E0B28DF80100022269462846FFF7CCFF3B
:106B400038BD00000021014A11707047F02A002072
:106B500010B504460348008800F0D8F80020024928
:106B6000087010BDF22A0020F12A00200122014BFA
:106B70001A707047F02A00200122014B1A707047EA
:106B8000F12A002000F01F0201219140024A43092E
:106B900042F823107047000080E200E000F01F027E
:106BA000012191404209920002F1E022C2F8001155
:106BB0007047000000F01F0201219140024A430982
:106BC00042F823107047000000E200E010B50028F2
:106BD00007DA4A07140E054A00F00F031B1FD454AE
:106BE00003E04A07130E024A135410BD18ED00E0EB
:106BF00000E400E010B54FF4807004F055F980B166
:106C00004FF4807004F059F9012004F05FF90D4849
:106C1000407930B901200B494871084601680020CD
:106C200088474FF4827004F03FF950B14FF48270FE
:106C300004F043F9022004F049F9024801680120F8
:106C4000884710BDDC2B002010B50249024803F034
:106C5000E3FB10BD2036002000C0014010B5024902
:106C6000024803F0D9FB10BD283600200010024076
:106C70003EB50A4A07CA8DE807000022694608485F
:106C800004F0DCFF044600BF254625B100BF2846BE
:106C900000F070FC00BF00BF3EBD000028F90200FC
:106CA000A02A002010B5022008490880084608499B
:106CB0000860042088800A2088600020C8600223C1
:106CC0000A22044805F03EF810BD0000B02A00205A
:106CD000842C0020A02A00203EB50A4A07CA8DE86D
:106CE000070000226946084804F0A8FF044600BFD8
:106CF000254625B100BF284600F03CFC00BF00BF80
:106D00003EBD00001CF90200982A002010B5044680
:106D100007480480074908600420888001208860B3
:106D20000020C86001231A46034805F00BF810BD87
:106D3000A82A0020742C0020982A002010B50020DA
:106D40000949086000210948C0F84411C0F84811F9
:106D5000C0F84C1100200549C1F8000102493C3936
:106D6000086008F0B5F810BD401101400010014066
:106D7000FEB54FF4827004F0A3FC002837D04FF426
:106D8000827004F0A7FC6C4890F82E0018B16A4895
:106D900090F82F0058B300208DF800006648406836
:106DA000019065480189ADF80810C06818B9002045
:106DB0006149087412E06048008B5F4948830846C7
:106DC000C06848600846008B08810020C8600846FB
:106DD00090F82E0010B9002004F088FC5648016895
:106DE000684688470020544981F82F0000BF524868
:106DF00090F82E00002852D04FF4807004F060FC10
:106E000000284CD04FF4807004F064FC4A48408B5A
:106E1000494991F82D10884216DD4748408B464974
:106E200091F82D10401A444948830A4612890B46AE
:106E30005B8BD21A0B465B6803EB42000A4692F862
:106E40002D1004F035FC23E03B48408B3A4991F883
:106E50002D1088420FD13848C06860B101203649F2
:106E600081F82F00002048830A4692F82D10D06840
:106E700004F01EFC0CE03048408B2F4991F82D1097
:106E8000884205D101202C4981F82F000020488339
:106E90004FF4827004F01EFC042004F027FC4FF431
:106EA000887004F00DFC70B14FF4887004F012FC8F
:106EB00000202149087402208DF80000084601686E
:106EC0006846884700BF4FF48A7004F0F9FB38B178
:106ED0004FF48A7004F0FEFB0020174908742AE082
:106EE0001548456924E0B5FA85F64FF00040F040BA
:106EF0008543B00000F58C74204604F0E1FBB8B186
:106F0000204604F0E7FB01208DF80000A4F58C700A
:106F1000C0F3C7008DF80400A4F58C70012121EAAC
:106F200090018DF80510044801686846884700BF45
:106F3000002DD8D100BFFEBD6835002010B5024934
:106F4000024803F0BBFA10BD30360020003000408C
:106F500010B503494FF0402003F0B0FA10BD000017
:106F60005436002010B507F0BDFE10BD10B504F07A
:106F700071FC10BD01480249086070470090D003C1
:106F80005C2C002010B501F0A1FF28B18D480088CD
:106F9000C0F304208C49086001F0ECFF10B18B486D
:106FA0008B49486702F00EF830B18648E038006837
:106FB000C0F342308749086002F02EF828B18648B5
:106FC000006820F080708449086002F03DF848B104
:106FD0000020824908604FF08041C1F810017D49CE
:106FE000091F086002F05AF818B10320794964318A
:106FF000086002F06BF868B105207949086001204B
:1070000077497831086000207549083108603F20D1
:10701000091F086002F072F8002855D06948E03076
:107020000068704908606748E4300068091D08601E
:107030006448E8300068091D08606248EC30006868
:10704000091D08605F48F0300068091D08605D4850
:10705000F4300068091D08605A48F830006861493A
:10706000203108605748FC300068091D08605E4800
:107070000068091D08605C48001D0068091D086063
:10708000594808300068091D086057480C300068EE
:10709000091D0860544810300068524940310860AA
:1070A000514814300068091D08604F4818300068C6
:1070B000091D08604C481C300068091D08604A48DA
:1070C00020300068091D086001F0D6FE30B13D484F
:1070D000CC38006800F04F004449086001F020FF00
:1070E00040B14348006800F0010018B16FF00100A2
:1070F0003F49086001F056FF28B13E48006840F45F
:1071000080603C49086034487438006840F470007E
:1071100031497439086000BF00BF00BFBFF34F8F13
:1071200000BF00BF00BF00BF00BF00BFBFF36F8F35
:1071300000BF00BF00BF3048006800F00100E0B3AE
:1071400001202E49086000BF2D4800680028FBD0B0
:107150002948006820F001004FF01021C1F80C020E
:1071600000BF274800680028FBD0002023490860A2
:1071700000BF234800680028FBD000BF00BF00BF4D
:1071800000BF00BFBFF34F8F00BF00BF00BF12485A
:10719000F038006800F4E0601A490843001D0E4909
:1071A000F039086000BF00BF00BFBFF34F8F00BFC2
:1071B00000BF00BF00BF00BFFDE7FFE7FFF7DAFE3B
:1071C00010BD000024030010403501400DF0ADBAA1
:1071D00000C007403C050040FCED00E00C01004011
:1071E0001056004020C5004024040010E40E00406A
:1071F000000400403C1700400C12001004E5014060
:1072000000E401400000FA0510B5042202490348D9
:1072100003F0D4F810BD0000383500200090004085
:1072200010B504220249034803F0C8F810BD00005D
:107230004435002000A0004010B506220249034852
:1072400003F0BCF810BD00005035002000A0014044
:1072500010B506220249034803F0B0F810BD000043
:107260005C35002000B0014010B502490868804735
:1072700010BD0000E42B002030B58BB0182210495F
:1072800005A8FFF7FFF800BF0E48019020200290EC
:107290000D4803902020049007230C4A01A905A85B
:1072A00000F018FA044600BF00BF254625B100BF14
:1072B000284600F05FF900BF00BF00BF0BB030BD33
:1072C00034F90200942C0020B42C002043F002007A
:1072D00002E008C8121F08C1002AFAD1704770479F
:1072E000002001E001C1121F002AFBD170470000FD
:1072F0000146202908DA012088400A4A104008B1D6
:10730000012070470020FCE7402909DAA1F12000A4
:10731000012202FA00F008B10120F2E70020F0E7B4
:107320000120EEE7FC06FFBD00BFEFF31081084629
:1073300072B6704770B505460C4605B10CB9002011
:1073400070BD287840082178B0EB510F01D00020A3
:10735000F6E70622611C681CFFF7B8F808B901209F
:10736000EEE70020ECE7014601F0030008B9012038
:1073700070470020FCE7024650680068401E084045
:1073800008B9012070470020FCE70246002104E014
:10739000505C08B101207047491C0629F8D3002031
:1073A000F9E710B50346D868884206D88818401E09
:1073B0001C69A04201D8012010BD0020FCE700009C
:1073C00010B504466CB10848C068A04209D8064808
:1073D0000069A04205D3204603F0D1F808B101208E
:1073E00010BD0020FCE70000602C002070B50446B2
:1073F0000D4604F24B20FFF7C8FF0646012D06D0CC
:10740000022D0DD0032D11D0042D19D113E0A07938
:1074100028B194F8240010B90EB1012070BD00BF4E
:10742000E07910B10EB10220F8E700BF207A08B170
:107430000320F3E700BF607A08B10420EEE700BF45
:107440000020EBE70146481C052290FBF2F302FB0B
:107450001300C0B2704710B501220221002000F0D5
:10746000F1FF044600BF1CB1072C01D0204610BD1F
:1074700000BF07220221012000F0E4FF044600BF04
:107480001CB1072C01D02046F1E700BF0A220021E1
:10749000084600F0D7FF044600BF1CB1072C01D0FE
:1074A0002046E4E700BF0020E1E770B58CB0044659
:1074B0000D461646002005E0C0F10F01615C0DF895
:1074C0000010401C1028F7D30D2104A8FEF7F3FF8D
:1074D000002005E02A5CC0F10F0304A9CA54401C37
:1074E0000328F7D3684646DF002005E0C0F10F020D
:1074F00008A9895C3154401C0328F7D30CB070BD37
:1075000010B5044602480178204600F0F3FB10BD98
:10751000B32B002008B5009072B600BF134909686C
:1075200001F0010101B100BE00BF00BF00BF00BFFC
:1075300000BF00BFBFF34F8F00BF00BF00BF0B49AC
:10754000E439096801F4E061094A1143091D074A59
:10755000E43A116000BF00BF00BFBFF34F8F00BF10
:1075600000BF00BF00BF00BFFDE70000F0ED00E07E
:107570000000FA053EB504460020009001900290FC
:1075800002946A46002144F20100FFF7C3FF3EBDAA
:1075900070B504460D46204601F0EFFF28B129469C
:1075A000204601F0DEFF002070BD0520FCE7034609
:1075B00009B90E20704712B1501E104008B10920C1
:1075C000F8E71960501E988000209860D86000BFCE
:1075D000F0E770B504460D46204601F0CEFFA188C5
:1075E000884205D82946204601F0DAFF002070BD08
:1075F0000420FCE710B506F05BFB00200F49087083
:1076000048700B20887000200D4908600D490870F3
:107610000D4908701420FFF7B5FA06211420FFF772
:10762000D5FA1420FFF7BAFA002006F017FB06F08F
:107630000FFB06490860002010BD000078360020CE
:10764000EC2B0020FC2B0020FD2B0020F02B002039
:107650002DE9F04104460E461746254600BF104866
:10766000807810B90820BDE8F08100BF0CB908206F
:10767000F9E7052E01D20720F5E7686908B9082067
:10768000F1E7687C012801D1304600E00020804607
:107690003B4642463146284607F0CAFBE3E7000076
:1076A0007836002070B50446254600BF084880782B
:1076B00008B9082070BD00BF0CB1686908B908207E
:1076C000F8E7002028740221284607F0E0FBF1E7E4
:1076D000783600202DE9F04188B004460E46174662
:1076E00098462B4807601EB9072008B0BDE8F08116
:1076F000B08882B227483168FFF759FF054600BFBE
:10770000284600B1F1E700BFB08982B22248B168D3
:10771000FFF74DFF054600BF284600B1E5E700BF73
:1077200020221E496846FEF7ADFE60690690207C67
:1077300008B1012000E000208DF814008DF81C80B5
:10774000607C08B10E2000E000208DF81500E06894
:107750000290A06803902068019060680090104A31
:107760006946104803F056FC054600BF284600B1A4
:10777000BBE700BF00200C4908702068401C28B1FE
:1077800001220A49074803F06FFCAEE70020ACE78E
:107790000C2C002090370020A0370020E8FB0200CE
:1077A0004DF00200002C0020122C0020112C002093
:1077B00010B50446204606F041FB10BD70B50446E6
:1077C00025460E488068B0B1ADB9FFF7ADFD06465D
:1077D0000A4800680A490860084840684FF0E021FC
:1077E000C1F804010020054988601EB900BF62B6D7
:1077F00000BF00BF00BF00BF70BD00008437002085
:1078000000E100E070B505460C462068401C28B138
:10781000206803F08EFD206803F04FFD6068401C77
:1078200018B10021606803F03BFD2868A169C0F829
:10783000241500BF617D227D286841EA0203C0F85B
:107840006C3500BFD4E90012286804F01CF9207DD3
:10785000012814D1A068401C18B10021A06803F0D1
:107860001FFDE068401C28B1E06803F062FDE0689D
:1078700003F023FDD4E90221286804F0EDF870BD7F
:1078800070B504460D46204603F002F870BD10B5F1
:107890000446637903F003022179208802F012FF85
:1078A00010BD10B50446207918B9204600F008F83C
:1078B00003E02046FFF7EBFF00BF00BF10BD000054
:1078C0002DE9FC41064637884FF000080022444865
:1078D0000178384600F024FA7079C0F3800028B9A6
:1078E0000021304605F032F9BDE8FC8107F58071D2
:1078F00088B26B460122072105F0DAF9054645B149
:107900002946384606F0C0FC0021304605F01EF935
:10791000EAE7384602F00EFC04464FF6FF718C424F
:107920001BD1019802F056FB04464FF6FF708442CB
:1079300013D02146384602F0DBFB3846FFF7E0FD66
:1079400058B9384606F032FC3846FFF7D9FD20B961
:107950000021304605F0FAF8C6E74FF6FF70844282
:1079600015D105F031FB04464FF6FF70844208D173
:107970000421384606F088FC0021304605F0E6F880
:10798000B2E72146384602F0B3FB4FF0010807F595
:10799000807188B22246072105F000FA054625B914
:1079A0000121304605F0D2F817E0862D07D1384680
:1079B00006F02EFC0121304605F0C8F80DE02946FE
:1079C000384606F061FC0021304605F0BFF8B8F1FA
:1079D000000F02D0204602F095FB00BF84E70000B4
:1079E000B02B00202DE9F04104460F46154615B98D
:1079F0000E20BDE8F0810020286000BF0CB90E20E9
:107A0000F7E700BF00BF206808B90E20F1E700BF0C
:107A100000BFE088C11700EB91718910A0EB8101D4
:107A200009B10720E5E700BF384600F01EF9C6B2ED
:107A3000142E01D10520DCE72079B04201DC0420BE
:107A4000D7E7E188206806FB010028600020D0E726
:107A5000F8B504460E461546002000902B466A46AF
:107A60003146204600F008F807460FB90020F8BD5F
:107A7000BDF800002044FAE730B504460D4604B1D5
:107A80000AB9002030BD002103E0605C401C0844BE
:107A900081B21088884203DC481C205C984201D0E7
:107AA000A942F2DBA94201DB0020EBE7881C108031
:107AB000605C401E80B2E5E770B504460D462E4678
:107AC0002088102804D0112807D026280FD109E0DB
:107AD0002146304604F0B2FC0AE02146304604F06C
:107AE0007DFD05E02146304604F0D3FE00E000BFF6
:107AF00000BF70BD704770B504460E46207808B9C7
:107B0000082070BDA67000214FF41470C4F84A120A
:107B1000A4F84E120155A07910B1A078012809D01F
:107B2000E07910B1A078012804D0E07970B1A07894
:107B300002280BD1606B30B1012084F8510208207B
:107B4000616B884702E0002084F8510231462046EC
:107B5000FFF74CFCA070606BA0B1A078032802D0A6
:107B6000A07804280ED1607960B194F8520248B927
:107B7000002084F85402012084F853020720616B2E
:107B8000884702E0002084F85302182104F13C00E9
:107B9000FEF791FC012084F83C0004F12C0005F074
:107BA00036FB20B194F82C105120015502E0012140
:107BB0005120015594F8240060B104F12C0005F027
:107BC00026FB20B194F828105220015502E0012133
:107BD00052200155002150200155A078052824D2BB
:107BE000DFE800F01F030A11180004F13C012046F1
:107BF00006F06CFC054619E004F13C01204606F055
:107C00004DFC054612E004F13C01204606F070FCF4
:107C100005460BE004F13C01204606F097FC0546C2
:107C200004E0002084F8310000E000BF00BFA0782D
:107C300098B104F13C0204F15400D4F8441272DF0C
:107C400005460DB128465CE794F8301094F85400CE
:107C500073DF05460DB1284653E7606B18B194F801
:107C60003100616B884700204BE710B50446204681
:107C700000F074F808B1204610BD1420FCE70000A5
:107C800010B50446204600F069F820B121460348AB
:107C900002F0DDFF10BD0020FCE700007C31002079
:107CA00070B504460D461646204607F03DFB08B960
:107CB000002070BD034951F824003246294601F0E6
:107CC000EBFCF6E78431002070B504460025204621
:107CD00000F044F850B12146054802F0B8FF0646CE
:107CE0000EB1022000E00120054600BF284670BD0D
:107CF0007831002070B505460C46204607F014FB8D
:107D000050B1284600F02AF830B1044901EB840054
:107D1000294602F09CFF70BD0020FCE78431002062
:107D200070B505460C461646204607F0FDFA88B1A8
:107D3000284600F013F868B136B1074901EB84001A
:107D4000294602F093FF05E0034901EB8400294630
:107D500002F027FF70BD00008431002010B50446FA
:107D6000142C01DB002010BD2146024802F06FFFF9
:107D7000F9E700007031002010B54FF0FF3100200E
:107D80003DDF044600BF204600B110BD00BFB12159
:107D900000203CDF044600BF204600B1F5E700BFED
:107DA000022003F07BFB0020EFE710B5FFF7E4FFB4
:107DB0000446204610BD70B504460D4600BF04B908
:107DC00070BD00BF2088502816D004DC102807D0D2
:107DD000112819D108E051280AD0532814D10FE0F6
:107DE000204604F025FB10E0204604F0E9FB0CE0FF
:107DF000204604F0F7FC08E0204604F0F1FD04E022
:107E0000204604F077FC00E000BF00BF00BFD7E7CA
:107E100070B504460426207B012802D0022822D116
:107E200009E000F0D1FF05460DB9012602E0112D51
:107E300000D1062619E0607B142801DC607B08B9BC
:107E400005260FE0627B04F10E011248FEF71AFBD3
:107E5000607B1049091F8861084606F0A5FB0546AE
:107E600005B9012601E0022600BF00BF012E0FD098
:107E7000207B314600F058F8054625B106480068D9
:107E80004169032088470448006841690220884707
:107E900070BD0000F4340020CC2B002070B50546E6
:107EA0000E4600BF1E48006820B11D48406808B15A
:107EB000012000E0002000B970BD00BF184800F1AB
:107EC0000801426828469047044600BF082C24D089
:107ED0007CB900201349096888760121022000F04E
:107EE00023F80446CCB10F48006841690320884755
:107EF00013E000200B49096888760621022000F073
:107F000013F8044624B107480068416903208847F4
:107F10000448006841690220884700BFCCE70000A0
:107F2000E4340020CC2B0020F0B587B004460D4689
:107F300003270020019002900390049003200690F4
:107F400020208DF814008DF815408DF816500E483D
:107F5000C088ADF8040002208DF806000020ADF8BE
:107F6000080006A8039005A804900749888801A97D
:107F7000AEDF064626B9BDF81800032800D00C264F
:107F8000304607B0F0BD0000C8340020F8B5054603
:107F90000F462888212833D006DC10280BD0112862
:107FA00029D013287BD13BE03B285BD0522848D016
:107FB000562874D164E0072000F072FA044600BF2E
:107FC000264626B100BF3046FFF7D4FA00BF00BFF7
:107FD000A8883449088008460188334802F016FF13
:107FE000044600BF264626B100BF3046FFF7C2FA5E
:107FF00000BF00BF54E04FF6FF702A4908804FE0F1
:1080000000200090A88869468FDF044600BF2646FE
:1080100026B100BF3046FFF7ADFA00BF00BF3FE01A
:1080200000231A4685211F4800887FDF044600BFD1
:10803000264626B100BF3046FFF79CFA00BF00BFBE
:108040002EE000231A46194616480088B1DF044680
:1080500000BF264626B100BF3046FFF78BFA00BFAF
:1080600000BF1DE0A888132176DF044600BF264626
:1080700026B100BF3046FFF77DFA00BF00BF0FE01A
:10808000A888132176DF044600BF264626B100BF2C
:108090003046FFF76FFA00BF00BF01E0FFE700BF07
:1080A00000BFF8BDE82A0020402F002070B505462B
:1080B0000E462888102802D011282CD115E0174828
:1080C000006860B900F0A6FD044600BF34B1144852
:1080D000006818B1204612490968884700BF0F4858
:1080E0000068401C0D49086016E00C480068401EFE
:1080F0000A4908600846006860B9FFF7ACF9044611
:1081000000BF34B10648006818B120460449096828
:10811000884700BF00E000BF00BF70BD602B00209B
:108120005C2B002070B504460D462088102806D030
:10813000112808D012280ED0502810D107E0204670
:1081400004F004F90CE0204604F020FA08E0204690
:1081500004F0D0FB04E0204604F0E0F800E000BFAB
:1081600000BF70BD2DE9F04104468846A5882088EF
:10817000102804D0112815D01A2847D116E005F090
:108180000DFD284605F094FB20B900BF0420FFF741
:10819000F1F906E0E07B012803D029461D4802F0F2
:1081A00065FD33E0284605F01DFD2FE0207A012112
:1081B000B1EB101F01DA012000E000200646207A12
:1081C0000221B1EB101F01DA012000E00020074678
:1081D0008EB129460F48001D02F048FD2FB12946F7
:1081E0000C48083002F042FD0FE0294609480830EB
:1081F00002F0D7FC09E029460648001D02F0D1FC38
:1082000029460448083002F0CCFC00BF00BFBDE89E
:10821000F08100007831002070B504460D4600BFA3
:108220000748007800B970BD00BF204601F03CFE51
:10823000204606F031FA204601F0D2FB00BFF2E7FB
:10824000A02B002070B504460D4605B104B970BDE1
:108250002E462088102804D0502807D057280FD148
:1082600009E02146304604F0A9F80AE021463046EC
:1082700004F06CFB05E02146304604F051FA00E0C2
:1082800000BF00BF00BFE2E770B50446204607F01C
:1082900009F80546C5F3400070BD70B50446204698
:1082A00007F000F8054605F0010070BD10B5024664
:1082B0000949885C00BF4FF0A0442146D1F804353D
:1082C000012484409C43C1F80845012484401C409B
:1082D000C1F80C4500BF10BD86F9020010B5044678
:1082E0000249085D012103F03AF810BD86F9020049
:1082F00010B504460249085D002103F030F810BDB6
:1083000086F9020010B50146094B585C00BF4FF0DA
:10831000A044234600BFD3F80445C44004F0010440
:108320000CB1012000E00020024682F0010010BDE7
:1083300086F9020010B5002403E02046FFF7CEFFC7
:10834000641C042CF9D310BD10B5002403E02046B2
:10835000FFF7CEFF641C042CF9D310BD02464FF08A
:10836000FF30002106E0054B5B5C934201D10846DB
:1083700002E0491C0429F6D300BF70478AF90200C5
:108380002DE9F04106460F464FF000080024304624
:10839000FFF7E4FF0446042C3ED20FB3012F02D0B6
:1083A000022F38D130E004EB4400214911F800805D
:1083B00004EB44000844407850B11E4A4FF4004199
:1083C0001D480068FFF744F905460DB919480670C5
:1083D00004EB4400164908448078184908551AE00F
:1083E00015480068FFF75EF91448005D04EB44018E
:1083F0000F4A11448978884205D104EB44001146A4
:10840000084490F8028006E004EB44000849084460
:1084100090F8018000BF00BFB8F1000F06D00848F7
:10842000006818B14046064909688847BDE8F081F0
:10843000F0300020542B002098F90200552B00202A
:10844000502B002030B503460020042B23D2012AF4
:1084500007D1012903D103F10E04E4B200E00024A6
:10846000224679B1012902D0022911D104E003EB9F
:1084700043040A4D2A550DE003EB4304074D2C44F9
:10848000627007E003EB4304044D2C44A27001E04A
:10849000072000BF00E0072030BD0000F0300020C2
:1084A00070B5044600250548007800F0010018B1B9
:1084B000204600F005F80546284670BD482B0020F0
:1084C0002DE9F047044600260025DA48007820B15F
:1084D0000020D849087002F061F8182C7ED2DFE83D
:1084E00004F00C16174A7EB2F6F4F3F2F1F0EFEE58
:1084F000EDECEBEAE9E8E7E6E5E402F04FF8CE4818
:108500000068FFF7CFF80646CC4804708DE100BF45
:108510000020FFF7F7FE58B10020FFF7DFFE022C26
:1085200002D14FF4E16001E04FF47A60054609E0C2
:108530000020FFF7DDFE022C01D1C82001E04FF43E
:10854000C8700546BD4804704FF40040A5FB0010FC
:108550004FF4FA73CF1840F100015A000023384657
:10856000FDF740FF814600224946B3480068FFF707
:108570006FF8064659E10020FFF7C4FE58B100200D
:10858000FFF7ACFE032C02D14FF4487001E04FF42A
:108590007A60054609E00020FFF7AAFE032C01D10E
:1085A000C82001E04FF4C8700546A44804704FF499
:1085B0000040A5FB00104FF4FA728F1840F1000143
:1085C000520000233846FDF70DFF81460022494640
:1085D00099480068FFF73CF8064626E124E10020B0
:1085E000FFF790FE58B10020FFF778FE042C02D16F
:1085F0004FF47A6001E04FF47A6005460AE000200B
:10860000FFF776FE042C02D14FF4C87001E04FF45E
:10861000C8700546894804704FF40040A5FB00105F
:108620004FF4FA73CF1840F100015A000023384686
:10863000FDF7D8FE8146002249467F480068FFF7D3
:1086400007F80646F1E00020FFF75CFE50B100207D
:10865000FFF744FE052C01D1C82001E04FF47A60F9
:10866000054609E00020FFF743FE052C01D1C82094
:1086700001E04FF4C8700546704804704FF40040A4
:10868000A5FB00204FF4FA73D71840F100015A00FF
:1086900000233846FDF7A6FE81460022494666487B
:1086A0000068FEF7D5FF0646BFE0B8E0B6E0AAE0F6
:1086B000A1E098E092E05FE05DE05BE059E057E028
:1086C00051E042E033E024E015E00EE0FFE7002057
:1086D000FFF7ECFD59480470002240F6CD415648A2
:1086E0000068FEF7B5FF06469FE00020FFF700FE9A
:1086F0005248047099E001204E490870FFF7D6FDFA
:10870000002240F6CD414C480068FEF7A1FF064626
:108710008BE0012047490870FFF7C8FD00224FF4A5
:10872000804145480068FEF793FF06467DE0012042
:1087300040490870FFF7BAFD002240F6CD413E489F
:108740000068FEF785FF06466FE001203949087092
:10875000FFF7ACFD00224FF4804137480068FEF778
:1087600077FF064661E0FFF7EFFD344804705CE0F8
:1087700000BF00BF00BF00BF31480068FEF792FF96
:108780000646C4F1110515B30EBB012D18D9A8B2C8
:10879000C82148434FF4004180FB01104FF4FA72A6
:1087A0008F1840F10001520000233846FDF71AFEF1
:1087B00081460022494622480068FEF749FF0646E6
:1087C0000220FFF795FD01201E49087005E00220F8
:1087D000FFF784FD00201B49087026E001F0DEFE53
:1087E0001648047021E001F0D9FE0020FFF780FD5B
:1087F0001248047019E001F0D1FE0120FFF778FD66
:108800000E48047011E001F0C9FE0020FFF770FD72
:108810000120FFF76DFD0948047006E000BFFFF777
:1088200093FD0648047000E000BF00BF3046BDE87D
:10883000F0870000452B002090F90200442B002017
:1088400094F902004C2B00207CB50446204601F030
:1088500071FC054600236A46092104F01DFB05282A
:1088600005D10122024801782046FFF759FA7CBD64
:108870007C2B00207CB504460E460020019042F679
:10888000A620ADF8040001208DF806000748006816
:1088900000906A4601A92046A0DF05462DB90122B5
:1088A000034801782046FFF73BFA7CBD0CFA020032
:1088B0007D2B002001468879012809D108790128FB
:1088C00006D1488842F60212904201D10120704739
:1088D0000020FCE70146024850F8210070470000E4
:1088E000983500200146014840567047C8350020A1
:1088F0002DE9F04104460D464FF6FF76304684429E
:108900000AD14FF48071284602F071F986B2B6F5AB
:10891000807F10D126460EE0FF2C0CDC2146284635
:1089200002F04EF980F001070FB1204601E04FF64A
:10893000FF70064600BF3046BDE8F08170B50546C1
:108940000DB9094C01E0084C083409E0204601F05B
:108950001EFE064606B904E028467168884700BF37
:10896000F4E700BF70BD00001435002010B50446C8
:108970002CB90120064948700020FFF7DFFF012CC9
:1089800004D1012002498870FFF7D8FF10BD000014
:108990000C3500202DE9F04782461F48006800286A
:1089A00036D01D480068056805F052F907461B4897
:1089B00004682146384606F089F9C61C1848007834
:1089C00008B905F057F9AE4201D2284600E030461A
:1089D000044424F07F44204605F034F905F038F9CA
:1089E00080463946404606F071F900F103093946E0
:1089F000204606F06BF9814509D905F029F9814631
:108A000005F020F92F2003F06FF806F0ADFA01E031
:108A100005F04EF9BDE8F087EC2B0020F02B00208C
:108A2000FE2B00202DE9FF4F03460C46002047E0B7
:108A3000225CFF2A3ED0C2F3C01922F080014DF81B
:108A40002010B9F1000F0DD05DF8201000BF4FF0DD
:108A5000A0452E46012707FA01F5C6F8085500BFC4
:108A600000BF0DE05DF8201000BF4FF0A0452E467E
:108A7000012707FA01F5C6F80C5500BF00BF00BF7B
:108A80005DF8201001252E460027BC46B84600BFE1
:108A90004FF0A04BDA4645EA460B4BEA870B4BEA10
:108AA0000C2B4BEA084E0AF5E06B4BF821E000BFB7
:108AB00000BF03E04FF0FF314DF82010411CC8B259
:108AC0000428B5DB6D461A68002107E055F82170CF
:108AD00002F5AC6646F821704E1CF1B20429F5DBB4
:108AE00000BFBDE8FF8F33B58BB005460020009076
:108AF0000C9878B100240BE021460CA802F0A7F8EE
:108B000028B1009A501C009001A820F81240641C63
:108B1000142CF1D32C2269462846FDF7B3FC0DB086
:108B200030BD0000F8B505460C46607A88B9207A59
:108B300010B91048476801E00E4887682A46394650
:108B40006068FEF785FD064616B1304605F040FB2D
:108B50000EE0002020720748406948B101208DF8DE
:108B60000000ADF80250034841696846884700BFDD
:108B7000F8BD000050310020F0B587B004460D4626
:108B800017461E4618220B4901A8FDF77BFCADF8DD
:108B900006408DF80C50ADF80E708DF81060002274
:108BA000054801782046FFF7BBF801A800F0D2FB8A
:108BB00007B0F0BDE8FA0200B02B002010B586B077
:108BC0000446208803F08EFF00BB2088FFF758F88A
:108BD00030B92088012241F2060100F0E9F815E0E1
:108BE000208800220A490978FFF79AF802208DF8B8
:108BF00000002088ADF8020000208DF80800002158
:108C00008DF80910684600F0A5FB00BF06B010BD46
:108C1000B02B002010B5012200210846FFF712FCFE
:108C2000044600BF1CB1072C01D0204610BD00BF78
:108C3000072202210120FFF705FC044600BF1CB1FA
:108C4000072C01D02046F1E700BF042202210020BA
:108C5000FFF7F8FB044600BF1CB1072C01D02046EB
:108C6000E4E700BF0020E1E77FB506460C460020A0
:108C700002900390ADF80840ADF80A4000900190D2
:108C80006A4602A9304690DF054605B100BF284676
:108C900004B070BD2DE9F04105460F460F4C01218F
:108CA000204602F025F8064600BF00BF00BF00BF07
:108CB000BFF35F8F00BF00BF00BF0EB9012000E00F
:108CC000002040B1284601F02FFE08B1BDE8F08138
:108CD000024802F094FB00BFF8E70000742B00206C
:108CE00070B506460D460EB1012070BD287920B141
:108CF000012809D0022813D10FE00220287128464C
:108D000004F030FE04460DE0284600F053FC044613
:108D10000A2C01D141F61D5404E041F61D5401E036
:108D20000F2400BF00BF2046DFE770B5044620795E
:108D30003D2802D141F23D0001E04FF48850054644
:108D400020880022294601F0BDFC70BD0146144870
:108D50000078144A127890421DD011480078401CC7
:108D60000F4A107010460078022801D100201070C0
:108D70000D480B4A127850F8220008600B4A086828
:108D800012681044094A10601046006820F07F40C5
:108D90001060012070470020086000BFFAE7000063
:108DA000FC2B0020FD2B0020F42B0020F02B0020BA
:108DB00070B506460C4615462B4622460021304625
:108DC000FFF7DAFE70BD000010B510480068807E25
:108DD00060B106210120FFF7A7F8044624B10B4833
:108DE0000068416903208847002010BD0120074921
:108DF0000968487601210846FFF796F804461CB139
:108E000000200249096848762046EEE7CC2B002076
:108E10002DE9F84305460E46174698466946104820
:108E2000006801F086FE044614B90420BDE8F8830A
:108E30001C212046FDF73FFB012020712560C4F86E
:108E4000088008480068B6FBF0F0E060676169469A
:108E50000348006801F097FE04F0ACFC0020E5E751
:108E60002CFC020020FC020010B50446D4E90321CA
:108E7000501828DF10BD000013480078062820D1C4
:108E80001148001D007800F00F00D0B90E480830DE
:108E9000007800F0F000302801D1012070470A4826
:108EA0000830007800F0F000402801D10120F5E7FB
:108EB00005480830007800F0F000502801D101206A
:108EC000ECE70020EAE70000E00F00F0134800782C
:108ED000062820D11148001D007800F00F00D0B9FD
:108EE0000E480830007800F0F000302801D1012051
:108EF00070470A480830007800F0F000402801D19F
:108F00000120F5E705480830007800F0F00050280F
:108F100001D10120ECE70020EAE70000E00F00F0BB
:108F200013480078062820D11148001D007800F071
:108F30000F00D0B90E480830007800F0F00030285B
:108F400001D1012070470A480830007800F0F00095
:108F5000402801D10120F5E705480830007800F0ED
:108F6000F000502801D10120ECE70020EAE70000E2
:108F7000E00F00F00A48007806280ED10848001DCE
:108F8000007800F00F0040B905480830007800F084
:108F9000F000302801D1012070470020FCE70000DC
:108FA000E00F00F006480068062806D10448001DBE
:108FB0000068062801D1012070470020FCE700006E
:108FC0003001001013480078062820D11148001DF8
:108FD000007800F00F00D0B90E480830007800F09B
:108FE000F000302801D1012070470A48083000788D
:108FF00000F0F000402801D10120F5E705480830D5
:10900000007800F0F000502801D10120ECE70020AA
:10901000EAE70000E00F00F00A48007806280ED1C9
:109020000848001D007800F00F0040B905480830DE
:10903000007800F0F000302801D1012070470020B6
:10904000FCE70000E00F00F013480078062820D16C
:109050001148001D007800F00F00D0B90E4808300C
:10906000007800F0F000302801D1012070470A4854
:109070000830007800F0F000402801D10120F5E729
:1090800005480830007800F0F000502801D1012098
:10909000ECE70020EAE70000E00F00F00A48007863
:1090A00006280ED10848001D007800F00F0040B9D6
:1090B00005480830007800F0F000302801D1012088
:1090C00070470020FCE70000E00F00F00A4800783D
:1090D00006280ED10848001D007800F00F0040B9A6
:1090E00005480830007800F0F000302801D1012058
:1090F00070470020FCE70000E00F00F00A4800780D
:1091000006280ED10848001D007800F00F0040B975
:1091100005480830007800F0F000502801D1012007
:1091200070470020FCE70000E00F00F00278072AFB
:1091300038D2DFE802F037040712222B3400002275
:109140000A7030E001220A7003898B818388CB8109
:10915000C2688A6000230B7425E002220A7003892A
:109160008B818388CB81C2688A60827D062A01D187
:10917000012300E000230B7415E003220A70C3886A
:109180008B810389CB81C2688A600CE004220A705B
:10919000C3888B810023CB8100228A6003E00522F3
:1091A0000A7000E000BF00BF7047000070B50546C0
:1091B000002409E0064850F8240020B1044850F883
:1091C000241028468847641C042CF3D370BD00008B
:1091D000B037002030B587B004460D46206880685F
:1091E00008B907B030BD182101A8FDF764F9029550
:1091F000A0680690207910B1012815D109E001205E
:109200008DF8040020690390E0680490606905907F
:109210000BE002208DF804000749E0680968484324
:1092200003906069059000E000BF00BF206881687E
:1092300001A8884700BFD4E720FC020070B586B0C3
:1092400006460C46154684B3112C2ED0082C2CD083
:1092500018216846FDF72FF9ADF80260304600F09E
:1092600069FFADF804000D2C14D103208DF8000027
:109270002DB1287800F0010008B1012000E00220A3
:109280008DF8080000218DF80C1041F20111ADF8A5
:109290000A1006E007208DF80000029400218DF8E6
:1092A0000C10684600F06AF800BF06B070BD10B53B
:1092B0000446204600F062F810BD000070B5044678
:1092C000608800F037FFA080002505E0044850F8D2
:1092D0002510204688476D1C002DF7D070BD00007A
:1092E0006C2B002070B50446A08800F053FE60800F
:1092F000002505E0044850F82510204688476D1CDD
:10930000002DF7D070BD0000802B002070B5054601
:10931000002405E0044850F8241028468847641CBF
:10932000022CF7D370BD000050FA020070B505465C
:10933000002405E0054850F8241028468847641C9E
:10934000034800788442F5DB70BD00007C340020C7
:10935000AE2B002070B50446608800F0EBFEA080C4
:10936000002505E0044850F82510204688476D1C6C
:10937000002DF7D070BD00009CFA020070B50546C4
:10938000002405E0044850F8241028468847641C4F
:10939000002CF7D070BD000028FB0200F0B503469A
:1093A00000241FE0124E306806689E4203D906680A
:1093B000F61A06601AE006689B1B0668344400260D
:1093C00006600B4E35680A4FC6693E60C66846B1F6
:1093D0000E1926F07F464660C66886601668C6612C
:1093E000156000BF024800680028DBD100BFF0BD57
:1093F000EC2B002038B505460E48007808B902204D
:1094000038BD4FF6FF70854201D10420F8E7684669
:1094100004F0C0F804460CB90820F1E705202070DC
:1094200001202071E580684604F0C4F804F0B6F924
:109430000020E5E7142C002038B504460CB90520BF
:1094400038BD6946204604F0ABFA00B3BDF8000011
:1094500000EB80000F4901EB8000C068A8B1A07A42
:1094600098B1BDF8000000EB800001EB8000C068FF
:10947000401EBDF8001001EB8101064A02EB81019C
:10948000C8600020A072002502E0062500E00A2541
:109490002846D5E75C3800207FB514461D462B468C
:1094A000224601A9684604F017FA04B070BD37B52A
:1094B0000C4615462B4622466946002004F00CFA5D
:1094C0003EBD37B50C4615462B4622460021684660
:1094D00004F002FA3EBD024602B109B90520704708
:1094E000106808600020FAE7F8B504460D4604B19C
:1094F0000DB90520F8BD6946204604F051FAA0B127
:109500006668BDF8001001EB8101094A02EB810198
:1095100001F10C00012101F0BFFB2E6060680C30EE
:1095200068600120A0720020E4E70A20E2E7000062
:109530005C38002070B504460D460CB9052070BD9E
:10954000032300222946204606F092F8F7E770B57B
:1095500004460D46022300222946204606F088F8DC
:1095600070BD70B504460D462A460021204600F025
:109570000EF8A068401CA06070BD01468A68C868EB
:10958000801A704701468A68C868801A704710B50B
:1095900083680B44848823400468E35C137010BD27
:1095A000C26883881A4003689954C268521CC2601A
:1095B000704700003EB504460A4B6A460021A01DD4
:1095C00004F08AF9054635B9064A9188019804F0F5
:1095D00061FA054603E00348002101604160284626
:1095E0003EBD0000302C00200146A1F5404080B275
:1095F000704710B50446E07FFF2808D0A07F18B15F
:10960000E07F01F08BFE02E0E07F01F09DFE002094
:109610006077207204F10800D4E90021904710BD62
:1096200070B504460D464FF40E72115B0122D4F85A
:109630003402FEF70DFA064606B1357004F13C021D
:1096400004F50D7104F1540072DF70BD2DE9F04195
:1096500006460C4615460027112C01D1012700E0D3
:10966000002765B13A460A4801783046FEF758FBB4
:109670000022084801783046FEF752FB05E03A46E2
:10968000044801783046FEF74BFBBDE8F08100004E
:10969000CB2B0020C82B0020F7B50D4617460DB97F
:1096A0000020FEBD0026009868B1002409E0214694
:1096B000684601F0CCFA18B1A0B23946A847761C2A
:1096C000641C142CF3D33046EBE710B504466068F5
:1096D00003F0BCFF10BD000070B505460DB10120C0
:1096E00070BD1848007B18B100201649087301E0CE
:1096F00000F0DEF81348007808281DD2DFE800F0FB
:109700001C04080C101C141800F03EF8044615E068
:1097100000F0BCF8044611E000F098F804460DE0B3
:1097200000F046F8044609E000F02CF9044605E094
:1097300000F03AF9044601E00F2400BF00BF2046C4
:10974000CEE70000843800200D480089401C0C49F9
:10975000088100204880087300BF0DE000EB800105
:10976000084A12F8211009B9012200E00022044938
:109770000A310A54411C88B20228EFDB704700000E
:10978000843800205C38002010B5084800F036F816
:1097900040B900200549891E08704880486041F69C
:1097A0001D5010BD00F072F8FBE700008638002065
:1097B00070B50F48458805EB85000E4901EB800028
:1097C000C06878B904200A49087005EB8500094A89
:1097D00002EB8000002301224168074801F062FC8F
:1097E000044602E000F090F80446204670BD0000F8
:1097F000843800205C380020602C002010B5014621
:109800000022002018E00F4B1B5C9BB100240D4B85
:109810001C5400EB80030C4C04EB8303DB684BB956
:1098200000EB800304EB83031B7C012B02D1088037
:10983000012203E0431C98B20228E4DB00BF10467B
:1098400010BD00008E3800205C380020F8B50C48B0
:1098500044680C4800680B49898800EB81056088E2
:10986000C01C86B20320064908700020B300009097
:10987000084629464268044801F0A4FCF8BD0000EF
:1098800084380020282C0020602C002010B50749C7
:109890004888091D04F0C2F818B1FFF7D7FF044645
:1098A00002E0FFF785FF0446204610BD8438002003
:1098B00010B514480078082820D2DFE800F0041F13
:1098C0001F0A1016171BFFF73FFF01200D490870F4
:1098D00015E000F075F802200A4908700FE000F06A
:1098E00029F806200749087009E000BF072005494C
:1098F000087004E001200349087000E000BF00BFC9
:1099000010BD00008438002010B5052006490870FD
:109910000220064988800846002301220168044885
:1099200001F0C0FB10BD000084380020282C00206E
:10993000602C0020104908681049498801EB81011A
:109940000F4A02EB810149680B4A11600B494988B3
:1099500001EB81010A4A02EB8101486006498988CE
:10996000064A528802EB8202054B03EB8202118108
:109970000221014A91807047282C00208438002061
:109980005C38002010B5062005490870498801EBB5
:109990008101044A02EB8101486803F081F810BD9F
:1099A000843800205C38002010B507200349087077
:1099B0000020486003F084F810BD000084380020C7
:1099C000054A50684288D21C91B2044A92880A44DF
:1099D000024B9A807047000084380020282C002019
:1099E0002DE9F04186B00446A588208850282ED065
:1099F00004DC352836D0362808D163E0522802D05E
:109A00005428F9D103E0284600F042FF7BE01822F9
:109A100044496846FCF736FDADF80250284600F090
:109A200089FBADF80400BDF8040000F0EBF800225B
:109A30003D4801782846FEF773F900223B4801783B
:109A40002846FEF76DF96846FFF738FC5BE0A01D7D
:109A5000FEF730FF28B10121284600F059FF05F03C
:109A600039FC50E00027A58804F10A063048017847
:109A70002846FEF73FF900B945E000222C4801785E
:109A80002846FEF74DF9E088B0F5857F14D0E088D0
:109A900090B9708801280FD1B18800222846A1DF33
:109AA0008046B8F1000F06D1012701222148017834
:109AB0002846FEF735F900BF1FB90021284605F0FA
:109AC000DFF820E00027A58804F10A06194801788C
:109AD0002846FEF70FF900B915E000221548017875
:109AE0002846FEF71DF9E08840B9B088012805D165
:109AF000B07908B1012000E0002007463946284629
:109B000005F0BEF800BF00BF00BF00220A490B48A5
:109B10000078FEF7C5F800BF04F018FC06B0BDE8F9
:109B2000F081000020FA02007B2B00207A2B00201D
:109B30007D2B00207E2B002081780200792B0020D5
:109B400010B50446207858B9608800F0A1FE6088FE
:109B500004F0ECFB6088FEF777FE05F0BBFB00E04D
:109B600000BF00BF10BD00007CB504462078082867
:109B700040D1607A00283DD1207A012814D00728EE
:109B800002D0082834D12BE0A08800F003FA054663
:109B90004FF6FF70854206D00121284600F0B8FE3E
:109BA0002846FEF751FE24E0A0886A46012103F012
:109BB0004BF806469EB90198007880B1A08800F065
:109BC000E9F905464FF6FF70854207D001220B48A0
:109BD00001782846FEF7A4F804F0B8FB00BF08E0BF
:109BE00007480068012802D1054801F008FC00E0A0
:109BF00000BF00BF05F06EFB7CBD00007A2B00208B
:109C0000742B00201CB50446044903C9CDE90001AA
:109C100000226946204603F08CF91CBD48FA020078
:109C20002DE9FC478146484600F084FA05460026A7
:109C300000274FF003084FF0010A4FF6FF708542EE
:109C40000CD06A460821284602F0FEFF04462CB9D3
:109C50000198861D8788D0F8008000BF00BF43466A
:109C60003A4631464846B1DF0446042C01D111245E
:109C700015E0082C01D1002411E00B2C0FD14FF07E
:109C8000000A08F0020010B14FF0010807E006B921
:109C900027B1002600274FF0030800E003240B2C17
:109CA000DDD0BAF1000F00D10B242046BDE8FC87BF
:109CB0002DE9FC478046404600F03CFA06464FF648
:109CC000FF70864203D143F20200BDE8FC874FF0EB
:109CD00001094FF0000A00BF4FF0000A4A46511C2C
:109CE0001FFA81F96B460821304602F0E1FF044675
:109CF0000CBB019D032028602A1DA91D40462B682E
:109D0000B2DF044634B932460821304603F046F843
:109D100004460FE00C2C02D14FF0010A02E0052CA2
:109D200000D100240821304603F028F8074607B187
:109D3000032400BF02E0072C00D10C24BAF1000F6D
:109D4000CAD100BF2046C0E710B5044604480088C9
:109D50004FF6FF71884201D004F004FB10BD0000F3
:109D6000862B0020FEB5044602A80190204600F094
:109D7000E1F906466A460121304602F065FF0546D4
:109D80000DB10020FEBD01980078FBE770B50546D7
:109D90004FF6FF760E48B3DF04460CB1032070BDCA
:109DA00000BF4FF6FF720A4801882846AFDF04461D
:109DB00043F20300844204D105480088401C044952
:109DC000088043F203008442EBD02046E7E700001E
:109DD000882B002070B504460D46204600F01AF886
:109DE000A84201D9022070BDA0884FF6FF718842B9
:109DF00001D0208808B90120F5E70020F3E70246EA
:109E000013468B4204D21868401C08B101207047E9
:109E10000020FCE701464A8801F10C0000EB8200BB
:109E200070473EB504460D4620780221B1EB500F35
:109E300001D000203EBDB4F80100ADF80800E07884
:109E40008DF80A00A188ADF80010A0798DF8020005
:109E500001AA69462846FDF728FB032201A902A8AA
:109E6000FCF734FB08B90120E4E70020E2E700003A
:109E700070B504460D46142C03DA2046FDF76EFF3C
:109E800010B943F2020070BD04EB8400054901EBF8
:109E90004000D0F802102960C188A980007AA8711A
:109EA0000020F0E7E431002030B591B00546288865
:109EB000102801D011B030BD2C22291D06A8FCF7B6
:109EC000E1FA4FF6FF749DF81C000321B1EB500F2F
:109ED00035D002F0D9FF9DF81C00400820B10128C0
:109EE00003D0022828D114E000BF09E0049800F153
:109EF000110107A8FDF71EFA10B1BDF8144006E0E5
:109F000003AA05A9072002F089FF0028EED100BFAF
:109F100013E008E00498411C07A8FFF782FF10B186
:109F2000BDF8144006E003AA05A9072002F076FF59
:109F30000028EFD100BF00E000BF00BF00BFBDF8A8
:109F4000180000EB8000124921F81040BDF81800FD
:109F500000EB800001EB40000799C0F80210BDF84B
:109F60002010C1809DF8221001724FF6FF708442CC
:109F70000CD0BDF81800ADF80200ADF80440002088
:109F80008DF800006846FFF7C1F900BF00BF91E7F8
:109F9000E431002070B505464FF6FF70854200D1D0
:109FA00070BD00240EE004EB8400094931F8100074
:109FB000A84205D12046FDF7D1FE08B12046EFE7C3
:109FC000601C84B2142CEEDB4FF6FF70E8E7000053
:109FD000E43100203EB505460C4602F055FF0BE08B
:109FE000BDF80800A04207D02846019900F00EF8FD
:109FF00010B1BDF808003EBD6A4602A9072002F074
:10A000000DFF0028ECD14FF6FF70F4E72DE9F04783
:10A0100004460D4604F1110605F111071022691CD2
:10A02000601CFCF753FA48B9601C00F09CFA28B198
:10A03000681C00F098FA08B1012000E00020824678
:10A0400039463046FDF776F9804630780221B1EB8B
:10A05000500F10D030780321B1EB500F0BD038786F
:10A060000221B1EB500F06D038780321B1EB500F2D
:10A0700001D0012000E000208146B8F1000F02D09D
:10A08000B9F1000F05D1BAF1000F05D0B9F1000FF9
:10A0900002D10120BDE8F0870020FBE702461088CE
:10A0A00008B101207047002105E0901C405C08B118
:10A0B0000120F7E7491C0829F7D30020F2E770B523
:10A0C00005460C462846FFF7E9FF08B9002070BD99
:10A0D00028882188884201D00020F8E70822A11CA6
:10A0E000A81CFCF7F3F908B90120F0E70020EEE71F
:10A0F000142804DA00EB8002014B23F81210704799
:10A10000E431002070B506463046FFF743FF0446B1
:10A11000304602F0A4FD054645B9142C06DA4FF688
:10A12000FF7004EB8401024A22F81100284670BD3A
:10A13000E431002010B50446142C03DA2046FDF764
:10A140000DFE10B94FF6FF7010BD04EB84000249FC
:10A1500031F81000F8E70000E43100203EB5044675
:10A1600002F092FE10E0019800F146012046FFF750
:10A17000A6FF30B9019800F12A012046FFF79FFFA2
:10A1800010B1BDF808003EBD6A4602A9072002F0E2
:10A1900045FE0028E7D14FF6FF70F4E770B504469E
:10A1A0000D460A4860600A4800F06FFD58B901F09A
:10A1B00069FB074908741C234FF4EE7205490648F1
:10A1C000006800F0A2FC002070BD000020FC02002E
:10A1D0008C3A0020A03800202CFC02002DE9F04130
:10A1E00006460C460F272EB1002042494860012048
:10A1F000BDE8F081207930B101280AD0022835D09D
:10A2000003286DD140E00120207102F059FC07467F
:10A2100067E04FF00008002519E005EB850036499E
:10A2200011F82000022810D1002005EB8501324AE8
:10A2300002F821004FF0010805EB850102EB8101D6
:10A24000486802F02DFC074603E0681C85B2022D29
:10A25000E3DB00BFB8F1000F07D1012025490870EA
:10A260000020486041F61D50C2E73AE0002020710E
:10A2700002202249888008460023012201682048E4
:10A2800000F010FF07462CE0002020711B490868F1
:10A2900002F006FC07461B4845881848D0F80080A5
:10A2A00005EB8500144901EB800040681349086004
:10A2B00005EB8500104901EB8000C0F804800F48D1
:10A2C000808805EB85010C4A02EB810108810220A0
:10A2D0000A498880002005EB850102F8210000E092
:10A2E00000BF00BF27B10020024948600E207FE771
:10A2F00000207DE7142C00205C380020282C002052
:10A30000602C002084380020024600210CE001EB84
:10A310008100074B33F82000904204D101EB81000B
:10A3200003EB80007047491C0029F0D00020F9E7BA
:10A330003C3100202DE9F04104460E464FF48E7169
:10A34000206801F082FB4FF4A271206801F07DFBD0
:10A350001749206801F088FB206801F0D5FB05460D
:10A36000374628463946002809DA4A074FEA126C70
:10A37000104A00F00F031B1F02F803C003E04A0756
:10A38000130E0D4A135400BF00BF206801F0BCFB40
:10A390000546284600F01F02012191404209920023
:10A3A00002F1E022C2F8001100BF00BFBDE8F08159
:10A3B0008000020018ED00E000E400E02DE9F04725
:10A3C00004460E469046002722E0384601F01DFB69
:10A3D0000546384601F020FB814620462946425872
:10A3E0000AB1012200E0002282B14846D4F80413E9
:10A3F000014009B1012100E0002139B12946204680
:10A4000001F00FFB2846D6E900219047781CC7B21F
:10A410004745DADBBDE8F08770B505460C464FF4DA
:10A420008871284601F001F868B14FF48871284618
:10A4300001F002F8607900F0040020B1206810B14A
:10A440000120216888474FF48A71284600F0EDFF0B
:10A4500068B14FF48A71284600F0EEFF607900F091
:10A46000080020B1206810B10220216888474FF40D
:10A470008E71284600F0D9FF68B14FF48E712846DE
:10A4800000F0DAFF607900F0100020B9206810B108
:10A490000020216888474FF48271284600F0C5FFEC
:10A4A00058B14FF48271284600F0C6FF0120207198
:10A4B000206810B103202168884770BD70B505463B
:10A4C0000C464FF48C71284601F088FA38B14FF4ED
:10A4D0008C71284601F089FA2046FFF78AF870BD92
:10A4E00001460348007A08B1012070470020FCE7CC
:10A4F0008C3A00202DE9F0410446A08800EB020CC4
:10A50000B4F80480904501DD104600E0A088A8EB77
:10A510000005E088C618B4F80680984501DD1846A5
:10A5200000E0E088A8EB00074888B4F800804045C8
:10A5300004DB4888B4F80280404502DD0020BDE815
:10A54000F0818888A84202D38888604501D900201C
:10A55000F5E7C888B84202D3C888B04201D90020C4
:10A56000EDE70120EBE70246002104E0505C08B172
:10A5700001207047491C1029F8D30020F9E7014653
:10A5800001F0030008B9012070470020FCE70146F4
:10A59000086808B102680A607047000010B50848F2
:10A5A000007850B1002405E0022C02D02046FDF7CF
:10A5B00095FE641C042CF7D301E0FDF7BBFE10BD33
:10A5C0004C2B002010B501F07FFA00200149887063
:10A5D00010BD00000C350020F721018017214180BB
:10A5E000002101714171FB2181711B21C1717047F3
:10A5F0002DE9FE4F81460F46924698460FB1002640
:10A6000012E0684600F04CFA6A460021484602F023
:10A61000BFFA009E2248007828B99DF8090010B9B9
:10A620000520BDE8FE8F00BF52463146484604F083
:10A63000B8F80446002221464846FFF707F80D2CDB
:10A640001CD005DCCCB1082C1AD00B2C1BD118E087
:10A65000112C04D0A4F540500238A0B90FE03A46BE
:10A66000104801784846FDF75BFB52460E480178DA
:10A670004846FDF755FB002507E000BF00BF00BFBF
:10A6800000BF254601E0032500BF00BFB8F1000F61
:10A6900004D0324621464846FEF7D0FD2846C0E7A2
:10A6A000C02B0020CA2B0020C92B002070B5054606
:10A6B0000E46314628467EDF0446042C00D1112484
:10A6C000204670BD70B504460D46164600BF0B48C7
:10A6D00001782046FDF70EFB70B1204602F002FA29
:10A6E00028B132462946204602F006FA04E03246F6
:10A6F00029462046FEF75CFB70BD0000B02B002011
:10A700002DE9F041044688460A4801782046FDF7C5
:10A71000F1FA0646084801782046FDF7EBFA0746AD
:10A720000123324639462046FFF762FF0546BDE861
:10A73000F0810000C92B0020CA2B002070B505460F
:10A740000C46002624B121462846FFF7AFFF0646F7
:10A75000304670BD2DE9F041064600274748D0F845
:10A76000008078E016B13446E66947E04448007856
:10A7700000EB40014248001D00EBC105001F0078BE
:10A78000401C3F490870084600788978884202D109
:10A7900000203B4908706C68287801281AD00228EC
:10A7A00002D0032817D107E0686804F0FDFA00B171
:10A7B0000127002020744EE007E03049086800219E
:10A7C00001742E4AC169116000BF2C48006800283E
:10A7D000F3D140E000E03EE000BF207C00B13AE071
:10A7E000A8686060E868A0602869E0606869A061A6
:10A7F0002448007808B10020606000BF22496068EA
:10A800000968401A20F07F402049884208D21E493A
:10A810006068096804F05AFAA168084420600FE0F3
:10A8200019486168006804F051FA0546A068A8421A
:10A8300003D9A068401B206001E00020206000BF19
:10A8400000206060A060012020740020E0612046AC
:10A8500004F076FA00BF002E84D109480078084938
:10A8600049788842F8D11FB904480068404502D0B1
:10A870000120BDE8F0810020FBE70000EC2B002068
:10A8800078360020FF2B0020F02B0020FFFF7F00F8
:10A8900070B586B00546002618216846FBF70BFE0A
:10A8A000ADF802504FF6FF70854201D106B070BD81
:10A8B0002846FFF7B5F9044644B10B2C0FD0112CF4
:10A8C0000BD0A4F54050023888B90FE00E208DF867
:10A8D00000006846FEF7F2FC0EE001260CE00F20B7
:10A8E0008DF800006846FEF7E9FC05E004E021462B
:10A8F000284603F09FFC00BF00BF324603480178A2
:10A900002846FDF70DFA00BFD0E70000792B0020A4
:10A9100070B505460C462246024801782846FDF7E8
:10A92000FFF970BD782B0020F0B587B004460026F3
:10A9300000272046FFF7BCF9054645B1112D09D087
:10A94000862D09D0A5F54050023880B901E00127D5
:10A9500012E011E001260FE018220B4901A8FBF7D5
:10A9600091FDADF8064001A8FEF7A8FC04E02946D9
:10A97000204603F05FFC00BF00BF31462046FFF7D2
:10A98000C7FF384607B0F0BDD4F9020008B500BFD4
:10A9900004F0EFFAFBF7F4FEFCF79EF9FCF768F918
:10A9A000FCF76AFCFCF736F8FCF77CF9FBF71CFFB8
:10A9B0001F48006800903AE0FF208DF8000000205A
:10A9C0008DF801008DF8020000242EE09DF80000B3
:10A9D0000F2101FB1400C0B28DF800009DF80100AA
:10A9E0000A2101FB0400C0B28DF801009DF80200AD
:10A9F000052101FB0400C0B28DF80200E0B200990D
:10AA0000FBF730FF0A2505B90EE000BF4FF47A7658
:10AA100006B905E0074F4FEA86184046B84700BF21
:10AA2000681E051EF2D100BF641C102CCEDBC3E7EC
:10AA300018F9020011F9020070B504460D462946C6
:10AA4000204600F0BDF880F0010600BF00BF00BF47
:10AA5000BFF35F8F00BF00BF00BF304670BD70B551
:10AA600004460D4600BF00BF00BFBFF35F8F00BFAD
:10AA700000BF00BF2946204600F0E9F870BD70B560
:10AA800004460D4600BF00BF00BFBFF35F8F00BF8D
:10AA900000BF00BF2946204600F083F870BD0000CB
:10AAA0000EB50021009101910291044909680091BD
:10AAB0009DE80E0080E80E000EBD0000BC2B0020BB
:10AAC00070B505460E464FF6FF70854201D1002055
:10AAD00000E0681C84B208E02146304600F0B7F878
:10AAE00008B1204670BD601C84B2FF2CF4DD4FF627
:10AAF000FF70F7E770B504462046FBF7D6FB054626
:10AB00000DB1002070BD1120FCE710B5044609B955
:10AB10000E2010BD92FBF3F003FB102008B10920BA
:10AB2000F7E7216000206060A060A281E38100BFA0
:10AB3000EFE770B504460D4629462046FBF76AFB51
:10AB400018B12A882168881870BD0020FCE770B50C
:10AB500005460C4620886188884204D12846FBF7C8
:10AB60009BFB012070BD0020FCE770B504460D463C
:10AB700029462046FBF773FB18B16A8821688818BC
:10AB800070BD0020FCE770B505460C462088618842
:10AB9000884204D12846FBF759FB012070BD0020F4
:10ABA000FCE770B505460C4604F01F0301229A40ED
:10ABB000D143620905EB820000F079F8064670BDCA
:10ABC00070B505460C4604F01F03012202FA03F19A
:10ABD000620905EB820000F080F804F01F020121F9
:10ABE0009140084008B1012070BD0020FCE72DE92C
:10ABF000F04106460D46002421E056F82400C043EB
:10AC000090FAA0F0B0FA80F814E008EB4417AF42D5
:10AC100000D312E039463046FFF7D2FF10B938466C
:10AC2000BDE8F08156F82400C04390FAA0F0B0FAD5
:10AC300080F800BFB8F1200FE7D300BF641C681E86
:10AC4000012101EB5010A042D7D82846E8E710B503
:10AC50000246480952F8200001F01F040123A340D6
:10AC6000184008B1012010BD0020FCE770B5054672
:10AC70000C4604F01F03012202FA03F1620905EBFE
:10AC8000820000F040F8064670BD10B50446012170
:10AC9000204600F022F810BDF8B504460D466A467D
:10ACA00029462046FBF74DFB06460098F8BDF8B54F
:10ACB00004460D466A4629462046FBF728FB064611
:10ACC0000098F8BDF8B504460D466A462946204668
:10ACD000FBF737FB06463046F8BDF8B504460D468F
:10ACE0006A4629462046FBF705FB06463046F8BD76
:10ACF000F8B504460D466A4629462046FBF7EEFAAB
:10AD000006463046F8BDF8B504460D466A46294663
:10AD10002046FBF7EFFA06460098F8BDF8B5044662
:10AD20000D466A4629462046FBF718FB0646009862
:10AD3000F8BD30B502460B46D40802F007020120E8
:10AD400090401D5D284030BD30B50B46C20800F074
:10AD500007009C5C012585402C439C5430BD2DE9A7
:10AD6000F04106460F463D46B488012C01DBBDE8A4
:10AD7000F0813088242820D006DC102809D0112842
:10AD80000CD0232823D11DE03A280CD055281ED101
:10AD90000EE03146284601F058FB19E031462846BE
:10ADA00001F035FC14E03146284601F071FC0FE05B
:10ADB0003146284601F036FC0AE03146284601F0CB
:10ADC000A3FB05E03146284601F0C8FB00E000BFC8
:10ADD00000BFA81D00EBC4000079A8B1A81D30F881
:10ADE00034102046A5DF8046B8F1000F0AD10021BB
:10ADF000A81D00EBC40001710121A81D00EBC400D7
:10AE0000417100E000BF00BF00BFB0E7024600BFD5
:10AE10000AB90E20704700BF00BF1078DE2801D0AD
:10AE20000820F7E700BF51800020F3E770B5044623
:10AE30000E4600BF06B970BD00BF00BF04B9FAE7F7
:10AE400000BF354600BF2878DE2800D0F3E700BFFA
:10AE5000A0886988884202D1284604F06FFA2088C9
:10AE6000012806D0022809D0112811D0512817D165
:10AE700009E0211D284601F02DFD12E0211D284684
:10AE800001F027FD0DE0211D284601F0CDFC08E072
:10AE9000A0886988884202D14FF6FF70688000E080
:10AEA00000BF00BF00BFC6E701464FF080404058DA
:10AEB00008B1012070470020FCE708B500224FF0E0
:10AEC00080410A500958009100BF08BD014908603F
:10AED0007047000008030040012291070A507047A4
:10AEE0002DE9F04104460CB9BDE8F08100BF4FF4F4
:10AEF0007A7505B904E0054FAE013046B84700BF8A
:10AF0000601E041EF3D100BFEEE7000081F90200CD
:10AF100010B500240C48007808B1852411E0002009
:10AF20000949886048600861C860084800F0BAFDB7
:10AF3000044600F0A7FC08B900F0AAFD0120024970
:10AF40000870204610BD00000C3500206D890200FD
:10AF500008B5002000906846FCF72AFC0748C06846
:10AF6000401E0649C8600846C06808B9FFF72AFBBA
:10AF70009DF80000FCF722FC08BD00000C35002005
:10AF80002DE9FF4705460C46164698462F781A4885
:10AF900040F82760194840F827804FF00009184B07
:10AFA0000FCB8DE80F0020788DF8000060788DF8C9
:10AFB0000100A0788DF80200E0788DF80300207978
:10AFC0008DF8050060798DF80600A0680290207B5E
:10AFD0008DF80C00607B8DF80D000EB1094800E083
:10AFE000002002463B466946281D00F0EDFE8146E2
:10AFF000484604B0BDE8F087203500202C350020FD
:10B000002CFB0200BDE9020010B50446201D00F033
:10B01000C1FF10BD2DE9F04188B004460F4615462A
:10B0200026780E4840F826500D49386941F8260028
:10B03000202239466846FBF725FA04964FF00008AF
:10B040000DB1084800E0002002466946201D01F0CD
:10B0500037F88046404608B0BDE8F081D02B00208C
:10B06000D42B002021F102002DE9F04104460D46C9
:10B070001646002732462946201D01F065F807468E
:10B080003846BDE8F0812DE9F04104460D461646EC
:10B09000002732462946201D01F0E8F807463846C9
:10B0A000BDE8F0812DE9F04104460E4615461F46E5
:10B0B00000BF00BF00BF00BF00BF00BF00BF3146E0
:10B0C0002046FCF758F900BF00BF6068006800FB2D
:10B0D00005F231462046FCF764F900BF20683B4684
:10B0E0002A463146D0F810C02046E047BDE8F0813E
:10B0F00002460120044B58741846007A08B9012012
:10B1000070470020FCE700008C3A002070B5044630
:10B110000D46012C01D0032C0BD1002005494874A9
:10B12000012C01D1012000E000200249087402F046
:10B13000EDFA70BD8C3A002070B504460E46022C24
:10B1400002D0032C00D070BD1C48007A20B1012829
:10B1500003D0022826D101E0F5E723E00025022CE8
:10B1600002D0032C0CD105E01548006801F00CFB5F
:10B17000054606E01248006801F0F4FA054600E0D2
:10B1800000BF00BF6DB100200C490872022C00D135
:10B1900000E00D2001460A480068FEF71BF802F0A7
:10B1A0001DFA00BF00BF0548407C10B902F0AEFA9E
:10B1B00001E000F06DFB00BFC5E700008C3A002005
:10B1C000442C00202DE9F84304460D4616461F4640
:10B1D000DDF8208000BF00BF00BF00BF00BF00BF80
:10B1E00000BF00BF00BF00BF00BF2846FCF7BBF890
:10B1F00000BF00BF3046FCF7B6F800BF00BF3A46BC
:10B2000029462046FCF7CDF800BFCDF80080206825
:10B210003B4632462946D0F80CC02046E047BDE800
:10B22000F883F0B5DDE9054500BF4FF0A0473E4685
:10B2300041EA420747EA830747EA042747EA054C01
:10B2400006F5E06747F820C0F0BDF0B5DDE905453B
:10B2500000BF4FF0A0473E4641EA420747EA830756
:10B2600047EA042747EA054C06F5E06747F820C09F
:10B27000F0BDF0B5002213461446154600BF4FF04E
:10B28000A0473E4642EA430747EA810747EA0427C8
:10B2900047EA054C06F5E06747F820C000BFF0BD5F
:10B2A0007CB505460C460020009023460246014628
:10B2B00001902846FFF7B5FF7CBD1CB50446002071
:10B2C000009003460122114601902046FFF7A9FF96
:10B2D0001CBD1CB504460020009003460122114607
:10B2E00001902046FFF7B1FF1CBD10B50A4600BF14
:10B2F0004FF0A043194601F5E06353F8203023F4E2
:10B30000403401F5E06343F8204053F8203043EA2D
:10B31000024401F5E06343F8204010BD00BF4FF048
:10B32000A0410A46012303FA00F1C2F80C1500BF40
:10B33000704700BF4FF0A0410A46012303FA00F115
:10B34000C2F8081500BF704700BF4FF0A0410A4681
:10B35000012303FA00F1C2F8081500BF704710B5C9
:10B3600061B900BF00BF4FF0A0421346012404FAA8
:10B3700000F2C3F80C2500BF00BF0CE000BF00BF07
:10B380004FF0A0421346012404FA00F2C3F8082546
:10B3900000BF00BF00BF10BD38B50B46074C246886
:10B3A0000094014606E05DF82140D4F81055156080
:10B3B000121D491CC4188C42F5D838BD3CFB020054
:10B3C00001460148084470470060004038B5044613
:10B3D0002046FFF7F5FF002101602046FFF7F0FF50
:10B3E0000068009000BF38BD10B504462046FFF746
:10B3F000E7FF0068012800D110BD0020FCE700BF76
:10B4000000BF00BFBFF35F8F00BF00BF00BF0021C0
:10B410000160704700BF00BF00BFBFF35F8F00BF78
:10B4200000BF00BF0021016070470246505808B1BC
:10B43000012070470020FCE708B500224250425826
:10B44000009200BF08BDC0F800137047C0F8141583
:10B45000704710B5136800F5A46404EB4114236031
:10B4600000BF938800F5A46404EB4114636000BF3F
:10B47000936800F5A46404EB4114A36000BFD36893
:10B4800000F5A46404EB4114E36000BF10BDC0F8F4
:10B4900000127047012242507047000070B5044608
:10B4A000144D01212846FFF723FC064600BF00BFCC
:10B4B00000BF00BFBFF35F8F00BF00BF00BF0EB96A
:10B4C000012000E0002000B970BD042C0BD00A4818
:10B4D000007818B10748FFF79DFFF5E707480470AB
:10B4E00001200549087003F07DF80248FFF792FF3C
:10B4F00000BFE9E7502C0020542C00204C2C0020E9
:10B500002DE9F84304460D4617464FF00008002089
:10B5100000906846FCF74CF9204600F03FF898BBD5
:10B520002068066837B920680168204600F051F8A5
:10B5300021680860E068012806D0022808D00428A5
:10B540000BD0082815D10DE06068805D287019E0E7
:10B55000606830F81600288014E0606850F8260013
:10B5600028600FE0606800EBC60003C8C5E9000171
:10B5700008E0E368606806FB03011A462846FAF70C
:10B5800081FF00BF00BF02E0FFE74FF005089DF814
:10B590000000FCF713F94046BDE8F883014608684F
:10B5A0000268086843689A4201D101207047002070
:10B5B000FCE770B504462068056820684668314697
:10B5C000204600F006F8A84201D1012070BD0020FD
:10B5D000FCE702469068884201D9481C7047002069
:10B5E000FCE72DE9F84304460D464FF00009002022
:10B5F00000906846FCF7DCF82046FFF7DAFF80464B
:10B60000B8F1000F02D0207C002847D1206846689E
:10B61000206841682046FFF7DCFF21684860B8F1E8
:10B62000000F06D0206801682046FFF7D2FF21688E
:10B630000860E068012806D0022808D004280BD052
:10B64000082816D10DE02878616888551AE0288806
:10B65000616821F8160015E02868616841F8260045
:10B6600010E0D5E90010626802EBC602C2E90010E2
:10B6700008E0E368616806FB03101A462946FAF7FA
:10B6800001FF00BF00BF204602F0A2F80746206875
:10B690008168B94201D22068876001E04FF0040957
:10B6A0009DF80000FCF78AF84846BDE8F8830000E2
:10B6B000024A1060121D1160704700002C76004095
:10B6C00001460348085808B1012070470020FCE7F4
:10B6D0000070004008B50021034A815011464158CE
:10B6E000009100BF08BD0000007000400121014A28
:10B6F00081507047007000402DE9F041ADF5027DAA
:10B7000080461848007818B90DF5027DBDE8F08133
:10B710001DE04FF4FA70049004A905A861DF044607
:10B7200004B115E005AD104901A800F0F2F809E0F8
:10B7300000BF03980646376828467168B84701A8D5
:10B7400000F008F900BF03980028F1D100BFE0E73E
:10B7500000BF052C04D000BF2046FBF70BFF00BF45
:10B7600000BFD1E7582C0020C8FC020038B51648AD
:10B77000007808B9082038BD01201449087002F08B
:10B78000C5FB112801D10020F5E7022002F0DCFB07
:10B79000002000906846FCF70BF811DF04460020FB
:10B7A000094908709DF80000FCF708F80CB1204624
:10B7B000E1E700200549087003F096F8032002F045
:10B7C000C3FB0020D7E70000552C0020572C002099
:10B7D0001CB51B48007808B108201CBD0120194980
:10B7E0000870002002F092FB112801D10020F4E73C
:10B7F000002002F0A9FB144800680190002000908E
:10B800006846FBF7D5FF114901A810DF04460CB9C3
:10B81000012000E000200A4908709DF80000FBF7B5
:10B82000CDFF0CB12046D8E7002006490870084932
:10B83000087003F08FF8012002F086FB0020CCE7AF
:10B84000552C0020572C0020A4FC02001575020086
:10B85000562C00203EB50A49684600F05AF809E027
:10B86000684600F053F8044625686068A8476846B3
:10B8700000F070F8684600F049F80028F0D13EBDAD
:10B8800098FC02000148007870470000552C002009
:10B8900010B50748007808B9082010BD05480078A1
:10B8A00010B1FFF763FFF8E7FFF792FFF5E700003D
:10B8B000572C0020552C00202DE9FF41074618E0A9
:10B8C00003A84BDF044604B114E00F49684600F0BA
:10B8D00020F809E000BF029805462E6869680398C1
:10B8E000B047684600F036F800BF02980028F1D152
:10B8F00000BFE5E700BF052C04D000BF2046FBF7E2
:10B9000039FE00BFBDE8FF81E8FC020001468868FF
:10B91000704770B504460D46256028686060204673
:10B9200000F001F870BD14E0D0E9002152689142A6
:10B9300002D10021816070474168096842685268FD
:10B94000914203D0416809688160F4E74168083199
:10B950004160E9E710B50446A06800B910BD216850
:10B96000A06889680844A060D4E901104968884249
:10B9700005D16068083060602046FFF7D4FF00BF43
:10B98000ECE700002DE9F04104460D4623460B4A42
:10B99000294604F10800FFF7F3FA064656B9206875
:10B9A0000021016095E88E00001D8EC01438011D35
:10B9B000416100BF3046BDE8F081000073E902003C
:10B9C00073B5044601A96068FFF70BFE05461DB973
:10B9D0000021204603F09AF828467CBD02465058C4
:10B9E00008B1012070470020FCE708B50022425052
:10B9F0004258009200BF08BDC0F808137047C0F855
:10BA00000413704701224250704701464FF4A07062
:10BA100000EB810080B2704701464FF480308840CF
:10BA2000704708B5002242504258009200BF08BD3E
:10BA30000146D1F88004C1F880047047024650588E
:10BA400008B1012070470020FCE708B500224250F1
:10BA50004258009200BF08BDC0F80815C0F8102574
:10BA60007047C0F808137047C0F8041370470246C7
:10BA7000D2F80403084008B1012070470020FCE719
:10BA8000012242507047C0F81425C0F80C157047C9
:10BA900010B500F04FF801200149086000BF10BD4B
:10BAA0001805004001460020064A12790AB1852097
:10BAB00006E0044A11600122024B1A7100225A71F9
:10BAC00070470000DC2B002010B50C20FFF704FAB3
:10BAD00000BF00BF03480068C0F300400028F8D151
