:020000040002F8
:10600000F8660020C1630200C96302008D700200BF
:10601000CD630200CF630200D163020000000000E4
:10602000000000000000000000000000D363020038
:10603000D563020000000000D7630200D9630200AC
:1060400081780200DB63020071810200217E020080
:10605000357E0200DB630200B16D0200F97B0200B5
:10606000DB630200ED80020005810200DB630200B9
:10607000DB630200DB630200DB630200DB63020020
:10608000DB630200C57B0200DB630200DB6302000E
:10609000497E0200DB630200517E0200DB630200E6
:1060A000DB630200DB6302001D8102003581020018
:1060B000D5780200DB630200000000000000000051
:1060C000DB630200E9780200DB630200DB630200AD
:1060D000DB630200DB630200DB6302000000000000
:1060E00000000000000000000000000000000000B0
:1060F00000000000000000000000000000000000A0
:10610000000000000000000000000000000000008F
:10611000000000000000000000000000000000007F
:10612000000000000000000000000000000000006F
:10613000000000000000000000000000000000005F
:10614000000000000000000000000000000000004F
:10615000000000000000000000000000000000003F
:10616000000000000000000000000000000000002F
:10617000000000000000000000000000000000001F
:10618000000000000000000000000000000000000F
:1061900000000000000000000000000000000000FF
:1061A00000000000000000000000000000000000EF
:1061B00000000000000000000000000000000000DF
:1061C00000000000000000000000000000000000CF
:1061D00000000000000000000000000000000000BF
:1061E00000000000000000000000000000000000AF
:1061F000000000000000000000000000000000009F
:10620000DFF80CD000F0FEFB0048004749D3020045
:10621000F866002030B450E8012F93B2C4892344BB
:106220008489A34228BF1B1B0489A34202BFBFF37A
:106230002F8F002007E0C3EA020340E80134002C5E
:10624000E9D14FF001000A6030BC704750E8012FDF
:10625000C2EA024240E801210029F7D1704730B478
:1062600050E8022F1FFAA2F3C488A34202BFBFF373
:106270002F8F00200DE0C48923448489A34228BFC6
:106280001B1BC2EA034340E80234002CE8D14FF064
:1062900001000A6030BC704750E8022FC2EA224277
:1062A00040E802210029F7D17047034653E8022F46
:1062B000D988B2EB324F4FF0000017BF92B241EADB
:1062C000014142EA014104E05A68B2EB324F08BF93
:1062D000012043E80212002AE8D1704730B4044696
:1062E00054E8000F0D4644E80053002BF8D1156028
:1062F00030BC704730B4044654E8000F40EA010552
:1063000044E80053002BF7D1156030BC704730B41F
:10631000044654E8000F00EA010544E80053002B4E
:10632000F7D1156030BC704730B4044654E8000F14
:1063300080EA010544E80053002BF7D1156030BC1A
:10634000704730B4044654E8000F00EB010544E800
:106350000053002BF7D1156030BC704730B40446B1
:1063600054E8000FA0EB010544E80053002BF7D1DF
:10637000156030BC704770B404464FF0000054E81C
:10638000006F0D68AE4207BF44E80023012044E8D7
:1063900000630E60002B1CBF0020F0E770BC70474C
:1063A00030B4044654E8000F88422CBF451A054615
:1063B00044E80053002BF5D1156030BC7047000055
:1063C0000648804706480047FEE7FEE7FEE7FEE78F
:1063D000FEE7FEE7FEE7FEE7FEE7FEE7697E020076
:1063E000016202002DE9F05F0546002092469B46BF
:1063F00088460646814640241BE0284641464746DB
:10640000224600F02FF853465A46C01A914110D345
:1064100011461846224600F016F82D1A67EB0108BF
:106420004F4622460120002100F00DF817EB00092D
:106430004E41201EA4F10104DFDC484631462A46C5
:106440004346BDE8F09F202A04DB203A00FA02F11F
:10645000002070479140C2F1200320FA03F3194352
:1064600090407047202A04DB203A21FA02F00021F4
:10647000704721FA02F3D040C2F120029140084354
:106480001946704740EA01039B0703D009E008C999
:10649000121F08C0042AFAD203E011F8013B00F8E9
:1064A000013B521EF9D27047D2B201E000F8012B35
:1064B000491EFBD270470022F6E710B513460A4684
:1064C00004461946FFF7F0FF204610BD30B50446DC
:1064D0000020034600E05B1C934203D2E05CCD5CED
:1064E000401BF8D030BD2DE9FE4F804681EA030005
:1064F000C00F0C46009021F0004123F00045B8EB9E
:106500000200A94105D24046214690461C460B4652
:10651000024623F00040104347D0270DC7F30A007E
:10652000C3F30A510290401A019040286BDAC3F37A
:10653000130040F4801B0098924620B10023D2EB58
:10654000030A63EB0B0B01985946C0F14002504619
:10655000FFF779FF06460D4650465946019A00F06E
:10656000C9F810EB08006141002487EA115284EA5F
:10657000E7731A4340D0009A62B3019A012A4FEAA6
:10658000075215DC001B61EB02014FF0004202EAEA
:106590000752CDE90042001C41F5801132462B46DE
:1065A00000F000F903B0BDE8F08F40462146F9E75E
:1065B000001B61EB0201001C41F5801300185B41D8
:1065C0002018A2F5001747EB030140EAD570B61971
:1065D0006D4111E06D084FEA360645EAC0754FEA95
:1065E0000752001B61EB0201001C41F580114908B4
:1065F0004FEA30000019514132462B4603B0BDE846
:10660000F04F00F0C0B80098012240000023D0EB0A
:10661000020263EBE073009821464FEAE074B8EBA6
:10662000000061EB0401E9E783F000435BE781F0E0
:10663000004158E7C1F30A5210B5C1F3130140F20B
:10664000FF3341F480119A4201DA002010BD40F27C
:1066500033439A42A2F2334203DC5242FFF702FF75
:1066600010BD904010BD00F0004230F000400AD054
:10667000C10D01F56071C0F3160042EA0151C20874
:1066800040071143704700200146704730B5041E93
:1066900071F1000404DB4FF00044404264EB01015F
:1066A000141E73F1000405DB1C464FF000435242F8
:1066B00063EB0403994208BF904230BD01F00043F0
:1066C00030B421F0004150EA010206D00A0DA2F5D3
:1066D0006072C1F31301002A02DC30BC0020704755
:1066E000440F44EAC104C100E01830BC00EBC250C2
:1066F00000F012B8202A06DBCB17203A41FA02F04C
:1067000043EAE07306E041FA02F3D040C2F120020E
:1067100091400843194670470029A8BF7047401CA4
:10672000490008BF20F00100704710B4B0FA80FCA7
:1067300000FA0CF050EA010404BF10BC704749B1E4
:10674000CCF1200421FA04F411FA0CF118BF012154
:1067500021430843A3EB0C01CB1D4FEA00614FEA34
:10676000102042BF002010BC704700EBC350104403
:106770000029A4BF10BC7047401C490008BF20F08E
:10678000010010BC704710B5141E73F1000408DA44
:10679000401C41F1000192185B411A4301D120F0E5
:1067A000010010BD2DE9F04D92469B4611B1B1FAA2
:1067B00081F202E0B0FA80F220329046FFF743FE09
:1067C00004460F4640EA0A0041EA0B0153465A4686
:1067D000084313D0114653EA010019D0C8F1400212
:1067E0005046FFF73FFE05460E4650465946424684
:1067F000FFF729FE084305D0012004E02046394672
:10680000BDE8F08D0020054346EAE0762C4337438F
:106810000A986305E40AA0EB08000022FD0A44EA96
:1068200047540A3002D500200146E9E70105101956
:106830006941DDE9084500196941BDE8F04DA2E76D
:106840002DE9FE4F81EA030404F0004421F00041E9
:1068500000944FF0000B23F0004350EA01045ED097
:1068600052EA03045BD0C3F30A54C1F30A552C4423
:10687000A4F2F3340194A0FB0254C1F3130141F4D8
:106880008011C3F3130343F4801301FB024400FBA4
:10689000034E840A970A44EA815447EA8357A4FBCB
:1068A000076802958D0A05FB07854FEA932C04FBC8
:1068B0000C542705029D4FEA065847EA1637B5EBF8
:1068C00008056EEB070C870E920E47EA811742EA25
:1068D0008312A7FB0201B6EB0B0164EB00042B0D46
:1068E00043EA0C335E1844EB1C50DA465146E7FB92
:1068F0000201C5F313044FEA0B3343EA14534FEA82
:106900000432019C43EA0603A4F10C040294009CA7
:10691000CDE900B4FFF746FF03B0BDE8F08F0020DB
:106920000146F9E72DE9F04D81EA030404F0004B3C
:1069300021F0004514464FF0000A23F0004150EAD0
:10694000050220D054EA01021DD0C5F30A570246C1
:10695000C5F31303C1F31300C1F30A5640F48015C5
:1069600043F48013A7EB0608101BD64608F2FD3847
:1069700073EB050002D308F1010801E092185B41B6
:10698000B8F1000F03DA00200146BDE8F08D0020C9
:106990004FF48011064684460EE0171B73EB050783
:1069A00005D3121B63EB050306434CEA010C4908AF
:1069B0004FEA300092185B4150EA0107EDD152EAEC
:1069C000030012D082EA040083EA0501084305D0DF
:1069D000101BAB4106D20122002306E000224FF03B
:1069E000004302E06FF0010253101AEB06004CEB7B
:1069F000085110EB0A0041EB0B01BDE8F04DFFF729
:106A0000C2BE0000064C074D06E0E06840F00103FE
:106A100094E8070098471034AC42F6D3FFF7F4FB34
:106A200078360300983603002DE9F04D00231A460E
:106A30001B1A8A4103DB00200146BDE8F08DC1F33B
:106A40000A52C1F3130141F480154FF0000BD10736
:106A500002D100186D41521E0027044640F2FF117A
:106A6000384601EB620A3E468046024600204FF45B
:106A70008011FFF7F7FCC2197141BB1846EB01000A
:106A8000B4EB030C75EB000C04D3E41A65EB0005C2
:106A900017460E46241908F101006D41804634283E
:106AA000E3DDF91946EB0600091BA84103D24FF0BC
:106AB000FF32134601E0002213461BEB070046EBB2
:106AC0000A51BDE8F04DFFF75EBE0EB5C10F80EA7A
:106AD000E0700844CA07002140F233438DE80E00FD
:106AE0000A460B46FFF75EFE03B000BD0EB540F24E
:106AF000334102910021CDE900110A460B46FFF710
:106B000051FE03B000BD70B5C1F30A5201F000455B
:106B10000024C1F3130140F2FF3341F480119A4283
:106B200001DA002070BD40F233439A42A2F23342B0
:106B300003DC5242FFF796FC00E090402C43F1D07A
:106B4000404270BD70B58C1810F8015B15F007035A
:106B500001D110F8013B2A1106D110F8012B03E0F6
:106B600010F8016B01F8016B5B1EF9D12B0705D4FE
:106B70000023521E0DD401F8013BFAE710F8013B47
:106B8000CB1A921C03E013F8015B01F8015B521E63
:106B9000F9D5A142D8D3002070BD000070B50546DC
:106BA0000E461C2007F03BFF0446012C02D103498E
:106BB000087002E000200149087070BDA62A00207C
:106BC00090ED000AB8EEC00ADFED120A80EE201A3E
:106BD00081ED001A90ED010AB8EEC00ADFED0D0A52
:106BE00080EE201A81ED011A90ED020AB8EEC00A7B
:106BF000DFED080A80EE201A81ED021A90ED030AFB
:106C0000B8EEC00ADFED030A80EE201A81ED031A08
:106C1000704700000000804E10B507F089FA00F0C0
:106C20008BFB10BD70B52DED088B04460E46154646
:106C300094ED000AB5EEC00AF1EE10FA1CDD94EDF9
:106C4000000ADFED530A20EE200A10EE101A084663
:106C5000FFF709FD41EC1A0BB0EE4A0AF0EE6A0AA2
:106C600001F0C6FEB0EE409AF0EE609A51EC190BBE
:106C7000FFF7E0FC30702EE094ED000AB5EEC00A9C
:106C8000F1EE10FA27D894ED000ADFED420A30EE5B
:106C9000C00ADFED3F0A20EE200A10EE101A084667
:106CA000FFF7E1FC41EC1B0BB0EE4B0AF0EE6B0A78
:106CB00001F09EFEB0EE40AAF0EE60AA9FED360B0A
:106CC00053EC102B51EC1A0BFFF7B1FC41EC190BF4
:106CD000FFF7B0FC30700020A87094ED020ADFEDE1
:106CE000300A30EE200A10EE101A0846FFF7BBFCFF
:106CF00041EC1B0BB0EE4B0AF0EE6B0A01F004FF07
:106D0000B0EE40AAF0EE60AA9FED260B53EC102BDC
:106D100051EC1A0BFFF7E7FB41EC190BFFF7CEFC28
:106D200008EE900A9FED210A28EE800ABCEEC00A08
:106D300010EE100A287094ED010A10EE101A0846A1
:106D4000FFF791FC41EC1B0BB0EE4B0AF0EE6B0A27
:106D500001F0DAFEB0EE40AAF0EE60AA9FED110B52
:106D600053EC102B51EC1A0BFFF7BDFB41EC190B48
:106D7000FFF7A4FC08EE100A9FED0C0A28EE000AAB
:106D8000BCEEC00A10EE100A6870BDEC088B70BD36
:106D90005C8F2240000000000000000000002E4038
:106DA000DB0FC93F000000000000F03F0000FF4281
:106DB0002DE9F04F89B00027002008904FF4807033
:106DC00007900126002412E0079807F0ADFE40B1BD
:106DD00000BF7B480068304018B1079807F096FE66
:106DE000374376000798001D80B20790641C082C7A
:106DF000EAD34FF4BE7007F097FE50B14FF4BE7067
:106E000007F084FE47F0004708AA0121002007F0A0
:106E100063FEF8B200B3012600241BE006EA070077
:106E2000B0B100BF674850F82400C0F3042080468A
:106E300000BF644850F82400C0F30140814620465A
:106E400003F024FD054615B149464046A84700BF5A
:106E50007600641C082CE1D307F0004000287DD0A8
:106E6000002006900590002505E04FF0FF3004A9B2
:106E700041F825006D1C002DF7D000BF00200690C2
:106E800000245FE05048005D0390039820F0C009A3
:106E90004D480057401C002853D004A9484607F02D
:106EA0000AFB00284DD003984FEA901A484603F099
:106EB00035FD804603F0EAFC0290029810B9BAF161
:106EC000030F3DD1BAF1030F03D105A9484607F0DE
:106ED000FDFA00BF00BF4FF0A041084600F5E06199
:106EE00051F82910C1F3014800BF08A9484607F02E
:106EF000E2FA8346BBF1000F02D0B8F1020F05D0D1
:106F0000BBF1000F1BD1B8F1030F18D1BAF1030F79
:106F10000FD1B8F1020F01D1032000E0022001904F
:106F20004846019907F057FD0698401CC0B20690EC
:106F300000BF029818B151464846029A904700BFD8
:106F400000BF641C002C9DD0069888B34FF0010848
:106F500003AA0121002007F0BFFD00E02DE000257D
:106F60000BE003A850F8250008A951F82510884225
:106F700002D04FF0000802E06D1C002DF1D000BFE0
:106F8000B8F1000F02D00020069010E000250CE0C0
:106F900003A850F8250008A941F8250005A850F8D5
:106FA000250004A941F825006D1C002DF0D000BF7C
:106FB000069800287FF462AF00BF09B0BDE8F08FEB
:106FC0000463004010650040644200203EB508F0B4
:106FD00001FA044600BF254625B100BF284602F04D
:106FE0006BFB00BF00BF25480068029000208DF8B1
:106FF0000900234A02A91C2008F072F9044600BFC8
:10700000254625B100BF284602F056FB00BF00BF51
:107010001A48001D0068019000208DF80500194AEB
:1070200001A90C2008F05CF9044600BF254625B1F3
:1070300000BF284602F040FB00BF00BF0F480830E9
:107040000068009000208DF801000F4A69461E205C
:1070500008F046F9044600BF254625B100BF284682
:1070600002F02AFB00BF00BF01211C2008F0E2F85B
:1070700001211E2008F0DEF83EBD0000E82F0300CD
:107080004D810200D17002009D6B020000BF00BF65
:1070900000BF00BF00BFBFF34F8F00BF00BF00BFE6
:1070A0000948006800F4E06008490843001D0649EB
:1070B000086000BF00BF00BFBFF34F8F00BF00BF1D
:1070C00000BF00BF00BFFDE70CED00E00000FA05C7
:1070D0000122014B1A707047A42A00201CB500F051
:1070E00011F814240020009003460122114601905B
:1070F000204607F028FC00BF0121142007F0B2FC55
:107100001CBD00001FB5044B0FCB8DE80F00694676
:10711000024807F0F5FF1FBD343003001C300300A8
:10712000F0B58DB007460D4616461C4600201A499C
:1071300008701A48076006710020184988600873B3
:107140001822174907A8FFF79DF907A9154807F066
:10715000F5FF04E010480078012800D100E0F9E7CD
:1071600000BF00200C4908700C49086008460471F3
:107170008560047318220A49183101A8FFF782F9C3
:1071800001A9084807F0DAFF05E003480078012864
:1071900001D10DB0F0BDF8E7002B00209C3B002092
:1071A000743003001C30030070B505460C46002007
:1071B0000949087009480560047100200749886082
:1071C00008730749074807F0B9FF04E00248007850
:1071D000012800D170BDF9E7002B00209C3B002066
:1071E000042B00201C30030070B58CB006460D4601
:1071F000144600201B4908701B48066001201A49EC
:1072000008710020886008731822184906A8FFF743
:1072100039F906A9164807F091FF04E011480078F3
:10722000012800D100E0F9E700BF00200D490870F7
:107230000D48056004710F480B49886008460473C7
:1072400018220A4918316846FFF71CF969460848B0
:1072500007F074FF05E003480078012801D10CB065
:1072600070BDF8E7002B00209C3B00204430030059
:107270001C300300AC3B002010B504460021142054
:1072800007F0F0FB00200149087010BD002B002022
:1072900070B504460D460121142007F0E3FB0120E0
:1072A0000149087070BD0000002B00200122014B35
:1072B0001A707047002B002010B5044621469E200E
:1072C00000F01EFA10BD000070B50025002018491E
:1072D00008704870002404E00221154800F0BCF951
:1072E000641C032CF8DB1720114908701820487023
:1072F000002414E002231A460E490D4800F08AF9D2
:10730000FF200B49087048700A480078172805D1FB
:1073100008484078182801D1E5B200BF641C042C4D
:10732000E8DB032D01D1012070BD0020FCE7000047
:10733000802B0020842B002070B500F013FB00266A
:10734000002411E04FF4A050154921F81400022C3C
:1073500004D131F8140000F0DEF804E0104931F8EF
:10736000140000F099F9641C032CEBDB002513E0FA
:1073700000200B4921F81500022D04D131F8150029
:1073800000F0C2F804E0064931F8150000F084F975
:10739000052007F067F96D1C032DE9DB012070BDA6
:1073A000862B002010B5044621468C2000F0A8F959
:1073B00010BD10B500F0BCFA642007F053F9FFF7D8
:1073C00083FF0446204610BD2DE9F041054601200B
:1073D00000F0F4F800242CE004EB4400284480780A
:1073E0004FF6FF7101EA0020C4F10F0101EB4101EA
:1073F000434A22F8110004EB4400284440784FF639
:10740000FF7101EA0020C4F10F0101EB410102EB21
:107410004101488004EB4400285C4FF6FF7101EA0B
:107420000020C4F10F0101EB410102EB4101888012
:10743000641C0F2CD0DB2F20405D4FF6FF7101EA5A
:1074400000202F4908802E20405D4FF6FF7101EA91
:1074500000202B49488095F82D004FF6FF7101EA76
:1074600000202749888000241AE0002715E0022F19
:1074700009D104EB4401224A02EB410131F8170023
:10748000FFF71AFF08E004EB44011D4A02EB41013B
:1074900031F8170000F000F97F1C032FE7DB641CB4
:1074A0000F2CE2DB00BF00240FE0022C06D11449B0
:1074B0005A3131F81400FFF775FF05E010495A31D1
:1074C00031F8140000F0E8F8641C032CEDDB00BF79
:1074D000002611E04FF6FF700A4921F81600022E2F
:1074E00004D131F8160000F00FF804E0054931F836
:1074F000160000F0D1F8761C032EEBDBBDE8F0811E
:10750000C83C0020862B002010B504462146AC2044
:1075100000F0F6F810BD10B504462146802000F0BA
:10752000EFF810BD70B50025102000F047F80024DA
:1075300013E04FF6FF70204921F81400022D05D109
:1075400031F81400FFF7B8FE002505E01A4931F8BC
:10755000140000F0A1F86D1C641C302CE9DB002441
:1075600011E04FF6FF70144921F81400022C04D1E9
:1075700031F81400FFF716FF04E00F4931F814004A
:1075800000F08AF8641C032CEBDB002411E04FF6BA
:10759000FF70094921F81400022C04D131F81400BD
:1075A000FFF7B2FF04E0044931F8140000F074F86A
:1075B000641C032CEBDB70BD083C002070B5054655
:1075C000002410E0094820F81450022C05D101468F
:1075D00031F81400FFF79FFF04E0044931F814006C
:1075E00000F05AF8641C032CECDB70BD862B0020E5
:1075F00010B500F001F810BD1FB5044B0FCB8DE89E
:107600000F006946024807F07BFD1FBDBC30030038
:10761000A43003002DE9F04104460D4616461F46EE
:1076200000200949087009480460067185600773E5
:107630000749084807F082FD05E003480078012863
:1076400001D1BDE8F081F8E7342B0020F83B0020A1
:10765000502B0020A430030070B505460C460020D6
:1076600009490870094805600471002007498860CD
:1076700008730749074807F061FD04E002480078F5
:10768000012800D170BDF9E7342B0020F83B002021
:10769000382B0020A430030038B50446200A8DF8AA
:1076A0000000E0B28DF8010002216846FFF7D4FF28
:1076B00038BD000070B506460C4615460B480680DE
:1076C00000200B4908700B4804600571002009492F
:1076D000886008730849094807F030FD04E0044851
:1076E0000078012800D170BDF9E70000362B00209A
:1076F000352B0020F83B0020682B0020A43003002D
:1077000038B505460C46200A8DF80000E0B28DF829
:107710000100022269462846FFF7CCFF38BD000071
:107720000021014A11707047342B002010B5044627
:107730000348008800F040F900200249087010BD9D
:10774000362B0020352B00200122014B1A70704788
:10775000342B00200122014B1A707047352B00207A
:1077600010B5012006F034FB10BD00002DE9FE43EA
:1077700006F02EF8074617B10020BDE8FE837820FA
:1077800006F06EFC782005F093FF142006F01EFC36
:1077900001A806F00DF8684605F0E8FF02A805F01C
:1077A000BFFF03F097FC134C204605F0BDFA0546D9
:1077B000E01C05F0B9FA45EAC00085B2A01D05F04D
:1077C000B3FA45EA801085B200BFA846404603F0F0
:1077D000B9FD094803F076FD084803F06BFD40F25F
:1077E0007116304603F01EFB142003F073FD0020D9
:1077F000C3E70000AF3700200578020001780200DF
:1078000000BF704708B58DF800008DF8011008BD65
:1078100000F01F0201219140024A430942F823105F
:107820007047000080E200E000F01F02012191405B
:107830004209920002F1E022C2F8001170470000F4
:1078400000F01F0201219140024A430942F823102F
:107850007047000000E200E010B5002807DA4A0790
:10786000140E054A00F00F031B1FD45403E04A070F
:10787000130E024A135410BD18ED00E000E400E0BE
:1078800010B54FF4807006F0D1FE80B14FF48070D7
:1078900006F0D5FE012006F0DBFE0D48407930B938
:1078A00001200B49487108460168002088474FF4C1
:1078B000827006F0BBFE50B14FF4827006F0BFFE3E
:1078C000022006F0C5FE024801680120884710BD6D
:1078D0004438002010B50249024805F07AFA10BD7C
:1078E0006C42002000C0014010B50249024805F07A
:1078F00070FA10BD74420020001002403EB50A4AE2
:1079000007CA8DE8070000226946084807F048FECC
:10791000044600BF254625B100BF284601F0CCFE35
:1079200000BF00BF3EBD000000300300B02A0020B1
:1079300010B502200849088008460849086004205C
:107940008880012088600020C86002230A22044841
:1079500007F0C2FE10BD0000C02A0020DC38002065
:10796000B02A002010B501231A460449044807F044
:10797000B3FE0121024807F0F1FE10BDDC38002003
:10798000B02A00203EB50A4A07CA8DE80700002247
:107990006946084807F004FE044600BF254625B1A5
:1079A00000BF284601F088FE00BF00BF3EBD0000BA
:1079B000F42F0300A82A002010B5044607480480CD
:1079C0000749086004208880012088600020C86082
:1079D00001231A46034807F07FFE10BDB82A002095
:1079E000CC380020A82A00202DE9F0412DED088B8D
:1079F00084B004460D4694ED000AD4ED010A20EE51
:107A0000200AD4ED020A94ED031A00EE810AF0EE8A
:107A1000000A20EE200A10EE108A94ED010A20EEF2
:107A2000000AD4ED020A94ED021A00EE810AF7EE84
:107A3000000AB0EE001A41EE400A10EE907A384685
:107A4000FEF711FE41EC1A0B4046FEF70CFE41EC2E
:107A50001B0BB0EE4A1AF0EE6A1AB0EE4B0AF0EECB
:107A60006B0A00F0C1FEB0EE409AF0EE609A51EC65
:107A7000190BFEF723FEA86094ED000AD4ED020A6C
:107A800020EE200AD4ED030A94ED011A00EEC10A9B
:107A9000F0EE000A20EE200A10EE106A3046FEF7E3
:107AA000E2FD41EC1A0BB0EE4A0AF0EE6A0A00F071
:107AB00093FFB0EE409AF0EE609A9FED3E0B53ECD0
:107AC000102B51EC190BFEF7E1FD19D89FED3B0B84
:107AD0008DED000B3046FEF7C6FDCDE902010199A0
:107AE000039861F31E0001909DED000BB0EE409AEB
:107AF000F0EE609A51EC190BFEF7E0FD686013E0C0
:107B00003046FEF7B0FD41EC1A0BB0EE4A0AF0EE3B
:107B10006A0A00F04DFBB0EE409AF0EE609A51EC2C
:107B2000190BFEF7CBFD686094ED000AD4ED030A53
:107B300020EE200AD4ED010A94ED021A00EE810A2B
:107B4000F0EE000A20EE208A94ED020A20EE000AF0
:107B5000D4ED030A94ED031A00EE810AF7EE000A51
:107B6000B0EE001AF0EE608A41EE408A18EE900AFC
:107B7000FEF779FD41EC1A0B18EE100AFEF773FDC3
:107B800041EC1B0BB0EE4A1AF0EE6A1AB0EE4B0A4B
:107B9000F0EE6B0A00F028FEB0EE409AF0EE609A2C
:107BA00051EC190BFEF78AFD286004B0BDEC088B80
:107BB000BDE8F081000000000000F03F0000006020
:107BC000FB21F93F10B50020094908600021094850
:107BD000C0F84411C0F84811C0F84C110020054904
:107BE000C1F8000102493C3908600AF047FE10BDA7
:107BF0004011014000100140FEB54FF4827007F0C3
:107C000011F9002837D04FF4827007F015F96C484D
:107C100090F82E0018B16A4890F82F0058B3002051
:107C20008DF8000066484068019065480189ADF80C
:107C30000810C06818B900206149087412E0604853
:107C4000008B5F4948830846C06848600846008B3F
:107C500008810020C860084690F82E0010B9002066
:107C600007F002F9564801686846884700205449E1
:107C700081F82F0000BF524890F82E00002852D003
:107C80004FF4807007F0CEF800284CD04FF480708D
:107C900007F0D2F84A48408B494991F82D108842A4
:107CA00016DD4748408B464991F82D10401A44494B
:107CB00048830A4612890B465B8BD21A0B465B68D7
:107CC00003EB42000A4692F82D1007F097F823E0E4
:107CD0003B48408B3A4991F82D1088420FD13848E3
:107CE000C06860B10120364981F82F000020488328
:107CF0000A4692F82D10D06807F080F80CE0304862
:107D0000408B2F4991F82D10884205D101202C4934
:107D100081F82F00002048834FF4827007F08CF820
:107D2000042007F0A1F84FF4887007F07BF870B1D9
:107D30004FF4887007F080F8002021490874022071
:107D40008DF80000084601686846884700BF4FF478
:107D50008A7007F067F838B14FF48A7007F06CF852
:107D60000020174908742AE01548456924E0B5FA4F
:107D700085F64FF00040F0408543B00000F58C746C
:107D8000204607F04FF8B8B1204607F055F801201B
:107D90008DF80000A4F58C70C0F3C7008DF80400C6
:107DA000A4F58C70012121EA90018DF8051004489A
:107DB00001686846884700BF002DD8D100BFFEBDCE
:107DC000F0410020FEB5134A07CA8DE807000025E0
:107DD000114E05B9114D3146284607F045FD0446C0
:107DE00000BF00BF254625B100BF284601F064FC56
:107DF00000BF00BF6946002007F0CAFC044600BF70
:107E0000254625B100BF284601F056FC00BF00BF43
:107E1000FEBD000010300300951603000C30030077
:107E200010B50249024805F026F810BD7C4200203A
:107E30000030004010B503494FF0402005F01BF81A
:107E400010BD0000A042002010B50AF021FC10BDBA
:107E500010B507F0BDF810BD014802490860704731
:107E60000090D003B038002010B503F045FD28B1D4
:107E70008D480088C0F304208C49086003F090FD11
:107E800010B18B488B49486703F0B2FD30B186488A
:107E9000E0380068C0F342308749086003F0D2FD43
:107EA00028B18648006820F080708449086003F09B
:107EB000E1FD48B10020824908604FF08041C1F8DF
:107EC00010017D49091F086003F0FEFD18B1032071
:107ED00079496431086003F00FFE68B105207949E3
:107EE0000860012077497831086000207549083121
:107EF00008603F20091F086003F016FE002855D0D7
:107F00006948E0300068704908606748E4300068FC
:107F1000091D08606448E8300068091D086062486F
:107F2000EC300068091D08605F48F0300068091DEA
:107F300008605D48F4300068091D08605A48F83050
:107F400000686149203108605748FC300068091D0D
:107F500008605E480068091D08605C48001D0068F4
:107F6000091D0860594808300068091D0860574815
:107F70000C300068091D08605448103000685249F0
:107F800040310860514814300068091D08604F48AE
:107F900018300068091D08604C481C300068091D35
:107FA00008604A4820300068091D086003F07AFC28
:107FB00030B13D48CC38006800F04F0044490860BB
:107FC00003F0C4FC40B14348006800F0010018B160
:107FD0006FF001003F49086003F0FAFC28B13E4809
:107FE000006840F480603C49086034487438006898
:107FF00040F4700031497439086000BF00BF00BF11
:10800000BFF34F8F00BF00BF00BF00BF00BF00BF66
:10801000BFF36F8F00BF00BF00BF3048006800F0A3
:108020000100E0B301202E49086000BF2D48006820
:108030000028FBD02948006820F001004FF01021F3
:10804000C1F80C0200BF274800680028FBD00020C0
:108050002349086000BF234800680028FBD000BF08
:1080600000BF00BF00BF00BFBFF34F8F00BF00BF06
:1080700000BF1248F038006800F4E0601A49084375
:10808000001D0E49F039086000BF00BF00BFBFF3FC
:108090004F8F00BF00BF00BF00BF00BFFDE7FFE77D
:1080A000FFF7DAFE10BD0000240300104035014048
:1080B0000DF0ADBA00C007403C050040FCED00E00B
:1080C0000C0100401056004020C500402404001060
:1080D000E40E0040000400403C1700400C12001069
:1080E00004E5014000E401400000FA0510B5042257
:1080F0000249034804F03FFE10BD0000C0410020CB
:108100000090004010B504220249034804F033FEF9
:1081100010BD0000CC41002000A0004010B5062298
:108120000249034804F027FE10BD0000D84100209A
:1081300000A0014010B506220249034804F01BFECE
:1081400010BD0000E441002000B0014070B50546BC
:108150000E461C2006F063FC0446012C02D10349A4
:10816000087002E000200149087070BDA52A0020B7
:1081700010B502490868804710BD00004C38002047
:1081800003B401984100009850EAC12018BF0420B0
:108190004A0D18BF40F0010040F2FF72B2EB515F90
:1081A00008BF40F00200012808BF052002B0704758
:1081B00070B5C1482DED020B2DED0E8B82B0119DD7
:1081C00025F000449FEDBEDB9FEDBFEB84423EDB1C
:1081D000A4F140511098A1F17F6108430FD0BC4831
:1081E000844202DC28D1109830B39DED100B02B010
:1081F000BDEC0E8B02B0BDE8704001F0D1B89DED32
:10820000100B53EC1D2B51EC100BFEF719FB9DEDE1
:10821000100B41EC180B53EC1E2B51EC100BFEF71E
:108220000FFB53EC182BFEF75EF941EC100B02B07C
:10823000BDEC0E8B02B070BD012001F017F902B049
:10824000BDEC0E8B02B0BDE8704001F0BDB8A14896
:108250009FEDA18B844256DA9DED100BB4F1795F4E
:108260000ADA51EC100BFFF78BFF042808BF01F06E
:10827000BBF89DED100BDAE753EC102B51EC100B13
:10828000FEF7DEFA41EC190B95480621B0EE490ADB
:10829000F0EE690A784400F06FFF53EC192B51ECB3
:1082A000100BFEF7CDFA41EC1A0B8E48B0EE490ADE
:1082B000F0EE690A0421784400F05EFF53EC192BBC
:1082C00051EC100BFEF7BCFA53EC182BFEF70BF930
:1082D00041EC100B51EC1A0B53EC102BFEF722FB68
:1082E000CDE900019DED000B53EC102B9DED100B23
:1082F00051EC100BFEF7A4FA9DED101B53EC112B63
:10830000FEF7F1F8D2E09DED100B51EC100B03F0ED
:1083100087FD53EC182BFEF78AF99FED730BCDE91F
:10832000000153EC102B9DED000B51EC100BFEF7F0
:1083300087FA41EC190B6E480621B0EE490AF0EEBF
:10834000690A784400F018FF53EC192B51EC100B1C
:10835000FEF776FA41EC1B0B6648B0EE490AF0EEE8
:10836000690A0421784400F007FF53EC192B51EC03
:10837000100BFEF765FA53EC182BFEF7B4F841EC3E
:108380001C0B51EC190B0AF060F841EC180B5A4821
:108390009FED5BABA04222DC53EC1C2B51EC1B0B82
:1083A000FEF7C0FACDE900019DED000B51EC180B72
:1083B00053EC102BFEF744FA53EC182BFEF793F80E
:1083C00053EC1A2BFEF73CFA53EC1D2BFEF72CF95D
:1083D00053EC1E2BFEF72BF941EC100B5FE08DEDFB
:1083E000008B002000909DED000B51EC180B53EC1E
:1083F000102BFEF778F89DED000B41EC1E0B53ECB3
:10840000102B51EC100BFEF71BFA53EC192BFEF757
:108410000EF953EC1E2BFEF785FA41EC190B53ECC9
:108420001C2B51EC1B0BFEF77DFA41EC1B0B53ECA4
:108430001A2B51EC190BFEF703FA53EC1D2BFEF728
:10844000F6F841EC190B53EC1A2B51EC180BFEF714
:10845000F7F953EC1B2BFEF7F3F953EC192BFEF74E
:10846000E3F89DED000B41EC180B53EC1A2B51EC8B
:10847000100BFEF7E5F99FED249B53EC192BFEF74B
:10848000D6F841EC100B51EC180B53EC102BFEF707
:10849000CBF853EC192BFEF7CAF841EC100B002D6A
:1084A0003FF7C5AE51EC100B81F0004141EC100BD1
:1084B000BDE60000000000000000F03F00000000EA
:1084C000075C143326A6913C182D4454FB21F93F38
:1084D0000000F07F0000E03F000000000000F03FDF
:1084E000D0B10000DEB10000000000000000E03F5D
:1084F00022B1000030B100003333EF3F0000000034
:108500000000000000000040182D4454FB21E93F0A
:1085100070B59B482DED020B2DED068B079D25F0C8
:108520000044A04218DC9748844202DC0AD1069835
:1085300040B19DED060BBDEC068B02B0BDE870406E
:1085400000F02EBF002DCCBF9FED8F0B9FED900B49
:10855000BDEC068B02B070BD8F48A04215DD8F4880
:10856000A042D8BF4FF0FF3458DD9DED060B51EC13
:10857000100BFFF705FE042808BF00F035FF9DED46
:10858000060BBDEC068B02B070BD9DED060B51ECE9
:10859000100B03F045FCCDE9060181489FED828B6D
:1085A000A0423CDD8248A0421FDD00249FED82AB4B
:1085B0009DED060B53EC1A2B51EC100BFDF793FFBE
:1085C0009DED060B41EC190B53EC1A2B51EC100BE3
:1085D000FEF736F953EC182BFEF726F853EC192B5F
:1085E000FEF7A0F9CDE9060149E09DED060B012457
:1085F00053EC182B51EC100BFDF775FF9DED060B9E
:1086000041EC190B53EC182B51EC100BFEF70CF846
:1086100053EC192BFEF786F9CDE906012FE06848E7
:10862000A0421FDD02249FED689B9DED060B53ECDD
:10863000192B51EC100BFEF703F953EC182BFDF737
:1086400052FF9DED060B41EC180B53EC192B51EC2E
:10865000100BFDF7E9FF53EC182BFEF763F9CDE99A
:1086600006010CE09DED060B032453EC102B9FED4F
:10867000580B51EC100BFEF755F9CDE906019DEDB5
:10868000060B53EC102B51EC100BFEF7D9F841EC14
:10869000180B53EC182BFEF7D3F841EC190B4E488E
:1086A0000621B0EE490AF0EE690A784400F064FD54
:1086B00053EC182B51EC100BFEF7C2F841EC180BE1
:1086C0004648B0EE490AF0EE690A0521784400F008
:1086D00053FD53EC192B51EC100BFEF7B1F841ECA4
:1086E000100B51EC180B53EC102B002C0EDAFDF78D
:1086F000FAFE9DED061B53EC112BFEF7A1F89DED44
:10870000061B53EC112BFDF792FF35E0FDF7EBFE56
:108710009DED061B53EC112BFEF792F841EC100B6C
:108720002F48784400EBC40090ED001B51EC100B77
:1087300053EC112BFDF778FF9DED061B53EC112B2D
:10874000FDF772FF41EC100B2648784400EBC400A3
:1087500090ED001B51EC100B53EC112BFDF767FF54
:1087600041EC100B002DA2BFBDEC068B02B070BD1A
:1087700051EC100B81F0004141EC100B01E70000BF
:10878000000010440000F07F182D4454FB21F93FF5
:10879000182D4454FB21F9BF0000DC3F0000203EAF
:1087A0000000F33F00000000000000000000F03F68
:1087B0000000E63F00000000000000000000004054
:1087C0000080034000000000000000000000F83FAF
:1087D000000000000000F0BF72AE000028AE0000F4
:1087E000B2AD00006AAD000070B56B4E2DED040B0C
:1087F0002DED028B82B0DDF81CC0DDE905235C4263
:108800002CF000411C4341EAD474049D22F0004046
:10881000B44205D86C422C4340EAD474B4420BD91C
:108820009DED061B9DED040B02B0BDEC028B04B068
:10883000BDE8704000F0BEBDACF14054A4F17F64CF
:108840001C430BD0022404EAAC7444EAD2740543FE
:108850009FED538B9FED542B07D015E09DED040B3E
:1088600051EC100B00F0D7FF42E0002C11BF012C9F
:108870009DED040B02B0BDEC028B04BF04B070BDD3
:10888000022C38D0032C3BD00B439FED491B9FEDAE
:108890004A0B0AD0B14218D1B04209D121F080412F
:1088A00020F08040079105900FE0002A15DA10E0D3
:1088B000434B7B44002C08BF93ED000B0DD0012CE3
:1088C00010D0022C17D0032C1AD0B0421DD1002A90
:1088D00003DAB0EE410AF0EE610A02B0BDEC028BA1
:1088E00004B070BD93ED000B51EC100B81F0004112
:1088F00041EC100BF1E7B0EE480AF0EE680AECE745
:10890000B0EE420AF0EE620AE7E7401A00153C2892
:10891000C8BF8DED000B19DCBCF1000FBEBF10F11C
:108920003C0F9FED290B8DED000B0FDB9DED060B32
:1089300053EC102B9DED040B51EC100BFDF7F2FFE7
:1089400003F06EFA00F067FFCDE90001002C08BFCC
:108950009DED000BC1D0012C10D0022C9FED1C0B03
:1089600053EC102B9DED000B51EC100B0DD0FDF7CF
:108970005BFE53EC182BFDF757FEB9E7019880F02A
:10898000004001909DED000BA7E7FDF74DFE53EC75
:10899000182BFDF74CFEABE70000F07F0000000055
:1089A000182D4454FB210940182D4454FB2109C0C3
:1089B000182D4454FB21F9BF182D4454FB21F93FD5
:1089C000CAAC000000000000000000000000000031
:1089D000075C143326A6A13C2DED020B019820F074
:1089E000004001909DED000B02B0704700000000B8
:1089F0002DE9F0412DED020B9FED3D0B2DED028B8E
:108A00009FED3D8BDDE90254C4F30A50A0F2FF361E
:108A1000142E37DA002E18DA53EC102B9DED020BD2
:108A200051EC100BFDF75FFD53EC182BFDF72EFEFC
:108A300057D2002CA4BF0024254652DA24F000406F
:108A4000284318BF2E4C4CD01AE02E4820FA06F7C7
:108A500004EA070028431FD053EC102B9DED020BB6
:108A600051EC100BFDF73FFD53EC182BFDF70EFEFC
:108A700037D2002C03DA4FF48010F0400444BC439A
:108A800000252EE0332E07DCA6F114004FF0FF3155
:108A900021FA00F73D4206D19DED020BBDEC028BA1
:108AA00002B0BDE8F08153EC102B9DED020B51ECB0
:108AB000100BFDF7BCFD53EC182BFDF7E7FD10D2B2
:108AC000002C0DDA142E08BF641C09D0C6F1340046
:108AD000012101FA00F02844A84238BF641C054671
:108AE000BD43CDE902549DED020BD7E70000000025
:108AF0009C7500883CE4377E000000000000000008
:108B00000000F0BFFFFF0F0010B52F499FED2C1B99
:108B10002DED020B84B0059820F000408842DCBFA8
:108B200000209DED040B32DD2849884209D10498CC
:108B300040B94FF0010000F099FC00F045FC06B090
:108B400010BD05DB9DED040B00F02AFC06B010BD46
:108B500068469DED040B00F03BF810F0030011D0C7
:108B6000012818D09DED021B9DED000B02281AD0A4
:108B700000F04AFA51EC100B81F0004106B041ECD4
:108B8000100B10BD9DED021B9DED000B012000F0B0
:108B90006FFB06B010BD9DED021B9DED000B00F0BC
:108BA00033FA06B010BD012000F062FB51EC100B4F
:108BB00081F0004106B041EC100B10BD0000000038
:108BC0000000000000000000FB21E93F0000F07FF2
:108BD0002DE9F14F04462DED020B2DED088B8AB0E7
:108BE0009FEDE70B80ED020B139EE74826F0004552
:108BF00085420ADC9DED120B002084ED000B0AB0CB
:108C0000BDEC088B03B0BDE8F08FE0489FEDE0AB12
:108C10009FEDE1BBA84247DDE14F9FEDE39B9FED58
:108C2000E48B9DED120B53EC1A2B51EC100B002E24
:108C30001CDDFDF7F9FC41EC100BBD4208D053ECF4
:108C40001B2B51EC100BFDF7EFFCC4E900010BE00E
:108C500053EC192B51EC100BFDF7E6FC53EC182BE1
:108C6000FDF7E2FCC4E900010120C8E7FDF73BFC89
:108C700041EC100BBD4208D053EC1B2B51EC100BF8
:108C8000FDF731FCC4E900010BE053EC192B51EC6A
:108C9000100BFDF728FC53EC182BFDF724FCC4E95E
:108CA00000014FF0FF30AAE7C348A84279DB9DEDF1
:108CB000120B51EC100B03F0B3F841EC180B9FEDC5
:108CC000C00B53EC102BFDF7BBFD9FEDBF1B53EC0E
:108CD000112BFDF708FCFDF716FF0746FDF7F5FE23
:108CE00041EC190B53EC1A2BFDF7AAFD53EC182B92
:108CF000FDF79DFC41EC180B53EC1B2B51EC190BB1
:108D0000FDF79EFDDFF8C8A241EC100B4FEA1558A5
:108D10000125FA4453EC102B51EC180BFDF784FCA1
:108D2000032DC4E900013DD0C1F30A5005EB451104
:108D3000A8EB00001139814234DA0AEB051BB0EED2
:108D400048AA9BED000BF0EE68AA53EC102B51ECF7
:108D5000190BFDF775FD41EC1B0B51EC1A0B53EC95
:108D60001B2BFDF761FC41EC180B51EC1A0B53EC7B
:108D7000182BFDF759FC53EC1B2BFDF755FC9BED15
:108D8000020B41EC1A0B53EC102B51EC190BFDF7B5
:108D900057FD53EC1A2BFDF747FC41EC100B6D1CF3
:108DA000B8E70EE0002EA8BF3846BFF628AF94ED16
:108DB000000B51EC100B81F00041C4E90001784236
:108DC0001DE7C6F3130040F4801EC6F30A50A0F25C
:108DD000F530471100F01F05C5F12000DDF848B05F
:108DE00008900020069007900520EC467949002D58
:108DF00007EB0002794408BF51F8221009D051F85E
:108E0000223001EB8201AB404A68089922FA01F155
:108E10001943A1FB0E26A1FB0B131A449A4234BF3F
:108E20000123002303EB06080CEB8003D3E901A622
:108E30000E448E4234BF0121002192448A4411B174
:108E4000924502D903E0924501D2012100E00021C0
:108E5000C3E901A641444CF82010011EA0F1010015
:108E6000C4DC029800F10050850F0298DDE9036729
:108E70008000DDF81480FDF728FE41EC1A0B304627
:108E8000FDF734FE9FED541B53EC112BFDF7D8FC7E
:108E900041EC1B0B3846FDF729FE9FED511B53ECAF
:108EA000112BFDF7CDFC41EC180B4046FDF71EFEE3
:108EB0009FED4D1B53EC112BFDF7C2FC41EC190B40
:108EC00051EC180B53EC192BFDF70DFB53EC1B2B3E
:108ED000FDF709FB53EC1A2BFDF705FBCDE9080163
:108EE000002008909DED080B53EC1A2B51EC100B51
:108EF000FDF79AFB53EC1B2BFDF796FB53EC182B5D
:108F0000FDF792FB53EC192BFDF791FB9FED381BFE
:108F100053EC112BFDF794FC9FED370B41EC180B34
:108F200053EC102B9DED080B51EC100BFDF788FC5A
:108F300053EC182BFDF7D7FA9FED310B41EC180BD2
:108F400053EC102B9DED080B51EC100BFDF778FC4A
:108F500053EC182BFDF7C7FA41EC100B139810F0E7
:108F6000004F06D06D4251EC100B81F0004141ECF6
:108F7000100B284684ED000B41E6000000000000C5
:108F80000000000000000000FB21E93F7CD9024006
:108F900000004054FB21F93F3163621A61B4D03DB7
:108FA000FB21F93F000000000000601A61B4D03DD1
:108FB0007370032E8A19A33BFB2139410000000086
:108FC00083C8C96D305FE43F000000000000E03F4F
:108FD00072A80000C0A70000000000000000103EC2
:108FE000000000000000103C000000000000103AEB
:108FF000182D4454FB21F93D3326A611460B113C94
:1090000000000054FB21F93D10B52DED040B2DEDB2
:10901000088B82B0B0EE419AF0EE619A0B9820F086
:1090200000449FED4BABB4F1795F11DA9DED0A0B73
:1090300051EC100BFDF767FD002801BFB0EE4A0AA6
:10904000F0EE6A0A02B0BDEC088B04BF04B010BD9C
:109050009DED0A0B53EC102B51EC100BFDF7F0FBC0
:1090600041EC180B3C480621B0EE480AF0EE680AC5
:10907000784400F081F853EC182B51EC100BFDF7FD
:10908000DFFB9DED0A0B41EC1B0B53EC192B51EC54
:10909000100BFDF7D5FB41EC190B53EC1B2B51ECDE
:1090A000180BFDF7CDFB53EC192BFDF7BDFA9FED27
:1090B0002C0B41EC190B53EC102B51EC180BFDF75A
:1090C000BFFB41EC100B2848844210DA53EC192BFB
:1090D00051EC100BFDF7A8FA53EC1A2BFDF7A7FA89
:1090E00041EC100B02B0BDEC088B04B010BD1F4862
:1090F000A042BCBF9FED1E1B8DED001B06DBA4F53F
:1091000000100190002000909DED001B51EC100B11
:1091100053EC112BFDF788FA9DED000B41EC180B79
:1091200053EC102B51EC1A0BFDF77EFA41EC1A0BA5
:1091300053EC192B51EC180BFDF776FA53EC1A2B64
:10914000FDF775FA41EC100BCCE7000000000000C1
:10915000000000000000F03FDCA400000000000060
:10916000000000000000E03F3333D33F0000E93F40
:10917000000000000000D23F70B504462DED028BC8
:109180004D1E00EBC500B0EE408AF0EE608A90ED17
:10919000000B35F0060017D053EC182B51EC100BD8
:1091A000FDF74EFB41EC100B6D1E04EBC50090ED7E
:1091B000001B51EC100B53EC112BFDF794F941EC13
:1091C000100B35F00600E7D1022D36D0042D1CD04F
:1091D000062D1CBFBDEC028B70BD53EC182B51EC5F
:1091E000100BFDF72DFB94ED0A1B53EC112BFDF733
:1091F0007AF953EC182BFDF723FB94ED081B53EC85
:10920000112BFDF770F941EC100B53EC182B51ECBE
:10921000100BFDF715FB94ED061B53EC112BFDF71E
:1092200062F953EC182BFDF70BFB94ED040B53EC98
:10923000102BFDF758F941EC100B53EC182B51ECA7
:10924000100BFDF7FDFA94ED021B53EC112BFDF70B
:109250004AF953EC182BFDF7F3FA94ED001B53EC8D
:10926000112BFDF740F9BDEC028B41EC100B70BDEA
:1092700031B504462DED040B2DED0A8BB0EE41BA4D
:10928000F0EE61BA0B989DED0A0B20F00040B0F1B2
:10929000795F0DDA51EC100BFEF772FF042808BF5E
:1092A00000F0A2F89DED0A0BBDEC0A8B05B030BDB5
:1092B00053EC102B51EC100BFDF7C2FA41EC180BDC
:1092C0009DED0A0B53EC182B51EC100BFDF7B8FA7F
:1092D00041EC190B2C48B0EE480AF0EE680A052163
:1092E0007844FFF749FF9FED2ACBB0EE40AAF0EE9D
:1092F00060AA9CB353EC1C2B51EC190BFDF7A0FAA0
:1093000041EC1C0B53EC1A2B51EC190BFDF798FA9E
:109310009FED210B41EC190B53EC102B51EC1B0B67
:10932000FDF78EFA53EC192BFDF77EF953EC182B51
:10933000FDF786FA53EC1B2BFDF776F953EC1C2B4B
:10934000FDF772F99DED0A1B53EC112BFDF76FF938
:10935000BDEC0A8B05B041EC100B30BDFFE753ECC0
:109360001A2B51EC180BFDF76BFA53EC1C2BFDF785
:10937000BAF853EC192BFDF763FA9DED0A1B53EC79
:10938000112BFDF7B0F8E3E76CA30000000000002C
:10939000495555555555C5BF000000000000E03F38
:1093A00010B553EC102B51EC100BFDF79CF841EC71
:1093B000100B10BD10B553EC112B51EC100BFDF739
:1093C00092F841EC100B10BD9FED050B10B553EC5E
:1093D000102B51EC100BFDF7A5FA41EC100B10BD52
:1093E00000000000000000009FED050B10B553ECDD
:1093F000102B51EC100BFDF723FA41EC100B10BDB4
:10940000000000000000001002E008C8121F08C1A0
:10941000002AFAD170477047002001E001C1121FF5
:10942000002AFBD1704700000146202908DA0120FC
:1094300088400A4A104008B1012070470020FCE72C
:10944000402909DAA1F12000012202FA00F008B156
:109450000120F2E70020F0E70120EEE7FC06FFBD67
:1094600000BFEFF31081084672B6704701490860EB
:1094700070470000B438002070B505460C4605B1B1
:109480000CB9002070BD287840082178B0EB510F4E
:1094900001D00020F6E70622611C681CFDF716F8D3
:1094A00008B90120EEE70020ECE7014601F00300D7
:1094B00008B9012070470020FCE7024650680068A8
:1094C000401E084008B9012070470020FCE7024612
:1094D000002104E0505C08B101207047491C0629B6
:1094E000F8D30020F9E710B50346D868884206D8BB
:1094F0008818401E1C69A04201D8012010BD002020
:10950000FCE7000010B504466CB10848C068A042F2
:1095100009D806480069A04205D3204603F00DFD96
:1095200008B1012010BD0020FCE70000B838002081
:1095300070B504460D4604F24B20FFF7C8FF0646FF
:10954000012D06D0022D0DD0032D11D0042D19D1DF
:1095500013E0A07928B194F8240010B90EB10120CD
:1095600070BD00BFE07910B10EB10220F8E700BF76
:10957000207A08B10320F3E700BF607A08B1042025
:10958000EEE700BF0020EBE70146481C052290FBF8
:10959000F2F302FB1300C0B2704710B501220221A2
:1095A000002000F01BFF044600BF1CB1072C01D0B7
:1095B000204610BD00BF07220221012000F00EFF4F
:1095C000044600BF1CB1072C01D02046F1E700BFC4
:1095D0000A220021084600F001FF044600BF1CB12A
:1095E000072C01D02046E4E700BF0020E1E770B57A
:1095F0008CB004460D461646002005E0C0F10F0170
:10960000615C0DF80010401C1028F7D30D2104A850
:10961000FCF751FF002005E02A5CC0F10F0304A90C
:10962000CA54401C0328F7D3684646DF002005E0F3
:10963000C0F10F0208A9895C3154401C0328F7D3FC
:109640000CB070BD10B5044602480178204600F009
:109650001DFB10BD2738002008B5009072B600BF72
:109660001349096801F0010101B100BE00BF00BF4C
:1096700000BF00BF00BF00BFBFF34F8F00BF00BFE0
:1096800000BF0B49E439096801F4E061094A11435C
:10969000091D074AE43A116000BF00BF00BFBFF3D5
:1096A0004F8F00BF00BF00BF00BF00BFFDE700003D
:1096B000F0ED00E00000FA053EB504460020009001
:1096C0000190029002946A46002144F20100FFF7E3
:1096D000C3FF3EBD10B507F0B1FF00200F49087071
:1096E00048700B20887000200D4908600D490870F3
:1096F0000D4908701420FEF78BF806211420FEF7A0
:10970000ABF81420FEF790F8002007F06DFF07F08B
:1097100065FF06490860002010BD0000C44200201B
:109720005438002064380020653800205838002064
:109730002DE9F04104460E461746254600BF104865
:10974000807810B90820BDE8F08100BF0CB908206E
:10975000F9E7052E01D20720F5E7686908B9082066
:10976000F1E7687C012801D1304600E00020804606
:109770003B4642463146284609F030F8E3E7000010
:10978000C442002070B50446254600BF08488078D2
:1097900008B9082070BD00BF0CB1686908B908207D
:1097A000F8E7002028740221284609F046F8F1E77E
:1097B000C442002010B50446204607F0C9FF10BD82
:1097C00070B5044625460E488068B0B1ADB9FFF7C4
:1097D00047FE06460A4800680A490860084840688B
:1097E0004FF0E021C1F804010020054988601EB94E
:1097F00000BF62B600BF00BF00BF00BF70BD000069
:10980000D043002000E100E070B504460D4620463C
:1098100003F01CFD70BD10B541EC100BFEF778FE97
:1098200051EC100B10BD10B50446637903F0030230
:109830002179208803F024FC10BD10B5044620795E
:1098400018B9204600F008F803E02046FFF7EBFFC8
:1098500000BF00BF10BD00002DE9FC41064637885F
:109860004FF00008002244480178384600F024FAFE
:109870007079C0F3800028B90021304606F0F2FD6F
:10988000BDE8FC8107F5807188B26B460122072193
:1098900006F09AFE054645B12946384608F07EF99D
:1098A0000021304606F0DEFDEAE7384603F03CF9D9
:1098B00004464FF6FF718C421BD1019803F084F8E7
:1098C00004464FF6FF70844213D02146384603F019
:1098D00009F93846FFF7B6FE58B9384608F0F0F8EF
:1098E0003846FFF7AFFE20B90021304606F0BAFD3A
:1098F000C6E74FF6FF70844215D106F0F1FF04462B
:109900004FF6FF70844208D10421384608F046F92A
:109910000021304606F0A6FDB2E72146384603F0A6
:10992000E1F84FF0010807F5807188B2224607215F
:1099300006F0C0FE054625B90121304606F092FD2D
:1099400017E0862D07D1384608F0ECF801213046A3
:1099500006F088FD0DE02946384608F01FF9002181
:10996000304606F07FFDB8F1000F02D0204603F02C
:10997000C3F800BF84E70000243800202DE9F0413F
:1099800004460F46154615B90E20BDE8F0810020AB
:10999000286000BF0CB90E20F7E700BF00BF2068A9
:1099A00008B90E20F1E700BF00BFE088C11700EB47
:1099B00091718910A0EB810109B10720E5E700BF93
:1099C000384600F01EF9C6B2142E01D10520DCE79E
:1099D0002079B04201DC0420D7E7E188206806FB4B
:1099E000010028600020D0E7F8B504460E46154671
:1099F000002000902B466A463146204600F008F8C9
:109A000007460FB90020F8BDBDF800002044FAE772
:109A100030B504460D4604B10AB9002030BD00211E
:109A200003E0605C401C084481B21088884203DC7B
:109A3000481C205C984201D0A942F2DBA94201DB1C
:109A40000020EBE7881C1080605C401E80B2E5E7D8
:109A500070B504460D462E462088102804D01128E3
:109A600007D026280FD109E02146304606F072F9CA
:109A70000AE02146304606F03DFA05E02146304630
:109A800006F093FB00E000BF00BF70BD704770B5EB
:109A900004460E46207808B9082070BDA670002143
:109AA0004FF41470C4F84A12A4F84E120155A0796C
:109AB00010B1A078012809D0E07910B1A078012870
:109AC00004D0E07970B1A07802280BD1606B30B17E
:109AD000012084F851020820616B884702E00020D1
:109AE00084F8510231462046FFF722FDA070606BDA
:109AF000A0B1A078032802D0A07804280ED1607904
:109B000060B194F8520248B9002084F85402012050
:109B100084F853020720616B884702E0002084F834
:109B20005302182104F13C00FCF7C5FC012084F825
:109B30003C0004F12C0006F0F6FF20B194F82C1044
:109B40005120015502E001215120015594F82400D3
:109B500060B104F12C0006F0E6FF20B194F8281063
:109B60005220015502E001215220015500215020D0
:109B70000155A078052824D2DFE800F01F030A1160
:109B8000180004F13C01204608F02AF9054619E0C6
:109B900004F13C01204608F00BF9054612E004F1FF
:109BA0003C01204608F02EF905460BE004F13C018B
:109BB000204608F055F9054604E0002084F83100FD
:109BC00000E000BF00BFA07898B104F13C0204F1AE
:109BD0005400D4F8441272DF05460DB128465CE704
:109BE00094F8301094F8540073DF05460DB1284600
:109BF00053E7606B18B194F83100616B884700201F
:109C00004BE710B50446204600F074F808B1204632
:109C100010BD1420FCE7000010B50446204600F0FB
:109C200069F820B12146034804F0D3FB10BD0020A1
:109C3000FCE70000043E002070B504460D461646C1
:109C4000204608F0D9FE08B9002070BD034951F83C
:109C500024003246294602F019FAF6E70C3E0020AD
:109C600070B504460025204600F044F850B1214666
:109C7000054804F0AEFB06460EB1022000E00120CC
:109C8000054600BF284670BD003E002070B5054661
:109C90000C46204608F0B0FE50B1284600F02AF8E5
:109CA00030B1044901EB8400294604F092FB70BDF9
:109CB0000020FCE70C3E002070B505460C46164619
:109CC000204608F099FE88B1284600F013F868B1E4
:109CD00036B1074901EB8400294604F089FB05E011
:109CE000034901EB8400294604F01DFB70BD000010
:109CF0000C3E002010B50446142C01DB002010BDE2
:109D00002146024804F065FBF9E70000F83D002019
:109D100010B54FF0FF3100203DDF044600BF204664
:109D200000B110BD00BFB12100203CDF044600BFE0
:109D3000204600B1F5E700BF022004F055FF0020E7
:109D4000EFE710B5FFF7E4FF0446204610BD70B5FD
:109D500004460D4600BF04B970BD00BF20885028DE
:109D600016D004DC102807D0112819D108E051289A
:109D70000AD0532814D10FE0204605F0E5FF10E08B
:109D8000204606F0A9F80CE0204606F0B7F908E0F6
:109D9000204606F0B1FA04E0204606F037F900E06C
:109DA00000BF00BF00BFD7E770B504460426207B84
:109DB000012802D0022822D109E001F01BFD05464E
:109DC0000DB9012602E0112D00D1062619E0607BB5
:109DD000142801DC607B08B905260FE0627B04F1E2
:109DE0000E011248FCF74EFB607B1049091F886189
:109DF000084608F063F8054605B9012601E0022689
:109E000000BF00BF012E0FD0207B314600F058F874
:109E1000054625B106480068416903208847044883
:109E2000006841690220884770BD00007C41002025
:109E30004038002070B505460E4600BF1E48006839
:109E400020B11D48406808B1012000E0002000B9A1
:109E500070BD00BF184800F10801426828469047CD
:109E6000044600BF082C24D07CB90020134909689F
:109E700088760121022000F023F80446CCB10F4877
:109E8000006841690320884713E000200B490968F6
:109E900088760621022000F013F8044624B1074812
:109EA000006841690320884704480068416902202E
:109EB000884700BFCCE700006C41002040380020FC
:109EC000F0B587B004460D460327002001900290AC
:109ED000039004900320069020208DF814008DF844
:109EE00015408DF816500E48C088ADF804000220C9
:109EF0008DF806000020ADF8080006A8039005A81C
:109F000004900749888801A9AEDF064626B9BDF846
:109F10001800032800D00C26304607B0F0BD000022
:109F200050410020F8B505460F462888212833D037
:109F300006DC10280BD0112829D013287BD13BE058
:109F40003B285BD0522848D0562874D164E00720C3
:109F500000F072FA044600BF264626B100BF304624
:109F6000FFF7AAFB00BF00BFA88834490880084655
:109F70000188334804F00CFB044600BF264626B196
:109F800000BF3046FFF798FB00BF00BF54E04FF61C
:109F9000FF702A4908804FE000200090A888694699
:109FA0008FDF044600BF264626B100BF3046FFF7CC
:109FB00083FB00BF00BF3FE000231A4685211F48F6
:109FC00000887FDF044600BF264626B100BF30462A
:109FD000FFF772FB00BF00BF2EE000231A461946B0
:109FE00016480088B1DF044600BF264626B100BFF0
:109FF0003046FFF761FB00BF00BF1DE0A8881321BA
:10A0000076DF044600BF264626B100BF3046FFF784
:10A0100053FB00BF00BF0FE0A888132176DF044682
:10A0200000BF264626B100BF3046FFF745FB00BF04
:10A0300000BF01E0FFE700BF00BFF8BDF82A002025
:10A04000583B002070B505460E462888102802D0DF
:10A0500011282CD115E01748006860B900F0F6FD12
:10A06000044600BF34B11448006818B120461249B4
:10A070000968884700BF0F480068401C0D49086008
:10A0800016E00C480068401E0A490860084600684F
:10A0900060B9FFF782FA044600BF34B10648006891
:10A0A00018B1204604490968884700BF00E000BF96
:10A0B00000BF70BDD4370020D037002070B50446F3
:10A0C0000D462088102806D0112808D012280ED05E
:10A0D000502810D107E0204605F0C4FD0CE02046D2
:10A0E00005F0E0FE08E0204606F090F804E0204687
:10A0F00005F0A0FD00E000BF00BF70BD2DE9F041FC
:10A1000004468846A5882088102804D0112815D038
:10A110001A2847D116E007F007FA284607F08EF80C
:10A1200020B900BF0420FFF7C7FA06E0E07B012852
:10A1300003D029461D4804F05BF933E0284607F0B8
:10A1400017FA2FE0207A0121B1EB101F01DA01206C
:10A1500000E000200646207A0221B1EB101F01DA50
:10A16000012000E0002007468EB129460F48001D5F
:10A1700004F03EF92FB129460C48083004F038F9B4
:10A180000FE029460948083004F0CDF809E02946D7
:10A190000648001D04F0C7F829460448083004F0BA
:10A1A000C2F800BF00BFBDE8F0810000003E002003
:10A1B00070B504460D4600BF0748007800B970BD71
:10A1C00000BF204602F06AFB204607F005FF20464C
:10A1D00002F000F900BFF2E71438002070B5044621
:10A1E0000D4605B104B970BD2E462088102804D054
:10A1F000502807D057280FD109E02146304605F0F6
:10A2000069FD0AE02146304606F02CF805E02146BB
:10A21000304605F011FF00E000BF00BF00BFE2E7DD
:10A2200070B50446204608F0A4FB0546C5F340007F
:10A2300070BD70B50446204608F09BFB054605F04E
:10A24000010070BD10B502460949885C00BF4FF09F
:10A25000A0442146D1F80435012484409C43C1F830
:10A260000845012484401C40C1F80C4500BF10BDC6
:10A270004631030010B504460249085D012104F08F
:10A280000EFC10BD4631030010B504460249085DBE
:10A29000002104F004FC10BD4631030010B5014656
:10A2A000094B585C00BF4FF0A044234600BFD3F8D1
:10A2B0000445C44004F001040CB1012000E000207A
:10A2C000024682F0010010BD4631030010B50024A3
:10A2D00003E02046FFF7CEFF641C042CF9D310BD29
:10A2E00010B5002403E02046FFF7CEFF641C042CC9
:10A2F000F9D310BD02464FF0FF30002106E0054BB8
:10A300005B5C934201D1084602E0491C0429F6D364
:10A3100000BF70474A3103002DE9F04106460F4661
:10A320004FF0000800243046FFF7E4FF0446042CF9
:10A330003ED20FB3012F02D0022F38D130E004EB10
:10A340004400214911F8008004EB4400084440789F
:10A3500050B11E4A4FF400411D480068FFF7E8F96C
:10A3600005460DB91948067004EB44001649084427
:10A370008078184908551AE015480068FFF702FA76
:10A380001448005D04EB44010F4A11448978884267
:10A3900005D104EB44001146084490F8028006E021
:10A3A00004EB44000849084490F8018000BF00BF56
:10A3B000B8F1000F06D00848006818B140460649B9
:10A3C00009688847BDE8F081783D0020C837002043
:10A3D00058310300C9370020C437002030B5034688
:10A3E0000020042B23D2012A07D1012903D103F134
:10A3F0000E04E4B200E00024224679B1012902D023
:10A40000022911D104E003EB43040A4D2A550DE063
:10A4100003EB4304074D2C44627007E003EB430455
:10A42000044D2C44A27001E0072000BF00E007208B
:10A4300030BD0000783D002070B504460025054879
:10A44000007800F0010018B1204600F005F805463C
:10A45000284670BDBC3700202DE9F0470446002691
:10A460000025DA48007820B10020D849087002F0B1
:10A4700073FD182C7ED2DFE804F00C16174A7EB26A
:10A48000F6F4F3F2F1F0EFEEEDECEBEAE9E8E7E6F3
:10A49000E5E402F061FDCE480068FFF773F9064677
:10A4A000CC4804708DE100BF0020FFF7F7FE58B1E3
:10A4B0000020FFF7DFFE022C02D14FF4E16001E043
:10A4C0004FF47A60054609E00020FFF7DDFE022C1C
:10A4D00001D1C82001E04FF4C8700546BD480470A2
:10A4E0004FF40040A5FB00104FF4FA73CF1840F171
:10A4F00000015A0000233846FBF774FF8146002212
:10A500004946B3480068FFF713F9064659E10020B1
:10A51000FFF7C4FE58B10020FFF7ACFE032C02D1B8
:10A520004FF4487001E04FF47A60054609E00020DE
:10A53000FFF7AAFE032C01D1C82001E04FF4C87038
:10A540000546A44804704FF40040A5FB00104FF4EA
:10A55000FA728F1840F10001520000233846FBF7D1
:10A5600041FF81460022494699480068FFF7E0F81C
:10A57000064626E124E10020FFF790FE58B10020B6
:10A58000FFF778FE042C02D14FF47A6001E04FF41B
:10A590007A6005460AE00020FFF776FE042C02D11F
:10A5A0004FF4C87001E04FF4C87005468948047044
:10A5B0004FF40040A5FB00104FF4FA73CF1840F1A0
:10A5C00000015A0000233846FBF70CFF81460022A9
:10A5D00049467F480068FFF7ABF80646F1E00020E7
:10A5E000FFF75CFE50B10020FFF744FE052C01D1BF
:10A5F000C82001E04FF47A60054609E00020FFF72B
:10A6000043FE052C01D1C82001E04FF4C870054677
:10A61000704804704FF40040A5FB00204FF4FA731B
:10A62000D71840F100015A0000233846FBF7DAFE44
:10A6300081460022494666480068FFF779F80646D9
:10A64000BFE0B8E0B6E0AAE0A1E098E092E05FE009
:10A650005DE05BE059E057E051E042E033E024E0A8
:10A6600015E00EE0FFE70020FFF7ECFD594804700D
:10A67000002240F6CD4156480068FFF759F80646DB
:10A680009FE00020FFF700FE5248047099E001208F
:10A690004E490870FFF7D6FD002240F6CD414C48E8
:10A6A0000068FFF745F806468BE00120474908702F
:10A6B000FFF7C8FD00224FF4804145480068FFF7CE
:10A6C00037F806467DE0012040490870FFF7BAFDE3
:10A6D000002240F6CD413E480068FFF729F80646C3
:10A6E0006FE0012039490870FFF7ACFD00224FF4FC
:10A6F000804137480068FFF71BF8064661E0FFF726
:10A70000EFFD344804705CE000BF00BF00BF00BF35
:10A7100031480068FFF736F80646C4F1110515B355
:10A720000EBB012D18D9A8B2C82148434FF40041EF
:10A7300080FB01104FF4FA728F1840F100015200B3
:10A7400000233846FBF74EFE814600224946224848
:10A750000068FEF7EDFF06460220FFF795FD012099
:10A760001E49087005E00220FFF784FD00201B4908
:10A77000087026E002F0F0FB1648047021E002F0B9
:10A78000EBFB0020FFF780FD1248047019E002F097
:10A79000E3FB0120FFF778FD0E48047011E002F0A2
:10A7A000DBFB0020FFF770FD0120FFF76DFD09487E
:10A7B000047006E000BFFFF793FD0648047000E058
:10A7C00000BF00BF3046BDE8F0870000B937002069
:10A7D00050310300B837002054310300C037002047
:10A7E0007CB50446204602F09FF9054600236A46E0
:10A7F000092105F0DDFF052805D101220248017875
:10A800002046FFF759FA7CBDF03700207CB504469E
:10A810000E460020019042F6A620ADF8040001206B
:10A820008DF806000748006800906A4601A9204696
:10A83000A0DF05462DB90122034801782046FFF725
:10A840003BFA7CBDCC310300F1370020014688790A
:10A85000012809D10879012806D1488842F6021258
:10A86000904201D1012070470020FCE74FF0FF31FA
:10A87000054A42F82010082804DBFF23A0F1080154
:10A8800044325354704700002042002001460248E1
:10A8900050F8210070470000204200202DE9F04FC1
:10A8A00003460C464FF0FF390AB1002000E00820B3
:10A8B00084460AB1082000E009208046614624E071
:10A8C000154850F82100401CF0B91D46084627469F
:10A8D00016464FFA80FBDFF840A00AF1240A0AF876
:10A8E00005B0DFF834A04AF820704EB94FFA85FB66
:10A8F000A0F1080ADFF820E00EF1440E0EF80AB0CD
:10A9000000BF4FFA81F902E0491C4145D8D300BF8E
:10A910004846BDE8F08F0000204200200146014873
:10A9200040567047444200202DE9F04104460D4650
:10A930004FF6FF76304684420AD14FF480712846A4
:10A9400003F017FD86B2B6F5807F10D126460EE0E3
:10A95000FF2C0CDC2146284603F0F4FC80F00107B4
:10A960000FB1204601E04FF6FF70064600BF3046AB
:10A97000BDE8F08170B505460DB9094C01E0084C01
:10A98000083409E0204602F0E0FA064606B904E081
:10A9900028467168884700BFF4E700BF70BD00001B
:10A9A0009C41002010B504462CB90120064948708E
:10A9B0000020FFF7DFFF012C04D10120024988703D
:10A9C000FFF7D8FF10BD0000944100202DE9F047AB
:10A9D00082461F480068002836D01D480068056878
:10A9E00006F0FCFD07461B4804682146384607F080
:10A9F00043FEC61C1848007808B906F001FEAE42B6
:10AA000001D2284600E03046044424F07F4420462A
:10AA100006F0DEFD06F0E2FD80463946404607F0CE
:10AA20002BFE00F103093946204607F025FE81453B
:10AA300009D906F0D3FD814606F0CAFD2F2004F0A7
:10AA4000E1FB07F067FF01E006F0F8FDBDE8F087E5
:10AA50005438002058380020663800202DE9FF4F78
:10AA600003460C46002047E0225CFF2A3ED0C2F39A
:10AA7000C01922F080014DF82010B9F1000F0DD05F
:10AA80005DF8201000BF4FF0A0452E46012707FAC1
:10AA900001F5C6F8085500BF00BF0DE05DF82010B5
:10AAA00000BF4FF0A0452E46012707FA01F5C6F872
:10AAB0000C5500BF00BF00BF5DF8201001252E46D9
:10AAC0000027BC46B84600BF4FF0A04BDA4645EA27
:10AAD000460B4BEA870B4BEA0C2B4BEA084E0AF568
:10AAE000E06B4BF821E000BF00BF03E04FF0FF3107
:10AAF0004DF82010411CC8B20428B5DB6D461A6819
:10AB0000002107E055F8217002F5AC6646F8217087
:10AB10004E1CF1B20429F5DB00BFBDE8FF8F33B551
:10AB20008BB00546002000900C9878B100240BE013
:10AB300021460CA803F04DFC28B1009A501C00904F
:10AB400001A820F81240641C142CF1D32C22694671
:10AB50002846FBF797FC0DB030BD0000F8B5054660
:10AB60000C46607A88B9207A10B91048476801E02D
:10AB70000E4887682A4639466068FEF7D9FD0646C2
:10AB800016B1304606F0AEFF0EE0002020720748F6
:10AB9000406948B101208DF80000ADF8025003482B
:10ABA00041696846884700BFF8BD0000D83D0020D5
:10ABB000F0B587B004460D4617461E4618220B49CD
:10ABC00001A8FBF75FFCADF806408DF80C50ADF81E
:10ABD0000E708DF810600022054801782046FFF7BE
:10ABE0006BF801A801F0CCF807B0F0BDA832030063
:10ABF0002438002010B586B00446208805F0FEFBFE
:10AC000000BB2088FFF708F830B92088012241F204
:10AC1000060100F0E3FD15E0208800220A490978CA
:10AC2000FFF74AF802208DF800002088ADF80200F6
:10AC300000208DF8080000218DF80910684601F009
:10AC40009FF800BF06B010BD2438002010B50122C7
:10AC500000210846FFF7C2FB044600BF1CB1072CC9
:10AC600001D0204610BD00BF072202210120FFF7BE
:10AC7000B5FB044600BF1CB1072C01D02046F1E70C
:10AC800000BF042202210020FFF7A8FB044600BFFA
:10AC90001CB1072C01D02046E4E700BF0020E1E70B
:10ACA0007FB506460C46002002900390ADF80840A0
:10ACB000ADF80A40009001906A4602A9304690DF44
:10ACC000054605B100BF284604B070BD2DE9F0412E
:10ACD00005460F460F4C0121204603F0CBFB0646EC
:10ACE00000BF00BF00BF00BFBFF35F8F00BF00BF4A
:10ACF00000BF0EB9012000E0002040B1284602F05C
:10AD0000F1FA08B1BDE8F081024803F01FFF00BF6F
:10AD1000F8E70000E83700202DE9F0410446E0782C
:10AD200000F0C006E07800F03F05607800F0010018
:10AD300098B1EF102846E91705EB5171C910A5EB42
:10AD4000C101491C01F0FF080B48006820B10A4806
:10AD5000414602683846904700BF607800F008001E
:10AD600030B10548406818B1B011034A51688847AE
:10AD70000020BDE8F0810000283D002070B50646A7
:10AD80000D460EB1012070BD287920B1012809D0EF
:10AD9000022813D10FE002202871284606F0A8FAF5
:10ADA00004460DE0284601F0FFF804460A2C01D1C4
:10ADB00041F61D5404E041F61D5401E00F2400BF8C
:10ADC00000BF2046DFE770B5044620793D2802D158
:10ADD00041F23D0001E04FF48850054620880022F2
:10ADE000294602F04DF970BD38B5044664B1202003
:10ADF0008DF8000028208DF8010030208DF8020029
:10AE000038208DF8030004E0A32204216846FBF7F4
:10AE10004BFB6A46042140F69E2003F099F902F0AC
:10AE2000DFFE38BD3EB5044602208DF80000CA2082
:10AE30008DF80100E3208DF8020009208DF8030051
:10AE40006A460421682003F083F9A3208DF80000EE
:10AE500004F0400048B1C0208DF80100C8208DF8F2
:10AE60000200C2208DF8030006E0A3208DF8010047
:10AE70008DF802008DF8030004F4C07048B1C420BE
:10AE80008DF80400CC208DF80500C6208DF8060052
:10AE900006E0A3208DF804008DF805008DF806006B
:10AEA000A3208DF807008DF808008DF809006A4688
:10AEB0000A2140F6A72003F04BF904F0030018B173
:10AEC00020208DF8000002E0D8208DF800006A46AE
:10AED000012140F6B62003F03BF904F0200018B140
:10AEE000012000F0ADF802E0002000F0A9F804F421
:10AEF000C07008B304F4807060B1B2208DF8000017
:10AF00008B208DF80100B6208DF802009B208DF873
:10AF100003000BE0B0208DF8000080208DF80100C8
:10AF2000B4208DF8020090208DF803006A460421B9
:10AF300040F6A22003F00CF904F0010020B3F82041
:10AF40008DF800006A4601214FF40B6003F000F910
:10AF5000FA21072000F00AFB072000F0D1FA0120B7
:10AF600000F0F1FA642000F0E1FB4FF4FA7000F019
:10AF7000F0FBC821304800F081FA282000F09AFA4E
:10AF80000A2000F0AAFA08E0D8208DF800006A46EE
:10AF900001214FF40B6003F0DBF804F0020018B15C
:10AFA000D9208DF8000002E0D8208DF800006A4614
:10AFB000012140F23D7003F0CBF804F0040018B119
:10AFC000012000F069F802E0002000F065F804F0CC
:10AFD000100018B10120FFF707FF02E00020FFF783
:10AFE00003FF44F008001549488102F0F9FD0020F4
:10AFF0001249887304F0400018B10846807B801D18
:10B00000887304F4C07020B10C48807B801D0B490C
:10B01000887304F0140020B10848807B1030074981
:10B02000887304F0030020B10448807B001D0349AD
:10B03000887300203EBD000009E3CA02283D0020BD
:10B040003EB504466CB10EA1D1E900208968CDE976
:10B05000002002916A4609214FF4976003F078F8C6
:10B060003EBD0AA2D2E900109268CDE9010200912A
:10B070006A4609214FF4976003F06AF8F0E7000090
:10B08000B8AAB38DB4980D355D000000B8AAAAAA7D
:10B09000B088C3C5C700000038B5044664B1C020FD
:10B0A0008DF80000C2208DF80100C4208DF8020048
:10B0B000C6208DF8030004E08B2204216846FBF7CC
:10B0C000F3F96A46042140F6982003F041F802F0B3
:10B0D00087FD38BD10B5C8234FF48062024940F6A1
:10B0E000F63002F0EFFB10BDB92B00202DE9F04740
:10B0F0008CB00746884615461E46DDF850A0002451
:10B10000002030806A49887B524604A902F0B2FCD4
:10B1100018B1601E0CB0BDE8F0876548807A00F079
:10B120001400002867D09DF8100000069DF811104B
:10B1300040EA01409DF8121040EA01209DF81310EA
:10B14000084328609DF8140000069DF8151040EA99
:10B1500001409DF8161040EA01209DF817100843A1
:10B1600068609DF8180000069DF8191040EA01403B
:10B170009DF81A1040EA01209DF81B100843A860B2
:10B180009DF81C0000069DF81D1040EA01409DF846
:10B190001E1040EA01209DF81F100843E86004F1EA
:10B1A0001000C4B228680014009068680014019070
:10B1B000A86800140290E8680014039000984043C7
:10B1C000019901FB0100029901FB0100039901FBB8
:10B1D0000109B9F1706F02DBB9F1885F05DD02F09A
:10B1E000FFFC00203080401E94E7B6F9000040F4D8
:10B1F0008070308000BF2E48807A00F0400020B37D
:10B2000004A9601C085C095D40EA012000B2A8F8AE
:10B21000000004A9E01C095C04AAA01C105C41EA1F
:10B22000002000B2A8F8020004A9601D095C201DDE
:10B23000105C41EA002000B2A8F80400A01DC4B2CE
:10B24000B6F9000040F0080030801948408900F449
:10B25000C07008B304A9601C085C095D40EA0120C5
:10B2600000B2388004A9E01C095C04AAA01C105C90
:10B2700041EA002000B2788004A9601D095C201D0D
:10B28000105C41EA002000B2B880A01DC4B2B6F93B
:10B29000000040F0700030800548807A00F0030024
:10B2A00018B104A90819FFF737FD002032E70000A4
:10B2B000283D002001460248416000207047000000
:10B2C000283D002001460248016000207047000030
:10B2D000283D002030B585B0044616A207CA02AB4F
:10B2E00007C3C82C03DD4FF0FF3005B030BDC820C8
:10B2F00090FBF4F0401E85B2280A8DF80000E8B2F9
:10B300008DF801006A46022140F2162002F020FF6B
:10B3100010B14FF0FF30E8E702AA0C2140F6C1203F
:10B3200002F016FF10B14FF0FF30DEE704488481D1
:10B330000020DAE7FEF2ABC4AAF1DFDFBBAFDFDF4C
:10B34000283D002010B586B0044647A00068039051
:10B3500046A00068029046A00068019045A00068E1
:10B36000009004F0030003A9085C8DF8140003A802
:10B37000C4F3C101405C8DF8150003A8C4F381112A
:10B38000405C8DF8160004F0030002A9085C8DF8FB
:10B39000100002A8C4F3C101405C8DF8110002A89E
:10B3A000C4F38111405C8DF8120005AA032140F21C
:10B3B000264002F0CDFE18B14FF0FF3006B010BDB0
:10B3C00004AA032140F22A4002F0C2FE10B14FF05D
:10B3D000FF30F3E7019805900098049004F0040012
:10B3E00058B19DF8140040F001008DF814009DF84C
:10B3F000100040F001008DF8100004F0200058B15A
:10B400009DF8150040F001008DF815009DF8110021
:10B4100040F001008DF8110004F4807058B19DF8DF
:10B42000160040F001008DF816009DF8120040F063
:10B4300001008DF8120005AA03214FF4886002F084
:10B4400087FE10B14FF0FF30B8E704AA032140F2A5
:10B45000314002F07DFE10B14FF0FF30AEE70648FC
:10B4600004810020AAE700004CCD6C000CC92C0020
:10B470003656760026466600283D0020F8B505467B
:10B480000E464FF47A7095FBF0F000FB06F4200EA8
:10B490008DF80000200C8DF80100200A8DF80200C4
:10B4A000E0B28DF803006A4604214FF4AE7002F05A
:10B4B0004FFEF8BD38B50446052094FBF0F084B289
:10B4C00020128DF80000E0B28DF801006A460221DA
:10B4D0004FF4AD7002F03CFE38BD38B5044605208F
:10B4E00094FBF0F084B220128DF80000E0B28DF8E9
:10B4F00001006A4602214FF4AC7002F029FE38BD0B
:10B5000038B504460020009004F0010020B19DF8F9
:10B51000000040F03000009004F0020020B19DF8DF
:10B52000000040F00C00009004F0040020B19DF8F1
:10B53000000040F0030000906A4601214FF4A4701F
:10B5400002F006FE38BD38B50446012C01DA0124AC
:10B5500002E0042C00DD0424601EC0B200906A46A4
:10B56000012140F24F1002F0F3FD38BDF0B52DED92
:10B57000028B83B006460F4606F0070010B1B7F500
:10B58000C86F05DD4FF0FF3003B0BDEC028BF0BD9E
:10B5900000EE107AB8EE400ADFED5B0A80EE208AFA
:10B5A00001A802F0BDF89DF80400022806D0042886
:10B5B00017D0082828D010284CD138E09FED530A26
:10B5C00028EE000ABCEEC00A10EE100A84B29FED0D
:10B5D000500A28EE000ABCEEC00A10EE100A85B22E
:10B5E0003BE09FED4C0A28EE000ABCEEC00A10EECC
:10B5F000100A84B29FED480A28EE000ABCEEC00A89
:10B6000010EE100A85B228E09FED440A28EE000AE9
:10B61000BCEEC00A10EE100A84B29FED410A28EE7B
:10B62000000ABCEEC00A10EE100A85B215E09FEDCC
:10B630003D0A28EE000ABCEEC00A10EE100A84B2E1
:10B640009FED390A28EE000ABCEEC00A10EE100A7F
:10B6500085B202E04FF0FF3096E700BF20128DF870
:10B660000800E0B28DF8090028128DF80A00E8B24F
:10B670008DF80B0006F00100A0B102AA02214FF4E0
:10B68000EA7002F065FD10B14FF0FF307CE70DF17C
:10B690000A0202214FF4927002F05AFD10B14FF0ED
:10B6A000FF3071E706F00200A0B102AA02214FF4B8
:10B6B000EC7002F04DFD10B14FF0FF3064E70DF17A
:10B6C0000A0202214FF4947002F042FD10B14FF0D3
:10B6D000FF3059E706F00400A0B102AA02214FF49E
:10B6E000EE7002F035FD10B14FF0FF304CE70DF178
:10B6F0000A0202214FF4967002F02AFD10B14FF0B9
:10B70000FF3041E700203FE700004843000080464B
:10B7100000004046000000460000C0450000804593
:10B7200000004045000000450000C04438B5044614
:10B73000052094FBF0F085B228128DF80000E8B2E5
:10B740008DF801006A4602214FF4EF7002F000FD0F
:10B7500038BD38B50446052094FBF0F085B22812B8
:10B760008DF80000E8B28DF801006A4602214FF41E
:10B77000ED7002F0EDFC38BD014614480078144A23
:10B78000127890421DD011480078401C0F4A10706A
:10B7900010460078022801D1002010700D480B4A95
:10B7A000127850F8220008600B4A086812681044AA
:10B7B000094A10601046006820F07F4010600120A8
:10B7C00070470020086000BFFAE7000064380020DE
:10B7D000653800205C3800205838002070B50646D7
:10B7E0000C4615462B46224600213046FFF7E0F96D
:10B7F00070BD000010B510480068807E60B1062161
:10B800000120FEF75DFB044624B10B480068416946
:10B8100003208847002010BD0120074909684876A9
:10B8200001210846FEF74CFB04461CB100200249EA
:10B83000096848762046EEE7403800202DE9F843B5
:10B8400005460E461746984669461048006802F0BD
:10B8500032FD044614B90420BDE8F8831C212046BB
:10B86000FAF729FE012020712560C4F808800848F5
:10B870000068B6FBF0F0E060676169460348006865
:10B8800002F043FD05F05CFC0020E5E79C3303007B
:10B890009033030010B50446D4E90321501828DF83
:10B8A00010BD000013480078062820D11148001D63
:10B8B000007800F00F00D0B90E480830007800F092
:10B8C000F000302801D1012070470A480830007884
:10B8D00000F0F000402801D10120F5E705480830CC
:10B8E000007800F0F000502801D10120ECE70020A2
:10B8F000EAE70000E00F00F013480078062820D1A6
:10B900001148001D007800F00F00D0B90E48083033
:10B91000007800F0F000302801D1012070470A487B
:10B920000830007800F0F000402801D10120F5E750
:10B9300005480830007800F0F000502801D10120BF
:10B94000ECE70020EAE70000E00F00F01348007881
:10B95000062820D11148001D007800F00F00D0B952
:10B960000E480830007800F0F000302801D10120A6
:10B9700070470A480830007800F0F000402801D1F4
:10B980000120F5E705480830007800F0F000502865
:10B9900001D10120ECE70020EAE70000E00F00F011
:10B9A0000A48007806280ED10848001D007800F0EB
:10B9B0000F0040B905480830007800F0F00030284A
:10B9C00001D1012070470020FCE70000E00F00F0EB
:10B9D00006480068062806D10448001D00680628AD
:10B9E00001D1012070470020FCE700003001001069
:10B9F00013480078062820D11148001D007800F077
:10BA00000F00D0B90E480830007800F0F000302860
:10BA100001D1012070470A480830007800F0F0009A
:10BA2000402801D10120F5E705480830007800F0F2
:10BA3000F000502801D10120ECE70020EAE70000E7
:10BA4000E00F00F00A48007806280ED10848001DD3
:10BA5000007800F00F0040B905480830007800F089
:10BA6000F000302801D1012070470020FCE70000E1
:10BA7000E00F00F013480078062820D11148001D7F
:10BA8000007800F00F00D0B90E480830007800F0C0
:10BA9000F000302801D1012070470A4808300078B2
:10BAA00000F0F000402801D10120F5E705480830FA
:10BAB000007800F0F000502801D10120ECE70020D0
:10BAC000EAE70000E00F00F00A48007806280ED1EF
:10BAD0000848001D007800F00F0040B90548083004
