:020000040002F8
:1060000018D20020C1630200C9630200296802009F
:10601000CD630200CF630200D163020000000000E4
:10602000000000000000000000000000D363020038
:10603000D563020000000000D7630200D9630200AC
:1060400021690200DB63020009700200FD6B02009F
:10605000DB630200DB630200C1650200316A0200FB
:10606000DB630200A96F0200C16F0200DB63020064
:10607000DB630200DB630200DB630200DB63020020
:10608000DB630200FD690200DB630200DB630200E8
:10609000C56C0200DB630200CD6C0200DB63020012
:1060A000DB630200DB630200D96F0200F16F0200C4
:1060B00075690200DB6302000000000000000000C0
:1060C000DB630200DB630200DB630200DB630200D0
:1060D000DB630200DB630200DB6302000000000000
:1060E00000000000000000000000000000000000B0
:1060F00000000000000000000000000000000000A0
:10610000000000000000000000000000000000008F
:10611000000000000000000000000000000000007F
:10612000000000000000000000000000000000006F
:10613000000000000000000000000000000000005F
:10614000000000000000000000000000000000004F
:10615000000000000000000000000000000000003F
:10616000000000000000000000000000000000002F
:10617000000000000000000000000000000000001F
:10618000000000000000000000000000000000000F
:1061900000000000000000000000000000000000FF
:1061A00000000000000000000000000000000000EF
:1061B00000000000000000000000000000000000DF
:1061C00000000000000000000000000000000000CF
:1061D00000000000000000000000000000000000BF
:1061E00000000000000000000000000000000000AF
:1061F000000000000000000000000000000000009F
:10620000DFF80CD000F070F90048004729B7020011
:1062100018D2002030B450E8012F93B2C48923442F
:106220008489A34228BF1B1B0489A34202BFBFF37A
:106230002F8F002007E0C3EA020340E80134002C5E
:10624000E9D14FF001000A6030BC704750E8012FDF
:10625000C2EA024240E801210029F7D1704730B478
:1062600050E8022F1FFAA2F3C488A34202BFBFF373
:106270002F8F00200DE0C48923448489A34228BFC6
:106280001B1BC2EA034340E80234002CE8D14FF064
:1062900001000A6030BC704750E8022FC2EA224277
:1062A00040E802210029F7D17047034653E8022F46
:1062B000D988B2EB324F4FF0000017BF92B241EADB
:1062C000014142EA014104E05A68B2EB324F08BF93
:1062D000012043E80212002AE8D1704730B4044696
:1062E00054E8000F0D4644E80053002BF8D1156028
:1062F00030BC704730B4044654E8000F40EA010552
:1063000044E80053002BF7D1156030BC704730B41F
:10631000044654E8000F00EA010544E80053002B4E
:10632000F7D1156030BC704730B4044654E8000F14
:1063300080EA010544E80053002BF7D1156030BC1A
:10634000704730B4044654E8000F00EB010544E800
:106350000053002BF7D1156030BC704730B40446B1
:1063600054E8000FA0EB010544E80053002BF7D1DF
:10637000156030BC704770B404464FF0000054E81C
:10638000006F0D68AE4207BF44E80023012044E8D7
:1063900000630E60002B1CBF0020F0E770BC70474C
:1063A00030B4044654E8000F88422CBF451A054615
:1063B00044E80053002BF5D1156030BC7047000055
:1063C0000648804706480047FEE7FEE7FEE7FEE78F
:1063D000FEE7FEE7FEE7FEE7FEE7FEE7256D0200CB
:1063E000016202002DE9F05F0546002092469B46BF
:1063F00088460646814640241BE0284641464746DB
:10640000224600F02FF853465A46C01A914110D345
:1064100011461846224600F016F82D1A67EB0108BF
:106420004F4622460120002100F00DF817EB00092D
:106430004E41201EA4F10104DFDC484631462A46C5
:106440004346BDE8F09F202A04DB203A00FA02F11F
:10645000002070479140C2F1200320FA03F3194352
:1064600090407047202A04DB203A21FA02F00021F4
:10647000704721FA02F3D040C2F120029140084354
:106480001946704740EA01039B0703D009E008C999
:10649000121F08C0042AFAD203E011F8013B00F8E9
:1064A000013B521EF9D27047D2B201E000F8012B35
:1064B000491EFBD270470022F6E710B513460A4684
:1064C00004461946FFF7F0FF204610BD30B50446DC
:1064D0000020034600E05B1C934203D2E05CCD5CED
:1064E000401BF8D030BD0000064C074D06E0E068C8
:1064F00040F0010394E8070098471034AC42F6D30B
:10650000FFF782FE441D0300641D030070B58C1864
:1065100010F8015B15F0070301D110F8013B2A11B7
:1065200006D110F8012B03E010F8016B01F8016BA4
:106530005B1EF9D12B0705D40023521E0DD401F8A0
:10654000013BFAE710F8013BCB1A921C03E013F869
:10655000015B01F8015B521EF9D5A142D8D300209E
:1065600070BD000070B506460C461546094804701B
:10657000411C284600F01BF80E220649304600F068
:1065800085FB04E004480078012800D100E0F9E729
:1065900000BF70BD5CA80020042B002001463029FC
:1065A00003DB3A2901DC012070470020FCE7020EE2
:1065B0000A70020C4A70020A8A70C87070470000A4
:1065C0002DE9F04F89B00027002008904FF480702B
:1065D00007900126002412E0079805F0BFFE40B1A5
:1065E00000BF7B480068304018B1079805F0A8FE4E
:1065F000374376000798001D80B20790641C082C72
:10660000EAD34FF4BE7005F0A9FE50B14FF4BE704E
:1066100005F096FE47F0004708AA0121002005F08A
:1066200075FEF8B200B3012600241BE006EA07005D
:10663000B0B100BF674850F82400C0F30420804682
:1066400000BF644850F82400C0F301408146204652
:1066500002F0B0FB054615B149464046A84700BFC9
:106660007600641C082CE1D307F0004000287DD0A0
:10667000002006900590002505E04FF0FF3004A9AA
:1066800041F825006D1C002DF7D000BF00200690BA
:1066900000245FE05048005D0390039820F0C0099B
:1066A0004D480057401C002853D004A9484605F027
:1066B000C2FA00284DD003984FEA901A484602F0DB
:1066C00081FB804602F076FB0290029810B9BAF185
:1066D000030F3DD1BAF1030F03D105A9484605F0D8
:1066E000B5FA00BF00BF4FF0A041084600F5E061D9
:1066F00051F82910C1F3014800BF08A9484605F028
:106700009AFA8346BBF1000F02D0B8F1020F05D010
:10671000BBF1000F1BD1B8F1030F18D1BAF1030F71
:106720000FD1B8F1020F01D1032000E00220019047
:106730004846019905F047FD0698401CC0B20690F6
:1067400000BF029818B151464846029A904700BFD0
:1067500000BF641C042C9DD3069888B34FF0010839
:1067600003AA0121002005F0D1FD00E02DE0002565
:106770000BE003A850F8250008A951F8251088421D
:1067800002D04FF0000802E06D1C002DF1D000BFD8
:10679000B8F1000F02D00020069010E000250CE0B8
:1067A00003A850F8250008A941F8250005A850F8CD
:1067B000250004A941F825006D1C002DF0D000BF74
:1067C000069800287FF462AF00BF09B0BDE8F08FE3
:1067D0000463004010650040B0AD002010B51020EB
:1067E00005F0CDFC102000F041F81F2005F0C7FC9B
:1067F0001F2000F03BF81E2005F0C1FC1E2000F019
:1068000035F800240AE0074951F8240005F0B7FCE8
:10681000044951F8240000F029F8641C062CF2DB2E
:1068200000BF10BDA02A002000BF00BF00BF00BFF6
:1068300000BFBFF34F8F00BF00BF00BF0948006813
:1068400000F4E06008490843001D0649086000BFE5
:1068500000BF00BFBFF34F8F00BF00BF00BF00BF2E
:1068600000BFFDE70CED00E00000FA0510B504469E
:106870000021204605F0D6FC10BD10B504460121CC
:10688000204605F0CFFC10BD00BF00BF4FF0A04375
:106890001946D1F80425012383409343C1F80835F4
:1068A000012383401340C1F80C3500BF704700003E
:1068B00000F01F0201219140024A430942F82310CF
:1068C0007047000080E200E000F01F0201219140CB
:1068D0004209920002F1E022C2F800117047000064
:1068E00000F01F0201219140024A430942F823109F
:1068F0007047000000E200E010B5002807DA4A0700
:10690000140E054A00F00F031B1FD45403E04A077E
:10691000130E024A135410BD18ED00E000E400E02D
:1069200010B54FF4807005F083FA80B14FF4807099
:1069300005F087FA012005F08DFA0D48407930B94D
:1069400001200B49487108460168002088474FF430
:10695000827005F06DFA50B14FF4827005F071FA53
:10696000022005F077FA024801680120884710BD2F
:10697000D02C002010B50249024804F01BFC10BDC9
:10698000E02C002000C001403EB50A4A07CA8DE84D
:10699000070000226946084806F09CF9044600BF3B
:1069A000254625B100BF284600F01EFD00BF00BFF0
:1069B0003EBD0000A8150300F42A002013B5BDF861
:1069C00000000B490880BDF802004880BDF80400B3
:1069D0008880084607490860042088800A2088606B
:1069E0000020C86001230A22034806F0F7F91CBD05
:1069F000FC2A002004A80020F42A002010B5002062
:106A00000949086000210948C0F84411C0F848113C
:106A1000C0F84C1100200549C1F8000102493C3979
:106A200008600AF01DF910BD40110140001001403E
:106A3000FEB54FF4827005F047FE002837D04FF4C2
:106A4000827005F04BFE6C4890F82E0018B16A4831
:106A500090F82F0058B300208DF800006648406879
:106A6000019065480189ADF80810C06818B9002088
:106A70006149087412E06048008B5F49488308460A
:106A8000C06848600846008B08810020C86008463E
:106A900090F82E0010B9002005F02CFE5648016831
:106AA000684688470020544981F82F0000BF5248AB
:106AB00090F82E00002852D04FF4807005F004FEAC
:106AC00000284CD04FF4807005F008FE4A48408BF7
:106AD000494991F82D10884216DD4748408B4649B8
:106AE00091F82D10401A444948830A4612890B46F2
:106AF0005B8BD21A0B465B6803EB42000A4692F8A6
:106B00002D1005F0D9FD23E03B48408B3A4991F820
:106B10002D1088420FD13848C06860B10120364935
:106B200081F82F00002048830A4692F82D10D06883
:106B300005F0C2FD0CE03048408B2F4991F82D1034
:106B4000884205D101202C4981F82F00002048837C
:106B50004FF4827005F0C2FD042005F0CBFD4FF428
:106B6000887005F0B1FD70B14FF4887005F0B6FD86
:106B700000202149087402208DF8000008460168B1
:106B80006846884700BF4FF48A7005F09DFD38B114
:106B90004FF48A7005F0A2FD0020174908742AE01E
:106BA0001548456924E0B5FA85F64FF00040F040FD
:106BB0008543B00000F58C74204605F085FDB8B122
:106BC000204605F08BFD01208DF80000A4F58C70A7
:106BD000C0F3C7008DF80400A4F58C70012121EAF0
:106BE00090018DF80510044801686846884700BF89
:106BF000002DD8D100BFFEBD30AD002010B5024938
:106C0000024804F029FB10BDBCAD0020003000405C
:106C10002DE9F04100F02CF80020044621E0134952
:106C200051F8240001210A4600231D461E4600BFDC
:106C30004FF0A04C674641EA420C4CEA830C4CEA08
:106C4000052C4CEA064807F5E06C4CF8208000BFA4
:106C500000BF064951F82400012105F000FB601C2B
:106C60000446072CDBDBBDE8F08100000C2B002084
:106C70001FB5044B0FCB8DE80F006946024805F0A5
:106C800001FF1FBDCC150300B415030070B5044609
:106C90000D461646064850F8240006490860064886
:106CA000056006710549064805F00AFF70BD000041
:106CB0000C2B0020082B00204CA80020282B0020A3
:106CC000B415030010B509F0D5FE10BD10B505F0E0
:106CD00041FE10BD10B5044600210448006805F0CF
:106CE000BEFA00200249087010BD0000082B0020E9
:106CF000042B002070B504460D46012103480068AE
:106D000005F0ADFA01200249087070BD082B002083
:106D1000042B002001480249086070470090D0030E
:106D2000442D002010B502F05FFD28B18D48008889
:106D3000C0F304208C49086002F0AAFD10B18B4812
:106D40008B49486702F0CCFD30B18648E0380068D6
:106D5000C0F342308749086002F0ECFD28B1864854
:106D6000006820F080708449086002F0FBFD48B1A3
:106D70000020824908604FF08041C1F810017D4930
:106D8000091F086002F018FE18B103207949643128
:106D9000086002F029FE68B10520794908600120E9
:106DA00077497831086000207549083108603F2034
:106DB000091F086002F030FE002855D06948E03015
:106DC0000068704908606748E4300068091D086081
:106DD0006448E8300068091D08606248EC300068CB
:106DE000091D08605F48F0300068091D08605D48B3
:106DF000F4300068091D08605A48F830006861499D
:106E0000203108605748FC300068091D08605E4862
:106E10000068091D08605C48001D0068091D0860C5
:106E2000594808300068091D086057480C30006850
:106E3000091D08605448103000685249403108600C
:106E4000514814300068091D08604F481830006828
:106E5000091D08604C481C300068091D08604A483C
:106E600020300068091D086002F094FC30B13D48F4
:106E7000CC38006800F04F004449086002F0DEFCA6
:106E800040B14348006800F0010018B16FF0010004
:106E90003F49086002F014FD28B13E48006840F404
:106EA00080603C49086034487438006840F47000E1
:106EB00031497439086000BF00BF00BFBFF34F8F76
:106EC00000BF00BF00BF00BF00BF00BFBFF36F8F98
:106ED00000BF00BF00BF3048006800F00100E0B311
:106EE00001202E49086000BF2D4800680028FBD013
:106EF0002948006820F001004FF01021C1F80C0271
:106F000000BF274800680028FBD000202349086004
:106F100000BF234800680028FBD000BF00BF00BFAF
:106F200000BF00BFBFF34F8F00BF00BF00BF1248BC
:106F3000F038006800F4E0601A490843001D0E496B
:106F4000F039086000BF00BF00BFBFF34F8F00BF24
:106F500000BF00BF00BF00BFFDE7FFE7FFF7DAFE9D
:106F600010BD000024030010403501400DF0ADBA03
:106F700000C007403C050040FCED00E00C01004073
:106F80001056004020C5004024040010E40E0040CC
:106F9000000400403C1700400C12001004E50140C2
:106FA00000E401400000FA0510B50422024903483C
:106FB00004F0D2F810BD000000AD002000900040A9
:106FC00010B504220249034804F0C6F810BD0000C1
:106FD0000CAD002000A0004010B506220249034875
:106FE00004F0BAF810BD000018AD002000A0014068
:106FF00010B506220249034804F0AEF810BD0000A7
:1070000024AD002000B0014010B502490868804757
:1070100010BD0000D82C002002E008C8121F08C1D3
:10702000002AFAD170477047002001E001C1121F09
:10703000002AFBD1704700000146202908DA012010
:1070400088400A4A104008B1012070470020FCE740
:10705000402909DAA1F12000012202FA00F008B16A
:107060000120F2E70020F0E70120EEE7FC06FFBD7B
:1070700000BFEFF31081084672B67047F8B50746B7
:107080000D46C5B96946384607F07EFA044643F214
:107090000200844208D000BF264626B100BF304619
:1070A00000F0A2F900BF00BF9DF80000C0F340004F
:1070B00000B1F8BD00BF0021384607F0A5FA04462C
:1070C000BCB1112C15D00D2C04D11321384676DF1C
:1070D00004460EE00B2C0CD043F20200844208D090
:1070E00000BF264626B100BF304600F07DF900BF44
:1070F00000BF00BFDDE770B505460C4605B10CB911
:10710000002070BD287840082178B0EB510F01D0E5
:107110000020F6E70622611C681CFFF7D7F908B9C2
:107120000120EEE70020ECE7014601F0030008B97A
:10713000012070470020FCE7024650680068401EAE
:10714000084008B9012070470020FCE702460021F2
:1071500004E0505C08B101207047491C0629F8D3AF
:107160000020F9E710B50346D868884206D8881889
:10717000401E1C69A04201D8012010BD0020FCE780
:1071800010B504466CB10848C068A04209D806484A
:107190000069A04205D3204604F0BFF808B10120E1
:1071A00010BD0020FCE70000482D002070B504460B
:1071B0000D4604F24B20FFF7C9FF0646012D06D00D
:1071C000022D0DD0032D11D0042D19D113E0A0797B
:1071D00028B194F8240010B90EB1012070BD00BF91
:1071E000E07910B10EB10220F8E700BF207A08B1B3
:1071F0000320F3E700BF607A08B10420EEE700BF88
:107200000020EBE70146481C052290FBF2F302FB4D
:107210001300C0B2704710B501220221002001F016
:1072200071FB044600BF1CB1072C01D0204610BDE5
:1072300000BF07220221012001F064FB044600BFC9
:107240001CB1072C01D02046F1E700BF0A22002123
:10725000084601F057FB044600BF1CB1072C01D0C3
:107260002046E4E700BF0020E1E710B504462C21EA
:107270002046FFF720F9012020714020206144F2D0
:107280005060606110BD000030B5ABB0AC21684605
:10729000FFF711F902208DF8000000208DF80200A0
:1072A00005208DF803000221ADF84C100F49149110
:1072B00001218DF87C104021229144F250612391EC
:1072C0000B48299069460B4800F05BFB044600BF61
:1072D000254625B100BF284600F086F800BF00BF54
:1072E0000121044800F04AFB2BB030BDEC2A0020FD
:1072F00051D10200ACA5002070B50321064800F072
:10730000F9FB044600BF254625B100BF284600F022
:107310006BF800BF00BF70BDACA5002070B58CB08D
:1073200004460D461646002005E0C0F10F01615CE1
:107330000DF80010401C1028F7D30D2104A8FFF70A
:10734000BAF8002005E02A5CC0F10F0304A9CA5472
:10735000401C0328F7D3684646DF002005E0C0F153
:107360000F0208A9895C3154401C0328F7D30CB0E4
:1073700070BD000010B5044602480178204600F0B8
:1073800045FD10BDB02C002008B5009072B600BFBE
:107390001349096801F0010101B100BE00BF00BF3F
:1073A00000BF00BF00BF00BFBFF34F8F00BF00BFD3
:1073B00000BF0B49E439096801F4E061094A11434F
:1073C000091D074AE43A116000BF00BF00BFBFF3C8
:1073D0004F8F00BF00BF00BF00BF00BFFDE7000030
:1073E000F0ED00E00000FA053EB5044600200090F4
:1073F0000190029002946A46002144F20100FFF7D6
:10740000C3FF3EBD0146022900D101E001207047C3
:1074100000BF0120FBE7000010B503460C4600BF8B
:107420000B48807808B9082010BD00BF0AB90720B2
:10743000FAE70BB90720F7E71868007C08B10820C5
:10744000F2E71968002008744C744A6100BFEBE74A
:10745000E0AD002010B508F037F800200F490870A3
:1074600048700B20887000200D4908600D49087095
:107470000D4908701420FFF71BFA06211420FFF7AE
:107480003BFA1420FFF720FA002007F0F3FF07F083
:10749000EBFF06490860002010BD0000E0AD0020B1
:1074A000E82C0020F82C0020F92C0020EC2C0020E7
:1074B0002DE9F04104460E461746254600BF104808
:1074C000807810B90820BDE8F08100BF0CB9082011
:1074D000F9E7052E01D20720F5E7686908B9082009
:1074E000F1E7687C012801D1304600E000208046A9
:1074F0003B4642463146284609F062FBE3E700007E
:10750000E0AD002070B50446254600BF08488078ED
:1075100008B9082070BD00BF0CB1686908B908201F
:10752000F8E7002028740221284609F078FBF1E7EB
:10753000E0AD002010B50446204608F04DF810BD1F
:1075400070B5044625460E488068B0B1ADB9FFF766
:107550008FFD06460A4800680A49086008484068E6
:107560004FF0E021C1F804010020054988601EB9F0
:1075700000BF62B600BF00BF00BF00BF70BD00000B
:10758000ECAE002000E100E0F8B505460C461746D9
:107590002088001DB84201D90C20F8BD684679DF6B
:1075A000064600BF304600B1F7E700BF0320218840
:1075B00068542088401C2080192021886854208825
:1075C000401C208020884119BDF8000009F0E4FB30
:1075D0002188084420800020DFE770B504460D466E
:1075E000204604F023F870BD10B50446637903F01B
:1075F00003022179208803F033FF10BD10B5044643
:10760000207918B9204600F007F803E02046FFF77C
:10761000EBFF00BF00BF10BD2DE9FC4106463788D7
:107620004FF00008002244480178384600F004FC7E
:107630007079C0F3800028B90021304606F0E8FADE
:10764000BDE8FC8107F5807188B26B4601220721F5
:1076500006F0B0FB054645B12946384608F056FA13
:107660000021304606F0D4FAEAE7384603F03EFC43
:1076700004464FF6FF718C421BD1019803F086FB44
:1076800004464FF6FF70844213D02146384603F07B
:107690000BFC3846FFF76EFE58B9384608F0C8F9BB
:1076A0003846FFF767FE20B90021304606F0B0FAF1
:1076B000C6E74FF6FF70844215D106F023FD04465D
:1076C0004FF6FF70844208D10421384608F01EFAB4
:1076D0000021304606F09CFAB2E72146384603F016
:1076E000E3FB4FF0010807F5807188B222460721BD
:1076F00006F0D6FB054625B90121304606F088FA8A
:1077000017E0862D07D1384608F0C4F9012130462C
:1077100006F07EFA0DE02946384608F0F7F9002118
:10772000304606F075FAB8F1000F02D0204603F09B
:10773000C5FB00BF84E70000AD2C00202DE9F0411F
:1077400004460F46154615B90E20BDE8F08100200D
:10775000286000BF0CB90E20F7E700BF00BF20680B
:1077600008B90E20F1E700BF00BFE088C11700EBA9
:1077700091718910A0EB810109B10720E5E700BFF5
:10778000384600F0BFFAC6B2142E01D10520DCE75E
:107790002079B04201DC0420D7E7E188206806FBAD
:1077A000010028600020D0E72DE9FC41054688460D
:1077B0001646002437880020308095F82D0058B1F7
:1077C0003A463146404600F063FB044600BF20467F
:1077D00008B1BDE8FC8100BFA87850B13A463146F7
:1077E0004046FFF7D1FE044600BF204600B1F0E757
:1077F00000BFE87860B1E97848B23B46324641467E
:1078000002F0B0FC044600BF204600B1E1E700BF33
:10781000686868B1696891F900003B4632464146A4
:1078200009F099FA044600BF204600B1D1E700BF35
:10783000288900280EDD43460622022105F10800B2
:10784000CDE9006709F068FB044600BF204600B19F
:10785000BFE700BF288A00280EDD43460722032128
:1078600005F11000CDE9006709F056FB044600BFA2
:10787000204600B1ADE700BF288B00280EDD43464F
:107880001522142105F11800CDE9006709F044FB29
:10789000044600BF204600B19BE700BF286A58B1EC
:1078A0003B4632464146286A01F038FD044600BF97
:1078B000204600B18DE700BF686A58B13B463246AA
:1078C0004146686A03F09CFF044600BF204600B1B1
:1078D0007FE700BF95F82C0000280BDD3B463246C1
:1078E0004146284608F02EFA044600BF204600B163
:1078F0006FE700BF287858B13B46324641462846DC
:1079000003F0ECFF044600BF204600B161E700BF72
:1079100020465EE7F8B504460E4615460020009066
:107920002B466A463146204600F008F807460FB954
:107930000020F8BDBDF800002044FAE730B5044649
:107940000D4604B10AB9002030BD002103E0605C9F
:10795000401C084481B21088884203DC481C205C2B
:10796000984201D0A942F2DBA94201DB0020EBE7FB
:10797000881C1080605C401E80B2E5E780F8301003
:10798000704770B504460D4605B10CB90E2070BDA8
:1079900005F1780001F002FC08B90720F7E70020A4
:1079A000A0702C2205F17801201DFEF76BFD002050
:1079B00084F83000D5F8A4006063D5F8A800A0636F
:1079C0004FF6FF70A4F8480204F50D70C4F84402A5
:1079D00000214FF41470C4F84A12A4F84E12015555
:1079E000207810B9FF2084F8540004F15500C4F841
:1079F000340294F82400012804D1EE214FF40E70D3
:107A0000015303E01F214FF40E70015304F50E7271
:107A100004F155012846FFF7C7FE064600BF304671
:107A200000B1B4E700BF04F243104FF40F710851E6
:107A300094F82400012803D1EE21A4F8401202E0BA
:107A40001F21A4F840124FF40F70015904F5107271
:107A500005F13C00FFF7A8FE064600BF304600B126
:107A600095E700BF012151200155208B81B24820AC
:107A70000153012084F83C0000212164502001556D
:107A80006169616404F13C02002104F1540072DF79
:107A9000064600BF304600B179E700BF01202070E4
:107AA000304674E770B504460D462C222946201D49
:107AB000FEF7E8FC70BD70B504460D462E462088E2
:107AC000102804D0112807D026280FD109E021461C
:107AD000304605F0FBFB0AE02146304605F0C6FCC7
:107AE00005E02146304605F01CFE00E000BF00BF67
:107AF00070BD704770B504460E46207808B908205E
:107B000070BDA67000214FF41470C4F84A12A4F896
:107B10004E120155A07910B1A078012809D0E07962
:107B200010B1A078012804D0E07970B1A0780228C3
:107B30000BD1606B30B1012084F851020820616BD9
:107B4000884702E0002084F8510231462046FFF7C2
:107B50002DFBA070606BA0B1A078032802D0A078A4
:107B600004280ED1607960B194F8520248B900201F
:107B700084F85402012084F853020720616B88477F
:107B800002E0002084F85302182104F13C00FEF7C3
:107B900092FC012084F83C0004F12C0006F076FCF5
:107BA00020B194F82C105120015502E00121512000
:107BB000015594F8240060B104F12C0006F066FC35
:107BC00020B194F828105220015502E001215220E2
:107BD0000155002150200155A078052824D2DFE866
:107BE00000F01F030A11180004F13C01204608F0C0
:107BF0003BF9054619E004F13C01204608F01CF968
:107C0000054612E004F13C01204608F03FF9054624
:107C10000BE004F13C01204608F066F9054604E05B
:107C2000002084F8310000E000BF00BFA07898B1C8
:107C300004F13C0204F15400D4F8441272DF05460A
:107C40000DB128465CE794F8301094F8540073DFC7
:107C500005460DB1284653E7606B18B194F8310022
:107C6000616B884700204BE72DE9F041044600BFD7
:107C700014B90E20BDE8F08100BF1C2221461C482B
:107C8000FEF700FC1B481A490860206860B12068B4
:107C90007ADF05460DB12846ECE7164821680A68E8
:107CA00002604968416005E012487BDF05460DB17E
:107CB0002846DFE7002617E006EB86000E4901EBB9
:107CC000800700BF4FF6FF70388000BF0B4800EB05
:107CD000461078600A4A0021381DFFF79DFB0546D3
:107CE0000DB10320C6E7761C002EE5D00020C1E7C9
:107CF00018A90020AC2B002004A90020E4A8002033
:107D0000FD0D030010B50446204600F0B3F808B19D
:107D1000204610BD1420FCE710B50446204600F0B4
:107D2000A9F820B12146034803F013FF10BD00203D
:107D3000FCE7000044A9002070B504460D46034945
:107D400088682A46214602F09DFA70BD34A90020B9
:107D500070B504460D461646204609F099F808B954
:107D6000002070BD034951F824003246294602F034
:107D700089FAF6E74CA9002010B50446204600F029
:107D800079F820B12146034803F0E3FE10BD00203E
:107D9000FCE7000048A9002070B5044600252046F5
:107DA00000F068F850B12146054803F0D2FE0646BF
:107DB0000EB1022000E00120054600BF284670BD3C
:107DC00040A9002070B504460025204600F052F876
:107DD00050B12146054803F0BCFE06460EB1022014
:107DE00000E00120054600BF284670BD3CA90020E8
:107DF00010B51821044803F07CFE0446182C00D16D
:107E000010BDE0B2FCE7000034A9002070B50546C3
:107E10000C46204609F03CF850B1284600F02AF8FC
:107E200030B1044901EB8400294603F092FE70BD95
:107E30000020FCE74CA9002070B505460C4616460C
:107E4000204609F025F888B1284600F013F868B1FB
:107E500036B1074901EB8400294603F089FE05E0AD
:107E6000034901EB8400294603F01DFE70BD0000AC
:107E70004CA9002010B50446142C01DB002010BDD5
:107E80002146024803F065FEF9E7000038A900200A
:107E90002DE9FC4105460C46174620880930B842BA
:107EA00002D90C20BDE8FC8168466DDF064600BFA4
:107EB000304600B1F6E700BF0820218868542088CA
:107EC000401C20801B20218868542088401C208072
:107ED00020882844DDF801100160BDF8051081807C
:107EE0002088801D20809DF80000400818B90020DF
:107EF0002188685402E00120218868542088401CB1
:107F000020800020CEE7000070B503F0ADFF0446EE
:107F100000BF204600B170BD00BF00BF084D28461D
:107F20004FF0030C00DF00BF044600BF204600B145
:107F3000F1E700BF03F0B2FF04462046EBE7000084
:107F4000ACAC0020014600BF09B90E20704700BF4D
:107F5000014801600020F9E7CC2C002010B54FF05B
:107F6000FF3100203DDF044600BF204600B110BDB8
:107F700000BFB12100203CDF044600BF204600B115
:107F8000F5E700BF0448416901208847022004F05A
:107F900073FA0020EBE7000090AC002010B5054814
:107FA0000068416900208847FFF7D8FF0446204653
:107FB00010BD0000CC2C002010B588B00446202154
:107FC0006846FEF778FA0320ADF8000020788DF8B7
:107FD00002009DF80D0020F0200020308DF80D00EB
:107FE0009DF80D0020F0080008308DF80D000120EC
:107FF0008DF810008DF80C001720ADF8040001205A
:108000008DF813008DF812008DF811006088A21D04
:10801000694600F0DDFE08B010BD000030B585B047
:108020000546244B0FCB8DE80F0000BF15B90E207D
:1080300005B030BD00BF4FF6FF701F49888028682B
:1080400048610020487608760846406908B91B4810
:1080500048611948FFF776FF044600BF204600B18B
:10806000E6E700BF00BF01208DF812004FF659600F
:10807000ADF8100000BF104A921C04A90120A8DF2F
:10808000044600BF204600B1D2E700BF0A49684657
:1080900062DF044600BF204600B1C9E700BF0648C2
:1080A000FFF78AFF044600BF204600B1C0E700BFCB
:1080B0000020BDE70418030090AC00206796020082
:1080C00070B504460D4600BF04B970BD00BF2088DE
:1080D000502816D004DC102807D0112819D108E048
:1080E00051280AD0532814D10FE0204605F0E8F8B3
:1080F00010E0204605F0ACF90CE0204605F0BAFA95
:1081000008E0204605F0B4FB04E0204605F03AFA0A
:1081100000E000BF00BF00BFD7E7000070B5044615
:108120000426207B012802D0022822D109E001F098
:10813000D9FA05460DB9012602E0112D00D1062617
:1081400019E0607B142801DC607B08B905260FE08C
:10815000627B04F10E011248FEF794F9607B10492E
:10816000091F8861084607F0EDFE054605B901269E
:1081700001E0022600BF00BF012E0FD0207B314658
:1081800000F058F8054625B106480068416903200B
:1081900088470448006841690220884770BD000094
:1081A000BCAC0020CC2C002070B505460E4600BFAC
:1081B0001E48006820B11D48406808B1012000E059
:1081C000002000B970BD00BF184800F108014268E6
:1081D00028469047044600BF082C24D07CB90020D4
:1081E0001349096888760121022000F023F804462B
:1081F000CCB10F48006841690320884713E0002094
:108200000B49096888760621022000F013F804461D
:1082100024B1074800684169032088470448006882
:1082200041690220884700BFCCE70000ACAC0020C9
:10823000CC2C0020F0B587B004460D460327002063
:1082400001900290039004900320069020208DF866
:1082500014008DF815408DF816500E48C088ADF802
:10826000040002208DF806000020ADF8080006A8E2
:10827000039005A804900749888801A9AEDF064647
:1082800026B9BDF81800032800D00C26304607B0E8
:10829000F0BD000090AC002030B58BB0044634B186
:1082A000012C14D0022C13D0032C16D111E06846F7
:1082B000FEF7DBFF01208DF8000069460948FFF753
:1082C000F1FB00210848FFF737FD054606E005E011
:1082D00004E000BF002000BF00E000BF00BF0BB003
:1082E00030BD0000ACA5002035960200F8B505466B
:1082F0000F462888212833D006DC10280BD01128FF
:1083000029D013287BD13BE03B285BD0522848D0B2
:10831000562874D164E0072000F022FB044600BF19
:10832000264626B100BF3046FFF75EF800BF00BF0B
:10833000A8883449088008460188334803F011FDB5
:10834000044600BF264626B100BF3046FFF74CF872
:1083500000BF00BF54E04FF6FF702A4908804FE08D
:1083600000200090A88869468FDF044600BF26469B
:1083700026B100BF3046FFF737F800BF00BF3FE02F
:1083800000231A4685211F4800887FDF044600BF6E
:10839000264626B100BF3046FFF726F800BF00BFD3
:1083A0002EE000231A46194616480088B1DF04461D
:1083B00000BF264626B100BF3046FFF715F800BFC4
:1083C00000BF1DE0A888132176DF044600BF2646C3
:1083D00026B100BF3046FFF707F800BF00BF0FE02F
:1083E000A888132176DF044600BF264626B100BFC9
:1083F0003046FEF7F9FF00BF00BF01E0FFE700BF16
:1084000000BFF8BDE82A0020A0A5002070B50546F1
:108410000E462888102802D011282CD115E01748C4
:10842000006860B901F064F8044600BF34B1144834
:10843000006818B1204612490968884700BF0F48F4
:108440000068401C0D49086016E00C480068401E9A
:108450000A4908600846006860B9FEF7DCFE044679
:1084600000BF34B10648006818B1204604490968C5
:10847000884700BF00E000BF00BF70BDA82B0020F0
:10848000A42B002070B504460D462088102806D085
:10849000112808D012280ED0502810D107E020460D
:1084A00004F09CFE0CE0204604F0B8FF08E02046F3
:1084B00005F068F904E0204604F078FE00E000BF13
:1084C00000BF70BD2DE9F04104468846A58820888C
:1084D000102804D0112815D01A2847D116E006F02C
:1084E00069FF284606F0E0FD20B900BF0420FEF732
:1084F0007BFF06E0E07B012803D029461D4803F0FE
:1085000037FB33E0284606F079FF2FE0207A01217F
:10851000B1EB101F01DA012000E000200646207AAE
:108520000221B1EB101F01DA012000E00020074614
:108530008EB129460F48001D03F01AFB2FB12946C2
:108540000C48083003F014FB0FE0294609480830B6
:1085500003F0A9FA09E029460648001D03F0A3FA32
:1085600029460448083003F09EFA00BF00BFBDE86A
:10857000F081000040A9002070B504460D4600BF00
:108580000748007800B970BD00BF204602F068FBC4
:10859000204607F0C9FE204602F092F800BFF2E73D
:1085A000E82B002070B58EB004460E463E4B0FCB34
:1085B00009AD0FC500BF14B90E200EB070BD00BFCD
:1085C00000BF0EB90E20F8E700BF3068A061214659
:1085D00009A862DF054600BF284600B1EDE700BFED
:1085E00020788DF836000120ADF83400A21C0DA9CA
:1085F000A8DF054600BF284600B1DEE700BF202106
:1086000001A8FDF758FF0220ADF8040020788DF88E
:108610000600F420ADF808000120ADF80A008DF83E
:1086200010009DF8110020F0080008308DF81100AE
:108630009DF8110020F00400001D8DF811000120AC
:108640008DF815008DF81600608804F10C0201A960
:1086500000F0BEFB05460DB12846AEE7202101A87B
:10866000FDF729FF0320ADF8040020788DF80600FF
:10867000F420ADF808000120ADF80A008DF81000D4
:108680009DF8110020F0100010308DF8110001202D
:108690008DF815008DF816008DF817006088221DE2
:1086A00001A900F095FB88E7F417030070B50446B4
:1086B0000D4605B104B970BD2E462088102804D09F
:1086C000502807D057280FD109E02146304604F042
:1086D000BDFD0AE02146304605F080F805E0214660
:1086E000304604F065FF00E000BF00BF00BFE2E7D6
:1086F00070B50446204608F049FB0546C5F3400026
:1087000070BD70B50446204608F040FB054605F0F4
:10871000010070BD38B504F0DBF8044600BF254603
:1087200025B100BF2846FEF75FFE00BF00BF002056
:1087300000906946012003F0EFFF044600BF254684
:1087400025B100BF2846FEF74FFE00BF00BF6846B8
:1087500004F040F8044600BF254625B100BF284676
:10876000FEF742FE00BF00BF38BD000010B5024654
:108770000949885C00BF4FF0A0442146D1F8043578
:10878000012484409C43C1F80845012484401C40D6
:10879000C1F80C4500BF10BD0C16030010B504460F
:1087A0000249085D012103F094FD10BD0C16030081
:1087B00010B504460249085D002103F08AFD10BD92
:1087C0000C16030010B50146094B585C00BF4FF072
:1087D000A044234600BFD3F80445C44004F001047C
:1087E0000CB1012000E00020024682F0010010BD23
:1087F0000C16030010B5002403E02046FFF7CEFF5F
:10880000641C042CF9D310BD10B5002403E02046ED
:10881000FFF7CEFF641C042CF9D310BD02464FF0C5
:10882000FF30002106E0054B5B5C934201D1084616
:1088300002E0491C0429F6D300BF7047101603005C
:108840002DE9F04106460F464FF00008002430465F
:10885000FFF7E4FF0446042C3ED20FB3012F02D0F1
:10886000022F38D130E004EB4400214911F8008098
:1088700004EB44000844407850B11E4A4FF40041D4
:108880001D480068FEF714FE05460DB9194806702C
:1088900004EB4400164908448078184908551AE04A
:1088A00015480068FEF72EFE1448005D04EB4401F5
:1088B0000F4A11448978884205D104EB44001146DF
:1088C000084490F8028006E004EB4400084908449C
:1088D00090F8018000BF00BFB8F1000F06D0084833
:1088E000006818B14046064909688847BDE8F0812C
:1088F000B8A800209C2B00201C1603009D2B0020F4
:10890000982B002030B503460020042B23D2012AE7
:1089100007D1012903D103F10E04E4B200E00024E1
:10892000224679B1012902D0022911D104E003EBDA
:1089300043040A4D2A550DE003EB4304074D2C4434
:10894000627007E003EB4304044D2C44A27001E085
:10895000072000BF00E0072030BD0000B8A80020BD
:1089600070B5044600250548007800F0010018B1F4
:10897000204600F005F80546284670BD902B0020E3
:108980002DE9F047044600260025DA48007820B19A
:108990000020D849087002F0CFFC182C7ED2DFE806
:1089A00004F00C16174A7EB2F6F4F3F2F1F0EFEE93
:1089B000EDECEBEAE9E8E7E6E5E402F0BDFCCE48E1
:1089C0000068FEF79FFD0646CC4804708DE100BFAD
:1089D0000020FFF7F7FE58B10020FFF7DFFE022C62
:1089E00002D14FF4E16001E04FF47A60054609E0FE
:1089F0000020FFF7DDFE022C01D1C82001E04FF47A
:108A0000C8700546BD4804704FF40040A5FB001037
:108A10004FF4FA73CF1840F100015A000023384692
:108A2000FDF7E0FC814600224946B3480068FEF7A6
:108A30003FFD064659E10020FFF7C4FE58B1002073
:108A4000FFF7ACFE032C02D14FF4487001E04FF465
:108A50007A60054609E00020FFF7AAFE032C01D149
:108A6000C82001E04FF4C8700546A44804704FF4D4
:108A70000040A5FB00104FF4FA728F1840F100017E
:108A8000520000233846FDF7ADFC814600224946DE
:108A900099480068FEF70CFD064626E124E1002017
:108AA000FFF790FE58B10020FFF778FE042C02D1AA
:108AB0004FF47A6001E04FF47A6005460AE0002046
:108AC000FFF776FE042C02D14FF4C87001E04FF49A
:108AD000C8700546894804704FF40040A5FB00109B
:108AE0004FF4FA73CF1840F100015A0000233846C2
:108AF000FDF778FC8146002249467F480068FEF772
:108B0000D7FC0646F1E00020FFF75CFE50B10020E4
:108B1000FFF744FE052C01D1C82001E04FF47A6034
:108B2000054609E00020FFF743FE052C01D1C820CF
:108B300001E04FF4C8700546704804704FF40040DF
:108B4000A5FB00204FF4FA73D71840F100015A003A
:108B500000233846FDF746FC814600224946664818
:108B60000068FEF7A5FC0646BFE0B8E0B6E0AAE064
:108B7000A1E098E092E05FE05DE05BE059E057E063
:108B800051E042E033E024E015E00EE0FFE7002092
:108B9000FFF7ECFD59480470002240F6CD415648DD
:108BA0000068FEF785FC06469FE00020FFF700FE08
:108BB0005248047099E001204E490870FFF7D6FD35
:108BC000002240F6CD414C480068FEF771FC064695
:108BD0008BE0012047490870FFF7C8FD00224FF4E1
:108BE000804145480068FEF763FC06467DE00120B1
:108BF00040490870FFF7BAFD002240F6CD413E48DB
:108C00000068FEF755FC06466FE001203949087000
:108C1000FFF7ACFD00224FF4804137480068FEF7B3
:108C200047FC064661E0FFF7EFFD344804705CE066
:108C300000BF00BF00BF00BF31480068FEF762FC04
:108C40000646C4F1110515B30EBB012D18D9A8B203
:108C5000C82148434FF4004180FB01104FF4FA72E1
:108C60008F1840F10001520000233846FDF7BAFB8F
:108C700081460022494622480068FEF719FC064654
:108C80000220FFF795FD01201E49087005E0022033
:108C9000FFF784FD00201B49087026E002F04CFB22
:108CA0001648047021E002F047FB0020FFF780FD2A
:108CB0001248047019E002F03FFB0120FFF778FD35
:108CC0000E48047011E002F037FB0020FFF770FD42
:108CD0000120FFF76DFD0948047006E000BFFFF7B3
:108CE00093FD0648047000E000BF00BF3046BDE8B9
:108CF000F08700008D2B0020141603008C2B002021
:108D000018160300942B002070B504460D46032C62
:108D100006D1A9200349086000BF002003F0ACFB86
:108D200070BD0000200500407CB50446204602F0DE
:108D3000DDF8054600236A46092105F04BF90528B0
:108D400005D10122024801782046FFF775F87CBD65
:108D5000C42B00207CB504460E460020019042F64C
:108D6000A620ADF8040001208DF806000748006831
:108D700000906A4601A92046A0DF05462DB90122D0
:108D8000034801782046FFF757F87CBD9016030092
:108D9000C52B002001468879012809D108790128CE
:108DA00006D1488842F60212904201D10120704754
:108DB0000020FCE70146024850F8210070470000FF
:108DC00060AD0020014601484056704790AD00203C
:108DD00070B590B006460C461546A07818B901202B
:108DE0008DF80E0002E0A0788DF80E002088ADF816
:108DF0000C0000200290607C02A907F0D7F9A07C4B
:108E00000DF1090107F0D2F9E07B08B1012000E083
:108E100000209DF80A1060F3C3018DF80A10207C31
:108E200008B1012000E000209DF80A1060F3041151
:108E30008DF80A10207B08B1012000E000209DF889
:108E40000A1060F300018DF80A10207D08B102209D
:108E500000E001209DF80A1060F342018DF80A102D
:108E60001C2109A8FDF727FB607BC0F3001018B98F
:108E7000607BC0F34010F8B100200090E07C0DF161
:108E8000010107F093F900BF9DF8000020F00F00EA
:108E9000401C8DF800009DF8000020F0F00010301C
:108EA0008DF8000000BF9DF8020020F00600801C35
:108EB0008DF80200CDF838D0607B8DF82400A07BBF
:108EC0008DF82500142104A8FDF7F5FA03A80490F5
:108ED00002A80590A088ADF81C00A06820B1E08829
:108EE000ADF81800A0680890A069002849D00020BB
:108EF0000190A0690088ADF82C00A0694088ADF809
:108F00002E00A06940680A9001A80D90A169087B15
:108F100001A907F04BF9A169487B0DF1050107F0A4
:108F200045F9A069807A08B1012000E000209DF891
:108F3000061060F3C3018DF80610A069C07A08B16D
:108F4000012000E000209DF8061060F304118DF868
:108F50000610A069007A08B1012000E000209DF809
:108F6000061060F300018DF80610A069807B08B13F
:108F7000022000E001209DF8061060F342018DF808
:108F80000610E06908B1E0690C902B4604AA09A913
:108F90003046AADF10B070BD2DE9F04104460D4601
:108FA0004FF6FF76304684420AD14FF4807128464E
:108FB00002F09FFD86B2B6F5807F10D126460EE006
:108FC000FF2C0CDC2146284602F07CFD80F00107D6
:108FD0000FB1204601E04FF6FF70064600BF304655
:108FE000BDE8F08170B505460DB9094C01E0084CAB
:108FF000083409E0204602F098F9064606B904E074
:1090000028467168884700BFF4E700BF70BD0000C4
:10901000DCAC002010B504462CB90120064948708C
:109020000020FFF7DFFF012C04D1012002498870E6
:10903000FFF7D8FF10BD0000D4AC002010B50446E7
:109040002078FDF7ABFA01280DD11F20FDF70EFCAB
:109050001E20FDF70BFC207830382949487029483C
:1090600006F08EFF4AE020784F2830D006DC4128F9
:1090700009D0422814D048283ED11BE061282DD0C9
:109080007A2839D131E01F20FDF7F0FB1E20FDF7D3
:10909000EDFB0A201A4948701A4806F071FF2CE0CF
:1090A0001F20FDF7E3FB1E20FDF7E0FB1020FDF77E
:1090B000EBFB22E01F20FDF7D9FB1E20FDF7D6FBBE
:1090C00005200F4948700F4806F05AFF00BFA078EE
:1090D000617840EA01200C4908600EE01F20FDF78E
:1090E000CCFB1E20FDF7C2FB07E01E20FDF7C5FBF1
:1090F0001F20FDF7BBFB00E000BF00BF10BD00005C
:10910000B82A00205C2D0020982A00202DE9F04785
:1091100082461F480068002836D01D480068056850
:1091200006F0A2F907461B4804682146384607F0B6
:1091300095FCC61C1848007808B906F0A7F9AE429D
:1091400001D2284600E03046044424F07F44204603
:1091500006F084F906F088F980463946404607F063
:109160007DFC00F103093946204607F077FC814574
:1091700009D906F079F9814606F070F92F2003F03D
:1091800003FD07F0B9FD01E006F09EF9BDE8F087A8
:10919000E82C0020EC2C0020FA2C002001468878D6
:1091A000012805D191F82000012801D10020704745
:1091B000886A042802D0486A042801D10020F6E712
:1091C0000120F4E72DE9FF4F03460C46002047E05D
:1091D000225CFF2A3ED0C2F3C01922F080014DF874
:1091E0002010B9F1000F0DD05DF8201000BF4FF036
:1091F000A0452E46012707FA01F5C6F8085500BF1D
:1092000000BF0DE05DF8201000BF4FF0A0452E46D6
:10921000012707FA01F5C6F80C5500BF00BF00BFD3
:109220005DF8201001252E460027BC46B84600BF39
:109230004FF0A04BDA4645EA460B4BEA870B4BEA68
:109240000C2B4BEA084E0AF5E06B4BF821E000BF0F
:1092500000BF03E04FF0FF314DF82010411CC8B2B1
:109260000428B5DB6D461A68002107E055F8217027
:1092700002F5AC6646F821704E1CF1B20429F5DB0C
:1092800000BFBDE8FF8F33B58BB0054600200090CE
:109290000C9878B100240BE021460CA802F059FC90
:1092A00028B1009A501C009001A820F81240641CBC
:1092B000142CF1D32C2269462846FDF7E3F80DB0B3
:1092C00030BD01460888062808DB0888B0F5486FDD
:1092D00006DD08884FF6FF72904201D007207047E4
:1092E0004888062808DB4888B0F5486F06DD4888BE
:1092F0004FF6FF72904201D00720F0E708884FF642
:10930000FF72904208D04888904205D008884A8869
:10931000904201DD0720E2E70020E0E72DE9F0417F
:1093200007460D46144698462088801D404502D9C0
:109330000C20BDE8F0813846FFF7C3FF064600BFAA
:10934000304600B1F5E700BF052021886854208829
:10935000401C20801220218868542088401C2080D6
:1093600022885119388807F017FD21880844208089
:1093700022885119788807F00FFD21880844208041
:109380000020D6E710B5044600BF2046FEF72CF8B3
:1093900000BF10BD30B587B01C216846FDF78BF8C3
:1093A000002000904FF4203001904FF47020029084
:1093B00003208DF80C000020ADF80E008DF8100091
:1093C00009480590094806906846FEF74DFC04469A
:1093D00000BF254625B100BF2846FEF705F800BFAF
:1093E00000BF07B030BD000081D1020085930200AC
:1093F000F8B505460C46607A88B9207A10B910484D
:10940000476801E00E4887682A4639466068FEF7DB
:109410004FF8064616B1304606F01CFB0EE0002061
:1094200020720748406948B101208DF80000ADF86E
:109430000250034841696846884700BFF8BD0000F4
:1094400018A90020F0B587B004460D4617461E4601
:1094500018220B4901A8FDF715F8ADF806408DF864
:109460000C50ADF80E708DF81060002205480178A0
:109470002046FEF7E1FC01A800F0FAFB07B0F0BDC2
:10948000B0170300AD2C002010B586B0044620882C
:1094900004F08AFB00BB2088FEF73EFC30B9208830
:1094A000012241F2060100F011F915E020880022A6
:1094B0000A490978FEF7C0FC02208DF800002088D8
:1094C000ADF8020000208DF8080000218DF8091089
:1094D000684600F0CDFB00BF06B010BDAD2C0020EB
:1094E00070B504460D4629462046FDF7C7FD70BD00
:1094F00010B5012200210846FFF704FA044600BF18
:109500001CB1072C01D0204610BD00BF072202214C
:109510000120FFF7F7F9044600BF1CB1072C01D06A
:109520002046F1E700BF042202210020FFF7EAF9FC
:10953000044600BF1CB1072C01D02046E4E700BF61
:109540000020E1E77FB506460C460020029003901C
:10955000ADF80840ADF80A40009001906A4602A9B3
:10956000304690DF054605B100BF284604B070BD07
:109570002DE9F04105460F460F4C0121204602F02F
:1095800039FB064600BF00BF00BF00BFBFF35F8FBF
:1095900000BF00BF00BF0EB9012000E0002040B1B5
:1095A000284602F08FF808B1BDE8F081024802F0C9
:1095B000E0FE00BFF8E70000BC2B002070B50646B7
:1095C0000D460EB1012070BD287920B1012809D0C7
:1095D000022813D10FE002202871284605F0BEFDB5
:1095E00004460DE0284600F069FD04460A2C01D12E
:1095F00041F61D5404E041F61D5401E00F2400BF64
:1096000000BF2046DFE7000038B500200090084882
:1096100000906846FEF702FD044600BF254625B1CE
:1096200000BF2846FDF7E0FE00BF00BF38BD0000C8
:109630009982020070B504460E461321204676DF5B
:10964000054670BD70B5044620793D2802D141F22F
:109650003D0001E04FF4885005462088002229464D
:1096600001F0FEFE70BD7047014614480078144AB0
:10967000127890421DD011480078401C0F4A10709B
:1096800010460078022801D1002010700D480B4AC6
:10969000127850F8220008600B4A086812681044DB
:1096A000094A10601046006820F07F4010600120D9
:1096B00070470020086000BFFAE70000F82C002087
:1096C000F92C0020F02C0020EC2C002070B5064670
:1096D0000C4615462B46224600213046FFF7B2FEC7
:1096E00070BD000010B510480068807E60B1062192
:1096F0000120FEF79FFD044624B10B480068416934
:1097000003208847002010BD0120074909684876DA
:1097100001210846FEF78EFD04461CB100200249D7
:10972000096848762046EEE7CC2C00202DE9F84366
:1097300005460E461746984669461048006802F0EE
:109740007AF9044614B90420BDE8F8831C212046A8
:10975000FCF7B1FE012020712560C4F8088008489C
:109760000068B6FBF0F0E060676169460348006896
:1097700002F08BF905F008FC0020E5E7CC180300A7
:10978000C018030010B50446D4E90321501828DF9F
:1097900010BD000013480078062820D11148001D94
:1097A000007800F00F00D0B90E480830007800F0C3
:1097B000F000302801D1012070470A4808300078B5
:1097C00000F0F000402801D10120F5E705480830FD
:1097D000007800F0F000502801D10120ECE70020D3
:1097E000EAE70000E00F00F013480078062820D1D7
:1097F0001148001D007800F00F00D0B90E48083065
:10980000007800F0F000302801D1012070470A48AC
:109810000830007800F0F000402801D10120F5E781
:1098200005480830007800F0F000502801D10120F0
:10983000ECE70020EAE70000E00F00F013480078B2
:10984000062820D11148001D007800F00F00D0B983
:109850000E480830007800F0F000302801D10120D7
:1098600070470A480830007800F0F000402801D125
:109870000120F5E705480830007800F0F000502896
:1098800001D10120ECE70020EAE70000E00F00F042
:109890000A48007806280ED10848001D007800F01C
:1098A0000F0040B905480830007800F0F00030287B
:1098B00001D1012070470020FCE70000E00F00F01C
:1098C00006480068062806D10448001D00680628DE
:1098D00001D1012070470020FCE70000300100109A
:1098E00013480078062820D11148001D007800F0A8
:1098F0000F00D0B90E480830007800F0F000302892
:1099000001D1012070470A480830007800F0F000CB
:10991000402801D10120F5E705480830007800F023
:10992000F000502801D10120ECE70020EAE7000018
:10993000E00F00F00A48007806280ED10848001D04
:10994000007800F00F0040B905480830007800F0BA
:10995000F000302801D1012070470020FCE7000012
:10996000E00F00F013480078062820D11148001DB0
:10997000007800F00F00D0B90E480830007800F0F1
:10998000F000302801D1012070470A4808300078E3
:1099900000F0F000402801D10120F5E7054808302B
:1099A000007800F0F000502801D10120ECE7002001
:1099B000EAE70000E00F00F00A48007806280ED120
:1099C0000848001D007800F00F0040B90548083035
:1099D000007800F0F000302801D10120704700200D
:1099E000FCE70000E00F00F00A48007806280ED1DE
:1099F0000848001D007800F00F0040B90548083005
:109A0000007800F0F000302801D1012070470020DC
:109A1000FCE70000E00F00F00A48007806280ED1AD
:109A20000848001D007800F00F0040B905480830D4
:109A3000007800F0F000502801D10120704700208C
:109A4000FCE70000E00F00F00278072A38D2DFE8D8
:109A500002F037040712222B340000220A7030E093
:109A600001220A7003898B818388CB81C2688A6056
:109A700000230B7425E002220A7003898B818388FE
:109A8000CB81C2688A60827D062A01D1012300E071
:109A900000230B7415E003220A70C3888B810389AD
:109AA000CB81C2688A600CE004220A70C3888B8173
:109AB0000023CB8100228A6003E005220A7000E0C7
:109AC00000BF00BF7047000070B50546002409E0E4
:109AD000064850F8240020B1044850F824102846C5
:109AE0008847641C042CF3D370BD0000F8AE00203E
:109AF00030B587B004460D462068806808B907B0C5
:109B000030BD182101A8FCF7D6FC0295A06806908C
:109B1000207910B1012815D109E001208DF8040049
:109B200020690390E0680490606905900BE00220D2
:109B30008DF804000749E0680968484303906069AC
:109B4000059000E000BF00BF2068816801A8884739
:109B500000BFD4E7C018030070B586B006460C46B7
:109B6000154684B3112C2ED0082C2CD01821684611
:109B7000FCF7A1FCADF80260304601F0B7F9ADF892
:109B800004000D2C14D103208DF800002DB128788D
:109B900000F0010008B1012000E002208DF808006B
:109BA00000218DF80C1041F20111ADF80A1006E009
:109BB00007208DF80000029400218DF80C106846F3
:109BC00000F06AF800BF06B070BD10B5044620462C
:109BD00000F062F810BD000070B50446608801F026
:109BE00085F9A080002505E0044850F8251020469E
:109BF00088476D1C002DF7D070BD0000B42B0020ED
:109C000070B50446A08801F0A1F86080002505E049
:109C1000044850F82510204688476D1C002DF7D0C9
:109C200070BD0000C82B002070B50546002405E07B
:109C3000044850F8241028468847641C022CF7D3A7
:109C400070BD0000D416030070B50546002405E081
:109C5000054850F8241028468847641C03480078BB
:109C60008442F5DB70BD000044AC0020F62B0020E0
:109C700070B50446608801F039F9A080002505E040
:109C8000044850F82510204688476D1C002DF7D059
:109C900070BD00006417030070B50546002405E0A0
:109CA000044850F8241028468847641C002CF7D03C
:109CB00070BD0000F0170300F0B5034600241FE05C
:109CC000124E306806689E4203D90668F61A06608E
:109CD0001AE006689B1B06683444002606600B4E9B
:109CE00035680A4FC6693E60C66846B10E1926F04F
:109CF0007F464660C66886601668C661156000BF0C
:109D0000024800680028DBD100BFF0BDE82C00202D
:109D100010B586B0044618216846FCF7CCFBA08934
:109D200000F0E6F9ADF804002078062867D2DFE8F5
:109D300000F066030405315000BF00BFA08900F0A9
:109D4000DCF918B9E08905F028FB10B3E08905F0CB
:109D500021FB8DF808002078032801D1012100E0C3
:109D600000218DF80910A1680391606830B90820BE
:109D70008DF8000001218DF8101007E009208DF802
:109D800000006168049101218DF81410684604F008
:109D9000A9F835E0A08900F0B0F9C8B1E089B8B9F8
:109DA000606838B90A208DF80000BDF8040004F09E
:109DB00077FA07E00B208DF800006068029001211F
:109DC0008DF80C10012012490870684604F08AF8DA
:109DD00016E0606818B913208DF8000007E0142021
:109DE0008DF800006068029001218DF80C104FF68C
:109DF000FF70ADF80400684604F074F800E000BF9E
:109E000000BF0348007808B104F0A6F906B010BD01
:109E1000D52B002038B505460E48007808B9022039
:109E200038BD4FF6FF70854201D10420F8E768463F
:109E300004F08CFF04460CB90820F1E705202070DF
:109E400001202071E580684604F090FF05F090F84D
:109E50000020E5E7FC2C002038B50D48007808B953
:109E6000022038BD684604F071FF04460CB9082092
:109E7000F7E706202070684604F078FF0548007870
:109E800010B101200349087305F072F80020E8E7DB
:109E9000FC2C0020CCAF002070B586B0142101A8A6
:109EA000FCF709FB2D48007828B101A8FFF70CFE4C
:109EB000002006B070BD2948001D01F068FE08B101
:109EC0000020F6E700F0D0F906460EB13046F0E784
:109ED00004F078FF03F0B2FD054625B1022D03D052
:109EE000062D0DD102E000BF0B20E2E701201B4947
:109EF00008700020486001A8FFF7E6FD0020D8E7C1
:109F000000BF00BF684604F021FF04460CB90820DA
:109F1000CFE7012020700C2D16D2DFE805F01506E2
:109F2000150715111512150A0E0B00BF0020207120
:109F30000BE000BF0320207107E00220207104E045
:109F400000BF0120207100E000BF00BF684604F0A0
:109F50000DFF05F00DF80020ABE70000FC2C002001
:109F600038B504460CB9052038BD6946204605F0D1
:109F700013F900B3BDF8000000EB80000F4901EBBE
:109F80008000C068A8B1A07A98B1BDF8000000EBCD
:109F9000800001EB8000C068401EBDF8001001EB9E
:109FA0008101064A02EB8101C8600020A0720025F1
:109FB00002E0062500E00A252846D5E7A4AF0020E8
:109FC0007FB514461D462B46224601A9684605F07A
:109FD0007FF804B070BD37B50C4615462B462246B7
:109FE0006946002005F074F83EBD37B50C461546AD
:109FF0002B4622460021684605F06AF83EBD02461F
:10A0000002B109B905207047106808600020FAE71E
:10A01000F8B504460D4604B10DB90520F8BD6946F2
:10A02000204605F0B9F8A0B16668BDF8001001EB54
:10A030008101094A02EB810101F10C00012101F0CB
:10A04000ADFD2E6060680C3068600120A0720020B9
:10A05000E4E70A20E2E70000A4AF002070B5044660
:10A060000D460CB9052070BD032300222946204669
:10A0700007F044F9F7E770B504460D4602230022C5
:10A080002946204607F03AF970BD000070B5054634
:10A0900008480068042801D10C2409E00648054955
:10A0A000096840F821500121024801F077FD0024A1
:10A0B000204670BD082D0020F8AE00203EB50446B5
:10A0C0000A4B6A460021A01D05F002F8054635B985
:10A0D000064A9188019805F0D9F8054603E003483F
:10A0E00000210160416028463EBD0000182D00207F
:10A0F0000146A1F5404080B270470146B1F5404F9E
:10A1000005DB4FF6FE70814201DC01207047002024
:10A11000FCE710B50446E07FFF2808D0A07F18B107
:10A12000E07F02F069F802E0E07F02F070F80020C2
:10A130006077207204F10800D4E90021904710BD37
:10A1400010B504462078182802D1FDF751FE207082
:10A1500010BD10B504462078182802D1FDF748FE3E
:10A16000207010BD30B504461088C01C984201D93B
:10A170000C2030BD0220158848551088401C1080E6
:10A180000120158848551088401C108015884C55B2
:10A190001088401C10800020EBE770B504460D4687
:10A1A0004FF40E72115B0122D4F83402FDF7B2FBBA
:10A1B000064606B1357004F13C0204F50D7104F158
:10A1C000540072DF70BD00002DE9F04106460C46D8
:10A1D00015460027112C01D1012700E0002765B1A9
:10A1E0003A460A4801783046FDF726FE0022084824
:10A1F00001783046FDF720FE05E03A460448017834
:10A200003046FDF719FEBDE8F0810000CB2C0020A0
:10A21000C82C002010B54FF4405400F009F8034951
:10A22000086108460069001BC86010BD482D002069
:10A2300010B540F6F8700068401C18B94FF01020B7
:10A24000406902E040F6F870006803464FF0805025
:10A2500001694269581C08B1184601E002FB01F08F
:10A260000446204610BD000010B5FFF7D3FF0022C2
:10A270000249034801F0C6FE10BD0000D0180300DB
:10A28000482D0020F7B50D4617460DB90020FEBD3C
:10A290000026009868B1002409E02146684601F0D4
:10A2A00058FC18B1A0B23946A847761C641C142C7F
:10A2B000F3D33046EBE710B50446606804F0B0FD18
:10A2C00010BD00003EB500BF9DF8000020F00F005B
:10A2D000401C00909DF8000020F0F000103000902D
:10A2E00000BF102214A168467CDF044600BF25464B
:10A2F00025B100BF2846FDF777F800BF00BF00205A
:10A30000019002905020ADF80400A020ADF80600A6
:10A310000020ADF808004FF4C870ADF80A0001A89D
:10A320007ADF044600BF254625B100BF2846FDF769
:10A330005BF800BF00BF3EBD57454C502049204E42
:10A340004545442048454C500000000002464888DE
:10A35000064B1B88984208D1088840F6772398421C
:10A3600003D18888C01E024B18807047E82A00205D
:10A37000EA2A002070B50E490E4801F081FC04461F
:10A3800000BF254625B100BF2846FDF72DF800BFC8
:10A3900000BFF721074801F064FC044600BF2546D2
:10A3A00025B100BF2846FDF71FF800BF00BF70BDF4
:10A3B0004DA302008CA5002070B505460DB101200B
:10A3C00070BD1848007B18B100201649087301E0E1
:10A3D00000F0DEF81348007808281DD2DFE800F00E
:10A3E0001C04080C101C141800F03EF8044615E07C
:10A3F00000F0BCF8044611E000F098F804460DE0C7
:10A4000000F046F8044609E000F02CF9044605E0A7
:10A4100000F03AF9044601E00F2400BF00BF2046D7
:10A42000CEE70000CCAF00200D480089401C0C494D
:10A43000088100204880087300BF0DE000EB800118
:10A44000084A12F8211009B9012200E0002204494B
:10A450000A310A54411C88B20228EFDB7047000021
:10A46000CCAF0020A4AF002010B5084800F036F8AB
:10A4700040B900200549891E08704880486041F6AF
:10A480001D5010BD00F072F8FBE70000CEAF0020B9
:10A4900070B50F48458805EB85000E4901EB80003B
:10A4A000C06878B904200A49087005EB8500094A9C
:10A4B00002EB8000002301224168074801F07CFD87
:10A4C000044602E000F090F80446204670BD00000B
:10A4D000CCAF0020A4AF0020482D002010B50146CD
:10A4E0000022002018E00F4B1B5C9BB100240D4B99
:10A4F0001C5400EB80030C4C04EB8303DB684BB96A
:10A5000000EB800304EB83031B7C012B02D108804A
:10A51000012203E0431C98B20228E4DB00BF10468E
:10A5200010BD0000D6AF0020A4AF0020F8B50C4845
:10A5300044680C4800680B49898800EB81056088F5
:10A54000C01C86B20320064908700020B3000090AA
:10A55000084629464268044801F0CEFDF8BD0000D7
:10A56000CCAF0020102D0020482D002010B5074949
:10A570004888091D04F04EFE18B1FFF7D7FF0446C6
:10A5800002E0FFF785FF0446204610BDCCAF002057
:10A5900010B514480078082820D2DFE800F0041F26
:10A5A0001F0A1016171BFFF73FFF01200D49087007
:10A5B00015E000F075F802200A4908700FE000F07D
:10A5C00029F806200749087009E000BF072005495F
:10A5D000087004E001200349087000E000BF00BFDC
:10A5E00010BD0000CCAF002010B505200649087052
:10A5F0000220064988800846002301220168044899
:10A6000001F0DAFC10BD0000CCAF0020102D0020BE
:10A61000482D0020104908681049498801EB810144
:10A620000F4A02EB810149680B4A11600B494988C6
:10A6300001EB81010A4A02EB8101486006498988E1
:10A64000064A528802EB8202054B03EB820211811B
:10A650000221014A91807047102D0020CCAF0020CC
:10A66000A4AF002010B5062005490870498801EB09
:10A670008101044A02EB8101486803F0BDF910BD75
:10A68000CCAF0020A4AF002010B50720034908700C
:10A690000020486003F0C0F910BD0000CCAF0020DE
:10A6A000054A50684288D21C91B2044A92880A44F2
:10A6B000024B9A8070470000CCAF0020102D002084
:10A6C0002DE9F04186B00446A588208850282ED078
:10A6D00004DC352836D0362808D163E0522802D071
:10A6E0005428F9D103E0284600F0A0FF7BE01822AF
:10A6F00044496846FBF7C6FEADF80250284600F014
:10A70000F5FBADF80400BDF8040000F04DF900229F
:10A710003D4801782846FDF78FFB00223B48017831
:10A720002846FDF789FB6846FFF756FA5BE0A01D57
:10A73000FEF730FB28B10121284600F0B7FF06F0F4
:10A7400043FB50E00027A58804F10A063048017851
:10A750002846FDF75BFB00B945E000222C48017854
:10A760002846FDF769FBE088B0F5857F14D0E088C6
:10A7700090B9708801280FD1B18800222846A1DF46
:10A780008046B8F1000F06D1012701222148017847
:10A790002846FDF751FB00BF1FB90021284606F0EF
:10A7A00037F920E00027A58804F10A061948017846
:10A7B0002846FDF72BFB00B915E00022154801786B
:10A7C0002846FDF739FBE08840B9B088012805D15B
:10A7D000B07908B1012000E000200746394628463C
:10A7E00006F016F900BF00BF00BF00220A490B485F
:10A7F0000078FDF7ADFA00BF05F0FCF906B0BDE842
:10A80000F0810000A4160300C32B0020C22B0020FF
:10A81000C52B0020C62B0020DB750200C12B0020B9
:10A8200010B50446207858B9608800F0FFFE6088B3
:10A8300005F0D0F96088FEF777FA06F0C5FA00E077
:10A8400000BF00BF10BD000010B500F04FFCFDF7C9
:10A85000CFFA25490870FDF7CBFA24490870FDF7B7
:10A86000C7FA23490870FDF7C3FA22490870FDF7BB
:10A87000BFFA21490870FDF7BBFA20490870FDF7BF
:10A88000B7FA1F49087018480078182817D01748D9
:10A890000078182813D01648007818280FD01548CB
:10A8A000007818280BD014480078182807D01348CF
:10A8B0000078182803D008460078182801D1032012
:10A8C00010BD00BF00200F49086000BF00BF00BFDF
:10A8D00000BFBFF35F8F00BF00BF00BF00BF0120FC
:10A8E000094908700020EBE7C02B0020C12B002095
:10A8F000C22B0020C32B0020C42B0020C52B00201E
:10A90000C62B0020BC2B0020B82B00207CB50446B1
:10A910002078082840D1607A00283DD1207A01288B
:10A9200014D0072802D0082834D12BE0A08800F0EA
:10A930000DFA05464FF6FF70854206D001212846E4
:10A9400000F0B4FE2846FEF7EFF924E0A0886A463E
:10A95000012103F0FBF906469EB90198007880B109
:10A96000A08800F0F3F905464FF6FF70854207D046
:10A9700001220B4801782846FDF75EFA05F03AF906
:10A9800000BF08E007480068012802D1054801F02F
:10A99000F0FC00E000BF00BF06F016FA7CBD00002E
:10A9A000C22B0020BC2B00201CB50446044903C95F
:10A9B000CDE9000100226946204603F058FB1CBD8A
:10A9C000CC16030010B500F097FB01200149087078
:10A9D000002010BDCC2B00202DE9FC4781464846C5
:10A9E00000F084FA0546002600274FF003084FF0D8
:10A9F000010A4FF6FF7085420CD06A4608212846AE
:10AA000003F0A4F904462CB90198861D8788D0F874
:10AA1000008000BF00BF43463A4631464846B1DF9A
:10AA20000446042C01D1112415E0082C01D1002486
:10AA300011E00B2C0FD14FF0000A08F0020010B10A
:10AA40004FF0010807E006B927B1002600274FF0B4
:10AA5000030800E003240B2CDDD0BAF1000F00D175
:10AA60000B242046BDE8FC872DE9FC478046404684
:10AA700000F03CFA06464FF6FF70864203D143F2DF
:10AA80000200BDE8FC874FF001094FF0000A00BF4B
:10AA90004FF0000A4A46511C1FFA81F96B46082103
:10AAA000304603F087F904460CBB019D0320286063
:10AAB0002A1DA91D40462B68B2DF044634B9324630
:10AAC0000821304603F0ECF904460FE00C2C02D1CB
:10AAD0004FF0010A02E0052C00D100240821304685
:10AAE00003F0CEF9074607B1032400BF02E0072CAC
:10AAF00000D10C24BAF1000FCAD100BF2046C0E734
:10AB000010B50446044800884FF6FF71884201D012
:10AB100005F07CF810BD0000CE2B0020FEB50446E9
:10AB200002A80190204600F0E1F906466A4601219C
:10AB3000304603F00BF905460DB10020FEBD01982B
:10AB40000078FBE770B505464FF6FF760E48B3DF99
:10AB500004460CB1032070BD00BF4FF6FF720A48D7
:10AB600001882846AFDF044643F20300844204D143
:10AB700005480088401C0449088043F203008442D1
:10AB8000EBD02046E7E70000D02B002070B504464C
:10AB90000D46204600F01AF8A84201D9022070BDE7
:10ABA000A0884FF6FF71884201D0208808B90120A3
:10ABB000F5E70020F3E7024613468B4204D21868FB
:10ABC000401C08B1012070470020FCE701464A887C
:10ABD00001F10C0000EB820070473EB504460D46C3
:10ABE00020780221B1EB500F01D000203EBDB4F817
:10ABF0000100ADF80800E0788DF80A00A188ADF8F2
:10AC00000010A0798DF8020001AA69462846FCF7D9
:10AC100085FB032201A902A8FBF758FC08B9012013
:10AC2000E4E70020E2E7000070B504460D46142C6E
:10AC300003DA2046FDF71EF910B943F2020070BD99
:10AC400004EB8400054901EB4000D0F802102960B4
:10AC5000C188A980007AA8710020F0E7ACA9002083
:10AC600030B591B005462888102801D011B030BD0C
:10AC70002C22291D06A8FBF705FC4FF6FF749DF852
:10AC80001C000321B1EB500F35D003F09BF99DF868
:10AC90001C00400820B1012803D0022828D114E06C
:10ACA00000BF09E0049800F1110107A8FCF723FA9E
:10ACB00010B1BDF8144006E003AA05A9072003F06F
:10ACC0004BF90028EED100BF13E008E00498411CC6
:10ACD00007A8FFF782FF10B1BDF8144006E003AAF1
:10ACE00005A9072003F038F90028EFD100BF00E0E4
:10ACF00000BF00BF00BFBDF8180000EB8000124984
:10AD000021F81040BDF8180000EB800001EB400076
:10AD10000799C0F80210BDF82010C1809DF82210DC
:10AD200001724FF6FF7084420CD0BDF81800ADF8E8
:10AD30000200ADF8044000208DF800006846FEF7E0
:10AD400073FF00BF00BF91E7ACA9002070B50546B6
:10AD50004FF6FF70854200D170BD00240EE004EB79
:10AD60008400094931F81000A84205D12046FDF7BA
:10AD700081F808B12046EFE7601C84B2142CEEDBAA
:10AD80004FF6FF70E8E70000ACA900203EB505468D
:10AD90000C4603F017F90BE0BDF80800A04207D0FD
:10ADA0002846019900F00EF810B1BDF808003EBD2C
:10ADB0006A4602A9072003F0CFF80028ECD14FF62D
:10ADC000FF70F4E72DE9F04704460D4604F1110643
:10ADD00005F111071022691C601CFBF777FB48B9CD
:10ADE000601C00F08EFA28B1681C00F08AFA08B1E5
:10ADF000012000E00020824639463046FCF77BF90E
:10AE0000804630780221B1EB500F10D0307803210A
:10AE1000B1EB500F0BD038780221B1EB500F06D0B8
:10AE200038780321B1EB500F01D0012000E0002061
:10AE30008146B8F1000F02D0B9F1000F05D1BAF187
:10AE4000000F05D0B9F1000F02D10120BDE8F08755
:10AE50000020FBE70246108808B10120704700215E
:10AE600005E0901C405C08B10120F7E7491C082967
:10AE7000F7D30020F2E770B505460C462846FFF7E9
:10AE8000E9FF08B9002070BD28882188884201D0D8
:10AE90000020F8E70822A11CA81CFBF717FB08B943
:10AEA0000120F0E70020EEE7142804DA00EB80022E
:10AEB000014B23F812107047ACA9002070B506466C
:10AEC0003046FFF743FF0446304602F04AFF05468E
:10AED00045B9142C06DA4FF6FF7004EB8401024AE0
:10AEE00022F81100284670BDACA9002010B5044618
:10AEF000142C03DA2046FCF7BDFF10B94FF6FF70A3
:10AF000010BD04EB8400024931F81000F8E700009E
:10AF1000ACA900203EB5044603F054F810E00198B7
:10AF200000F146012046FFF7A6FF30B9019800F175
:10AF30002A012046FFF79FFF10B1BDF808003EBD73
:10AF40006A4602A9072003F007F80028E7D14FF668
:10AF5000FF70F4E770B504460D460A4860600A4881
:10AF600000F015FE58B901F00DFD074908741C23C7
:10AF70004FF4EE7205490648006800F048FD0020D5
:10AF800070BD0000C0180300D4B10020E8AF00205D
:10AF9000CC1803002DE9F04106460C460F272EB1D0
:10AFA0000020424948600120BDE8F081207930B19D
:10AFB00001280AD0022835D003286DD140E00120B5
:10AFC000207102F029FD074667E04FF000080025D8
:10AFD00019E005EB8500364911F82000022810D150
:10AFE000002005EB8501324A02F821004FF00108EC
:10AFF00005EB850102EB8101486802F0FDFC074684
:10B0000003E0681C85B2022DE3DB00BFB8F1000F3E
:10B0100007D10120254908700020486041F61D50E5
:10B02000C2E73AE0002020710220224988800846C9
:10B03000002301220168204800F0BEFF07462CE0F3
:10B04000002020711B49086802F0D6FC07461B4807
:10B0500045881848D0F8008005EB8500144901EBBD
:10B06000800040681349086005EB8500104901EB3A
:10B070008000C0F804800F48808805EB85010C4AE9
:10B0800002EB8101088102200A498880002005EB3B
:10B09000850102F8210000E000BF00BF27B10020B9
:10B0A000024948600E207FE700207DE7FC2C00204D
:10B0B000A4AF0020102D0020482D0020CCAF002090
:10B0C000024600210CE001EB8100074B33F8200021
:10B0D000904204D101EB810003EB80007047491CD2
:10B0E0000029F0D00020F9E704A900200020014940
:10B0F00008707047B82B00200020034908704FF6F5
:10B10000FF70024908807047CC2B0020CE2B002016
:10B1100010B5002407E004EB4401044A02EB81006F
:10B1200006F0C5F8641C042CF5D310BD94AA0020C9
:10B1300010B5044640212046FBF7BDF910BD0000C4
:10B140004FF6FF70024908800020024908607047EE
:10B15000F42B0020EC2B00202DE9F04704460E468E
:10B160009046002722E0384601F0CFFC05463846DD
:10B1700001F0D2FC81462046294642580AB10122FC
:10B1800000E0002282B14846D4F80413014009B11E
:10B19000012100E0002139B12946204601F0C1FC1F
:10B1A0002846D6E900219047781CC7B24745DADB2C
:10B1B000BDE8F08770B505460C464FF48871284607
:10B1C00001F0EDF868B14FF48871284601F0EEF80F
:10B1D000607900F0040020B1206810B101202168DE
:10B1E00088474FF48A71284601F0D9F868B14FF4C6
:10B1F0008A71284601F0DAF8607900F0080020B181
:10B20000206810B10220216888474FF48E712846CB
:10B2100001F0C5F868B14FF48E71284601F0C6F808
:10B22000607900F0100020B9206810B1002021687A
:10B2300088474FF48271284601F0B1F858B14FF4B5
:10B240008271284601F0B2F801202071206810B107
:10B2500003202168884770BD70B505460C464FF441
:10B260008C71284601F03AFC38B14FF48C712846B5
:10B2700001F03BFC2046FEF74CFF70BD0146034841
:10B28000007A08B1012070470020FCE7D4B100200B
:10B290002DE9F0410446A08800EB020CB4F80480CC
:10B2A000904501DD104600E0A088A8EB0005E0888D
:10B2B000C618B4F80680984501DD184600E0E0881D
:10B2C000A8EB00074888B4F80080404504DB4888B4
:10B2D000B4F80280404502DD0020BDE8F081888896
:10B2E000A84202D38888604501D90020F5E7C888C4
:10B2F000B84202D3C888B04201D90020EDE701204E
:10B30000EBE70246002104E0505C08B101207047E1
:10B31000491C1029F8D30020F9E7014601F0030089
:10B3200008B9012070470020FCE70146086808B111
:10B3300002680A607047000010B50848007850B1F4
:10B34000002405E0022C02D02046FDF727FA641CF9
:10B35000042CF7D301E0FDF74DFA10BD942B00202B
:10B3600010B501F001FC00200149887010BD0000FB
:10B37000D4AC0020F7210180172141800021017108
:10B380004171FB2181711B21C17170472DE9FE4F75
:10B3900081460F46924698460FB1002612E0684655
:10B3A00000F000FB6A460021484602F053FC009E74
:10B3B0002248007828B99DF8090010B90520BDE899
:10B3C000FE8F00BF52463146484605F0B3F80446AA
:10B3D000002221464846FEF7F7FE0D2C1CD005DC66
:10B3E000CCB1082C1AD00B2C1BD118E0112C04D096
:10B3F000A4F540500238A0B90FE03A461048017851
:10B400004846FCF719FD52460E4801784846FCF7BD
:10B4100013FD002507E000BF00BF00BF00BF2546A9
:10B4200001E0032500BF00BFB8F1000F04D0324691
:10B4300021464846FEF790FB2846C0E7C02C002076
:10B44000CA2C0020C92C002070B505460E46314696
:10B4500028467EDF0446042C00D11124204670BD0E
:10B4600070B504460D46164600BF0B4801782046CD
:10B47000FCF7CCFC70B1204602F096FB28B13246B6
:10B480002946204602F09AFB04E03246294620462F
:10B49000FEF71CF970BD0000AD2C00202DE9F04135
:10B4A000044688460A4801782046FCF7AFFC064669
:10B4B000084801782046FCF7A9FC074601233246DC
:10B4C00039462046FFF762FF0546BDE8F0810000DF
:10B4D000C92C0020CA2C002070B505460C46002659
:10B4E00024B121462846FFF7AFFF0646304670BD1F
:10B4F0002DE9F041064600274748D0F8008078E063
:10B5000016B13446E66947E04448007800EB400154
:10B510004248001D00EBC105001F0078401C3F4958
:10B520000870084600788978884202D100203B499B
:10B5300008706C68287801281AD0022802D00328E5
:10B5400017D107E0686805F0F7FA00B1012700207D
:10B5500020744EE007E030490868002101742E4A4B
:10B56000C169116000BF2C4800680028F3D140E099
:10B5700000E03EE000BF207C00B13AE0A8686060D7
:10B58000E868A0602869E0606869A06124480078E4
:10B5900008B10020606000BF224960680968401A55
:10B5A00020F07F402049884208D21E49606809681F
:10B5B00005F054FAA168084420600FE0194861685A
:10B5C000006805F04BFA0546A068A84203D9A068B8
:10B5D000401B206001E00020206000BF0020606070
:10B5E000A060012020740020E061204605F070FA80
:10B5F00000BF002E84D10948007808494978884264
:10B60000F8D11FB904480068404502D00120BDE8C8
:10B61000F0810020FBE70000E82C0020E0AD0020D6
:10B62000FB2C0020EC2C0020FFFF7F0070B586B0C3
:10B630000546002618216846FAF73DFFADF802508E
:10B640004FF6FF70854201D106B070BD2846FFF766
:10B65000C3F9044644B10B2C0FD0112C0BD0A4F528
:10B660004050023888B90FE00E208DF8000068467F
:10B67000FEF7B2FA0EE001260CE00F208DF8000074
:10B680006846FEF7A9FA05E004E02146284604F0E2
:10B6900013FA00BF00BF3246034801782846FCF782
:10B6A000CBFB00BFD0E70000C12B002070B50546E2
:10B6B0000C462246024801782846FCF7BDFB70BDC7
:10B6C000C02B0020F0B587B0044600260027204696
:10B6D000FFF7CAF9054645B1112D09D0862D09D0CD
:10B6E000A5F54050023880B901E0012712E011E0D1
:10B6F00001260FE018220B4901A8FAF7C3FEADF8A6
:10B70000064001A8FEF768FA04E02946204604F046
:10B71000D3F900BF00BF31462046FFF7C7FF3846C8
:10B7200007B0F0BD581603001CB500BF05F0E9FADC
:10B73000FBF754F8FBF728F9FBF76AFAFCF7E4FB90
:10B74000804600BF464626B100BF3046FBF74CFEA0
:10B7500000BF00BF03F0DFFAFCF7DCFF02F020FEC1
:10B76000FEF7B0FDFEF706FE04F038FBFDF74CFFD8
:10B77000FBF78AFDFDF70EFEFBF7BEFD00200090F3
:10B780000190002434E000252FE02CB905EB850062
:10B790004004000CADF80000012C05D105EB85003C
:10B7A0004004000CADF80200022C05D105EB850029
:10B7B0004004000CADF80400DDE90001FBF7FEF8E1
:10B7C00000BF142606B90FE000BF4FF47A7707B91F
:10B7D00006E0DFF828A04FEA87194846D04700BFA7
:10B7E000701E061EF1D100BF6D1C642DCDDB641CE4
:10B7F000032CC8DB01E004F093FDFCE7A115030076
:10B800002DE9F04105460E4614469846A888871C47
:10B810002088801C3844404502D90C20BDE8F081C6
:10B82000FE2F01D90C20F9E7781C2188705420885C
:10B83000401C2080FF20218870542088401C2080DC
:10B8400022889119288805F0A7FA218808442080C9
:10B85000A88800280DDDA86808B90720DEE7AA88B7
:10B8600023889819A968FAF70DFE2088A98808444A
:10B8700020800020D2E770B504460D4629462046B8
:10B8800000F020F980F0010600BF00BF00BFBFF349
:10B890005F8F00BF00BF00BF304670BD70B504466B
:10B8A0000D4600BF00BF00BFBFF35F8F00BF00BFEA
:10B8B00000BF2946204600F04CF970BD70B5044623
:10B8C0000D4600BF00BF00BFBFF35F8F00BF00BFCA
:10B8D00000BF2946204600F0E6F870BD2DE9F84F7C
:10B8E00005460F46144698462878012804D1687802
:10B8F00010B90720BDE8F88F2088801C404508D883
:10B900002878012807D12088801C697808444045A0
:10B9100001D90C20EEE72088A8EB0000801E86B23B
:10B9200000962188891CC81969467DDF814600BFC1
:10B93000484600B1DEE700BF2878022804D06878C6
:10B94000BDF80010884206DBBDF80000B04202DC02
:10B950004FF0090A0BE04FF0080A2878012805D1BA
:10B960006878B04202DC6878009000E00096BDF88C
:10B970000000FE2801D90C20BCE7BDF80000401CE7
:10B98000218878542088401C2080208807F800A057
:10B990002088401C20802088BDF8001008442080AA
:10B9A0000020A7E70EB50021009101910291044902
:10B9B000096800919DE80E0080E80E000EBD0000B1
:10B9C000BC2C002070B505460E464FF6FF70854230
:10B9D00001D1002000E0681C84B208E02146304616
:10B9E00000F0B7F808B1204670BD601C84B2FF2C8F
:10B9F000F4DD4FF6FF70F7E770B504462046FAF71E
:10BA000054FC05460DB1002070BD1120FCE710B5B7
:10BA1000044609B90E2010BD92FBF3F003FB102081
:10BA200008B10920F7E7216000206060A060A281D2
:10BA3000E38100BFEFE770B504460D462946204676
:10BA4000FAF7E8FB18B12A882168881870BD002031
:10BA5000FCE770B505460C4620886188884204D111
:10BA60002846FAF719FC012070BD0020FCE770B5EC
:10BA700004460D4629462046FAF7F1FB18B16A88BC
:10BA80002168881870BD0020FCE770B505460C469B
:10BA900020886188884204D12846FAF7D7FB012024
:10BAA00070BD0020FCE770B505460C4604F01F038E
:10BAB00001229A40D143620905EB820000F079F837
:10BAC000064670BD70B505460C4604F01F03012202
:10BAD00002FA03F1620905EB820000F080F804F03D
